:020000040800F2
:100000008006002001010008A7260008DD23000863
:10001000A5260008B1090008352C000800000000E2
:10002000000000000000000000000000372700086A
:10003000C1090008000000003527000869270008F2
:100040001B0100081B0100081B0100081B01000820
:100050001B0100081B0100081B0100081B01000810
:100060001B0100081B0100081B0100081B01000800
:100070001B0100081B010008B50900081B0100084E
:100080001B0100081B0100081B0100081B010008E0
:100090001B0100081B0100081B0100081B010008D0
:1000A0001B010008BD2700081B0100081B010008F8
:1000B0001B0100081B0100081B0100081B010008B0
:1000C0001B0100081B0100081B0100081B010008A0
:1000D0001B0100081B010008292C00081B01000857
:1000E0001B0100081B0100081B010008DFF80CD0F1
:1000F00000F04CFC004800476D35000880060020E9
:100100000648804706480047FEE7FEE7FEE7FEE7B1
:10011000FEE7FEE7FEE7FEE7FEE7FEE7BB27000897
:10012000ED000008202A04DB203A21FA02F0002129
:10013000704721FA02F3D040C2F1200291400843F7
:100140001946704740EA01039B0703D009E008C93C
:10015000121F08C0042AFAD203E011F8013B00F88C
:10016000013B521EF9D27047D2B201E000F8012BD8
:10017000491EFBD270470022F6E710B513460A4627
:1001800004461946FFF7F0FF204610BDF0B480EAA0
:100190000102D40F4200B2EB410F02D202460846E0
:1001A00011464A0042D0C30DDDB2C1F3C752AD1AA9
:1001B000202D35DAC1F3160141F4000204B1524298
:1001C000C5F1200602FA06F12A411044B3EBD05FD4
:1001D00023D0C4B1012DA0EBC35009DCF0BC4FF01B
:1001E000004202EAC352DBB200F5000000F012BB8D
:1001F000400000F1807000EBC350A0F1807040EA35
:10020000D170490009E0490841EAC071A0EBC35030
:1002100000F50000400800EBC350F0BC00F0F1BA5C
:100220006142012202EB4101001BF6E7F0BC70477E
:1002300081F00041AAE780F00040A7E780EA0102D0
:1002400010B502F00043400022D04A001FD0010E3A
:1002500001EB1261C0F35600C2F3560240F40000F5
:1002600042F40002A0FB022000047F39140400D0F5
:10027000401C50EA124001D44000491EC2B20C0694
:1002800004EBD010401C4008802A02D003E000207C
:1002900010BD20F00100002900DA0020184310BD35
:1002A00030B480EA010202F0004530F0004221F053
:1002B000004013D090B1C30DD40DC2F31601C0F3AA
:1002C0001600E41A41F4000140F400027D3491422A
:1002D00001D3641C00E04900002C02DA30BC00208D
:1002E00070474FF400000023914201D3891A034361
:1002F00040084FEA4101F7D151B1914202D14FF08C
:10030000004105E002D24FF0010101E06FF0010170
:1003100003EBC450284430BC00F073BA2DE9FE4F03
:10032000804681EA0300C00F0C46009021F0004196
:1003300023F00045B8EB0200A94105D24046214612
:1003400090461C460B46024623F00040104347D01F
:10035000270DC7F30A00C3F30A510290401A019017
:1003600040286BDAC3F3130040F4801B00989246D8
:1003700020B10023D2EB030A63EB0B0B0198594623
:10038000C0F14002504600F01BFA06460D465046AA
:100390005946019A00F023FA10EB0800614100244D
:1003A00087EA115284EAE7731A4340D0009A62B395
:1003B000019A012A4FEA075215DC001B61EB02018A
:1003C0004FF0004202EA0752CDE90042001C41F51D
:1003D000801132462B4600F05AFA03B0BDE8F08F88
:1003E00040462146F9E7001B61EB0201001C41F584
:1003F000801300185B412018A2F5001747EB03019A
:1004000040EAD570B6196D4111E06D084FEA360625
:1004100045EAC0754FEA0752001B61EB0201001C60
:1004200041F5801149084FEA300000195141324628
:100430002B4603B0BDE8F04F00F01ABA0098012235
:1004400040000023D0EB020263EBE07300982146EA
:100450004FEAE074B8EB000061EB0401E9E783F0D8
:1004600000435BE781F0004158E72DE9FE4F81EA48
:10047000030404F0004421F0004100944FF0000B0D
:1004800023F0004350EA01045ED052EA03045BD03B
:10049000C3F30A54C1F30A552C44A4F2F334019473
:1004A000A0FB0254C1F3130141F48011C3F3130301
:1004B00043F4801301FB024400FB034E840A970AB5
:1004C00044EA815447EA8357A4FB076802958D0AE2
:1004D00005FB07854FEA932C04FB0C542705029D6E
:1004E0004FEA065847EA1637B5EB08056EEB070CDE
:1004F000870E920E47EA811742EA8312A7FB020198
:10050000B6EB0B0164EB00042B0D43EA0C335E18D1
:1005100044EB1C50DA465146E7FB0201C5F31304D5
:100520004FEA0B3343EA14534FEA0432019C43EA87
:100530000603A4F10C040294009CCDE900B400F081
:10054000A6F903B0BDE8F08F00200146F9E72DE9D8
:10055000F04D81EA030404F0004B21F000451446FD
:100560004FF0000A23F0004150EA050220D054EA7F
:1005700001021DD0C5F30A570246C5F31303C1F3A8
:100580001300C1F30A5640F4801543F48013A7EB1F
:100590000608101BD64608F2FD3873EB050002D39F
:1005A00008F1010801E092185B41B8F1000F03DA8D
:1005B00000200146BDE8F08D00204FF48011064672
:1005C00084460EE0171B73EB050705D3121B63EB84
:1005D000050306434CEA010C49084FEA3000921823
:1005E0005B4150EA0107EDD152EA030012D082EAE2
:1005F000040083EA0501084305D0101BAB4106D275
:100600000122002306E000224FF0004302E06FF0D9
:10061000010253101AEB06004CEB085110EB0A00D4
:1006200041EB0B01BDE8F04D00F022B90EB5C10F52
:1006300080EAE0700844CA07002140F233438DE8A5
:100640000E000A460B4600F022F903B000BD0EB5BD
:1006500040F2334102910021CDE900110A460B46D8
:1006600000F015F903B000BD00F0004220F000409A
:10067000C10DC0F3160040F400007F2901DA00200C
:100680007047962903DCC1F19601C84001E0963914
:100690008840002AF4D04042704720F00040C10D4D
:1006A000C0F3160040F400007F2901DA00207047F3
:1006B000962903DCC1F19601C840704796398840FD
:1006C000704770B5C1F30A5201F000450024C1F330
:1006D000130140F2FF3341F480119A4201DA002005
:1006E00070BD40F233439A42A2F2334203DC5242DD
:1006F000FFF718FD00E090402C43F1D0404270BD60
:10070000C1F30A5210B5C1F3130140F2FF3341F4B3
:1007100080119A4201DA002010BD40F233439A4220
:10072000A2F2334203DC5242FFF7FCFC10BD9040C2
:1007300010BD30B50B46014600202022012409E0FF
:1007400021FA02F59D4205D303FA02F5491B04FA8A
:1007500002F52844151EA2F10102F1DC30BD2DE99D
:10076000F05F0546002092469B4688460646814635
:1007700040241BE02846414647462246FFF7D2FC6C
:1007800053465A46C01A914110D311461846224684
:1007900000F016F82D1A67EB01084F46224601209B
:1007A000002100F00DF817EB00094E41201EA4F1C6
:1007B0000104DFDC484631462A464346BDE8F09F47
:1007C000202A04DB203A00FA02F100207047914011
:1007D000C2F1200320FA03F3194390407047202A06
:1007E00006DBCB17203A41FA02F043EAE07306E059
:1007F00041FA02F3D040C2F1200291400843194669
:1008000070470029A8BF7047401C490008BF20F06E
:100810000100704710B4B0FA80FC00FA0CF050EA06
:10082000010404BF10BC704749B1CCF1200421FA87
:1008300004F411FA0CF118BF012121430843A3EB82
:100840000C01CB1D4FEA00614FEA102042BF00208F
:1008500010BC704700EBC35010440029A4BF10BC6B
:100860007047401C490008BF20F0010010BC7047D1
:1008700010B5141E73F1000408DA401C41F10001A8
:1008800092185B411A4301D120F0010010BD2DE9FF
:10089000F04D92469B4611B1B1FA81F202E0B0FAF6
:1008A00080F220329046FFF78BFF04460F4640EA65
:1008B0000A0041EA0B0153465A46084313D0114639
:1008C00053EA010019D0C8F140025046FFF72AFC54
:1008D00005460E46504659464246FFF771FF08430B
:1008E00005D0012004E020463946BDE8F08D002007
:1008F000054346EAE0762C4337430A986305E40A49
:10090000A0EB08000022FD0A44EA47540A3002D551
:1009100000200146E9E7010510196941DDE90845B4
:1009200000196941BDE8F04DA2E7C1F30A52C1F3D5
:10093000130140F2FF3341F480119A4202DA0020A1
:100940000146704740F233439A42A2F2334202DC3E
:100950005242FFF7E7BBFFF733BF000030B5041E7C
:1009600071F1000404DB4FF00044404264EB0101EC
:10097000141E73F1000405DB1C464FF00043524285
:1009800063EB0403994208BF904230BD064C074D0B
:1009900006E0E06840F0010394E80700984710344F
:1009A000AC42F6D3FFF7A6FB4836000868360008CD
:1009B000FEE70000014800F051B8000028010020C7
:1009C0007047704710B590F821100024022903D019
:1009D0000421816301243DE001680A6822F00E02CF
:1009E0000A6001680A6822F001020A601A4A016876
:1009F000914201D1012121E0174A1432914201D1E3
:100A000010211BE0144A2832914201D1891515E0CA
:100A1000114A3C32914201D189140FE00E4A503202
:100A2000914202D14FF4803108E00B4A6432914286
:100A300002D14FF4801101E04FF08071064A083A6C
:100A40005160012180F82110002180F82010416BB5
:100A500001B18847204610BD080002402DE9F05F33
:100A6000C16B0C6801680B68D0F840C0042202FA20
:100A70000CF2494DDFF824A1494E4A4FDFF828B166
:100A8000DFF828E122422CD05A072AD50A689206BC
:100A900003D40A6822F004020A600168A94201D165
:100AA000042219E0514501D1402215E0B14202D1A2
:100AB0004FF4806210E0B94202D14FF480420BE063
:100AC000594502D14FF4802206E0714502D14FF41E
:100AD000800201E04FF080622F4908394A60C16A04
:100AE0003BE04FF0020808FA0CF818EA040F4FF048
:100AF00000094FF0010235D05FEA837832D50B68E8
:100B00009B0605D40B6823F00A030B6080F82120B4
:100B10000168A94201D1022219E0514501D12022E8
:100B200015E0B14202D14FF4007210E0B94202D197
:100B30004FF400520BE0594502D14FF4003206E069
:100B4000714502D14FF4001201E04FF000721249DA
:100B500008394A6080F82090816A00291AD0BDE8DF
:100B6000F05F0847082505FA0CF5254212D01B074F
:100B700010D50B6823F00E030B6090F84010C36B88
:100B800002FA01F15960826380F8212080F82090F8
:100B9000016BE2E7BDE8F09F080002401C00024044
:100BA0003000024044000240580002406C00024005
:100BB00030B528B308C8134914221944B1FBF2F127
:100BC0008900C16310498163022141771A6843F6A5
:100BD000F0718A43D0E900142143D0E902452C4347
:100BE000214304692143446921438469214311431A
:100BF000196000214163012242770177084630BD28
:100C0000012030BDF8FFFDBF0000024070B5044672
:100C100000F0FEF80546601C02D004480078044449
:100C200000F0F6F8401BA042FAD370BD100000207F
:100C30002DE9F84FDFF8B891002409F1040A0AF110
:100C4000040B23460F270BF1040EC9E00125A54034
:100C50002A40AA427DD1674ED1F804C0ACEB060809
:100C6000B44532D014DCBCF1030F3AD009DCBCF13E
:100C7000000F2AD0BCF1010F1CD0BCF1020F31D102
:100C80001DE0BCF1110F17D0BCF1120F2AD119E0F1
:100C9000B8F5881F19D006DCB8F5803F15D0B8F537
:100CA000801F1FD111E0B8F5001F0ED0B8F5041F4A
:100CB00018D10AE0CB6815E0CB681B1D12E0CB68A9
:100CC00008330FE0CB680C330CE08B682BB1012BA1
:100CD0004FF0080303D0456104E0042302E00561FE
:100CE00000E00023FF2A01D8064601E000F10406D7
:100CF0004FEA840501D9A5F12005D6F8008007FA4E
:100D000005FC28EA0C0803FA05F548EA0508C6F8C8
:100D100000804D68ED0062D5374DAE6946F00106A2
:100D2000AE61AD6924F0030605F001050095334D71
:100D300006EB050CDCF80850A607360F07FA06F894
:100D400025EA0805DFF8B880404503D14FF00008D8
:100D500017E044E0DFF8AC80404502D14FF00108D5
:100D60000FE0DFF8A480404502D14FF0020808E010
:100D7000DFF89880404502D14FF0030801E04FF0C2
:100D8000040808FA06F848EA0508CCF808804D6817
:100D9000D9F80060ED034D4601D5164300E09643B7
:100DA0002E604D68DAF80060AD03554601D5164354
:100DB00000E096432E604D68DBF80060ED025D4672
:100DC00001D5164300E096432E604D68DEF80060C2
:100DD000AD02754601D5164300E096432E60641CB3
:100DE0000D682A46E5407FF431AFBDE8F88F00007A
:100DF00000040140000011100010024000000140FA
:100E000000080140000C01400010014000140140A6
:100E100001488068704700001000002070B5040091
:100E200025D094F83D00002520B984F83C50204698
:100E300000F0B8F8242084F83D002068016821F013
:100E4000010101602068016841F4004101602068EF
:100E5000016821F40041016000F03AFA4D4A6168EE
:100E6000914201D84C4900E04C49884201D201200E
:100E700070BD4B492368B0FBF1F15E6826F03F0678
:100E80000E435E606368934206D94FF496735943EC
:100E90004FF47A73B1FBF3F12368491C1E6A26F004
:100EA0003F06314319626168914210D84900401EE3
:100EB000B0FBF1F2521CC2F30B02042A01D204204F
:100EC00022E0B0FBF1F0401CC0F30B001CE0A26874
:100ED000F2B301EBC10303EB0116431EB3FBF6F3C0
:100EE0005B1C43F480431B0549D092B301EBC10264
:100EF00002EB0111401EB0FBF1F0401CC0F30B00EF
:100F000040F4804040F400402168CA694CF6FF7309
:100F10009A431043C861D4E907100143206802686E
:100F200022F0C00211430160D4E9030101432068AB
:100F3000826848F2FF339A4311438160D4E9050186
:100F400008432168CA6822F0FF021043C86001E02C
:100F50000EE016E02068016841F00101016025649F
:100F6000202084F83D00256384F83E50002070BDA9
:100F700001EB4106431EB3FBF6F35B1CB3E7012014
:100F8000C2E701EB4101401EB0FBF1F0401CC0F391
:100F90000B00B7E7A086010080841E0000093D0019
:100FA00040420F00F0B585B00025009501950295EF
:100FB00003950646294F0268294C12200321294B2C
:100FC000BA4219D1A26942F00802A261A269039152
:100FD00002F008020492C022CDE9002069461846BA
:100FE000FFF726FEE06940F40010E061E06900F4DC
:100FF0000010049005B0F0BD1B4FBA42FAD1A269AF
:1010000042F00802A261A269039102F00802049270
:101010004FF44062CDE9002069461846FFF708FE0C
:10102000E06940F48000E061E069114C00F4800068
:1010300004900E4820601020C4E901058020C4E916
:1010400003056561A5612046E561FFF7B1FD08B1C3
:10105000FFF7B7FC74636662CCE700000054004001
:1010600000100240000C01400058004044000240C3
:10107000280100200248816802781144816070478D
:1010800010000020074810B5016841F01001016010
:10109000032000F075F8002000F006F800F024F8B6
:1010A000002010BD0020024070B50D4D04464FF4E5
:1010B0007A712878B1FBF0F00A490968B1FBF0F0C9
:1010C00000F0ECFA48B9102C07D200222146501E3D
:1010D00000F036F800206C6070BD012070BD00008B
:1010E000100000201C0000200C4808B5816941F068
:1010F00001018161816901F001010091C16941F043
:101100008051C161C06900F080500090044841687E
:1011100021F0E06141F08061416008BD00100240B3
:1011200000000140002809DB00F01F02012191406E
:101130004009800000F1E020C0F800117047000075
:10114000F0B40E4B1B680C46C3F30223C3F1070532
:10115000042D00D90425191D072901D2002300E020
:10116000DB1E012606FA05F1491E214099409E40EA
:10117000761E16403143F0BC01F074BD0CED00E06A
:10118000064900F0070208684FF6FF03184040EADE
:101190000220034A10430860704700000CED00E095
:1011A0000000FA052DE9F0470F46050061D0434ED7
:1011B000306800F00700B84209D2306820F007001C
:1011C00038433060306800F00700B84251D12868D9
:1011D0003B4C810712D5400703D5606840F4E060BE
:1011E00060602878000703D5606840F46050606054
:1011F0006068A96820F0F000084360602878C007A4
:1012000028D06868012810D02168022810D08907EA
:1012100000292EDA616821F0030101436160FFF7C4
:10122000F7FD804641F288390DE021688903EFE738
:101230008901EDE7FFF7ECFDA0EB0801494502D974
:101240000320BDE8F0876068696800F00C00B0EB2F
:10125000810FEFD1306800F00700B8420BD9306839
:1012600020F0070038433060306800F00700B842D3
:1012700001D00120E5E72878400705D56068E968D6
:1012800020F4E060084360602878000706D56068B5
:10129000296920F4605040EAC100606000F038F82D
:1012A0006168084AC1F30311515CC84006490860EF
:1012B00006480068FFF7F8FE0020C2E70020024061
:1012C000001002402E3600081C00002014000020F0
:1012D0000448054900684968044AC1F30221515C89
:1012E000C84070471C000020001002403E36000835
:1012F0000448054900684968044AC1F3C221515CA9
:10130000C84070471C000020001002403E36000814
:1013100012A185B00FC98DE80F0014A0144A00680F
:1013200004905168134801F00C03042B10D0082BD3
:101330000ED1C1F38343C9031DF803000AD55168D8
:1013400004AAC1F34041515C0A4A5043B0FBF1F09A
:1013500005B0704708494843FAE700000203040556
:10136000060708090A0B0C0D0E0F101001020000F1
:101370000010024000127A0000093D002DE9F84FEC
:10138000040070D02078C04DC00749D06868C0F311
:101390008100012807D06868C0F38100022809D1C4
:1013A0006868C00306D52868800339D560680028BE
:1013B000E7D035E06068B0F5803F0BD010B1B0F5F4
:1013C000A02F11D0286820F480302860286820F4ED
:1013D000802002E0286840F480302860606890B186
:1013E000FFF716FD06460AE0286840F480202860D2
:1013F000F0E700BFFFF70CFD801B642873D8286856
:101400008003F7D50CE0FFF703FD064605E000BFBB
:10141000FFF7FEFC801B6428F0D828688003F7D40F
:1014200020789A4E80074FF001094FF0000839D517
:10143000686810F00C0F07D06868C0F381000228BC
:1014400009D16868C00306D42868800714D52069CC
:10145000012808D110E02069B0B1C6F80090FFF76C
:10146000D7FC074605E00AE1FFF7D2FCC01B0228C3
:10147000C4D828688007F7D52868616920F0F8008B
:1014800040EAC10028600DE0C6F80080FFF7C0FC0C
:10149000074604E0FFF7BCFCC01B022823D82868DD
:1014A0008007F7D4207800072CD57948A169D9B1F5
:1014B000C0F80090FFF7ACFC074604E0FFF7A8FC7B
:1014C000C01B02280FD8686A8007F7D571484FF40F
:1014D000FA510068B0FBF1F0009000BF0098411E87
:1014E0000091FAD20EE080E0C0F80080FFF790FC97
:1014F000074604E0FFF78CFCC01B022875D8686A19
:101500008007F7D42078400760D5E8690027C0003D
:1015100008D4E86940F08050E861E869012700F0EC
:10152000805000905C480168C90513D40168834667
:1015300041F480710160FFF76BFC824606E000BF5A
:10154000FFF766FCA0EB0A0064284ED8DBF8000029
:10155000C005F5D5E06801280AD008B1052813D0E8
:10156000286A20F001002862286A20F0040002E0C6
:10157000286A40F001002862E06841F2883B98B197
:10158000FFF746FC82460BE0286A40F00400286220
:10159000EEE700BFFFF73CFCA0EB0A0159455AD823
:1015A000286A8007F6D50CE0FFF732FC824605E09A
:1015B000FFF72EFCA0EB0A0159454CD8286A80079A
:1015C000F6D41FB1E86920F08050E861E06988B383
:1015D0006968C1F38101022944D00228C6F86080FD
:1015E00004D0FFF715FC044638E034E0FFF710FCA8
:1015F000074604E0FFF70CFCC01B02282BD8286824
:101600008001F7D4206AB0F5803F05D16868A168F1
:1016100020F4003008436860D4E908010843696891
:1016200021F4741108436860C6F86090FFF7F0FB7E
:10163000044606E025E000BFFFF7EAFB001B022896
:1016400009D828688001F7D51BE000BFFFF7E0FB51
:10165000001B022802D90320BDE8F88F286880010A
:10166000F4D40EE00128F7D06868226A00F48031D3
:10167000914204D1616A00F47010884201D00120C7
:10168000EAE70020E8E700000010024000004242C4
:10169000800442421C0000200070004010B5401E33
:1016A000B0F1807F01D3012010BD4FF0E0246061D4
:1016B0000F21601701F0D6FA0020A06107202061F9
:1016C000002010BD7047704710B590F83C20012AEB
:1016D00022D0012280F83C20CA688C6822F4407233
:1016E00022434C6822F4806222430C6822F4006298
:1016F00022430C6922F4805222434C6922F40052A6
:101700002243C969002322F480420A4301684A64E3
:1017100080F83C30002010BD022010BD70B590F85C
:101720003C20012A26D0012480F83C40022280F887
:101730003D2003685A689D6822F070060A683243AB
:101740005A600D4B02689A4208D0B2F1804F05D022
:101750000A4B9A4202D00A4B9A4204D1496825F0BA
:1017600080031943916080F83D40002180F83C10CF
:10177000084670BD022070BD002C014000040040EE
:101780000008004010B5040003D094F83D0010B1EB
:1017900007E0012010BD002084F83C00204600F046
:1017A0001FF8022084F83D00211D206801F00CF88C
:1017B000012084F8460084F83E0084F83F0084F855
:1017C000400084F8410084F8420084F8430084F823
:1017D000440084F8450084F83D00002010BD00005E
:1017E00008B5114A01681148914211D1816941F44B
:1017F000006181618069002200F400600090114660
:101800001920FFF79DFCBDE808401920FFF78ABCAE
:10181000B1F1804F07D1C16941F00101C161C069D7
:1018200000F00100009008BD002C014000100240B3
:1018300090F83D10012901D001207047022180F865
:101840003D100168CA6842F00102CA6000680B4995
:10185000884208D0B0F1804F05D00949884202D0B3
:101860000849884204D1816801F00701062903D0A4
:10187000016841F00101016000207047002C014027
:10188000000400400008004070B5044690F83C0099
:10189000012817D0012584F83C50022084F83D002F
:1018A0002068826822F0770222F47F428260086812
:1018B000502830D00DDC20284DD005DC98B31028FE
:1018C0003BD148E0022070BD302844D0402834D1BC
:1018D00039E0602828D0702806D0B0F5805F2CD081
:1018E000B0F5005F29D10AE0CB68D1E90121206879
:1018F00000F0ADFF2068816841F0770109E0CB6816
:10190000D1E90121206800F0A2FF2068816841F43C
:101910008041816011E0CA684968206801F04CF894
:101920005021206807E016E0CA684968206801F085
:1019300054F86021206800F094FF84F83D500020A6
:1019400084F83C0070BDCA684968206801F034F82A
:1019500040212068EFE7226801461046EBE7704718
:1019600070B50446006801694FF00005C943890756
:1019700015D4C168C943890711D4E91E016101204A
:101980002077206880698007204602D0FFF7E7FFB4
:1019900004E000F0E3F8204600F0A0F92577206885
:1019A0000169C943490717D4C168C943490713D41A
:1019B0006FF004010161022020772068806910F433
:1019C000407F204602D0FFF7CAFF04E000F0C6F8CF
:1019D000204600F083F9257720680169C94309078B
:1019E00016D4C168C943090712D46FF00801016118
:1019F000042020772068C0698007204602D0FFF7C6
:101A0000AEFF04E000F0AAF8204600F067F9257761
:101A100020680169C943C90617D4C168C943C9060A
:101A200013D46FF010010161082020772068C0698D
:101A300010F4407F204602D0FFF791FF04E000F051
:101A40008DF8204600F04AF9257720680169C943DE
:101A5000C90708D1C168C943C90704D1891E0161FA
:101A6000204600F08BF920680169C943090609D4B2
:101A7000C168C943090605D46FF0800101612046A1
:101A8000FFF720FE20680169C943490609D4C168EF
:101A9000C943490605D46FF040010161204600F0BA
:101AA00069FA20680169C94389060BD4C168C94332
:101AB000890607D46FF0200101612046BDE870401F
:101AC000FFF701BE70BD000000B585B00021009198
:101AD0000191029103910068B0F1804F11D10A4841
:101AE000816941F0040181618069694600F0040068
:101AF0000490032000900220019003900348FFF718
:101B000097F805B000BD0000001002400008014039
:101B100010B5044690F83C0001280AD0012084F852
:101B20003C0042B1042A0AD0082A0CD00C2A11D158
:101B30000DE0022010BD206800F09CFE0AE0206845
:101B400000F0C0FE06E0206800F0E8FE02E0206839
:101B500000F010FF002084F83C0010BD704710B565
:101B6000040003D094F83D0010B107E0012010BD3F
:101B7000002084F83C00204600F01EF8022084F883
:101B80003D00211D206800F01FFE012084F8460062
:101B900084F83E0084F83F0084F8400084F8410057
:101BA00084F8420084F8430084F8440084F8450037
:101BB00084F83D00002010BD704770B5044690F8D1
:101BC0003C000D4601280AD0012084F83C0042B1B7
:101BD000042A18D0082A2AD00C2A4DD139E0022034
:101BE00070BD206800F046FE2068816941F0080160
:101BF00081612068816921F0040181612068816927
:101C00002A69114311E0206800F05CFE20688169B8
:101C100041F4006181612068816921F48061816102
:101C2000206881692A6941EA0221816124E02068F3
:101C300000F074FE2068C16941F00801C1612068AC
:101C4000C16921F00401C1612068C1692A69114399
:101C500011E0206800F08EFE2068C16941F4006147
:101C6000C1612068C16921F48061C1612068C169D6
:101C70002A6941EA0221C161002084F83C0070BD5C
:101C800010B5040003D094F83D0010B107E0012026
:101C900010BD002084F83C00204600F01EF8022011
:101CA00084F83D00211D206800F08EFD012084F89D
:101CB000460084F83E0084F83F0084F8400084F831
:101CC000410084F8420084F8430084F8440084F81A
:101CD000450084F83D00002010BD704770470000AB
:101CE00010B50446022249B104290ED0082913D0A8
:101CF00094F84100012816D0012010BD94F83E0050
:101D00000128F9D184F83E200FE094F83F00012823
:101D1000F2D184F83F2008E094F840000128EBD18C
:101D200084F8402001E084F841200122206800F07E
:101D300081FD0F492068884203D1426C42F4004281
:101D400042642068884208D0B0F1804F05D009492C
:101D5000884202D00849884204D1816801F0070115
:101D6000062903D0016841F001010160002010BD87
:101D7000002C014000040040000800402DE9F05F05
:101D80007049704AD21E497891706F4A0068126893
:101D9000904273D16B486D4AC01E6D4C6D4D6E4FB5
:101DA000DFF8B8816E4E8068012969D0022965D1BB
:101DB0001146FEF7EBF92146FEF772FA2946FEF7C7
:101DC0003DFA3946FEF7E2F9FEF74EFC654C6083BA
:101DD000217F401A45B2A5772846FEF727FC8B469F
:101DE0000746C2464246B1463346FEF73EFB06462C
:101DF0008846606AFEF71AFC32464346FEF78EFAC2
:101E0000FEF75FFC8046606294F91800281AFEF71E
:101E10000DFC52464B46FEF79AFBFEF752FCA062C1
:101E2000FEF704FCD4E90423FEF71FFB06468A46AE
:101E30004046FEF7FBFBD4E90223FEF716FBD4E98C
:101E400000238046894638465946FEF70EFB424637
:101E50004B46FEF763FA32465346FEF75FFA0646F4
:101E600041480F460088FEF7F2FB32463B46FEF73C
:101E700055FA00BFFEF744FC20842576BDE8F09FAC
:101E80001146FEF783F92146FEF70AFA2946FEF7C6
:101E9000D5F93946FEF77AF9FEF7E6FB334C608355
:101EA000217F401A45B2A5772846FEF7BFFB8B4637
:101EB0000746C2464246B1463346FEF7D6FA0646C4
:101EC0008846606AFEF7B2FB32464346FEF726FAC2
:101ED000FEF7F7FB0646606294F91800281AFEF731
:101EE000A5FB52464B46FEF732FBFEF7EAFBA0622B
:101EF000FEF79CFBD4E90423FEF7B7FA81468A4635
:101F00003046FEF793FBD4E90223FEF7AEFAD4E99C
:101F100000230646884638465946FEF7A6FA32465A
:101F20004346FEF7FBF94A465346FEF7F7F90646E5
:101F30000F480F460088FEF78AFB32463B46FEF705
:101F40008EFA97E7030000206C0100200000B442E5
:101F5000000034430000FA440000FA437B14AE470B
:101F6000E17A943F500000200E0000202000002065
:101F70000C0000207047704770B502680446106876
:101F8000D168536910F00F0F52D003F0010501F42E
:101F900090762E435FD0C20705D0CA0503D5E26B09
:101FA00042F00102E263420705D5DA0703D0E26B93
:101FB00042F00202E263820705D5DA0703D0E26B42
:101FC00042F00402E263020707D501F020022A432F
:101FD00003D0E26B42F00802E263E26B002A33D0E6
:101FE000800604D5880602D5204600F049FD206809
:101FF0004069E16BC0F38010090700D428B3204684
:1020000000F030FD2068416949061AD5416921F088
:1020100040014161606BA0B12D494163606BFEF7E7
:10202000D1FC002810D0606B416BBDE870400847C0
:10203000830610D58B060ED52046BDE8704000F013
:102040001FBD2046FFF797FF70BD2046FFF793FFA7
:102050000020E06370BD03062BD50B0629D594F84C
:1020600039002128F6D1A068B0F5805F01D1206940
:10207000B0B1206A411C2162216800784860E08C80
:10208000401E0004000CE084E4D12068C16821F007
:102090008001C1602068C16841F04001C16070BD2D
:1020A000206A0088C0F308005060206A801C20620B
:1020B000E5E74006F3D54806F1D5D168204621F082
:1020C0004001D160202184F8391000F086F970BDFC
:1020D000552A000870B5040004D094F83900002592
:1020E00010B106E0012070BD84F83850204600F0A1
:1020F00023F8242084F839002068C16821F40051B5
:10210000C160204600F002FD2068016921F4904181
:1021100001612068416921F02A0141612068C1689C
:1021200041F40051C160E563202084F8390084F84F
:102130003A00002070BD000070B586B00024009405
:102140000194029403942B4E03682B49022003222E
:102150002A4DB34221D18B6943F480438B618B6953
:1021600003F4804304938B6943F004038B61896912
:10217000039201F0040104910102CDE900106946C7
:102180002846FEF755FD2815CDE900046946284686
:102190000294FEF74DFD06B070BD194EB342FAD160
:1021A000CB6943F40033CB61CB6903F40033049370
:1021B0008B6943F004038B618969039201F0040188
:1021C00004910421CDE9001069462846FEF730FD50
:1021D0000820CDE90004694628460294FEF728FD50
:1021E000002211462620FEF7ABFF2620FEF79AFFBD
:1021F000D1E7000000380140001002400008014013
:102200000044004090F83A30202B22D1F9B1F2B1CD
:1022100090F83830012B1CD081628285C285002164
:10222000C163222280F83A2080F838100168CA6819
:1022300042F48072CA6001684A6942F001024A6150
:102240000068C16841F02001C16000207047012092
:10225000704702207047000030B59DB00546262229
:102260002A490DA8FDF76EFF284CE08CADF85A0006
:10227000A06A1790A08DADF86000E08DADF8620007
:10228000092204F1300119A8FDF75CFF94F8390028
:102290008DF86D0094F83A008DF86E00E06B1C909C
:1022A0001BA00C90302211A96846FDF74BFF0DAC26
:1022B00094E80F0001F0A0F91949286809688842DC
:1022C00022D118480023C11C027822B1012A08D06B
:1022D000022A0BD00EE04278FF2A0BD10A700121AE
:1022E00002E042784A700221017004E04278FE2A3E
:1022F00000D18A7003701DB00A49BDE83040012248
:10230000491C0748FFF77EBF1DB030BDFC0100200F
:1023100068656C6C6F5F776F726C64210D0A0000EA
:102320003C020020000000202DE9F843044690F80C
:1023300039001F4616460D4620284CD1C5B1BEB106
:1023400094F83800012846D0012084F838004FF076
:102350000008C4F83C80212084F83900FEF758FDBD
:10236000A6848146E684A068B0F5805F03D004E0CF
:102370000120BDE8F883206928B12E465FF00005F2
:1023800084F838800EE00026FAE78021204600F02D
:1023900019FCA0B9AEB116F8010B21684860E08CB9
:1023A000401EE084E08C4B464FF00002009700286E
:1023B000EBD14FF04001204600F004FC30B1032087
:1023C000D7E735F8020BC0F30800E6E7202084F8D1
:1023D00039000020CDE70220CBE77047FEE7000080
:1023E000094808B5416941F0010141614069002295
:1023F00000F00100009011460E20FEF7A1FEBDE89E
:1024000008400E20FEF78EBE001002400D4808B5B1
:10241000816941F020018161816901F02001009111
:10242000816941F004018161816901F00401009139
:10243000816941F008018161806900F00800009025
:1024400008BD0000001002400D4810B50B490160A6
:102450000C49416000214FF480428160C0E90312C1
:1024600041618161C1610162FEF7D8FC002803D09F
:10247000BDE81040FEF7A5BA10BD000000540040B2
:1024800080000020A08601000D4810B50B490160B6
:102490000C49416000214FF480428160C0E9031281
:1024A00041618161C1610162FEF7B8FC002803D07F
:1024B000BDE81040FEF785BA10BD0000005800408E
:1024C000D4000020A086010010B596B000240F941F
:1024D00010941194129413941C2108A81494FDF7DD
:1024E0004AFE20216846FDF746FE2748254901603F
:1024F0004721C0E9011444F61F61C0E9031480219B
:10250000C0E90541FFF73EF908B1FEF75AFA4FF46A
:1025100080500F900FA91C48FFF7B6F908B1FEF7DD
:1025200050FA1948FFF71BFB08B1FEF74AFA13945B
:1025300013A915481494FFF7F1F808B1FEF741FA12
:10254000089409940A940B940C940D94002208A901
:102550000D480E94FFF7DCFA08B1FEF732FA00944A
:102560004FF40050CDE9044002940194039469466D
:1025700005480794FFF7A8F8002801D0FEF721FAD4
:1025800016B010BD002C01406C01002010B58EB0BB
:1025900000240794089409940A940B941C2168461B
:1025A0000C94FDF7E8FD22484FF08041016047217F
:1025B000C0E9011444F61F61C0E903148021816160
:1025C000FFF7E0F808B1FEF7FCF94FF480500790F0
:1025D00007A91748FFF758F908B1FEF7F2F91448B0
:1025E000FFF74EFB08B1FEF7ECF90B940BA910486E
:1025F0000C94FFF793F808B1FEF7E3F96020CDE9FA
:10260000000402940022694609480494FFF7D5FAB1
:1026100008B1FEF7D6F9042269460548FFF7CDFA5E
:1026200008B1FEF7CEF90248FFF74EFA0EB010BD22
:10263000B40100200C4810B50A4901604FF4E131A3
:102640004160002181600C22C160C0E904128161F7
:10265000C161FFF73FFD002803D0BDE81040FEF741
:10266000B0B910BD00380140FC0100200C4810B585
:102670000A4901604FF4E1314160002181600C2280
:10268000C160C0E904128161C161FFF723FD002828
:1026900003D0BDE81040FEF794B910BD00440040DF
:1026A0003C020020FEE7704770B51A48184A4FF008
:1026B0003331C0E90012194A1749C0E90212C0E9D2
:1026C0000412002101764162124C818340F2DC55F4
:1026D00005840F4A30344FF03330C4E90002C4E9B6
:1026E0000211C4E9041121760E4861620C490068A8
:1026F000FDF74CFD0C49FDF7D3FD0C49FDF79EFDA0
:102700000B49FDF743FDFDF7C8FFA083258470BD8D
:102710003333C33F20000020FCA9F1D24D62503F6B
:102720000000B44208000020000034430000FA44D6
:102730000000FA437047704710B540F2DC540121A5
:102740002246084600F05CF928B922460221012001
:1027500000F056F908B1012400E000244FF47A702B
:10276000FEF754FA204610BDFEF784BC30B58FB09A
:1027700028216846FDF7FFFC14210AA8FDF7FBFCA1
:1027800001210804CDE900100024029402250491DF
:10279000CDE907504FF4E01009906846FEF7EEFDD2
:1027A0000F20CDE90A056802CDE90C4002210AA8F4
:1027B0000E94FEF7F7FC0FB030BD70470148FFF7ED
:1027C000CFB800006C010020F0B50268164B174C22
:1027D000174D4FF08047984205D0B84203D0A04231
:1027E00001D0A84203D122F070064A6832439842D1
:1027F00005D0B84203D0A04201D0A84203D122F4B0
:102800004074CA6822434C6922F08002224302606D
:102810008A68C2620A688262984201D109690163CA
:1028200001214161F0BD0000002C01400004004086
:102830000008004010B501F01F030121046A99400F
:102840008C430462016A9A401143016210BD10B5C5
:10285000846842EA032224F47F440A4322438260CC
:1028600010BD826822F070020A4342F007018160C5
:102870007047000030B5026A22F001020262026A6B
:102880004368846924F073050C682C4322F0020528
:102890008A682A430A4DA8420BD122F00805CA686B
:1028A00023F440732A434D6922F004021D438B69CF
:1028B0002B434360846149684163026230BD00007C
:1028C000002C014030B5026A22F010020262026A56
:1028D000436884690D6824F4E64444EA05248D685D
:1028E00022F0200242EA05120B4DA8420ED1CD681B
:1028F00022F0800242EA05124D6923F4406343EA64
:1029000085038D6922F0400243EA850343608461B8
:1029100049688163026230BD002C014030B5026A13
:1029200022F480720262036A4268C46923F400736D
:1029300024F073050C682C438D6843EA05230C4D85
:10294000A8420ED1CD6823F4006343EA05234D6904
:1029500022F4405242EA05128D6923F4806342EA70
:1029600005124260C4614968C163036230BD000062
:10297000002C014030B5026A22F480520262046ADF
:102980004268C3690D6823F4E64343EA05238D6872
:1029900024F4005444EA0534064DA84204D14D699C
:1029A00022F4804242EA85124260C36149680164B0
:1029B000046230BD002C014010B5036A046A24F0A3
:1029C00001040462846924F0F00444EA021423F050
:1029D0000A020A438461026210BD10B5036A23F043
:1029E000100303628369046A23F4704343EA0232EA
:1029F00024F0A00343EA01118261016210BD0000CE
:102A000030B5012820D11148114D4FF4FA740368F4
:102A1000012907D0022917D140F2DC5082420DD3A0
:102A200002460EE040F6C410824201D3024602E0A4
:102A3000A24200D822465A632A8004E0A24200D86B
:102A400022469A636A80002030BD00006C0100209D
:102A50000C00002010B5406A0021C185C184FFF739
:102A60008AFA10BD0168CA6822F49072CA600168CF
:102A70004A6922F001024A61202180F83A10704729
:102A800010B590F83A10222901D0022010BD8268BA
:102A90004FF480539A4201D1016921B1816A9A426F
:102AA0001BD04AB10AE00268816A5268C2F3080288
:102AB0000A80816A891C08E0026972B10268526862
:102AC00002F07F020A70816A491C8162C18D491E31
:102AD0000904090CC18503D016E002685268F1E7C9
:102AE0000168CA6822F02002CA600168CA6822F43C
:102AF0008072CA6001684A6922F001024A6120219D
:102B000080F83A10FFF7A8FB002010BD70B504460E
:102B100000680169E26821F44051114301612169B3
:102B2000A0680843616908432168CA6841F20C63E0
:102B30009A430243CA6020684169A26921F4407146
:102B4000114341611E492068884202D1FEF7D0FB43
:102B500001E0FEF7BDFB00EBC00101EB0012606875
:102B600064218000B2FBF0F3B3FBF1F36FF01806C1
:102B70007343B2FBF0F5B2FBF0F605EB83053223AD
:102B800003EB0515B5FBF1F5B6FBF1F605F0F00525
:102B900005EB0615B2FBF0F6B2FBF0F0B0FBF1F07E
:102BA0006FF01802504306EB800003EB0010B0FBFF
:102BB000F1F0216800F00F002844886070BD00002B
:102BC000003801402DE9F041984617460E4604466C
:102BD000069D1DE0681C1BD02DB1FEF719F9A0EB76
:102BE0000800A84214D92068C16821F4D071C160DE
:102BF0002068416921F001014161202084F83900F9
:102C000084F83A00002084F838000320BDE8F08101
:102C10002068006836EA000004D00020B842D9D00D
:102C20000020F3E70120F9E70148FFF7A5B900000C
:102C30003C020020FEE700007CB5044600201D4653
:102C4000164600290BD0491ECDE90041044B6A46C7
:102C50002946304600F0E8F8009A002111707CBD4A
:102C6000573500080907090E002804DB00F1E020B1
:102C700080F80014704700F00F0000F1E02080F8A9
:102C8000141D704702E008C8121F08C1002AFAD1BB
:102C900070477047002001E001C1121F002AFBD1DC
:102CA000704700002DE9FF5F82B00021DDE90430AC
:102CB000020DDDF840B0034318D044F61050A2F2E4
:102CC000FF3242431514119801281FD0A5EB0B00C9
:102CD000401C5FEA000A4FF000064E4FDFF83891C3
:102CE000B046504615D5CAF1000413E011980124EE
:102CF0004AA3012801D16FEA0B010298119AC0E999
:102D00000031C0E9024206B0BDE8F09FCBF10000FF
:102D1000DFE704460021404A491842EB0450CDE960
:102D2000001012E0E00707D032463B4640464946D5
:102D3000FDF79BFB8046894632463B4610461946C6
:102D4000FDF793FB06460F466410002CEAD1DDE93F
:102D50000401DDE90023BAF1000F06DAFDF785FB77
:102D600042464B46FDF781FB05E0FDF7F0FB42468E
:102D70004B46FDF7ECFB04460E460022284BFDF7C0
:102D8000EDFD03D84FF0FF30014607E00022254B50
:102D900020463146FDF7C2FAFDF7C7FD102409E0D1
:102DA000002C0ADB0A220023FDF7D9FC039B3032FA
:102DB0001A55641E50EA0102F2D1641C039AC4F150
:102DC00011031444119A012A03D0012208430DD1A2
:102DD0000AE0084304D000204FF0110B119072E775
:102DE000A3EB0B056D1E0DE05B4504DD4FF000020B
:102DF00005F1010504E003DA4FF00002A5F1010539
:102E0000002AECD002981199C0E90231C0E90045CE
:102E100079E70000000014400000F03F300000009F
:102E20000000F0430000E03F2DE9FF4F95B09B46C6
:102E30008946064600250FE2252877D1002427463B
:102E4000F84A0121059400E0044316F8013F203BB5
:102E500001FA03F01042F7D130782A2811D06FF030
:102E60002F033078A0F13002092A16D8059A44F0D1
:102E7000020402EB820203EB42021044761C05902E
:102E8000EFE759F8042B0592002A03DA504244F484
:102E90000054059044F00204761C30782E2816D198
:102EA00016F8010F44F004042A280DD06FF02F0209
:102EB0003078A0F13003092B09D807EB870302EB28
:102EC0004303C718761CF3E759F8047B761C307867
:102ED0006C280FD006DC4C2817D068280DD06A2843
:102EE00014D104E0742810D07A280FD10DE044F4F6
:102EF00000140AE044F4801401E044F440147278B1
:102F0000824202D104F58014761C761C3078662843
:102F10000BD013DC582877D009DC002875D0452861
:102F2000F6D04628F4D047281AD19DE118E063284E
:102F300035D0642879D0652812D195E1702873D0F6
:102F400008DC6728F1D069286FD06E280DD06F2873
:102F500006D1B5E073282CD0752875D0782874D0A8
:102F60005A46179990476D1C75E1C4F30250022828
:102F700009D003280DD0D9F8001004280DD00D6019
:102F800009F1040967E1D9F80010EA17C1E9005214
:102F9000F6E7D9F800100D80F2E70D70F0E719F8A8
:102FA000041B8DF8001000208DF80100EA46012076
:102FB00003E059F804AB4FF0FF3061074FF0000118
:102FC00002D40DE008F101018846B9420FDA8045CC
:102FD000F8DB1AF808100029F4D108E008F1010123
:102FE00088468142FADB1AF808100029F6D10598C4
:102FF0005B46A0EB080721463846179A00F094FA82
:10300000284400EB080507E04DE029E10DE01AF83F
:10301000010B5A4617999047B8F10108F7D25B4661
:1030200021463846179A13E142E00A220092C4F37F
:1030300002524FF0000A022A08D059F804CB032AA2
:103040004FEAEC710AD00DE029E02AE009F107010E
:1030500021F00702F2E802C1914609E00FFA8CFC68
:103060004FEAEC71042A03D14FFA8CFC4FEAEC7161
:10307000002907DA0A460021DCF1000C61EB0201AD
:103080002D2202E0220504D52B228DF804200122F6
:1030900003E0E20701D02022F7E7904659E00A2139
:1030A00002E010220DE010214FF0000A00910BE029
:1030B00010224FF0000A44F004040827009203E0B5
:1030C00008224FF0000A0092C4F30252022A05D0EF
:1030D00059F804CB0021032A08D009E009F10701BF
:1030E00021F00702F2E802C1914605E01FFA8CFCCC
:1030F000042A01D10CF0FF0C4FF00008220728D55C
:10310000702806D0009B83F0100353EA0A0305D011
:103110000EE040228DF80420012208E05CEA010262
:1031200006D030228DF804208DF80500022290464A
:10313000009B83F0080353EA0A030AD15CEA010208
:1031400001D1620705D530228DF804204FF0010827
:103150007F1E582804D034A003900EA802900DE0E2
:1031600036A0F9E753466046009AFDF7F8FA844620
:103170000398825C0298401E029002705CEA010093
:10318000F0D1029806A9081A00F1200A600702D5BA
:1031900024F4803400E00127574502DDA7EB0A0044
:1031A00000E0002000EB0A01009005984144401A1D
:1031B0000590E00306D45B462146179A059800F077
:1031C000B3F90544002706E001A85A46C05D1799E7
:1031D00090476D1C7F1C4745F6DBE0030CD55B4632
:1031E0002146179A059800F09FF9054404E0302025
:1031F0005A46179990476D1C0099481E0090002967
:10320000F5DC08E0029802995A460078491C0291C0
:10321000179990476D1CBAF10001AAF1010AF1DC7F
:1032200065E100000928010030313233343536378A
:103230003839616263646566000000003031323302
:1032400034353637383941424344454600000000A2
:1032500000F058F90544761C307800287FF4ECAD76
:1032600019B02846BDE8F08F620700D4062709F19F
:10327000070222F0070CFCE80223E14603F00048B5
:103280005FEA080C02D00FF2702C0DE05FEA045CDC
:1032900002D50FF2682C07E05FEAC47C02D00FF27F
:1032A000602C01E0AFF2700C4FF0FF3823F00043C8
:1032B000CDF850C065280CD006DC452809D046283A
:1032C0001DD047283DD13DE0662818D067287ED123
:1032D00038E00021112F01DB112000E0781CCDE93E
:1032E000000106A90EA8FFF7DDFCDDE90F010E9A2B
:1032F00003910021009207F1010A04914DE04FF083
:1033000000400097CDE9011006A90EA8FFF7CAFCFE
:10331000DDE90F0203920E9B11990022DDF80CA04B
:103320000093049211B9791C00EB010AB7EB0A0073
:1033300004D4C0F1FF3007F1010A0490AAEB0700A2
:10334000019044E0012F00DA01270021112F01DD57
:10335000112000E03846CDE9000106A90EA8FFF7CC
:10336000A1FCDDE90F010E9A039100210491009266
:10337000BA4621070CD40399514500DA8A46BAF1BE
:10338000010F05DD009AAAF10101515C302908D036
:10339000B84202DA10F1040F06DA0121CDE901107A
:1033A00015E0AAF10101E9E7002805DC04990144D0
:1033B0000491AAEB000102E0411C514500DD8A4660
:1033C0000499401A401C01904FF0004002902007E1
:1033D00004D40198504501DBCDF8048000208DF81D
:1033E0004F0002980DF14F07B0F1004F25D02B2070
:1033F0000E9002984FF0020800280CDA404202902A
:103400002D200E9007E00A210298FDF792F9303145
:10341000029007F8011DB8F10001A8F10108F2DCE3
:1034200002980028EFD1791E0E980870307800F0CD
:10343000200040F0450007F8020D12A8C01B00F163
:1034400007081498007800B1012000EB0A010198E8
:1034500001EBE07105984144401A401E0590E003DD
:1034600006D45B462146179A059800F05DF805449E
:103470001498007818B15A46179990476D1CE003CC
:1034800024D55B462146179A059800F04DF805446F
:103490001CE00498002807DBDDE90301884203DD16
:1034A0000098405C179901E0179930205A469047E0
:1034B000049805F10105401C04900198401E0190FC
:1034C00004D12E205A46179990476D1CBAF100017D
:1034D000AAF1010ADDDC05E017F8010B5A4617993D
:1034E00090476D1CB8F10001A8F10108F4DC5B46BF
:1034F0002146179A0598ABE62D0000002B0000002E
:10350000200000002DE9F041044600251E46174624
:10351000880404D405E039462020B0476D1C641EA1
:10352000F9D52846BDE8F0812DE9F0410446002593
:103530001E469046C80301D5302700E020278804A6
:1035400004D505E041463846B0476D1C641EF9D5E8
:103550002846BDE8F0814A68002A06D00A68531C54
:103560000B6010704868401E48607047FDF78AFD88
:10357000FFF7FCF8FEF74AFFFEF732FFFEF764FFA5
:10358000FFF758F8FEF780FFFEF79EFFFEF7FEFFFD
:10359000FFF76CF81248FEF74BF900211148FEF7CF
:1035A0009FFB04210F48FEF79BFB01220E490F48A9
:1035B000FEF728FEFFF7C0F8FFF776F80A4C0C4D2F
:1035C0000C4E641EA078012807D00228FAD1328C54
:1035D00002210220FFF714FAF4E72A8C0121F8E710
:1035E0006C010020B4010020010000203C020020FA
:1035F00020000020500000200FB4642100B599B0D5
:103600006846FCF7B8FD2BAB642168462A9AFFF7A1
:1036100013FB82B24FF0FF3369461AA8FEF784FE0F
:1036200064216846FCF7A7FD19B05DF814FB0000A3
:103630000000000000000102030406070809000062
:1036400000000102030400006836000800000020AA
:1036500020000000842C000888360008200000208C
:1036600060060000942C000800000000000000002C
:103670000000000000000000010000001000000039
:08368000000000000024F4002A
:04000005080000ED02
:00000001FF
