:020000040800F2
:10000000A00500209D010008EB170008F516000868
:10001000E917000853090008611B000800000000F0
:10002000000000000000000000000000EF170008C2
:10003000310A000800000000ED170008F117000861
:10004000B7010008B7010008B7010008B7010008B0
:10005000B7010008B7010008B7010008B7010008A0
:10006000B7010008B7010008B7010008B701000890
:10007000B7010008B7010008B7010008B701000880
:10008000B7010008B7010008B7010008B701000870
:10009000B7010008B7010008B7010008B701000860
:1000A000B7010008B7010008B7010008B701000850
:1000B000B7010008B7010008B7010008B701000840
:1000C000B7010008B7010008B7010008B701000830
:1000D000B7010008491B0008551B0008B7010008BC
:1000E000B7010008B7010008B7010008B701000810
:1000F000B7010008B7010008B7010008B701000800
:10010000B7010008B7010008B7010008B7010008EF
:10011000B7010008B7010008B7010008B7010008DF
:10012000B7010008B7010008B7010008B7010008CF
:10013000B7010008B7010008B7010008B7010008BF
:10014000B7010008B7010008B7010008B7010008AF
:10015000B7010008B7010008B7010008B70100089F
:10016000B7010008B7010008B7010008B70100088F
:10017000B7010008B7010008B7010008000000003F
:10018000B7010008B7010008DFF80CD000F06CFBE5
:10019000004800473D350008A0050020064880477C
:1001A00006480047FEE7FEE7FEE7FEE7FEE7FEE75C
:1001B000FEE7FEE7FEE7FEE7791800088901000880
:1001C0002DE9F05F0546002092469B46884606468C
:1001D000814640241BE0284641464746224600F01F
:1001E0003EF953465A46C01A914110D3114618465B
:1001F000224600F025F92D1A67EB01084F462246EA
:100200000120002100F01CF917EB00094E41201ECF
:10021000A4F10104DFDC484631462A464346BDE8E6
:10022000F09F40EA01039B0703D009E008C9121FB1
:1002300008C0042AFAD203E011F8013B00F8013BA0
:10024000521EF9D27047D2B201E000F8012B491ECC
:10025000FBD270470022F6E710B513460A46044663
:100260001946FFF7F0FF204610BD2DE9F04D81EA59
:10027000030404F0004B21F0004514464FF0000A3F
:1002800023F0004150EA050220D054EA01021DD0BB
:10029000C5F30A570246C5F31303C1F31300C1F3B4
:1002A0000A5640F4801543F48013A7EB0608101B90
:1002B000D64608F2FD3873EB050002D308F10108B9
:1002C00001E092185B41B8F1000F03DA002001460B
:1002D000BDE8F08D00204FF48011064684460EE004
:1002E000171B73EB050705D3121B63EB05030643CE
:1002F0004CEA010C49084FEA300092185B4150EA81
:100300000107EDD152EA030012D082EA040083EA29
:100310000501084305D0101BAB4106D20122002382
:1003200006E000224FF0004302E06FF0010253109C
:100330001AEB06004CEB085110EB0A0041EB0B01E5
:10034000BDE8F04D00F0D2B80EB5C10F80EAE07004
:100350000844CA07002140F233438DE80E000A46E4
:100360000B4600F0D2F803B000BD0EB540F23341A9
:1003700002910021CDE900110A460B4600F0C5F8B4
:1003800003B000BDC1F30A5210B5C1F3130140F22E
:10039000FF3341F480119A4201DA002010BD40F28F
:1003A00033439A42A2F2334203DC524200F057F840
:1003B00010BD904010BD00F0004230F000400AD067
:1003C000C10D01F56071C0F3160042EA0151C20887
:1003D00040071143704700200146704701F0004379
:1003E00030B421F0004150EA010206D00A0DA2F516
:1003F0006072C1F31301002A02DC30BC0020704798
:10040000440F44EAC104C100E01830BC00EBC25004
:1004100000F035B830B50B460146002020220124FB
:1004200009E021FA02F59D4205D303FA02F5491BC2
:1004300004FA02F52844151EA2F10102F1DC30BDD8
:10044000202A04DB203A00FA02F100207047914094
:10045000C2F1200320FA03F3194390407047202A89
:1004600004DB203A21FA02F00021704721FA02F35E
:10047000D040C2F12002914008431946704700293C
:10048000A8BF7047401C490008BF20F0010070471A
:1004900010B4B0FA80FC00FA0CF050EA010404BF7A
:1004A00010BC704749B1CCF1200421FA04F411FAD0
:1004B0000CF118BF012121430843A3EB0C01CB1D14
:1004C0004FEA00614FEA102042BF002010BC704785
:1004D00000EBC35010440029A4BF10BC7047401C5F
:1004E000490008BF20F0010010BC704710B5141E71
:1004F00073F1000408DA401C41F1000192185B41DD
:100500001A4301D120F0010010BD2DE9F04D9246B3
:100510009B4611B1B1FA81F202E0B0FA80F22032CA
:100520009046FFF78DFF04460F4640EA0A0041EA75
:100530000B0153465A46084313D0114653EA0100B3
:1005400019D0C8F140025046FFF789FF05460E4614
:10055000504659464246FFF773FF084305D0012035
:1005600004E020463946BDE8F08D0020054346EA08
:10057000E0762C4337430A986305E40AA0EB0800B1
:100580000022FD0A44EA47540A3002D50020014601
:10059000E9E7010510196941DDE9084500196941DC
:1005A000BDE8F04DA2E72DE9FE4F804681EA030049
:1005B000C00F0C46009021F0004123F00045B8EB3D
:1005C0000200A94105D24046214690461C460B46F2
:1005D000024623F00040104347D0270DC7F30A001E
:1005E000C3F30A510290401A019040286BDAC3F31A
:1005F000130040F4801B0098924620B10023D2EBF8
:10060000030A63EB0B0B01985946C0F140025046B8
:10061000FFF716FF06460D4650465946019A00F070
:1006200035F910EB08006141002487EA115284EA91
:10063000E7731A4340D0009A62B3019A012A4FEA45
:10064000075215DC001B61EB02014FF0004202EA89
:100650000752CDE90042001C41F5801132462B467D
:10066000FFF753FF03B0BDE8F08F40462146F9E79E
:10067000001B61EB0201001C41F5801300185B4177
:100680002018A2F5001747EB030140EAD570B61910
:100690006D4111E06D084FEA360645EAC0754FEA34
:1006A0000752001B61EB0201001C41F58011490853
:1006B0004FEA30000019514132462B4603B0BDE8E5
:1006C000F04FFFF713BF0098012240000023D0EB4A
:1006D000020263EBE073009821464FEAE074B8EB46
:1006E000000061EB0401E9E783F000435BE781F080
:1006F000004158E72DE9FE4F81EA030404F000446D
:1007000021F0004100944FF0000B23F0004350EA29
:1007100001045ED052EA03045BD0C3F30A54C1F370
:100720000A552C44A4F2F3340194A0FB0254C1F303
:10073000130141F48011C3F3130343F4801301FB4D
:10074000024400FB034E840A970A44EA815447EAB4
:100750008357A4FB076802958D0A05FB07854FEABE
:10076000932C04FB0C542705029D4FEA065847EAD8
:100770001637B5EB08056EEB070C870E920E47EAAD
:10078000811742EA8312A7FB0201B6EB0B0164EB6F
:1007900000042B0D43EA0C335E1844EB1C50DA4680
:1007A0005146E7FB0201C5F313044FEA0B3343EA5A
:1007B00014534FEA0432019C43EA0603A4F10C04EB
:1007C0000294009CCDE900B4FFF79FFE03B0BDE8A2
:1007D000F08F00200146F9E770B521F00043034394
:1007E0000CD0C1F30A550024D5EB040564EB0403D7
:1007F000D617AD1AB34102DB0020014670BD2018A8
:1008000041EB025170BDC1F30A52C1F3130140F232
:10081000FF3341F480119A4202DA0020014670470A
:1008200040F233439A42A2F2334202DC5242FFF7D3
:1008300016BEFFF705BE000030B5041E71F10004BE
:1008400004DB4FF00044404264EB0101141E73F1DD
:10085000000405DB1C464FF00043524263EB0403E7
:10086000994208BF904230BD064C074D06E0E06853
:1008700040F0010394E8070098471034AC42F6D3E7
:10088000FFF786FC203C0008403C0008202A06DBDD
:10089000CB17203A41FA02F043EAE07306E041FA4E
:1008A00002F3D040C2F1200291400843194670473C
:1008B0002DE9F04D00231A461B1A8A4103DB002064
:1008C0000146BDE8F08DC1F30A52C1F3130141F4B2
:1008D00080154FF0000BD10702D100186D41521E58
:1008E0000027044640F2FF11384601EB620A3E46FB
:1008F0008046024600204FF48011FFF7B0FDC21978
:100900007141BB1846EB0100B4EB030C75EB000C16
:1009100004D3E41A65EB000517460E46241908F1C6
:1009200001006D4180463428E3DDF91946EB0600ED
:10093000091BA84103D24FF0FF32134601E0002209
:1009400013461BEB070046EB0A51BDE8F04DFFF7DD
:10095000CDBDFEE770B5264CFF2020600D2002F0D3
:10096000EBFC6060102002F0E7FCA4F12005A06021
:100970002860012002F0E0FC4FF40006B04201DDE7
:10098000A0F18070E0606860052002F0D5FCB04204
:1009900001DDA0F180702061A860142002F0CCFC81
:1009A000B04201DDA0F180706061E860182002F0C3
:1009B000C3FCB0F5801F01DDA0F18070A06128614B
:1009C000FE20E0610BA0A16801F0CCF80CA0E1686A
:1009D00001F0C8F80DA0216901F0C4F80EA061690A
:1009E00001F0C0F8A169BDE870400EA001F0BAB8EE
:1009F000F80000200D0A312E25640D0A00000000C9
:100A00000D0A322E25640D0A000000000D0A332E57
:100A100025640D0A000000000D0A342E25640D0A1D
:100A2000000000000D0A352E25640D0A00000000AC
:100A30007047704790F83510022903D08021416536
:100A400001207047052180F835100068016821F009
:100A5000010101600020704770B5044600F0F4F811
:100A60000546601C02D004480078044400F0ECF80D
:100A7000401BA042FAD370BDA80000202DE9F84F1A
:100A800000224FF0010803254FF00F0E0B6808FA03
:100A900002F42340A3426ED14E68012E05D0022EEF
:100AA00003D0112E01D0122E12D186684FEA420CCB
:100AB00005FA0CF7BE43CF6807FA0CF73743876097
:100AC0004668A6430C79C4F3001494403443446050
:100AD000C668570005FA07FC8C6826EA0C06BC407D
:100AE0003443C4604C68022C01D0122C13D1D408BA
:100AF00000EB8404A346D4F8209054074FEAD46A4C
:100B00000EFA0AF629EA06090E6906FA0AF646EA14
:100B10000906CBF8206006680C7926EA0C0604F07A
:100B20000304BC40344304604C68E40065D5364C93
:100B3000266846F480462660246822F0030604F402
:100B400080440094314C3444A446D4F808489607B5
:100B5000370F0EFA07F6B4432D4EB04201D10026EE
:100B600024E02C4EB04201D101261FE02A4EB042B3
:100B700002D102261AE040E0284EB04201D10326FD
:100B800014E0274EB04201D104260FE0254EB042BA
:100B900001D105260AE0244EB04201D1062605E027
:100BA000224EB04201D1072600E00826BE4026436F
:100BB000CCF808681E4E34684F689C43FF0300D58C
:100BC0001C4334601A4C241D26684F689E43BF03A3
:100BD00000D51E432660164E083634684F689C4385
:100BE000FF0200D51C433460114E0C3634684F6848
:100BF0009C43BF0200D51C433460521C102AFFF4F2
:100C000045AFBDE8F88F0000443802400030014095
:100C1000000002400004024000080240000C0240B4
:100C2000001002400014024000180240001C024064
:100C3000003C01400069084000D0012070470AB123
:100C4000816170470904FBE7014880687047000034
:100C5000A800002002488168027811448160704732
:100C6000A80000200B4810B5016841F40071016034
:100C7000016841F480610160016841F480710160A4
:100C8000032000F071F8002000F006F800F024F8CE
:100C9000002010BD003C024070B50D4D04464FF4DD
:100CA0007A712878B1FBF0F00A490968B1FBF0F0DD
:100CB00000F004FB48B9102C07D200222146501E38
:100CC00000F032F800206C6070BD012070BD0000A3
:100CD000A8000020B40000200B4882B0016841F455
:100CE00080410160006800F4804000900648001FC9
:100CF000016841F080510160006800F08050009070
:100D0000052002B000F030B844380240002809DB6A
:100D100000F01F02012191404009800000F1E02015
:100D2000C0F8001170470000F0B40E4B1B680C4671
:100D3000C3F30223C3F10705042D00D90425191DAF
:100D4000072901D2002300E0DB1E012606FA05F187
:100D5000491E214099409E40761E16403143F0BC0A
:100D600000F03EBF0CED00E0064900F00702086805
:100D70004FF6FF03184040EA0220034A1043086080
:100D8000704700000CED00E00000FA052DE9F04787
:100D90000E46050065D0DFF81481D8F80000F7B2E0
:100DA00000F00F00B04207D288F80070D8F80000B9
:100DB00000F00F00B04254D128683D4C810712D595
:100DC000400703D5206840F4E050206028780007F1
:100DD00003D5206840F4604020602068A96820F0B6
:100DE000F000084320602878C0072DD0304968689B
:100DF0000839012812D0022813D0032811D009681D
:100E0000890700292DDA216821F0030101432160BF
:100E1000FFF71AFF814641F2883A0EE0096889031C
:100E2000EFE709688901ECE7FFF70EFFA0EB090186
:100E3000514502D90320BDE8F0872068696800F0B9
:100E40000C00B0EB810FEFD1D8F80010404601F054
:100E50000F01B14207D90770006800F00F00B042DF
:100E600001D00120E7E72878400705D52068E96828
:100E700020F4E050084320602878000706D5206859
:100E8000296920F4604040EAC100206000F038F891
:100E90002168084AC1F30311515CC8400649086043
:100EA00006480068FFF7F8FE0020C4E7003C024057
:100EB00008380240743B0008B4000020AC00002059
:100EC0000448054900680968044AC1F38221515C5D
:100ED000C8407047B400002008380240843B000836
:100EE0000448054900680968044AC1F34231515C6D
:100EF000C8407047B400002008380240843B000816
:100F0000154810B5006810F00C02144813D04110B9
:100F1000042A0FD0082A0ED10F4C241F2268236800
:100F200002F03F025B0207D52068C0F38810A0FBE7
:100F3000010106E0084610BD2168C1F38811A1FB3C
:100F400000010023FFF73CF92168C1F30141491C6E
:100F50004900B0FBF1F010BD083802400024F40055
:100F60002DE9F84F04006ED02078DFF83C93C007DD
:100F7000A9F104054AD009F104000168C1F3810117
:100F8000012908D00068C0F3810002280AD1D9F8ED
:100F90000000400206D52868800337D56068002825
:100FA000E1D033E06068B0F5803F10D0B0F5A02FFD
:100FB000286810D020F480302860286820F4802031
:100FC00028606068A8B1FFF73FFE06460DE028687C
:100FD00040F48030F4E740F480202860F7E700BF59
:100FE000FFF732FE801B642873D828688003F7D58A
:100FF0000CE0FFF729FE064605E000BFFFF724FEE0
:10100000801B6428F0D828688003F7D42078DFF8A4
:101010009C8280074FF0000A3ED5A348001D01685E
:1010200011F00C0F08D00068C0F3810002280BD12A
:10103000D9F80000400207D42868800716D5E06878
:10104000012800D112E02BE1E068B8B10120C8F816
:101050000000FFF7F9FD064605E000BFFFF7F4FDCD
:10106000801B0228C0D828688007F7D52868216926
:1010700020F0F80040EAC10028600DE0C8F800A0A8
:10108000FFF7E2FD064604E0FFF7DEFD801B0228C5
:101090001FD828688007F7D42078000722D5824E11
:1010A00083486169703671B101210160FFF7CCFDA1
:1010B000074604E0FFF7C8FDC01B022809D83068C6
:1010C0008007F7D50EE0C0F800A0FFF7BDFD07468A
:1010D00005E082E0FFF7B8FDC01B02287DD830682C
:1010E0008007F7D42078400768D5DFF8BCB1002727
:1010F0000BF13C0BDBF80000C0000BD4DBF8001058
:1011000041F08051CBF80010DBF80000012700F01F
:1011100080500090674E3068C00510D4306840F4AD
:1011200080703060FFF790FD009005E0FFF78CFDC8
:101130000099401A022850D83068C005F6D55A4E9A
:10114000A0686C3601280FD00528306810D020F038
:1011500001003060306820F004003060A068B8B151
:10116000FFF772FD00900FE0306840F00100F4E7F7
:1011700040F004003060F7E7FFF766FD0099411A80
:1011800041F28830814266D830688007F4D50EE09D
:10119000FFF75AFD009007E0FFF756FD0099411A4E
:1011A00041F28830814256D830688007F4D42FB19C
:1011B000DBF8001021F08051CBF80010A069C8B313
:1011C0003949091D0968C1F3810102294AD0022861
:1011D000504607D0C8F8600000E03CE0FFF734FD5F
:1011E00004463BE04746C8F86000FFF72DFD064681
:1011F00005E000BFFFF728FD801B02282BD82868D8
:101200008001F7D4D4E907010843A16A2A4A4908B2
:1012100002EB0141626A41EA8211084394F82C1002
:1012200040EA0161C9F8001001203866FFF70CFDA3
:10123000044606E036E000BFFFF706FD001B02286B
:1012400009D828688001F7D52CE000BFFFF7FCFC27
:10125000001B022802D90320BDE8F88F286880010E
:10126000F4D41FE00128F7D0D9F80000E26900F4B7
:101270008001914214D1226A00F03F0191420FD1C6
:1012800047F6C071626A0140914209D1A26A00F436
:101290004031914204D1E16A00F07060884201D08F
:1012A0000120D9E70020D7E7043802400000474278
:1012B000800E4742007000400000FFFF10B5401E46
:1012C000B0F1807F01D3012010BD4FF0E0246061B8
:1012D0000F21601700F084FC0020A061072020612E
:1012E000002010BD7047000070B502680446106809
:1012F000D168536910F00F0F52D003F0010501F4CB
:1013000090762E435FD0C20705D0CA0503D5E26BA5
:1013100042F00102E263420705D5DA0703D0E26B2F
:1013200042F00202E263820705D5DA0703D0E26BDE
:1013300042F00402E263020707D501F020022A43CB
:1013400003D0E26B42F00802E263E26B002A33D082
:10135000800604D5880602D5204600F0B1FA206840
:101360004069E16BC0F38010090700D428B3204620
:1013700000F098FA2068416949061AD5416921F0C0
:1013800040014161606BA0B11B490165606BFFF7D3
:1013900051FB002810D0606B016DBDE8704008471C
:1013A000830610D58B060ED52046BDE8704000F0B0
:1013B00087BA2046FFF796FF70BD2046FFF792FFE1
:1013C0000020E06370BD030606D50B0604D5204659
:1013D000BDE8704000F054BB4006F3D54806F1D597
:1013E000D168204621F04001D160202184F83910D5
:1013F00000F07FF970BD00009518000870B504007A
:1014000004D094F83900002510B106E0012070BD29
:1014100084F83850204600F023F8242084F839005E
:101420002068C16821F40051C160204600F094FAA0
:101430002068016921F4904101612068416921F02F
:101440002A0141612068C16841F40051C160E5632F
:10145000202084F8390084F83A00002070BD000094
:10146000F0B587B0044614216846FEF7F3FE2A4F14
:101470002368002229490224032507262848BB4265
:1014800021D1264B14331F6847F010071F601B68DB
:1014900003F0100305930B6843F001030B60096828
:1014A00002AB01F0010105916902CDE9001483E866
:1014B00064006946FFF7E2FA002201212520FFF7C8
:1014C00033FC252023E0174FBB4222D1134B1033AE
:1014D0001F6847F400371F601B6803F4003305934F
:1014E0000B6843F001030B60096802AB01F00101D6
:1014F00005910C21CDE9001483E864006946FFF7EB
:10150000BDFA002202212620FFF70EFC2620FFF75D
:10151000FDFB07B0F0BD0000001001403038024074
:10152000000002400044004090F83A30202B22D1C5
:10153000F9B1F2B190F83830012B1CD0816282856C
:10154000C2850021C163222280F83A2080F8381039
:101550000168CA6842F48072CA6001684A6942F050
:1015600001024A610068C16841F02001C1600020A9
:1015700070470120704702207047000030B5274CAB
:1015800000689DB02168884246D1254DA878012881
:1015900039D1262221460DA8FEF743FEE08CADF896
:1015A0005A00A06A1790A08DADF86000E08DADF8EC
:1015B0006200092204F1300119A8FEF732FE94F806
:1015C00039008DF86D0094F83A008DF86E00E06BEC
:1015D0001C9014A00C90302211A96846FEF721FE41
:1015E0000DF1340C9CE80F0002F0A9FA4FF6FF73DE
:1015F000032205F11C01204600F01EF8012028708E
:101600006878401C68701DB00549BDE83040012273
:10161000891C0248FFF788BF1DB030BD6001002063
:101620000000002074382E7478743D22D1A7CFB00A
:10163000D6D02E2E2E2200002DE9F843044690F835
:1016400039001F4616460D46202850D1B5B1AEB11F
:1016500094F8380001284AD0012084F838004FF06F
:101660000008C4F83C80212084F83900FFF7ECFA28
:10167000A6848146E68484F8388026E00120BDE80F
:10168000F883E08C401EE084A0684B46B0F5805F94
:101690004FF000024FF080012046009703D000F089
:1016A00020FAE8B90DE000F01CFAC8B928882168D2
:1016B000C0F308004860206908B16D1C05E0AD1C4E
:1016C00003E0216815F8010B4860E08C0028D8D1B0
:1016D0004B46002240212046009700F002FA08B154
:1016E0000320CCE7202084F839000020C7E702203F
:1016F000C5E77047FEE7000070B586B01421684664
:10170000FEF7A8FD1A480024016841F0800101603D
:10171000016801F080010591016841F0010101605B
:10172000016801F001010591016841F010010160BB
:101730000068104E00F010004FF460550590002234
:1017400029463046FFF77BFA01200095CDE90104D8
:10175000694630460394FFF791F94FF48040CDE994
:101760000004694630460294FFF788F906B070BD60
:1017700030380240001002400C4810B50A490160A0
:101780004FF4E1314160002181600C22C160C0E969
:1017900004128161C161FFF731FE002803D0BDE86A
:1017A0001040FFF746B910BD001001402001002095
:1017B0000C4810B50A4901604FF4E1314160002145
:1017C00081600C22C160C0E904128161C161FFF730
:1017D00015FE002803D0BDE81040FFF72AB910BD60
:1017E0000044004060010020FEE7704770477047EA
:1017F000FFF730BA30B593B030216846FEF72AFDC6
:1018000014210CA8FEF726FD19480025016841F0B7
:1018100080510160006800F0805011901548016807
:1018200041F4804101600068022400F4804011907E
:101830000120039010200490009406940820CDE924
:101840000750A820CDE9090404200B906846FFF753
:1018500087FB0CA90F2081E831004FF4A0500F90B6
:10186000E002109005210CA8FFF790FA13B030BDEC
:1018700040380240007000400548016841F47001A2
:10188000016003494FF00060803908607047000034
:1018900088ED00E010B5806B0021C185C184FFF7A1
:1018A00021FD10BD0168CA6822F49072CA60016807
:1018B0004A6922F001024A61202180F83A107047FB
:1018C00010B590F83A10222901D0022010BD81688D
:1018D000B1F5805F11D00169002901681FD0496806
:1018E00001F07F03816A4A1C82620B70C18D491E20
:1018F0000904090CC18518D02BE00269816A002A0D
:101900000268526805D0D2B20A80816A491C81629D
:10191000ECE7C2F308020A80816A891CF7E74A688B
:10192000816A4B1C83620A70E0E70168CA6822F092
:101930002002CA600168CA6822F48072CA60016825
:101940004A6922F001024A61202180F83A10FFF72B
:1019500015FE002010BD00002DE9F041044600688E
:101960000169E26821F44051114301612169A068D5
:10197000E26908436169114308432168CA6849F272
:101980000C639A430243CA6020684169A26921F44A
:10199000407111434161E069192764253226B0F591
:1019A000004F354A354920684FF0000806D088427C
:1019B00001D0904236D1FFF793FA35E0884201D04A
:1019C000904202D1FFF78CFA01E0FFF779FA6168E3
:1019D0004A18A0FB070148EB0803FEF7F1FB01469C
:1019E000B0FBF5F00201B1FBF5F06FF018035843BE
:1019F00001EB800006EBC000B0FBF5F000F0F80052
:101A000002EB4002B1FBF5F0584301EB800006EB1E
:101A1000C000B0FBF5F000F00700216810448860BA
:101A2000BDE8F081FFF74CFA61688B0F8A00A0FBDC
:101A30000701FEF7C5FB0146B0FBF5F06FF0180299
:101A4000504301EB800006EB0010B0FBF5F000F016
:101A5000F002B1FBF5F002EB0012B1FBF5F06FF014
:101A60001803584301EB800006EB0010B0FBF5F0C3
:101A700000F00F00D1E70000001401400010014009
:101A800090F83910212901D0022070478168B1F502
:101A9000805F016A0BD04A1C0262026809785160BB
:101AA000C18C491E0904090CC1840ED017E00988B5
:101AB0000268C1F30801516001690029016A02D07E
:101AC000491C0162ECE7891CFBE70168CA6822F047
:101AD0008002CA600068C16841F04001C160002016
:101AE00070472DE9F041984617460E460446069D7C
:101AF0001DE0681C1BD02DB1FFF7A6F8A0EB080075
:101B0000A84214D92068C16821F4D071C16020684E
:101B1000416921F001014161202084F8390084F8F5
:101B20003A00002084F838000320BDE8F0812068E6
:101B3000006836EA000004D00020B842D9D0002066
:101B4000F3E70120F9E700000148FFF7CDBB0000F3
:101B5000200100200148FFF7C7BB00006001002002
:101B6000FEE700000FB4054B10B503A9044A029824
:101B700001F016F810BC5DF814FB000021350008D8
:101B8000B80000207CB5044600201D4616460029FA
:101B90000BD0491ECDE90041044B6A462946304628
:101BA00000F0FEFF009A002111707CBDCF320008CA
:101BB00003B401984100009850EAC12018BF0420E6
:101BC0004A0D18BF40F0010040F2FF72B2EB515FC6
:101BD00008BF40F00200012808BF052002B070478E
:101BE0000907090E002804DB00F1E02080F800144A
:101BF000704700F00F0000F1E02080F8141D7047DE
:101C00002DE9F04D2DED040B2DED0E8B96B0DDE999
:101C10002550279CDDF890A025F0004624F00048D0
:101C2000BAF1000F14BF0121002101EB4502FC496C
:101C300053184A1093422AD3002814BF01230023CB
:101C400003EB44030B44F7498B4220D358EA0001CD
:101C50009FEDF59B76D0DFF8D8B35D4503D1BAF19F
:101C6000000F05D188E0BAF1000F08BF002100D0B5
:101C7000012101EB450111F5001F08D8002814BF10
:101C80000121002101EB440111F5001F0BD99DED4D
:101C9000261B9DED240B16B0BDEC0E8B04B0BDE8E9
:101CA000F04D00F069BE0027002DBCBFE14988451A
:101CB00021DAE1498845A8BF02271CDAC3451ADCAE
:101CC000DE4901EB2851142908DDC1F1340220FA64
:101CD00002F101FA02F282420DD108E058B9C1F1D5
:101CE000140228FA02F101FA02F2424503D101F08E
:101CF0000101C1F1020756EA0A0124D1002C22DABF
:101D0000002D18BF022F01D0012F0AD0022000F0B1
:101D10007FFE16B0BDEC0E8B04B0BDE8F04D00F0B8
:101D200013BE022000F074FE00F00EFE51EC100B0A
:101D300081F0004141EC100B16B0BDEC0E8B04B0ED
:101D4000BDE8F08D18E09FEDBEAB9FEDBF8B002886
:101D500071D1B848804522D105F1804010F580103E
:101D600008BFBAF1000F07D0B3450ADC002CA8BFAA
:101D70009DED260BE0DA0DE0B0EE490AF0EE690ABF
:101D8000DAE7002C06DA9DED260B51EC100B81F002
:101D900000416FE0AE48784490ED000BCCE7D845A9
:101DA0004DD1002C48DA2EB186423AD1BAF1000F5B
:101DB00042D126E0BAF1000F13D0022000F028FE35
:101DC00000F0F6FD8DED020B9DED240B8DED000B6B
:101DD00010EE900A039961F31E0003909DED020B33
:101DE000AAE78DED02AB9DED240B1AEE901A10EED2
:101DF000900A8DED000B61F31E0003909DED020B28
:101E00009AE78DED028B9DED240B18EE901A10EEE3
:101E1000900A8DED000B61F31E0003909DED020B07
:101E20008AE709DA9DED240B51EC190B53EC102BCA
:101E3000FEF71BFA1EE020E09DED240B7CE78642B6
:101E40001BDAB4F1804F0DD0A4F10050B0F1FF5077
:101E500013D1002D11DB9DED240B51EC100B01F083
:101E600037FE07E09DED240B53EC102B51EC100BCB
:101E700000F0C2BC41EC100B5EE79DED240B51EC71
:101E8000100B01F041FBBAF1000FCDE90E0142D178
:101E90009FED710B46B3A6F1E040B0F17F600CD02E
:101EA0005E4538D1002D00DAA7B3022F0CBF012008
:101EB0004FF0FF30FEF748FADCE7002D01DD002C83
:101EC0000DDA002D01DD002C1FDB002D16DA002CB1
:101ED00014DB012F08BF9FED620B3FF42DAFB0EE76
:101EE0004A0AF0EE6A0A27E7022F18BF002D0CD02D
:101EF000012F0AD1002DFFF61FAF06E0002DB8BF5D
:101F0000002C08DA012F3FF417AFB0EE480AF0EECC
:101F1000680A11E71BE0012000EBE57050EA0701B9
:101F200015D0791EB0EE498AF0EE698A084308BFE1
:101F30009FED4D8B4E480025804570DD4D494E4844
:101F4000884514DDB0420DDB002C19DB2FE00120A9
:101F500000F05EFD16B0BDEC0E8B04B0BDE8F04D98
:101F600000F016BDB34502DC002C09DC1FE0864200
:101F700002DA002C1BDA03E05E452BDD002C16DDB7
:101F8000022000F045FD00F013FD8DED020B53EC37
:101F90001A2B51EC180BFEF7ADFBCDE900010399AC
:101FA000019861F31E0003909DED020BC4E6022030
:101FB00000F02EFD00F00CFD10EE901A18EE900AC5
:101FC0008DED020B8DED008B61F31E0003909DEDF6
:101FD000020BB1E69DED0E0B53EC192B51EC100BDF
:101FE000FEF782FB9FED260BCDE9080153EC102B89
:101FF0009DED080B51EC100BFEF77CFB9FED221BB7
:1020000053EC112BFEF773FB9DED081B53EC112BCA
:10201000FEF770FB9FED1E1B53EC112B3CE08CE098
:10202000FFFF1F00FFFF0F00000000000000F03F57
:102030000000F03F0000F07F0000404301FCFFFF84
:10204000000000000000F07F000000000000000021
:102050007E1E000000000000000000000000008064
:10206000000000000000F0FF000000000000F0BFD2
:102070000000E0410000F043FFFFEF3F00000000E0
:10208000000000000000D03F555555555555D53F2F
:10209000000000000000E03FFEF729FB9DED080B6B
:1020A00041EC1A0B53EC102B51EC100BFEF722FBFA
:1020B00053EC1A2BFEF71EFB41EC1A0B9FEDFE0BA7
:1020C00053EC102B9DED080B51EC100BFEF712FB9F
:1020D00041EC1B0B9FEDFA0B51EC1A0B53EC102B40
:1020E000FEF708FB41EC1A0B9FEDF70B53EC102B9E
:1020F0009DED080B51EC100BFEF7FCFA53EC1A2B7C
:10210000FEF7F2FA41EC1A0B51EC1B0B53EC1A2BB5
:10211000FEF749FA0690CDE906519DED060B53EC0A
:102120001B2B51EC100BFEF7DFFA53EC1A2BFEF7CA
:10213000DEFA41EC100B00F0A1B90020B6F5801FCB
:102140000EDA9FEDE30B53EC102B9DED0E0B51ECD3
:10215000100BFEF7CFFACDE90E016FF034000E46FA
:1021600000EB2650A0F2FF37C6F31300DA4940F027
:102170007F6646F040568842D8BF002408DDD74924
:102180008142C8BF012403DC0024A6F580167F1C11
:10219000D348784400EBC4000F9690ED00CB9DED42
:1021A0000E0B53EC1C2B51EC100BFEF79DFA9DED22
:1021B0000E0B41EC1B0B53EC1C2B51EC100BFEF7E0
:1021C000F2F941EC100B51EC190B53EC102BFEF70C
:1021D0004CF841EC1D0B51EC1B0B53EC1D2BFEF787
:1021E00089FA41EC1A0BBF488DED10AB784410957D
:1021F00090ED000B4FF0005040EA660000EB844089
:102200008DED080B00F5002009909DED080B53ECB7
:102210001C2B51EC100BFEF767FA9DED0E1B53ECD7
:10222000112BFEF764FA41EC100B53EC102B9DEDD3
:10223000100B51EC100BFEF75DFA9DED080B41EC15
:102240001C0B53EC102B9DED100B51EC100BFEF7FB
:1022500051FA53EC1B2BFEF74AFA53EC1C2BFEF7FA
:1022600043FA53EC1D2BFEF745FA41EC1C0B53ECE3
:102270001A2B51EC1A0BFEF73DFA41EC1B0B9A4856
:102280000621B0EE4B0AF0EE6B0A784400F0E0FA5B
:10229000B0EE401AF0EE601AB0EE41DAF0EE61DA1C
:1022A00053EC1B2B51EC1B0BFEF724FA53EC1D2BAC
:1022B000FEF720FA9DED100B41EC1B0B53EC1A2B93
:1022C00051EC100BFEF76FF953EC1C2BFEF712FAD2
:1022D00053EC1B2BFEF767F99DED100B41EC1B0B2C
:1022E00053EC102B51EC100BFEF704FA41EC1D0BD4
:1022F0009FED7FEB53EC1E2BFEF755F953EC1B2B98
:10230000FEF751F90890CDE908519DED080B53EC0B
:102310001E2B51EC100BFEF7E7F953EC1D2BFEF7CB
:10232000E3F953EC1B2BFEF7E2F99DED080B41ECB2
:102330001D0B53EC102B9DED100B51EC100BFEF709
:10234000D9F941EC1B0B53EC1A2B51EC1D0BFEF78A
:10235000D1F99DED080B41EC1A0B53EC102B51EC0D
:102360001C0BFEF7C7F953EC1A2BFEF71CF941ECD6
:102370001A0B51EC1B0B53EC1A2BFEF714F90C90B3
:10238000CDE90C519DED0C0B53EC1B2B51EC100BBC
:10239000FEF7AAF953EC1A2BFEF7A9F941EC1B0B37
:1023A0009FED550B53EC102B9DED0C0B51EC100BCE
:1023B000FEF7A0F941EC1A0B9FED510B51EC1B0BF2
:1023C00053EC102BFEF796F941EC1B0B9FED4E0BD7
:1023D00053EC102B9DED0C0B51EC100BFEF78AF912
:1023E00053EC1B2BFEF7DFF841EC100B4848784408
:1023F00000EBC40090ED001B51EC100B53EC112BC3
:10240000FEF7D1F841EC1B0B3846FDF79DFFCDE9F7
:10241000080153EC1B2B51EC1A0BFEF7C4F841ECEE
:10242000100B3C48784400EBC40090ED00CB51EC1D
:10243000100B53EC1C2BFEF7B6F89DED081B53EC6C
:10244000112BFEF7B0F80690CDE906519DED080B73
:1024500053EC102B9DED060B51EC100BFEF744F9DD
:1024600053EC1C2BFEF740F953EC1A2BFEF73CF90A
:1024700053EC1B2BFEF73BF941EC100B9DED261B9B
:1024800053EC102B8DED001B00959DED260B51ECB0
:10249000100BFEF72FF99DED000B41EC1A0B53ECDE
:1024A000102B9DED260B51EC100BFEF71DF99DED49
:1024B000061B53EC112B2FE0000000604715F73F7F
:1024C000FE822B654715F73F44DF5DF80BAE543EA7
:1024D00000000000000040438E9803007AB60B0015
:1024E000FA190000281A000032190000000000004C
:1024F0000000000000000840000000E009C7EE3FB7
:10250000FD033ADC09C7EE3FF5015B14E02F3EBE48
:10251000BE17000078170000FEF7ECF853EC1A2BFA
:10252000FEF741F89DED060B41EC1A0B53EC102B16
:102530009DED000B51EC100BFEF7DCF8CDE90C0122
:102540009DED0C0B51EC1A0B53EC102BFEF72BF8F6
:10255000CDE902010C46AA498C422FDB611A0843DF
:1025600018D19DED0C0B53EC102B9DED020B51EC93
:10257000100BFEF7B9F841EC1B0B9FEDA30B51ECD0
:102580001A0B53EC102BFEF70EF853EC1B2BFEF737
:1025900053F92DD2022000F03BFA00F009FA10EEB8
:1025A000901A18EE900A8DED020B8DED008B61F301
:1025B0001E0003909DED020BFFF7BEBB944A24F072
:1025C0000041914214D39349214408437FF4EFAC76
:1025D0009DED0C0B53EC102B9DED020B51EC100BF1
:1025E000FEF782F853EC1A2BFEF726F97FF6DFACE4
:1025F00024F000408849894A002601EB205182429C
:102600002BDA481C4FF4801121FA00F02044844A50
:10261000C0F30A517A44A1F2FF3192ED000B814AD6
:102620008DED080BCA4020EA0202C0F3130040F40B
:102630008010C1F1140120FA01F60992002CB8BFF4
:1026400076429DED080B53EC102B9DED0C0B51ECDD
:10265000100BFEF749F8CDE90C019DED0C0B51EC88
:102660001A0B53EC102BFDF79EFF9FED6F0B08909C
:10267000CDE9085153EC102B9DED080B51EC100BDC
:10268000FEF738F841EC1B0B9FED690B53EC102B58
:102690009DED080B51EC100BFEF72CF89DED0C0B8B
:1026A00041EC1C0B53EC102B9DED080B51EC100B67
:1026B000FEF71AF853EC1A2BFEF719F89FED5E1B84
:1026C00053EC112BFEF716F853EC1C2BFDF76BFFA8
:1026D00041EC1A0B51EC1B0B53EC1A2BFDF763FF6B
:1026E000CDE902019DED020B53EC1B2B51EC100BBD
:1026F000FDF7FAFF53EC1A2BFDF7F9FF9DED020BE6
:1027000041EC1A0B53EC102B51EC100BFDF7F2FFC0
:10271000CDE908014A489DED080B0521784400F0F9
:1027200097F89DED081B51EC100B53EC112BFDF7A6
:10273000E1FF9DED021B53EC112BFDF7D8FFCDE916
:1027400006019DED020B53EC1A2B51EC100BFDF71B
:10275000D1FF53EC1A2BFDF726FF9FED3B0B41EC0D
:102760001A0B53EC102B9DED060B51EC100BFDF7E3
:10277000BBFF9DED060B41EC1B0B53EC102B9DEDAD
:10278000020B51EC100BFDF7B5FF53EC1B2BFDF7C3
:102790006CFD53EC1A2BFDF7A7FF9DED021B53ECCC
:1027A000112BFDF7A1FF53EC192BFDF7A0FFCDE98D
:1027B000020101EB065001150029C8BF039015DC8A
:1027C0009DED020B324651EC100BFEF705F8FFF7BA
:1027D000EFF9042808BF00F0FBF832469DED020B2C
:1027E00051EC100BFDF7F8FFCDE902019DED020B56
:1027F00051EC180B53EC102BFDF77CFFFFF73ABBA5
:102800000000904000000000FE822B654715973CB9
:1028100000CC904000346F3F01FCFFFF0000E03F20
:1028200000160000FFFF0F0000000000432EE63FEF
:10283000396CA80C615C20BEEF39FAFE422EE63FEF
:10284000D014000000000000000000000000004064
:1028500070B504462DED028B4D1E00EBC500B0EEA9
:10286000408AF0EE608A90ED000B35F0060017D03C
:1028700053EC182B51EC100BFDF73CFF41EC100B07
:102880006D1E04EBC50090ED001B51EC100B53ECDA
:10289000112BFDF788FE41EC100B35F00600E7D157
:1028A000022D36D0042D1CD0062D1CBFBDEC028B92
:1028B00070BD53EC182B51EC100BFDF71BFF94ED82
:1028C0000A1B53EC112BFDF76EFE53EC182BFDF792
:1028D00011FF94ED081B53EC112BFDF764FE41EC46
:1028E000100B53EC182B51EC100BFDF703FF94ED7C
:1028F000061B53EC112BFDF756FE53EC182BFDF77E
:10290000F9FE94ED040B53EC102BFDF74CFE41EC5B
:10291000100B53EC182B51EC100BFDF7EBFE94ED64
:10292000021B53EC112BFDF73EFE53EC182BFDF769
:10293000E1FE94ED001B53EC112BFDF734FEBDECD2
:10294000028B41EC100B70BD9FED070B10B553ECE3
:10295000102B9FED070B51EC100BFDF786FC41ECA3
:10296000100B10BD0000000000000000000000007F
:10297000000000000000F03F10B553EC112B51ECAB
:10298000100BFDF710FE41EC100B10BD0000000015
:102990009FED050B10B553EC102B51EC100BFDF710
:1029A00064FC41EC100B10BD0000000000000000B2
:1029B0009FED050B10B553EC102B51EC100BFDF7F0
:1029C00099FE41EC100B10BD0000000000000070EB
:1029D0009FED050B10B553EC102B51EC100BFDF7D0
:1029E00089FE41EC100B10BD00000000000000103B
:1029F00002E008C8121F08C1002AFAD170477047C8
:102A0000002001E001C1121F002AFBD17047000025
:102A10000149086070470000BC0000202DE9FF5FFD
:102A200082B00021DDE90430020DDDF840B003433F
:102A300018D044F61050A2F2FF32424315141198F8
:102A400001281FD0A5EB0B00401C5FEA000A4FF0E5
:102A500000064E4FDFF83891B046504615D5CAF102
:102A6000000413E0119801244AA3012801D16FEA60
:102A70000B010298119AC0E90031C0E9024206B088
:102A8000BDE8F09FCBF10000DFE704460021404A9B
:102A9000491842EB0450CDE9001012E0E00707D0DE
:102AA00032463B4640464946FDF724FE804689466D
:102AB00032463B4610461946FDF71CFE06460F46B9
:102AC0006410002CEAD1DDE90401DDE90023BAF14C
:102AD000000F06DAFDF70EFE42464B46FDF70AFEF2
:102AE00005E0FDF7C2FB42464B46FDF7BEFB044640
:102AF0000E460022284BFDF79FFE03D84FF0FF3013
:102B0000014607E00022254B20463146FDF74BFDEC
:102B1000FDF779FE102409E0002C0ADB0A220023CD
:102B2000FDF74EFB039B30321A55641E50EA01023A
:102B3000F2D1641C039AC4F111031444119A012ABE
:102B400003D0012208430DD10AE0084304D000203D
:102B50004FF0110B119072E7A3EB0B056D1E0DE00A
:102B60005B4504DD4FF0000205F1010504E003DAE6
:102B70004FF00002A5F10105002AECD0029811994E
:102B8000C0E90231C0E9004579E7000000001440C7
:102B90000000F03F300000000000F0430000E03F84
:102BA0002DE9FF4F95B09B468946064600250FE26A
:102BB000252877D100242746F84A0121059400E012
:102BC000044316F8013F203B01FA03F01042F7D10D
:102BD00030782A2811D06FF02F033078A0F130021E
:102BE000092A16D8059A44F0020402EB820203EB8C
:102BF00042021044761C0590EFE759F8042B059229
:102C0000002A03DA504244F40054059044F00204D0
:102C1000761C30782E2816D116F8010F44F00404E3
:102C20002A280DD06FF02F023078A0F13003092B45
:102C300009D807EB870302EB4303C718761CF3E7B9
:102C400059F8047B761C30786C280FD006DC4C28B1
:102C500017D068280DD06A2814D104E0742810D049
:102C60007A280FD10DE044F400140AE044F48014F3
:102C700001E044F440147278824202D104F58014D9
:102C8000761C761C307866280BD013DC582877D059
:102C900009DC002875D04528F6D04628F4D047280E
:102CA0001AD19DE118E0632835D0642879D06528D1
:102CB00012D195E1702873D008DC6728F1D069281B
:102CC0006FD06E280DD06F2806D1B5E073282CD0B8
:102CD000752875D0782874D05A46179990476D1C7E
:102CE00075E1C4F30250022809D003280DD0D9F8A9
:102CF000001004280DD00D6009F1040967E1D9F82E
:102D00000010EA17C1E90052F6E7D9F800100D806B
:102D1000F2E70D70F0E719F8041B8DF800100020A1
:102D20008DF80100EA46012003E059F804AB4FF0AA
:102D3000FF3061074FF0000102D40DE008F10101FE
:102D40008846B9420FDA8045F8DB1AF808100029E6
:102D5000F4D108E008F1010188468142FADB1AF853
:102D600008100029F6D105985B46A0EB080721461C
:102D70003846179A00F094FA284400EB080507E05B
:102D80004DE029E10DE01AF8010B5A4617999047DA
:102D9000B8F10108F7D25B4621463846179A13E18D
:102DA00042E00A220092C4F302524FF0000A022AC3
:102DB00008D059F804CB032A4FEAEC710AD00DE091
:102DC00029E02AE009F1070121F00702F2E802C137
:102DD000914609E00FFA8CFC4FEAEC71042A03D10A
:102DE0004FFA8CFC4FEAEC71002907DA0A46002101
:102DF000DCF1000C61EB02012D2202E0220504D57A
:102E00002B228DF80420012203E0E20701D02022CA
:102E1000F7E7904659E00A2102E010220DE0102168
:102E20004FF0000A00910BE010224FF0000A44F02E
:102E300004040827009203E008224FF0000A0092E1
:102E4000C4F30252022A05D059F804CB0021032A08
:102E500008D009E009F1070121F00702F2E802C1F8
:102E6000914605E01FFA8CFC042A01D10CF0FF0CFE
:102E70004FF00008220728D5702806D0009B83F069
:102E8000100353EA0A0305D00EE040228DF8042017
:102E9000012208E05CEA010206D030228DF804200D
:102EA0008DF8050002229046009B83F0080353EA48
:102EB0000A030AD15CEA010201D1620705D530227A
:102EC0008DF804204FF001087F1E582804D034A04C
:102ED00003900EA802900DE036A0F9E75346604635
:102EE000009AFDF76DF984460398825C0298401EB3
:102EF000029002705CEA0100F0D1029806A9081A5B
:102F000000F1200A600702D524F4803400E0012794
:102F1000574502DDA7EB0A0000E0002000EB0A01A4
:102F2000009005984144401A0590E00306D45B46A2
:102F30002146179A059800F0B3F90544002706E0EA
:102F400001A85A46C05D179990476D1C7F1C4745E4
:102F5000F6DBE0030CD55B462146179A059800F096
:102F60009FF9054404E030205A46179990476D1C9C
:102F70000099481E00900029F5DC08E002980299AB
:102F80005A460078491C0291179990476D1CBAF176
:102F90000001AAF1010AF1DC65E100000928010045
:102FA00030313233343536373839616263646566BF
:102FB0000000000030313233343536373839414281
:102FC000434445460000000000F058F90544761CD3
:102FD000307800287FF4ECAD19B02846BDE8F08FBA
:102FE000620700D4062709F1070222F0070CFCE86B
:102FF0000223E14603F000485FEA080C02D00FF21A
:10300000702C0DE05FEA045C02D50FF2682C07E03B
:103010005FEAC47C02D00FF2602C01E0AFF2700CCA
:103020004FF0FF3823F00043CDF850C065280CD096
:1030300006DC452809D046281DD047283DD13DE073
:10304000662818D067287ED138E00021112F01DBD7
:10305000112000E0781CCDE9000106A90EA8FFF7B9
:10306000DDFCDDE90F010E9A03910021009207F1CA
:10307000010A04914DE04FF000400097CDE90110A6
:1030800006A90EA8FFF7CAFCDDE90F0203920E9B0A
:1030900011990022DDF80CA00093049211B9791C5B
:1030A00000EB010AB7EB0A0004D4C0F1FF3007F1CE
:1030B000010A0490AAEB0700019044E0012F00DA16
:1030C00001270021112F01DD112000E03846CDE954
:1030D000000106A90EA8FFF7A1FCDDE90F010E9A79
:1030E0000391002104910092BA4621070CD4039960
:1030F000514500DA8A46BAF1010F05DD009AAAF1BE
:103100000101515C302908D0B84202DA10F1040FF5
:1031100006DA0121CDE9011015E0AAF10101E9E784
:10312000002805DC049901440491AAEB000102E0A7
:10313000411C514500DD8A460499401A401C01900B
:103140004FF000400290200704D40198504501DB65
:10315000CDF8048000208DF84F0002980DF14F0744
:10316000B0F1004F25D02B200E9002984FF00208AE
:1031700000280CDA404202902D200E9007E00A2130
:103180000298FDF747F93031029007F8011DB8F1B8
:103190000001A8F10108F2DC02980028EFD1791EA5
:1031A0000E980870307800F0200040F0450007F8D5
:1031B000020D12A8C01B00F107081498007800B196
:1031C000012000EB0A01019801EBE07105984144F0
:1031D000401A401E0590E00306D45B462146179A2C
:1031E000059800F05DF805441498007818B15A4627
:1031F000179990476D1CE00324D55B462146179A2A
:10320000059800F04DF805441CE00498002807DB01
:10321000DDE90301884203DD0098405C179901E075
:10322000179930205A469047049805F10105401C33
:1032300004900198401E019004D12E205A461799FF
:1032400090476D1CBAF10001AAF1010ADDDC05E02E
:1032500017F8010B5A46179990476D1CB8F10001F9
:10326000A8F10108F4DC5B462146179A0598ABE605
:103270002D0000002B000000200000002DE9F0418F
:10328000044600251E461746880404D405E0394646
:103290002020B0476D1C641EF9D52846BDE8F0819A
:1032A0002DE9F041044600251E469046C80301D58D
:1032B000302700E02027880404D505E04146384641
:1032C000B0476D1C641EF9D52846BDE8F0814A68F8
:1032D000002A06D00A68531C0B6010704868401E14
:1032E0004860704710B542F21074204600F002F9B1
:1032F0005A21C92000F090F8642000F0FBF848F64D
:10330000FE11012000F088F8642000F0F3F843F289
:103310002151312000F080F8204600F0EBF85B21CD
:10332000C92000F079F85B21C62000F075F820462E
:10333000BDE8104000F0DEB82DE9F05F354C0746DF
:1033400000254FF4805B2A4659462046FDF777FC5E
:103350004FF40068002241462046FDF770FC0A2029
:1033600000F0C8F800264FF4005A012241462046DA
:10337000FDF765FC380601D5012200E00022514628
:103380002046FDF75CFC7806070E032000F0B2F83B
:10339000002241462046FDF752FC032000F0AAF827
:1033A000761CF6B2082EE0D30A2000F0A3F800261F
:1033B0004FF480494746012239462046FDF73FFC3D
:1033C000032000F097F86D0049462046FDF732FCD7
:1033D00008B145F00105002239462046FDF72FFCD3
:1033E000032000F087F8761CF6B2182EE3D30122F2
:1033F00059462046FDF723FC002239462046FDF7BA
:103400001EFC002251462046FDF719FC2846BDE867
:10341000F09F0000001002402DE9F047344C0E46AA
:1034200005464FF4805A002251462046FDF707FC1E
:103430004FF40068002241462046FDF700FC45F0AD
:1034400080070A2000F056F800254FF400590122A9
:1034500041462046FDF7F3FB380601D5012200E086
:10346000002249462046FDF7EAFB7806070E0320B6
:1034700000F040F8002241462046FDF7E0FB032023
:1034800000F038F86D1CEDB2082DE0D3002547465A
:10349000012239462046FDF7D2FB300201D5012238
:1034A00000E0002249462046FDF7C9FB76000320D4
:1034B00000F020F8002239462046FDF7C0FB03202B
:1034C00000F018F86D1CEDB2182DE1D30122514621
:1034D0002046FDF7B4FB002239462046FDF7AFFB3E
:1034E00049462046BDE8F0470022FDF7A8BB000092
:1034F00000100240002104E00222521C642AFCD386
:10350000491C8142F8D3704782B0CDE9000121F017
:10351000004001909DED000B02B051EC100B704784
:1035200038B504468DF8000002230122694602489E
:10353000FEF782F8204638BD200100202DED088BD3
:10354000A0B0FDF78FFBFEF755F9FEF7D5F8FEF7B3
:1035500013F9FEF72DF90122FD49FE48FDF7E4FFBE
:10356000FFF7C0FE9FEDFCBADFF8F0839FEDFC9BF8
:10357000A8F1180B9FEDFCABF54CF648A41E3030BB
:103580004FF0000ACDF87800C4F824A084ED08BA02
:10359000207800287ED150465F46C4F82CA000BF9A
:1035A00007EB8001401C81ED00BAE0620628F7DBE2
:1035B000FDF7D0F900263546B0EE498AF0EE698A6B
:1035C000BB4603E0002501E0032D76D0E04806EB82
:1035D00086012E3000EB81094FF47A7059F82510DE
:1035E00091FBF0F258F8251091FBF0F0101AFCF75F
:1035F000ABFE41EC100BB0EE481AF0EE681AFEF785
:10360000FFFA51EC100BFCF7E9FE0BEB860720628A
:10361000D7ED000A94ED080A10EE100A70EE800A49
:10362000C7ED000AFCF7C7FE41EC100BD0A053EC2D
:10363000102BFEF797FA6D1C052DC5DB3868FCF7DB
:10364000BAFE41EC100BCBA053EC102BFEF78AFA1C
:10365000761C062EB6DBCAA0FEF784FA9BED000AA4
:10366000594684ED080A002001EB8002D4ED080AD7
:1036700092ED000AB4EEE00AF1EE10FA02D284ED07
:10368000080A6062401C0628EEDB0022B34811469F
:10369000143001E0D6E010E000EB810350F8215037
:1036A0005B689D4200D0521C40F82130491C022921
:1036B000EFDB616A8160DAB11BE0D9F80C1042F2ED
:1036C000107091FBF0F2D8F80C1091FBF0F0101A8A
:1036D000FCF73AFE41EC100BB0EE481AF0EE681A17
:1036E000FEF78EFA51EC100BFCF778FE20628FE7A4
:1036F000A1622746A3A0A16AFEF734FA26229549C3
:103700000EA8FCF78EFD934DE88CADF85E0055F8E1
:10371000280F1890A888ADF86400E888ADF8660016
:1037200009221AA81E99FCF77CFD687C8DF87100AF
:10373000A87C8DF8720068691D90B96A94A0CDE9E3
:103740000C01302212A96846FCF76BFD0DF1380C14
:103750009CE80F0000F0F3F97D494FF6FF794B46E6
:1037600003221A317B48FDF767FF262279490EA80C
:10377000FCF757FD35F8020CADF85E00286818908C
:10378000A888ADF86400E888ADF8660009221AA898
:103790001E99FCF746FD687C8DF87100A87C8DF8B9
:1037A000720068691D906D4E7EA020363022B1688F
:1037B000CDE90C0112A96846FCF733FD0DF1380C78
:1037C0009CE80F0000F0BBF961494B4603221A3117
:1037D0006048FDF731FF26225E490EA8FCF721FD67
:1037E00035F8020CADF85E0028681890A888ADF88E
:1037F0006400E888ADF8660009221AA81E99FCF753
:1038000010FD687C8DF87100A87C8DF872006869E5
:103810001D90B16966A0CDE90C01302212A968465D
:10382000FCF7FFFC0DF1380C9CE80F0000F087F965
:1038300047494B4603221A314648FDF7FDFE3878CA
:1038400000287DD0424878212E30FCF703FD64200B
:10385000FDF702F900264FF4000755460120FFF757
:103860006BFDE070C0B2217900EB800001EB4000FD
:103870006179401AC0B22071FCF777FDB0EE4A8A38
:10388000F0EE6A8A53EC182BFCF7EFFCFCF77AFD9C
:103890006071A071E570E1790844E0710120FFF7E3
:1038A0004BFD2072C0B2617A00EB800001EB40005A
:1038B000A17A401AC0B26072FCF757FD53EC182B86
:1038C000FCF7D3FCFCF75EFDA072E0722572217B51
:1038D000084420730120FFF72FFD6073C0B2A17B65
:1038E00000EB800001EB4000E17B401AC0B2A07306
:1038F000FCF73BFD53EC182BFCF7B7FCFCF742FD43
:10390000E07320746573617C084460740120FFF7E4
:1039100013FDA074C0B2E17C00EB800001EB40001D
:10392000217D401AC0B2E074FCF71FFD53EC182B48
:10393000FCF79BFCFCF726FD20756075A57400E084
:10394000B0E0A17D0844A0750120FFF7F5FC35E04B
:10395000020000206001002000000000D8000020CC
:1039600000000000000000400000000000001440C3
:1039700025662000646973743A2566200D0A2000CC
:103980000D0A0000636C6173733A2025640D0A0010
:1039900074302E7478743D22D3C3B5E7C6F725641E
:1039A000220000006E312E76616C3D25640000001F
:1039B0006E322E76616C3D2564000000E075C0B269
:1039C000217E00EB800001EB4000617E401AC0B216
:1039D0002076FCF7CAFC53EC182BFCF746FCFCF7EE
:1039E000D1FC6076A076E575E17E761C0844E07631
:1039F0000A2EFFF633AFE1790A20B1FBF0F6E6704C
:103A0000217BB1FBF0F32372E17EB1FBF0F2E275B2
:103A1000617CB1FBF0F16173A77CB7FBF0F7A77491
:103A2000607800EB800C224800EB8C0040F8047CAE
:103A300040E9032140E9056326221E490DA8FCF751
:103A4000F0FB1C4EF08CADF85A00B06A1790B08DA8
:103A5000ADF86000F08DADF86200092219A81E993A
:103A6000FCF7DFFB96F839008DF86D0096F83A0008
:103A70008DF86E00F06B1C900FA00C90302211A9F5
:103A80006846FCF7CEFB0DF1340C9CE80F0000F00B
:103A900056F807494FF6FF73032214393046FDF7F5
:103AA000CBFD25704FF44870FCF7D6FF6CE50000A5
:103AB000300000206001002074382E7478743D229C
:103AC000D1A7CFB0CDEAB3C92E2E2E220000000020
:103AD00000B52DED048B83B041EC190BFCF7E8FE2B
:103AE00041EC180B18EE100A18EE901A8DED008BB1
:103AF000002818BF0120084320F00040C0F17F607B
:103B000000F1E040C00F14D019EE101A19EE900A1F
:103B10008DED009B002918BF0121084320F00040D3
:103B2000C0F17F6000F1E040C00F04BF0120FEF74C
:103B30006FFF51EC180B03B0BDEC048B00BD0FB44C
:103B4000642100B599B06846FCF784FB2BAB642177
:103B500068462A9AFEF716F882B24FF0FF3369469C
:103B60001AA8FDF769FD64216846FCF773FB19B0DC
:103B70005DF814FB000000000000000001020304D7
:103B8000060708090000000001020304000000000D
:103B9000000000000000F03F000000000000F83FBF
:103BA00000000000000000000000004003B8E23FF9
:103BB000000000000000000006D0CF43EBFD4C3EAB
:103BC000033333333333E33FFFAB6FDBB66DDB3FA0
:103BD0004D268F515555D53F01411DA96074D13FE8
:103BE00065DBC9934A86CD3FEF4E454A287ECA3FE2
:103BF0003E5555555555C53F93BDBE166CC166BF64
:103C00002CDE25AF6A56113FF16BD2C541BDBBBE5C
:103C1000D0A4BE726937663E0000000000000000BC
:103C2000403C000800000020C0000000F02900080F
:103C3000003D0008C0000020E0040000002A000849
:103C40000000000000000000000000000000000074
:103C5000000000000000000000000000FFFFFF0067
:103C60000000000000000000000000000000000054
:103C7000F4010000050000001B0000000AD723002B
:103C800048FFF7FF401F00008902000020030000EA
:103C9000E83151007B0F0600A62B000060FAFFFF01
:103CA000651000009732D6FFB5B90900C5080000BD
:103CB0007800000018030000F0A71300BAAA05005E
:103CC0004B0B0000130000006F010000CA7C0700CE
:103CD000ABE106006D320C00C5A701004ADF04000D
:103CE0008A20290000990500010000001000000052
:103CF000000000000024F4000000000000000000AC
:040000050800018965
:00000001FF
