:020000040800F2
:10000000880500209D01000897170008A116000828
:1000100095170008070900080D1B000800000000E4
:100020000000000000000000000000009B17000816
:10003000E509000800000000991700089D17000856
:10004000B7010008B7010008B7010008B7010008B0
:10005000B7010008B7010008B7010008B7010008A0
:10006000B7010008B7010008B7010008B701000890
:10007000B7010008B7010008B7010008B701000880
:10008000B7010008B7010008B7010008B701000870
:10009000B7010008B7010008B7010008B701000860
:1000A000B7010008B7010008B7010008B701000850
:1000B000B7010008B7010008B7010008B701000840
:1000C000B7010008B7010008B7010008B701000830
:1000D000B7010008F51A0008011B0008B701000865
:1000E000B7010008B7010008B7010008B701000810
:1000F000B7010008B7010008B7010008B701000800
:10010000B7010008B7010008B7010008B7010008EF
:10011000B7010008B7010008B7010008B7010008DF
:10012000B7010008B7010008B7010008B7010008CF
:10013000B7010008B7010008B7010008B7010008BF
:10014000B7010008B7010008B7010008B7010008AF
:10015000B7010008B7010008B7010008B70100089F
:10016000B7010008B7010008B7010008B70100088F
:10017000B7010008B7010008B7010008000000003F
:10018000B7010008B7010008DFF80CD000F046FB0B
:1001900000480047ED3400088805002006488047E5
:1001A00006480047FEE7FEE7FEE7FEE7FEE7FEE75C
:1001B000FEE7FEE7FEE7FEE72518000889010008D4
:1001C0002DE9F05F0546002092469B46884606468C
:1001D000814640241BE0284641464746224600F01F
:1001E000A9F853465A46C01A914110D311461846F1
:1001F000224600F090F82D1A67EB01084F46224680
:100200000120002100F087F817EB00094E41201E65
:10021000A4F10104DFDC484631462A464346BDE8E6
:10022000F09F40EA01039B0703D009E008C9121FB1
:1002300008C0042AFAD203E011F8013B00F8013BA0
:10024000521EF9D27047D2B201E000F8012B491ECC
:10025000FBD270470022F6E710B513460A46044663
:100260001946FFF7F0FF204610BD0EB5C10F80EA1A
:10027000E0700844CA07002140F233438DE80E00C5
:100280000A460B4600F0ACF803B000BD00F0004297
:1002900030F000400AD0C10D01F56071C0F31600C6
:1002A00042EA0151C208400711437047002001464D
:1002B000704701F0004330B421F0004150EA0102E0
:1002C00006D00A0DA2F56072C1F31301002A02DC08
:1002D00030BC00207047440F44EAC104C100E0185C
:1002E00030BC00EBC25000F035B830B50B460146CB
:1002F00000202022012409E021FA02F59D4205D3C5
:1003000003FA02F5491B04FA02F52844151EA2F16E
:100310000102F1DC30BD202A04DB203A00FA02F1B0
:10032000002070479140C2F1200320FA03F31943E3
:1003300090407047202A04DB203A21FA02F0002185
:10034000704721FA02F3D040C2F1200291400843E5
:10035000194670470029A8BF7047401C490008BFD4
:1003600020F00100704710B4B0FA80FC00FA0CF0E5
:1003700050EA010404BF10BC704749B1CCF120041D
:1003800021FA04F411FA0CF118BF012121430843AA
:10039000A3EB0C01CB1D4FEA00614FEA102042BFD6
:1003A000002010BC704700EBC35010440029A4BFCC
:1003B00010BC7047401C490008BF20F0010010BC71
:1003C000704710B5141E73F1000408DA401C41F1A7
:1003D000000192185B411A4301D120F0010010BDC9
:1003E0002DE9F04D92469B4611B1B1FA81F202E03F
:1003F000B0FA80F220329046FFF78DFF04460F4698
:1004000040EA0A0041EA0B0153465A46084313D01A
:10041000114653EA010019D0C8F140025046FFF7D7
:1004200089FF05460E46504659464246FFF773FF80
:10043000084305D0012004E020463946BDE8F08D90
:100440000020054346EAE0762C4337430A986305CB
:10045000E40AA0EB08000022FD0A44EA47540A30EF
:1004600002D500200146E9E7010510196941DDE9DF
:10047000084500196941BDE8F04DA2E72DE9FE4F9E
:10048000804681EA0300C00F0C46009021F0004135
:1004900023F00045B8EB0200A94105D240462146B1
:1004A00090461C460B46024623F00040104347D0BE
:1004B000270DC7F30A00C3F30A510290401A0190B6
:1004C00040286BDAC3F3130040F4801B0098924677
:1004D00020B10023D2EB030A63EB0B0B01985946C2
:1004E000C0F140025046FFF716FF06460D46504643
:1004F0005946019A00F0A4F910EB0800614100246C
:1005000087EA115284EAE7731A4340D0009A62B333
:10051000019A012A4FEA075215DC001B61EB020128
:100520004FF0004202EA0752CDE90042001C41F5BB
:10053000801132462B46FFF753FF03B0BDE8F08F22
:1005400040462146F9E7001B61EB0201001C41F522
:10055000801300185B412018A2F5001747EB030138
:1005600040EAD570B6196D4111E06D084FEA3606C4
:1005700045EAC0754FEA0752001B61EB0201001CFF
:1005800041F5801149084FEA3000001951413246C7
:100590002B4603B0BDE8F04FFFF713BF00980122D0
:1005A00040000023D0EB020263EBE0730098214689
:1005B0004FEAE074B8EB000061EB0401E9E783F077
:1005C00000435BE781F0004158E72DE9FE4F81EAE7
:1005D000030404F0004421F0004100944FF0000BAC
:1005E00023F0004350EA01045ED052EA03045BD0DA
:1005F000C3F30A54C1F30A552C44A4F2F334019412
:10060000A0FB0254C1F3130141F48011C3F313039F
:1006100043F4801301FB024400FB034E840A970A53
:1006200044EA815447EA8357A4FB076802958D0A80
:1006300005FB07854FEA932C04FB0C542705029D0C
:100640004FEA065847EA1637B5EB08056EEB070C7C
:10065000870E920E47EA811742EA8312A7FB020136
:10066000B6EB0B0164EB00042B0D43EA0C335E1870
:1006700044EB1C50DA465146E7FB0201C5F3130474
:100680004FEA0B3343EA14534FEA0432019C43EA26
:100690000603A4F10C040294009CCDE900B4FFF71A
:1006A0009FFE03B0BDE8F08F00200146F9E72DE979
:1006B000F04D81EA030404F0004B21F0004514469C
:1006C0004FF0000A23F0004150EA050220D054EA1E
:1006D00001021DD0C5F30A570246C5F31303C1F347
:1006E0001300C1F30A5640F4801543F48013A7EBBE
:1006F0000608101BD64608F2FD3873EB050002D33E
:1007000008F1010801E092185B41B8F1000F03DA2B
:1007100000200146BDE8F08D00204FF48011064610
:1007200084460EE0171B73EB050705D3121B63EB22
:10073000050306434CEA010C49084FEA30009218C1
:100740005B4150EA0107EDD152EA030012D082EA80
:10075000040083EA0501084305D0101BAB4106D213
:100760000122002306E000224FF0004302E06FF078
:10077000010253101AEB06004CEB085110EB0A0073
:1007800041EB0B01BDE8F04DFFF71BBE70B521F04A
:10079000004303430CD0C1F30A550024D5EB0405F4
:1007A00064EB0403D617AD1AB34102DB0020014607
:1007B00070BD201841EB025170BDC1F30A52C1F364
:1007C000130140F2FF3341F480119A4202DA002013
:1007D0000146704740F233439A42A2F2334202DCB0
:1007E0005242FFF7A7BDFFF796BD000030B5041ECB
:1007F00071F1000404DB4FF00044404264EB01015E
:10080000141E73F1000405DB1C464FF000435242F6
:1008100063EB0403994208BF904230BD064C074D7C
:1008200006E0E06840F0010394E8070098471034C0
:10083000AC42F6D3FFF7ACFCB8390008D839000851
:10084000202A06DBCB17203A41FA02F043EAE07394
:1008500006E041FA02F3D040C2F120029140084381
:10086000194670472DE9F04D00231A461B1A8A419C
:1008700003DB00200146BDE8F08DC1F30A52C1F34D
:10088000130141F480154FF0000BD10702D100187D
:100890006D41521E0027044640F2FF11384601EB1D
:1008A000620A3E468046024600204FF48011FFF760
:1008B00041FDC2197141BB1846EB0100B4EB030CBA
:1008C00075EB000C04D3E41A65EB000517460E46E1
:1008D000241908F101006D4180463428E3DDF9193F
:1008E00046EB0600091BA84103D24FF0FF32134626
:1008F00001E0002213461BEB070046EB0A51BDE85E
:10090000F04DFFF75EBDFEE770B5264CFF2020607E
:100910000D2002F0E9FC6060102002F0E5FCA4F17B
:100920002005A0602860012002F0DEFC4FF40006E4
:10093000B04201DDA0F18070E0606860052002F047
:10094000D3FCB04201DDA0F180702061A8601420CA
:1009500002F0CAFCB04201DDA0F180706061E86085
:10096000182002F0C1FCB0F5801F01DDA0F18070FD
:10097000A0612861FE20E0610BA0A16801F0C8F829
:100980000CA0E16801F0C4F80DA0216901F0C0F8E5
:100990000EA0616901F0BCF8A169BDE870400EA02D
:1009A00001F0B6B8E00000200D0A312E25640D0AD2
:1009B000000000000D0A322E25640D0A0000000020
:1009C0000D0A332E25640D0A000000000D0A342E96
:1009D00025640D0A000000000D0A352E25640D0A5D
:1009E000000000007047704790F83510022903D0CE
:1009F0008021416501207047052180F8351000688D
:100A0000016821F0010101600020704770B50446C3
:100A100000F0F4F80546601C02D004480078044455
:100A200000F0ECF8401BA042FAD370BD900000200B
:100A30002DE9F84F00224FF0010803254FF00F0E6B
:100A40000B6808FA02F42340A3426ED14E68012ECF
:100A500005D0022E03D0112E01D0122E12D186689D
:100A60004FEA420C05FA0CF7BE43CF6807FA0CF7C1
:100A7000374387604668A6430C79C4F3001494405A
:100A800034434460C668570005FA07FC8C6826EAC0
:100A90000C06BC403443C4604C68022C01D0122CBC
:100AA00013D1D40800EB8404A346D4F82090540753
:100AB0004FEAD46A0EFA0AF629EA06090E6906FA1E
:100AC0000AF646EA0906CBF8206006680C7926EAA1
:100AD0000C0604F00304BC40344304604C68E4009A
:100AE00065D5364C266846F480462660246822F098
:100AF000030604F480440094314C3444A446D4F8F2
:100B000008489607370F0EFA07F6B4432D4EB04249
:100B100001D1002624E02C4EB04201D101261FE075
:100B20002A4EB04202D102261AE040E0284EB042DE
:100B300001D1032614E0274EB04201D104260FE074
:100B4000254EB04201D105260AE0244EB04201D123
:100B5000062605E0224EB04201D1072600E0082615
:100B6000BE402643CCF808681E4E34684F689C434C
:100B7000FF0300D51C4334601A4C241D26684F68BF
:100B80009E43BF0300D51E432660164E08363468C8
:100B90004F689C43FF0200D51C433460114E0C3655
:100BA00034684F689C43BF0200D51C433460521C1C
:100BB000102AFFF445AFBDE8F88F0000443802402A
:100BC00000300140000002400004024000080240E2
:100BD000000C0240001002400014024000180240C5
:100BE000001C0240003C01400069084000D0012088
:100BF00070470AB1816170470904FBE701488068CA
:100C0000704700009000002002488168027811447B
:100C100081607047900000200B4810B5016841F4D6
:100C200000710160016841F480610160016841F474
:100C300080710160032000F071F8002000F006F8D8
:100C400000F024F8002010BD003C024070B50D4DAE
:100C500004464FF47A712878B1FBF0F00A4909682C
:100C6000B1FBF0F000F004FB48B9102C07D20022D1
:100C70002146501E00F032F800206C6070BD01204B
:100C800070BD0000900000209C0000200B4882B046
:100C9000016841F480410160006800F480400090E8
:100CA0000648001F016841F080510160006800F0B3
:100CB00080500090052002B000F030B84438024067
:100CC000002809DB00F01F0201219140400980004B
:100CD00000F1E020C0F8001170470000F0B40E4BA6
:100CE0001B680C46C3F30223C3F10705042D00D98A
:100CF0000425191D072901D2002300E0DB1E01266F
:100D000006FA05F1491E214099409E40761E164084
:100D10003143F0BC00F03ABF0CED00E0064900F0B2
:100D2000070208684FF6FF03184040EA0220034A12
:100D300010430860704700000CED00E00000FA0569
:100D40002DE9F0470E46050065D0DFF81481D8F88C
:100D50000000F7B200F00F00B04207D288F8007030
:100D6000D8F8000000F00F00B04254D128683D4C84
:100D7000810712D5400703D5206840F4E050206079
:100D80002878000703D5206840F460402060206880
:100D9000A96820F0F000084320602878C0072DD013
:100DA000304968680839012812D0022813D0032876
:100DB00011D00968890700292DDA216821F0030183
:100DC00001432160FFF71AFF814641F2883A0EE0A5
:100DD00009688903EFE709688901ECE7FFF70EFF6F
:100DE000A0EB0901514502D90320BDE8F087206836
:100DF000696800F00C00B0EB810FEFD1D8F800105B
:100E0000404601F00F01B14207D90770006800F0B9
:100E10000F00B04201D00120E7E72878400705D550
:100E20002068E96820F4E050084320602878000733
:100E300006D52068296920F4604040EAC10020609E
:100E400000F038F82168084AC1F30311515CC8402A
:100E50000649086006480068FFF7F8FE0020C4E76E
:100E6000003C024008380240103900089C00002075
:100E7000940000200448054900680968044AC1F349
:100E80008221515CC84070479C0000200838024015
:100E9000203900080448054900680968044AC1F37C
:100EA0004231515CC84070479C0000200838024025
:100EB00020390008154810B5006810F00C021448DD
:100EC00013D04110042A0FD0082A0ED10F4C241F32
:100ED0002268236802F03F025B0207D52068C0F356
:100EE0008810A0FB010106E0084610BD2168C1F38F
:100EF0008811A1FB00010023FFF762F92168C1F30B
:100F00000141491C4900B0FBF1F010BD0838024016
:100F10000024F4002DE9F84F04006ED02078DFF8AB
:100F20003C93C007A9F104054AD009F10400016807
:100F3000C1F38101012908D00068C0F381000228B3
:100F40000AD1D9F80000400206D52868800337D5B9
:100F500060680028E1D033E06068B0F5803F10D0D1
:100F6000B0F5A02F286810D020F4803028602868C1
:100F700020F4802028606068A8B1FFF73FFE064695
:100F80000DE0286840F48030F4E740F480202860C9
:100F9000F7E700BFFFF732FE801B642873D828688C
:100FA0008003F7D50CE0FFF729FE064605E000BFF9
:100FB000FFF724FE801B6428F0D828688003F7D44C
:100FC0002078DFF89C8280074FF0000A3ED5A348C6
:100FD000001D016811F00C0F08D00068C0F38100FB
:100FE00002280BD1D9F80000400207D428688007F6
:100FF00016D5E068012800D112E02BE1E068B8B115
:101000000120C8F80000FFF7F9FD064605E000BF23
:10101000FFF7F4FD801B0228C0D828688007F7D5A9
:101020002868216920F0F80040EAC10028600DE03E
:10103000C8F800A0FFF7E2FD064604E0FFF7DEFD7A
:10104000801B02281FD828688007F7D42078000763
:1010500022D5824E83486169703671B101210160E9
:10106000FFF7CCFD074604E0FFF7C8FDC01B0228D0
:1010700009D830688007F7D50EE0C0F800A0FFF768
:10108000BDFD074605E082E0FFF7B8FDC01B022862
:101090007DD830688007F7D42078400768D5DFF81E
:1010A000BCB100270BF13C0BDBF80000C0000BD4F7
:1010B000DBF8001041F08051CBF80010DBF80000A5
:1010C000012700F080500090674E3068C00510D4B2
:1010D000306840F480703060FFF790FD009005E0CC
:1010E000FFF78CFD0099401A022850D83068C005DF
:1010F000F6D55A4EA0686C3601280FD00528306806
:1011000010D020F001003060306820F00400306022
:10111000A068B8B1FFF772FD00900FE0306840F0B2
:101120000100F4E740F004003060F7E7FFF766FDE8
:101130000099411A41F28830814266D830688007B0
:10114000F4D50EE0FFF75AFD009007E0FFF756FDDB
:101150000099411A41F28830814256D830688007A0
:10116000F4D42FB1DBF8001021F08051CBF800103F
:10117000A069C8B33949091D0968C1F38101022971
:101180004AD00228504607D0C8F8600000E03CE092
:10119000FFF734FD04463BE04746C8F86000FFF720
:1011A0002DFD064605E000BFFFF728FD801B022845
:1011B0002BD828688001F7D4D4E907010843A16A35
:1011C0002A4A490802EB0141626A41EA8211084356
:1011D00094F82C1040EA0161C9F80010012038662B
:1011E000FFF70CFD044606E036E000BFFFF706FD02
:1011F000001B022809D828688001F7D52CE000BF21
:10120000FFF7FCFC001B022802D90320BDE8F88F81
:1012100028688001F4D41FE00128F7D0D9F8000035
:10122000E26900F48001914214D1226A00F03F018A
:1012300091420FD147F6C071626A0140914209D1D3
:10124000A26A00F44031914204D1E16A00F070607A
:10125000884201D00120D9E70020D7E704380240B6
:1012600000004742800E4742007000400000FFFF30
:1012700010B5401EB0F1807F01D3012010BD4FF0AA
:10128000E02460610F21601700F080FC0020A06165
:1012900007202061002010BD7047000070B5026873
:1012A00004461068D168536910F00F0F52D003F054
:1012B000010501F490762E435FD0C20705D0CA0520
:1012C00003D5E26B42F00102E263420705D5DA077B
:1012D00003D0E26B42F00202E263820705D5DA072F
:1012E00003D0E26B42F00402E263020707D501F08B
:1012F00020022A4303D0E26B42F00802E263E26B71
:10130000002A33D0800604D5880602D5204600F096
:10131000ADFA20684069E16BC0F38010090700D482
:1013200028B3204600F094FA2068416949061AD58E
:10133000416921F040014161606BA0B11B49016529
:10134000606BFFF751FB002810D0606B016DBDE8AA
:1013500070400847830610D58B060ED52046BDE8A1
:10136000704000F083BA2046FFF796FF70BD20461C
:10137000FFF792FF0020E06370BD030606D50B0661
:1013800004D52046BDE8704000F050BB4006F3D5C0
:101390004806F1D5D168204621F04001D1602021D6
:1013A00084F8391000F07BF970BD00004118000886
:1013B00070B5040004D094F83900002510B106E09F
:1013C000012070BD84F83850204600F023F8242016
:1013D00084F839002068C16821F40051C1602046BA
:1013E00000F090FA2068016921F4904101612068C1
:1013F000416921F02A0141612068C16841F400512E
:10140000C160E563202084F8390084F83A000020A8
:1014100070BD0000F0B587B0044614216846FEF7A1
:1014200019FF2A4F23680022294902240325072691
:101430002848BB4221D1264B14331F6847F01007C0
:101440001F601B6803F0100305930B6843F0010352
:101450000B60096802AB01F0010105916902CDE959
:10146000001483E864006946FFF7E2FA00220121D4
:101470002520FFF733FC252023E0174FBB4222D164
:10148000134B10331F6847F400371F601B6803F4C9
:10149000003305930B6843F001030B60096802AB4E
:1014A00001F0010105910C21CDE9001483E86400ED
:1014B0006946FFF7BDFA002202212620FFF70EFC45
:1014C0002620FFF7FDFB07B0F0BD00000010014033
:1014D00030380240000002400044004090F83A30AA
:1014E000202B22D1F9B1F2B190F83830012B1CD069
:1014F00081628285C2850021C163222280F83A2060
:1015000080F838100168CA6842F48072CA600168C5
:101510004A6942F001024A610068C16841F0200155
:10152000C160002070470120704702207047000012
:1015300030B5254C00689DB02168884242D1234DCA
:101540006878012835D1262221460DA8FEF769FECC
:10155000E08CADF85A00A06A1790A08DADF860003D
:10156000E08DADF86200092204F1300119A8FEF700
:1015700058FE94F839008DF86D0094F83A008DF813
:101580006E00E06B1C9012A00C90302211A96846EE
:10159000FEF747FE0DF1340C9CE80F0002F09DF9B8
:1015A0004FF6FF730322A91C204600F01BF8012010
:1015B00028701DB00549BDE830400122491C024891
:1015C000FFF78CBF1DB030BD480100200000002097
:1015D00074382E7478743D22D1A7CFB0D6D02E2E79
:1015E0002E2200002DE9F843044690F839001F46EA
:1015F00016460D46202850D1B5B1AEB194F838004A
:1016000001284AD0012084F838004FF00008C4F8BF
:101610003C80212084F83900FFF7F0FAA684814647
:10162000E68484F8388026E00120BDE8F883E08C69
:10163000401EE084A0684B46B0F5805F4FF000028A
:101640004FF080012046009703D000F020FAE8B95F
:101650000DE000F01CFAC8B928882168C0F3080022
:101660004860206908B16D1C05E0AD1C03E02168ED
:1016700015F8010B4860E08C0028D8D14B460022B9
:1016800040212046009700F002FA08B10320CCE781
:10169000202084F839000020C7E70220C5E7704702
:1016A000FEE7000070B586B014216846FEF7D2FD53
:1016B0001A480024016841F080010160016801F0CE
:1016C00080010591016841F001010160016801F0AC
:1016D00001010591016841F0100101600068104EA0
:1016E00000F010004FF46055059000222946304666
:1016F000FFF77FFA01200095CDE9010469463046E5
:101700000394FFF795F94FF48040CDE90004694652
:1017100030460294FFF78CF906B070BD30380240B5
:10172000001002400C4810B50A4901604FF4E13145
:101730004160002181600C22C160C0E90412816116
:10174000C161FFF735FE002803D0BDE81040FFF768
:101750004AB910BD00100140080100200C4810B526
:101760000A4901604FF4E1314160002181600C229F
:10177000C160C0E904128161C161FFF719FE002850
:1017800003D0BDE81040FFF72EB910BD0044004063
:1017900048010020FEE7704770477047FFF734BAF2
:1017A00030B593B030216846FEF754FD14210CA8E3
:1017B000FEF750FD19480025016841F08051016095
:1017C000006800F0805011901548016841F4804194
:1017D00001600068022400F4804011900120039011
:1017E00010200490009406940820CDE90750A8200A
:1017F000CDE9090404200B906846FFF78BFB0CA988
:101800000F2081E831004FF4A0500F90E0021090BB
:1018100005210CA8FFF794FA13B030BD4038024000
:10182000007000400548016841F4700101600349FF
:101830004FF00060803908607047000088ED00E0DC
:1018400010B5806B0021C185C184FFF725FD10BD57
:101850000168CA6822F49072CA6001684A6922F07D
:1018600001024A61202180F83A10704710B590F8C3
:101870003A10222901D0022010BD8168B1F5805FA5
:1018800011D00169002901681FD0496801F07F0368
:10189000816A4A1C82620B70C18D491E0904090CC1
:1018A000C18518D02BE00269816A002A026852685B
:1018B00005D0D2B20A80816A491C8162ECE7C2F38A
:1018C00008020A80816A891CF7E74A68816A4B1C12
:1018D00083620A70E0E70168CA6822F02002CA60E9
:1018E0000168CA6822F48072CA6001684A6922F0FD
:1018F00001024A61202180F83A10FFF719FE00200A
:1019000010BD00002DE9F041044600680169E2685D
:1019100021F44051114301612169A068E269084343
:101920006169114308432168CA6849F20C639A430C
:101930000243CA6020684169A26921F440711143E1
:101940004161E069192764253226B0F5004F354A18
:10195000354920684FF0000806D0884201D09042F7
:1019600036D1FFF797FA35E0884201D0904202D194
:10197000FFF790FA01E0FFF77DFA61684A18A0FBD3
:10198000070148EB0803FEF71BFC0146B0FBF5F02E
:101990000201B1FBF5F06FF01803584301EB800032
:1019A00006EBC000B0FBF5F000F0F80002EB4002DF
:1019B000B1FBF5F0584301EB800006EBC000B0FB33
:1019C000F5F000F00700216810448860BDE8F08160
:1019D000FFF750FA61688B0F8A00A0FB0701FEF742
:1019E000EFFB0146B0FBF5F06FF01802504301EB3E
:1019F000800006EB0010B0FBF5F000F0F002B1FB48
:101A0000F5F002EB0012B1FBF5F06FF0180358434C
:101A100001EB800006EB0010B0FBF5F000F00F00CA
:101A2000D1E70000001401400010014090F8391087
:101A3000212901D0022070478168B1F5805F016AD9
:101A40000BD04A1C0262026809785160C18C491EA1
:101A50000904090CC1840ED017E009880268C1F39B
:101A60000801516001690029016A02D0491C016224
:101A7000ECE7891CFBE70168CA6822F08002CA60B3
:101A80000068C16841F04001C160002070472DE945
:101A9000F041984617460E460446069D1DE0681C18
:101AA0001BD02DB1FFF7AAF8A0EB0800A84214D96B
:101AB0002068C16821F4D071C1602068416921F0BB
:101AC00001014161202084F8390084F83A000020A7
:101AD00084F838000320BDE8F0812068006836EA09
:101AE000000004D00020B842D9D00020F3E7012044
:101AF000F9E700000148FFF7D1BB00000801002012
:101B00000148FFF7CBBB000048010020FEE70000C2
:101B10000FB4054B10B503A9044A029801F018F858
:101B200010BC5DF814FB0000D1340008A0000020B8
:101B30007CB5044600201D46164600290BD0491EE0
:101B4000CDE90041044B6A462946304601F000F8D1
:101B5000009A002111707CBD7F32000803B4019807
:101B60004100009850EAC12018BF04204A0D18BF58
:101B700040F0010040F2FF72B2EB515F08BF40F04D
:101B80000200012808BF052002B070470907090EAE
:101B9000002804DB00F1E02080F80014704700F01A
:101BA0000F0000F1E02080F8141D704700000000D5
:101BB0002DE9F04D2DED040B2DED0E8B96B0DDE9EA
:101BC0002550279CDDF890A025F0004624F0004821
:101BD000BAF1000F14BF0121002101EB4502FC49BD
:101BE00053184A1093422AD3002814BF012300231C
:101BF00003EB44030B44F7498B4220D358EA00011E
:101C00009FEDF59B76D0DFF8D8B35D4503D1BAF1EF
:101C1000000F05D188E0BAF1000F08BF002100D005
:101C2000012101EB450111F5001F08D8002814BF60
:101C30000121002101EB440111F5001F0BD99DED9D
:101C4000261B9DED240B16B0BDEC0E8B04B0BDE839
:101C5000F04D00F069BE0027002DBCBFE14988456A
:101C600021DAE1498845A8BF02271CDAC3451ADCFE
:101C7000DE4901EB2851142908DDC1F1340220FAB4
:101C800002F101FA02F282420DD108E058B9C1F125
:101C9000140228FA02F101FA02F2424503D101F0DE
:101CA0000101C1F1020756EA0A0124D1002C22DA0F
:101CB000002D18BF022F01D0012F0AD0022000F002
:101CC0007FFE16B0BDEC0E8B04B0BDE8F04D00F009
:101CD00013BE022000F074FE00F00EFE51EC100B5B
:101CE00081F0004141EC100B16B0BDEC0E8B04B03E
:101CF000BDE8F08D18E09FEDBEAB9FEDBF8B0028D7
:101D000071D1B848804522D105F1804010F580108E
:101D100008BFBAF1000F07D0B3450ADC002CA8BFFA
:101D20009DED260BE0DA0DE0B0EE490AF0EE690A0F
:101D3000DAE7002C06DA9DED260B51EC100B81F052
:101D400000416FE0AE48784490ED000BCCE7D845F9
:101D50004DD1002C48DA2EB186423AD1BAF1000FAB
:101D600042D126E0BAF1000F13D0022000F028FE85
:101D700000F0F6FD8DED020B9DED240B8DED000BBB
:101D800010EE900A039961F31E0003909DED020B83
:101D9000AAE78DED02AB9DED240B1AEE901A10EE22
:101DA000900A8DED000B61F31E0003909DED020B78
:101DB0009AE78DED028B9DED240B18EE901A10EE34
:101DC000900A8DED000B61F31E0003909DED020B58
:101DD0008AE709DA9DED240B51EC190B53EC102B1B
:101DE000FEF765FC1EE020E09DED240B7CE78642BB
:101DF0001BDAB4F1804F0DD0A4F10050B0F1FF50C8
:101E000013D1002D11DB9DED240B51EC100B01F0D3
:101E10002DFD07E09DED240B53EC102B51EC100B26
:101E200000F0C2BC41EC100B5EE79DED240B51ECC1
:101E3000100B01F041FBBAF1000FCDE90E0142D1C8
:101E40009FED710B46B3A6F1E040B0F17F600CD07E
:101E50005E4538D1002D00DAA7B3022F0CBF012058
:101E60004FF0FF30FEF701FADCE7002D01DD002C1A
:101E70000DDA002D01DD002C1FDB002D16DA002C01
:101E800014DB012F08BF9FED620B3FF42DAFB0EEC6
:101E90004A0AF0EE6A0A27E7022F18BF002D0CD07D
:101EA000012F0AD1002DFFF61FAF06E0002DB8BFAD
:101EB000002C08DA012F3FF417AFB0EE480AF0EE1D
:101EC000680A11E71BE0012000EBE57050EA07010A
:101ED00015D0791EB0EE498AF0EE698A084308BF32
:101EE0009FED4D8B4E480025804570DD4D494E4895
:101EF000884514DDB0420DDB002C19DB2FE00120FA
:101F000000F05EFD16B0BDEC0E8B04B0BDE8F04DE8
:101F100000F016BDB34502DC002C09DC1FE0864250
:101F200002DA002C1BDA03E05E452BDD002C16DD07
:101F3000022000F045FD00F013FD8DED020B53EC87
:101F40001A2B51EC180BFEF740FBCDE90001039969
:101F5000019861F31E0003909DED020BC4E6022080
:101F600000F02EFD00F00CFD10EE901A18EE900A15
:101F70008DED020B8DED008B61F31E0003909DED46
:101F8000020BB1E69DED0E0B53EC192B51EC100B2F
:101F9000FEF715FB9FED260BCDE9080153EC102B46
:101FA0009DED080B51EC100BFEF70FFB9FED221B74
:101FB00053EC112BFEF706FB9DED081B53EC112B88
:101FC000FEF703FB9FED1E1B53EC112B3CE08CE056
:101FD000FFFF1F00FFFF0F00000000000000F03FA8
:101FE0000000F03F0000F07F0000404301FCFFFFD5
:101FF000000000000000F07F000000000000000072
:10200000661C0000000000000000000000000080CE
:10201000000000000000F0FF000000000000F0BF22
:102020000000E0410000F043FFFFEF3F0000000030
:10203000000000000000D03F555555555555D53F7F
:10204000000000000000E03FFEF7BCFA9DED080B29
:1020500041EC1A0B53EC102B51EC100BFEF7B5FAB8
:1020600053EC1A2BFEF7B1FA41EC1A0B9FEDFE0B65
:1020700053EC102B9DED080B51EC100BFEF7A5FA5D
:1020800041EC1B0B9FEDFA0B51EC1A0B53EC102B90
:10209000FEF79BFA41EC1A0B9FEDF70B53EC102B5C
:1020A0009DED080B51EC100BFEF78FFA53EC1A2B39
:1020B000FEF785FA41EC1A0B51EC1B0B53EC1A2B73
:1020C000FEF7DCF90690CDE906519DED060B53ECC9
:1020D0001B2B51EC100BFEF772FA53EC1A2BFEF788
:1020E00071FA41EC100B00F0A1B90020B6F5801F89
:1020F0000EDA9FEDE30B53EC102B9DED0E0B51EC24
:10210000100BFEF762FACDE90E016FF034000E46B7
:1021100000EB2650A0F2FF37C6F31300DA4940F077
:102120007F6646F040568842D8BF002408DDD74974
:102130008142C8BF012403DC0024A6F580167F1C61
:10214000D348784400EBC4000F9690ED00CB9DED92
:102150000E0B53EC1C2B51EC100BFEF730FA9DEDDF
:102160000E0B41EC1B0B53EC1C2B51EC100BFEF730
:1021700085F941EC100B51EC190B53EC102BFEF7C9
:1021800096FA41EC1D0B51EC1B0B53EC1D2BFEF78B
:102190001CFA41EC1A0BBF488DED10AB784410953A
:1021A00090ED000B4FF0005040EA660000EB8440D9
:1021B0008DED080B00F5002009909DED080B53EC08
:1021C0001C2B51EC100BFEF7FAF99DED0E1B53EC96
:1021D000112BFEF7F7F941EC100B53EC102B9DED92
:1021E000100B51EC100BFEF7F0F99DED080B41ECD4
:1021F0001C0B53EC102B9DED100B51EC100BFEF74C
:10220000E4F953EC1B2BFEF7DDF953EC1C2BFEF726
:10221000D6F953EC1D2BFEF7D8F941EC1C0B53EC0F
:102220001A2B51EC1A0BFEF7D0F941EC1B0B9A4814
:102230000621B0EE4B0AF0EE6B0A784400F0E0FAAB
:10224000B0EE401AF0EE601AB0EE41DAF0EE61DA6C
:1022500053EC1B2B51EC1B0BFEF7B7F953EC1D2B6A
:10226000FEF7B3F99DED100B41EC1B0B53EC1A2B51
:1022700051EC100BFEF702F953EC1C2BFEF7A5F9FD
:1022800053EC1B2BFEF7FAF89DED100B41EC1B0BEA
:1022900053EC102B51EC100BFEF797F941EC1D0B92
:1022A0009FED7FEB53EC1E2BFEF7E8F853EC1B2B56
:1022B000FEF7E4F80890CDE908519DED080B53ECCA
:1022C0001E2B51EC100BFEF77AF953EC1D2BFEF789
:1022D00076F953EC1B2BFEF775F99DED080B41ECDD
:1022E0001D0B53EC102B9DED100B51EC100BFEF75A
:1022F0006CF941EC1B0B53EC1A2B51EC1D0BFEF748
:1023000064F99DED080B41EC1A0B53EC102B51ECCA
:102310001C0BFEF75AF953EC1A2BFEF7AFF841EC01
:102320001A0B51EC1B0B53EC1A2BFEF7A7F80C9071
:10233000CDE90C519DED0C0B53EC1B2B51EC100B0C
:10234000FEF73DF953EC1A2BFEF73CF941EC1B0B61
:102350009FED550B53EC102B9DED0C0B51EC100B1E
:10236000FEF733F941EC1A0B9FED510B51EC1B0BAF
:1023700053EC102BFEF729F941EC1B0B9FED4E0B94
:1023800053EC102B9DED0C0B51EC100BFEF71DF9CF
:1023900053EC1B2BFEF772F841EC100B48487844C5
:1023A00000EBC40090ED001B51EC100B53EC112B13
:1023B000FEF764F841EC1B0B3846FDF756FFCDE9FC
:1023C000080153EC1B2B51EC1A0BFEF757F841ECAC
:1023D000100B3C48784400EBC40090ED00CB51EC6E
:1023E000100B53EC1C2BFEF749F89DED081B53EC2A
:1023F000112BFEF743F80690CDE906519DED080B31
:1024000053EC102B9DED060B51EC100BFEF7D7F89B
:1024100053EC1C2BFEF7D3F853EC1A2BFEF7CFF836
:1024200053EC1B2BFEF7CEF841EC100B9DED261B59
:1024300053EC102B8DED001B00959DED260B51EC00
:10244000100BFEF7C2F89DED000B41EC1A0B53EC9C
:10245000102B9DED260B51EC100BFEF7B0F89DED07
:10246000061B53EC112B2FE0000000604715F73FCF
:10247000FE822B654715F73F44DF5DF80BAE543EF7
:1024800000000000000040438E9803007AB60B0065
:10249000E2170000101800001A17000000000000EA
:1024A0000000000000000840000000E009C7EE3F07
:1024B000FD033ADC09C7EE3FF5015B14E02F3EBE99
:1024C000A615000060150000FEF77FF853EC1A2BEC
:1024D000FDF7D4FF9DED060B41EC1A0B53EC102BCE
:1024E0009DED000B51EC100BFEF76FF8CDE90C01E0
:1024F0009DED0C0B51EC1A0B53EC102BFDF7BEFFAE
:10250000CDE902010C46AA498C422FDB611A08432F
:1025100018D19DED0C0B53EC102B9DED020B51ECE3
:10252000100BFEF74CF841EC1B0B9FEDA30B51EC8D
:102530001A0B53EC102BFDF7A1FF53EC1B2BFEF7EE
:1025400055F92DD2022000F03BFA00F009FA10EE06
:10255000901A18EE900A8DED020B8DED008B61F351
:102560001E0003909DED020BFFF7BEBB944A24F0C2
:102570000041914214D39349214408437FF4EFACC6
:102580009DED0C0B53EC102B9DED020B51EC100B41
:10259000FEF715F853EC1A2BFEF728F97FF6DFAC9F
:1025A00024F000408849894A002601EB20518242EC
:1025B0002BDA481C4FF4801121FA00F02044844AA1
:1025C000C0F30A517A44A1F2FF3192ED000B814A27
:1025D0008DED080BCA4020EA0202C0F3130040F45C
:1025E0008010C1F1140120FA01F60992002CB8BF45
:1025F00076429DED080B53EC102B9DED0C0B51EC2E
:10260000100BFDF7DCFFCDE90C019DED0C0B51EC3F
:102610001A0B53EC102BFDF731FF9FED6F0B089059
:10262000CDE9085153EC102B9DED080B51EC100B2C
:10263000FDF7CBFF41EC1B0B9FED690B53EC102B0F
:102640009DED080B51EC100BFDF7BFFF9DED0C0B42
:1026500041EC1C0B53EC102B9DED080B51EC100BB7
:10266000FDF7ADFF53EC1A2BFDF7ACFF9FED5E1BA2
:1026700053EC112BFDF7A9FF53EC1C2BFDF7FEFECD
:1026800041EC1A0B51EC1B0B53EC1A2BFDF7F6FE29
:10269000CDE902019DED020B53EC1B2B51EC100B0D
:1026A000FDF78DFF53EC1A2BFDF78CFF9DED020B10
:1026B00041EC1A0B53EC102B51EC100BFDF785FF7E
:1026C000CDE908014A489DED080B0521784400F04A
:1026D00097F89DED081B51EC100B53EC112BFDF7F7
:1026E00074FF9DED021B53EC112BFDF76BFFCDE941
:1026F00006019DED020B53EC1A2B51EC100BFDF76C
:1027000064FF53EC1A2BFDF7B9FE9FED3B0B41EC38
:102710001A0B53EC102B9DED060B51EC100BFDF733
:102720004EFF9DED060B41EC1B0B53EC102B9DED6A
:10273000020B51EC100BFDF748FF53EC1B2BFDF780
:10274000B6FF53EC1A2BFDF73AFF9DED021B53EC3D
:10275000112BFDF734FF53EC192BFDF733FFCDE9B7
:10276000020101EB065001150029C8BF039015DCDA
:102770009DED020B324651EC100BFEF707F8FFF708
:10278000EDF9042808BF00F0FBF832469DED020B7E
:1027900051EC100BFDF7FAFFCDE902019DED020BA4
:1027A00051EC180B53EC102BFDF70FFFFFF73ABB62
:1027B0000000904000000000FE822B654715973C0A
:1027C00000CC904000346F3F01FCFFFF0000E03F71
:1027D000E8130000FFFF0F0000000000432EE63F5B
:1027E000396CA80C615C20BEEF39FAFE422EE63F40
:1027F000B8120000000000000000000000000040CF
:1028000070B504462DED028B4D1E00EBC500B0EEF9
:10281000408AF0EE608A90ED000B35F0060017D08C
:1028200053EC182B51EC100BFDF7CFFE41EC100BC5
:102830006D1E04EBC50090ED001B51EC100B53EC2A
:10284000112BFDF71BFE41EC100B35F00600E7D114
:10285000022D36D0042D1CD0062D1CBFBDEC028BE2
:1028600070BD53EC182B51EC100BFDF7AEFE94ED40
:102870000A1B53EC112BFDF701FE53EC182BFDF74F
:10288000A4FE94ED081B53EC112BFDF7F7FD41EC72
:10289000100B53EC182B51EC100BFDF796FE94ED3A
:1028A000061B53EC112BFDF7E9FD53EC182BFDF73C
:1028B0008CFE94ED040B53EC102BFDF7DFFD41EC87
:1028C000100B53EC182B51EC100BFDF77EFE94ED22
:1028D000021B53EC112BFDF7D1FD53EC182BFDF728
:1028E00074FE94ED001B53EC112BFDF7C7FDBDECFE
:1028F000028B41EC100B70BD9FED070B10B553EC34
:10290000102B9FED070B51EC100BFDF7D0FE41ECA7
:10291000100B10BD000000000000000000000000CF
:10292000000000000000F03F10B553EC112B51ECFB
:10293000100BFDF7A3FD41EC100B10BD00000000D3
:102940009FED050B10B553EC102B51EC100BFDF760
:10295000AEFE41EC100B10BD0000000000000000B6
:102960009FED050B10B553EC102B51EC100BFDF740
:102970002CFE41EC100B10BD0000000000000070A8
:102980009FED050B10B553EC102B51EC100BFDF720
:102990001CFE41EC100B10BD0000000000000010F8
:1029A00002E008C8121F08C1002AFAD17047704718
:1029B000002001E001C1121F002AFBD17047000076
:1029C0000149086070470000A40000202DE9FF5F66
:1029D00082B00021DDE90430020DDDF840B0034390
:1029E00018D044F61050A2F2FF3242431514119849
:1029F00001281FD0A5EB0B00401C5FEA000A4FF036
:102A000000064E4FDFF83891B046504615D5CAF152
:102A1000000413E0119801244AA3012801D16FEAB0
:102A20000B010298119AC0E90031C0E9024206B0D8
:102A3000BDE8F09FCBF10000DFE704460021404AEB
:102A4000491842EB0450CDE9001012E0E00707D02E
:102A500032463B4640464946FDF7B7FD804689462B
:102A600032463B4610461946FDF7AFFD06460F4677
:102A70006410002CEAD1DDE90401DDE90023BAF19C
:102A8000000F06DAFDF7A1FD42464B46FDF79DFD1E
:102A900005E0FDF70CFE42464B46FDF708FE0446F6
:102AA0000E460022284BFDF7A1FE03D84FF0FF3061
:102AB000014607E00022254B20463146FDF7DEFCAB
:102AC000FDF77BFE102409E0002C0ADB0A2200231C
:102AD000FDF776FB039B30321A55641E50EA010263
:102AE000F2D1641C039AC4F111031444119A012A0F
:102AF00003D0012208430DD10AE0084304D000208E
:102B00004FF0110B119072E7A3EB0B056D1E0DE05A
:102B10005B4504DD4FF0000205F1010504E003DA36
:102B20004FF00002A5F10105002AECD0029811999E
:102B3000C0E90231C0E9004579E700000000144017
:102B40000000F03F300000000000F0430000E03FD4
:102B50002DE9FF4F95B09B468946064600250FE2BA
:102B6000252877D100242746F84A0121059400E062
:102B7000044316F8013F203B01FA03F01042F7D15D
:102B800030782A2811D06FF02F033078A0F130026E
:102B9000092A16D8059A44F0020402EB820203EBDC
:102BA00042021044761C0590EFE759F8042B059279
:102BB000002A03DA504244F40054059044F0020421
:102BC000761C30782E2816D116F8010F44F0040434
:102BD0002A280DD06FF02F023078A0F13003092B96
:102BE00009D807EB870302EB4303C718761CF3E70A
:102BF00059F8047B761C30786C280FD006DC4C2802
:102C000017D068280DD06A2814D104E0742810D099
:102C10007A280FD10DE044F400140AE044F4801443
:102C200001E044F440147278824202D104F5801429
:102C3000761C761C307866280BD013DC582877D0A9
:102C400009DC002875D04528F6D04628F4D047285E
:102C50001AD19DE118E0632835D0642879D0652821
:102C600012D195E1702873D008DC6728F1D069286B
:102C70006FD06E280DD06F2806D1B5E073282CD008
:102C8000752875D0782874D05A46179990476D1CCE
:102C900075E1C4F30250022809D003280DD0D9F8F9
:102CA000001004280DD00D6009F1040967E1D9F87E
:102CB0000010EA17C1E90052F6E7D9F800100D80BC
:102CC000F2E70D70F0E719F8041B8DF800100020F2
:102CD0008DF80100EA46012003E059F804AB4FF0FB
:102CE000FF3061074FF0000102D40DE008F101014F
:102CF0008846B9420FDA8045F8DB1AF80810002937
:102D0000F4D108E008F1010188468142FADB1AF8A3
:102D100008100029F6D105985B46A0EB080721466C
:102D20003846179A00F094FA284400EB080507E0AB
:102D30004DE029E10DE01AF8010B5A46179990472A
:102D4000B8F10108F7D25B4621463846179A13E1DD
:102D500042E00A220092C4F302524FF0000A022A13
:102D600008D059F804CB032A4FEAEC710AD00DE0E1
:102D700029E02AE009F1070121F00702F2E802C187
:102D8000914609E00FFA8CFC4FEAEC71042A03D15A
:102D90004FFA8CFC4FEAEC71002907DA0A46002151
:102DA000DCF1000C61EB02012D2202E0220504D5CA
:102DB0002B228DF80420012203E0E20701D020221B
:102DC000F7E7904659E00A2102E010220DE01021B9
:102DD0004FF0000A00910BE010224FF0000A44F07F
:102DE00004040827009203E008224FF0000A009232
:102DF000C4F30252022A05D059F804CB0021032A59
:102E000008D009E009F1070121F00702F2E802C148
:102E1000914605E01FFA8CFC042A01D10CF0FF0C4E
:102E20004FF00008220728D5702806D0009B83F0B9
:102E3000100353EA0A0305D00EE040228DF8042067
:102E4000012208E05CEA010206D030228DF804205D
:102E50008DF8050002229046009B83F0080353EA98
:102E60000A030AD15CEA010201D1620705D53022CA
:102E70008DF804204FF001087F1E582804D034A09C
:102E800003900EA802900DE036A0F9E75346604685
:102E9000009AFDF795F984460398825C0298401EDB
:102EA000029002705CEA0100F0D1029806A9081AAB
:102EB00000F1200A600702D524F4803400E00127E5
:102EC000574502DDA7EB0A0000E0002000EB0A01F5
:102ED000009005984144401A0590E00306D45B46F3
:102EE0002146179A059800F0B3F90544002706E03B
:102EF00001A85A46C05D179990476D1C7F1C474535
:102F0000F6DBE0030CD55B462146179A059800F0E6
:102F10009FF9054404E030205A46179990476D1CEC
:102F20000099481E00900029F5DC08E002980299FB
:102F30005A460078491C0291179990476D1CBAF1C6
:102F40000001AAF1010AF1DC65E100000928010095
:102F5000303132333435363738396162636465660F
:102F600000000000303132333435363738394142D1
:102F7000434445460000000000F058F90544761C23
:102F8000307800287FF4ECAD19B02846BDE8F08F0A
:102F9000620700D4062709F1070222F0070CFCE8BB
:102FA0000223E14603F000485FEA080C02D00FF26A
:102FB000702C0DE05FEA045C02D50FF2682C07E08C
:102FC0005FEAC47C02D00FF2602C01E0AFF2700C1B
:102FD0004FF0FF3823F00043CDF850C065280CD0E7
:102FE00006DC452809D046281DD047283DD13DE0C4
:102FF000662818D067287ED138E00021112F01DB28
:10300000112000E0781CCDE9000106A90EA8FFF709
:10301000DDFCDDE90F010E9A03910021009207F11A
:10302000010A04914DE04FF000400097CDE90110F6
:1030300006A90EA8FFF7CAFCDDE90F0203920E9B5A
:1030400011990022DDF80CA00093049211B9791CAB
:1030500000EB010AB7EB0A0004D4C0F1FF3007F11E
:10306000010A0490AAEB0700019044E0012F00DA66
:1030700001270021112F01DD112000E03846CDE9A4
:10308000000106A90EA8FFF7A1FCDDE90F010E9AC9
:103090000391002104910092BA4621070CD40399B0
:1030A000514500DA8A46BAF1010F05DD009AAAF10E
:1030B0000101515C302908D0B84202DA10F1040F46
:1030C00006DA0121CDE9011015E0AAF10101E9E7D5
:1030D000002805DC049901440491AAEB000102E0F8
:1030E000411C514500DD8A460499401A401C01905C
:1030F0004FF000400290200704D40198504501DBB6
:10310000CDF8048000208DF84F0002980DF14F0794
:10311000B0F1004F25D02B200E9002984FF00208FE
:1031200000280CDA404202902D200E9007E00A2180
:103130000298FDF7DAF83031029007F8011DB8F176
:103140000001A8F10108F2DC02980028EFD1791EF5
:103150000E980870307800F0200040F0450007F825
:10316000020D12A8C01B00F107081498007800B1E6
:10317000012000EB0A01019801EBE0710598414440
:10318000401A401E0590E00306D45B462146179A7C
:10319000059800F05DF805441498007818B15A4677
:1031A000179990476D1CE00324D55B462146179A7A
:1031B000059800F04DF805441CE00498002807DB52
:1031C000DDE90301884203DD0098405C179901E0C6
:1031D000179930205A469047049805F10105401C84
:1031E00004900198401E019004D12E205A46179950
:1031F00090476D1CBAF10001AAF1010ADDDC05E07F
:1032000017F8010B5A46179990476D1CB8F1000149
:10321000A8F10108F4DC5B462146179A0598ABE655
:103220002D0000002B000000200000002DE9F041DF
:10323000044600251E461746880404D405E0394696
:103240002020B0476D1C641EF9D52846BDE8F081EA
:103250002DE9F041044600251E469046C80301D5DD
:10326000302700E02027880404D505E04146384691
:10327000B0476D1C641EF9D52846BDE8F0814A6848
:10328000002A06D00A68531C0B6010704868401E64
:103290004860704710B542F21074204600F002F901
:1032A0005A21C92000F090F8642000F0FBF848F69D
:1032B000FE11012000F088F8642000F0F3F843F2DA
:1032C0002151312000F080F8204600F0EBF85B211E
:1032D000C92000F079F85B21C62000F075F820467F
:1032E000BDE8104000F0DEB82DE9F05F354C074630
:1032F00000254FF4805B2A4659462046FDF779FCAD
:103300004FF40068002241462046FDF772FC0A2077
:1033100000F0C8F800264FF4005A0122414620462A
:10332000FDF767FC380601D5012200E00022514676
:103330002046FDF75EFC7806070E032000F0B2F889
:10334000002241462046FDF754FC032000F0AAF875
:10335000761CF6B2082EE0D30A2000F0A3F800266F
:103360004FF480494746012239462046FDF741FC8B
:10337000032000F097F86D0049462046FDF734FC25
:1033800008B145F00105002239462046FDF731FC21
:10339000032000F087F8761CF6B2182EE3D3012242
:1033A00059462046FDF725FC002239462046FDF708
:1033B00020FC002251462046FDF71BFC2846BDE8B4
:1033C000F09F0000001002402DE9F047344C0E46FB
:1033D00005464FF4805A002251462046FDF709FC6D
:1033E0004FF40068002241462046FDF702FC45F0FC
:1033F00080070A2000F056F800254FF400590122FA
:1034000041462046FDF7F5FB380601D5012200E0D4
:10341000002249462046FDF7ECFB7806070E032004
:1034200000F040F8002241462046FDF7E2FB032071
:1034300000F038F86D1CEDB2082DE0D300254746AA
:10344000012239462046FDF7D4FB300201D5012286
:1034500000E0002249462046FDF7CBFB7600032022
:1034600000F020F8002239462046FDF7C2FB032079
:1034700000F018F86D1CEDB2182DE1D30122514671
:103480002046FDF7B6FB002239462046FDF7B1FB8A
:1034900049462046BDE8F0470022FDF7AABB0000E0
:1034A00000100240002104E00222521C642AFCD3D6
:1034B000491C8142F8D3704782B0CDE9000121F068
:1034C000004001909DED000B02B051EC100B7047D5
:1034D00038B504468DF800000223012269460248EF
:1034E000FEF780F8204638BD080100202DED068B40
:1034F0009EB0FDF791FBFEF753F9FEF7D3F8FEF708
:1035000011F9FEF72BF90122BF49C048FDF7E6FF8C
:10351000FFF7C0FE9FEDBE8ADFF8F8929FEDBEABCD
:10352000DFF8E482A9F1180BA8F101080020C8F81F
:103530000C0088ED028A5F464546C8F8140000BFBB
:1035400007EB8001401C81ED008A68610628F7DBEB
:10355000FDF7DAF900263446B0EE4A9AF0EE6A9AA0
:10356000BB4603E0002401E0032C76D0A64806EB1E
:103570008601173000EB810A4FF47A705AF8241054
:1035800091FBF0F259F8241091FBF0F0101AFCF7BF
:103590006CFE41EC100BB0EE491AF0EE691AFEF722
:1035A00007FB51EC100BFCF784FE0BEB8607A860C1
:1035B000D7ED000A95ED020A10EE100A70EE800AAF
:1035C000C7ED000AFCF762FE41EC100B94A053EC2F
:1035D000102BFEF79DFA641C052CC5DB3868FCF740
:1035E00055FE41EC100B8FA053EC102BFEF790FA18
:1035F000761C062EB6DB8EA0FEF78AFA9BED000A3B
:10360000594685ED020A002001EB8002D5ED020A41
:1036100092ED000AB4EEE00AF1EE10FA02D285ED66
:10362000020AE860401C0628EEDB002279481146B9
:1036300010F1140000EB810350F821405B689C42BC
:1036400000D0521C40F82130491C0229F2DBE96805
:103650008160EAB129691CE0FFE7DAF80C1042F258
:10366000107091FBF0F2D9F80C1091FBF0F0101AE9
:10367000FCF7FBFD41EC100BB0EE491AF0EE691AB5
:10368000FEF796FA51EC100BFCF713FEA8608FE7DB
:10369000296168A0FEF73CFA26225C490EA8FCF7D7
:1036A000C0FD5A4CE08CADF85E0054F8280F18901D
:1036B000A088ADF86400E088ADF86600534909229F
:1036C00030318A461AA8FCF7ACFD607C8DF8710099
:1036D000A07C8DF8720060691D90296958A0CDE921
:1036E0000C01302212A96846FCF79BFD0DF1380C45
:1036F0009CE80F0000F0F1F843494FF6FF773B4696
:103700000322491C4148FDF76DFF26223F490EA8C0
:10371000FCF787FD34F8020CADF85E0020681890C5
:10372000A088ADF86400E088ADF866000922514633
:103730001AA8FCF776FD607C8DF87100A07C8DF8EE
:10374000720060691D90334E42A020363022B1686D
:10375000CDE90C0112A96846FCF763FD0DF1380CA8
:103760009CE80F0000F0B9F827493B460322491CAA
:103770002648FDF737FF262224490EA8FCF751FD05
:1037800034F8020CADF85E0020681890A088ADF8FF
:103790006400E088ADF86600092251461AA8FCF7DB
:1037A00040FD607C8DF87100A07C8DF8720060692E
:1037B0001D90B1692AA0CDE90C01302212A96846FA
:1037C000FCF72FFD0DF1380C9CE80F0000F085F898
:1037D0000D493B460322491C0C48FDF703FF28789E
:1037E00068B1094878211730FCF734FD6420FDF7F3
:1037F0000DF90220401C0A28FCDB002028704FF441
:103800004870FDF703F991E601000020480100200F
:1038100000000000C0000020000000000000004088
:1038200025662000646973743A2566200D0A20001D
:103830000D0A0000636C6173733A2025640D0A0061
:1038400074302E7478743D22D3C3B5E7C6F725646F
:10385000220000006E312E76616C3D256400000070
:103860006E322E76616C3D256400000000B52DEDB2
:10387000048B83B041EC190BFCF7F4FF41EC180BFF
:1038800018EE100A18EE901A8DED008B002818BF64
:103890000120084320F00040C0F17F6000F1E040CB
:1038A000C00F14D019EE101A19EE900A8DED009B7E
:1038B000002918BF0121084320F00040C0F17F60BB
:1038C00000F1E040C00F04BF0120FFF779F851EC90
:1038D000180B03B0BDEC048B00BD0FB4642100B520
:1038E00099B06846FCF7B6FC2BAB642168462A9A6F
:1038F000FEF71EF982B24FF0FF3369461AA8FDF7B2
:1039000071FE64216846FCF7A5FC19B05DF814FB54
:10391000000000000000000001020304060708097F
:103920000000000001020304000000000000F03F5E
:10393000000000000000F83F000000000000000050
:103940000000004003B8E23F00000000000000005B
:1039500006D0CF43EBFD4C3E033333333333E33FE9
:10396000FFAB6FDBB66DDB3F4D268F515555D53F15
:1039700001411DA96074D13F65DBC9934A86CD3FE3
:10398000EF4E454A287ECA3F3E5555555555C53FD1
:1039900093BDBE166CC166BF2CDE25AF6A56113FC3
:1039A000F16BD2C541BDBBBED0A4BE726937663EC5
:1039B0000000000000000000D839000800000020CE
:1039C000A8000000A0290008803A0008A8000020F4
:1039D000E0040000B02900080000FFFFFF00000025
:1039E00000000000000000000000000000000000D7
:1039F000F4010000050000001B0000000AD72300AE
:103A000048FFF7FF401F000089020000200300006C
:103A1000E83151007B0F0600A62B000060FAFFFF83
:103A2000651000009732D6FFB5B90900C50800003F
:103A30007800000018030000F0A71300BAAA0500E0
:103A40004B0B0000130000006F010000CA7C070050
:103A5000ABE106006D320C00C5A701004ADF04008F
:103A60008A202900009905000100000010000000D4
:103A7000000000000024F40000000000000000002E
:040000050800018965
:00000001FF
