:020000040800F2
:10000000A80400209D010008EF0F00084D0F000814
:10001000ED0F0008D5020008591300080000000089
:10002000000000000000000000000000F30F0008C6
:10003000D702000800000000F10F0008F50F0008CB
:10004000B7010008B7010008B7010008B7010008B0
:10005000B7010008B7010008B7010008B7010008A0
:10006000B7010008B7010008B7010008B701000890
:10007000B7010008B7010008B7010008B701000880
:10008000B7010008B7010008B7010008B701000870
:10009000B7010008B7010008B7010008B701000860
:1000A000B7010008B7010008B7010008B701000850
:1000B000B7010008B7010008B7010008B701000840
:1000C000B7010008B7010008B7010008B701000830
:1000D000B70100084D130008B7010008B701000878
:1000E000B7010008B7010008B7010008B701000810
:1000F000B7010008B7010008B7010008B701000800
:10010000B7010008B7010008B7010008B7010008EF
:10011000B7010008B7010008B7010008B7010008DF
:10012000B7010008B7010008B7010008B7010008CF
:10013000B7010008B7010008B7010008B7010008BF
:10014000B7010008B7010008B7010008B7010008AF
:10015000B7010008B7010008B7010008B70100089F
:10016000B7010008B7010008B7010008B70100088F
:10017000B7010008B7010008B7010008000000003F
:10018000B7010008B7010008DFF80CD000F090F8C4
:10019000004800478D150008A80400200648804745
:1001A00006480047FEE7FEE7FEE7FEE7FEE7FEE75C
:1001B000FEE7FEE7FEE7FEE77D1000088901000884
:1001C0002DE9F05F0546002092469B46884606468C
:1001D000814640241BE0284641464746224600F01F
:1001E00057F853465A46C01A914110D31146184643
:1001F000224600F03EF82D1A67EB01084F462246D2
:100200000120002100F035F817EB00094E41201EB7
:10021000A4F10104DFDC484631462A464346BDE8E6
:10022000F09FD2B201E000F8012B491EFBD27047CB
:100230000022F6E710B513460A4604461946FFF7B2
:10024000F0FF204610BD30B50B46014600202022AD
:10025000012409E021FA02F59D4205D303FA02F5D3
:10026000491B04FA02F52844151EA2F10102F1DC33
:1002700030BD202A04DB203A00FA02F1002070474A
:100280009140C2F1200320FA03F3194390407047D4
:10029000202A04DB203A21FA02F00021704721FADB
:1002A00002F3D040C2F12002914008431946704742
:1002B000064C074D06E0E06840F0010394E80700B3
:1002C00098471034AC42F6D3FFF762FF4816000897
:1002D00068160008FEE77047704790F8351002294D
:1002E00003D08021416501207047052180F8351039
:1002F0000068016821F001010160002070470000E2
:100300002DE9F84F00224FF0010803254FF00F0EA2
:100310000B6808FA02F42340A3426ED14E68012E06
:1003200005D0022E03D0112E01D0122E12D18668D4
:100330004FEA420C05FA0CF7BE43CF6807FA0CF7F8
:10034000374387604668A6430C79C4F30014944091
:1003500034434460C668570005FA07FC8C6826EAF7
:100360000C06BC403443C4604C68022C01D0122CF3
:1003700013D1D40800EB8404A346D4F8209054078A
:100380004FEAD46A0EFA0AF629EA06090E6906FA55
:100390000AF646EA0906CBF8206006680C7926EAD8
:1003A0000C0604F00304BC40344304604C68E400D1
:1003B00065D5364C266846F480462660246822F0CF
:1003C000030604F480440094314C3444A446D4F829
:1003D00008489607370F0EFA07F6B4432D4EB04281
:1003E00001D1002624E02C4EB04201D101261FE0AD
:1003F0002A4EB04202D102261AE040E0284EB04216
:1004000001D1032614E0274EB04201D104260FE0AB
:10041000254EB04201D105260AE0244EB04201D15A
:10042000062605E0224EB04201D1072600E008264C
:10043000BE402643CCF808681E4E34684F689C4383
:10044000FF0300D51C4334601A4C241D26684F68F6
:100450009E43BF0300D51E432660164E08363468FF
:100460004F689C43FF0200D51C433460114E0C368C
:1004700034684F689C43BF0200D51C433460521C53
:10048000102AFFF445AFBDE8F88F00004438024061
:100490000030014000000240000402400008024019
:1004A000000C0240001002400014024000180240FC
:1004B000001C0240003C0140014880687047000079
:1004C000040000200248816802781144816070476E
:1004D000040000200B4810B5016841F40071016070
:1004E000016841F480610160016841F4807101603C
:1004F000032000F071F8002000F006F800F024F866
:10050000002010BD003C024070B50D4D04464FF474
:100510007A712878B1FBF0F00A490968B1FBF0F074
:1005200000F006FB48B9102C07D200222146501ECD
:1005300000F032F800206C6070BD012070BD00003A
:1005400004000020100000200B4882B0016841F434
:1005500080410160006800F4804000900648001F60
:10056000016841F080510160006800F08050009007
:10057000052002B000F030B844380240002809DB02
:1005800000F01F02012191404009800000F1E020AD
:10059000C0F8001170470000F0B40E4B1B680C4609
:1005A000C3F30223C3F10705042D00D90425191D47
:1005B000072901D2002300E0DB1E012606FA05F11F
:1005C000491E214099409E40761E16403143F0BCA2
:1005D00000F0D2BE0CED00E0064900F0070208680A
:1005E0004FF6FF03184040EA0220034A1043086018
:1005F000704700000CED00E00000FA052DE9F0471F
:100600000E46050065D0DFF81481D8F80000F7B277
:1006100000F00F00B04207D288F80070D8F8000050
:1006200000F00F00B04254D128683D4C810712D52C
:10063000400703D5206840F4E05020602878000788
:1006400003D5206840F4604020602068A96820F04D
:10065000F000084320602878C0072DD03049686832
:100660000839012812D0022813D0032811D00968B4
:10067000890700292DDA216821F003010143216057
:10068000FFF71AFF814641F2883A0EE009688903B4
:10069000EFE709688901ECE7FFF70EFFA0EB09011E
:1006A000514502D90320BDE8F0872068696800F051
:1006B0000C00B0EB810FEFD1D8F80010404601F0EC
:1006C0000F01B14207D90770006800F00F00B04277
:1006D00001D00120E7E72878400705D52068E968C0
:1006E00020F4E050084320602878000706D52068F1
:1006F000296920F4604040EAC100206000F038F829
:100700002168084AC1F30311515CC84006490860DA
:1007100006480068FFF7F8FE0020C4E7003C0240EE
:10072000083802402D1600081000002008000020A4
:100730000448054900680968044AC1F38221515CF4
:10074000C840704710000020083802403D160008DD
:100750000448054900680968044AC1F34231515C04
:10076000C840704710000020083802403D160008BD
:10077000154810B5006810F00C02144813D0144945
:10078000042A0FD0082A0ED10F4C241F2268236898
:1007900002F03F025B0207D52068C0F38810A0FB7F
:1007A000010106E0084610BD2168C1F38811A1FBD4
:1007B00000010023FFF704FD2168C1F30141491C3A
:1007C0004900B0FBF1F010BD083802400024F400ED
:1007D00040787D012DE9F84F04006ED02078DFF8D5
:1007E0003C93C007A9F104054AD009F1040001684F
:1007F000C1F38101012908D00068C0F381000228FB
:100800000AD1D9F80000400206D52868800337D500
:1008100060680028E1D033E06068B0F5803F10D018
:10082000B0F5A02F286810D020F480302860286808
:1008300020F4802028606068A8B1FFF73DFE0646DE
:100840000DE0286840F48030F4E740F48020286010
:10085000F7E700BFFFF730FE801B642873D82868D5
:100860008003F7D50CE0FFF727FE064605E000BF42
:10087000FFF722FE801B6428F0D828688003F7D495
:100880002078DFF89C8280074FF0000A3ED5A3480D
:10089000001D016811F00C0F08D00068C0F3810042
:1008A00002280BD1D9F80000400207D4286880073D
:1008B00016D5E068012800D112E02BE1E068B8B15C
:1008C0000120C8F80000FFF7F7FD064605E000BF6D
:1008D000FFF7F2FD801B0228C0D828688007F7D5F3
:1008E0002868216920F0F80040EAC10028600DE086
:1008F000C8F800A0FFF7E0FD064604E0FFF7DCFDC6
:10090000801B02281FD828688007F7D420780007AA
:1009100022D5824E83486169703671B10121016030
:10092000FFF7CAFD074604E0FFF7C6FDC01B02281B
:1009300009D830688007F7D50EE0C0F800A0FFF7AF
:10094000BBFD074605E082E0FFF7B6FDC01B0228AD
:100950007DD830688007F7D42078400768D5DFF865
:10096000BCB100270BF13C0BDBF80000C0000BD43E
:10097000DBF8001041F08051CBF80010DBF80000EC
:10098000012700F080500090674E3068C00510D4F9
:10099000306840F480703060FFF78EFD009005E015
:1009A000FFF78AFD0099401A022850D83068C00528
:1009B000F6D55A4EA0686C3601280FD0052830684D
:1009C00010D020F001003060306820F0040030606A
:1009D000A068B8B1FFF770FD00900FE0306840F0FC
:1009E0000100F4E740F004003060F7E7FFF764FD32
:1009F0000099411A41F28830814266D830688007F8
:100A0000F4D50EE0FFF758FD009007E0FFF754FD26
:100A10000099411A41F28830814256D830688007E7
:100A2000F4D42FB1DBF8001021F08051CBF8001086
:100A3000A069C8B33949091D0968C1F381010229B8
:100A40004AD00228504607D0C8F8600000E03CE0D9
:100A5000FFF732FD04463BE04746C8F86000FFF769
:100A60002BFD064605E000BFFFF726FD801B022890
:100A70002BD828688001F7D4D4E907010843A16A7C
:100A80002A4A490802EB0141626A41EA821108439D
:100A900094F82C1040EA0161C9F800100120386672
:100AA000FFF70AFD044606E036E000BFFFF704FD4D
:100AB000001B022809D828688001F7D52CE000BF68
:100AC000FFF7FAFC001B022802D90320BDE8F88FCB
:100AD00028688001F4D41FE00128F7D0D9F800007D
:100AE000E26900F48001914214D1226A00F03F01D2
:100AF00091420FD147F6C071626A0140914209D11B
:100B0000A26A00F44031914204D1E16A00F07060C1
:100B1000884201D00120D9E70020D7E704380240FD
:100B200000004742800E4742007000400000FFFF77
:100B300010B5401EB0F1807F01D3012010BD4FF0F1
:100B4000E02460610F21601700F016FC0020A06116
:100B500007202061002010BD7047000070B50268BA
:100B600004461068D168536910F00F0F52D003F09B
:100B7000010501F490762E435FD0C20705D0CA0567
:100B800003D5E26B42F00102E263420705D5DA07C2
:100B900003D0E26B42F00202E263820705D5DA0776
:100BA00003D0E26B42F00402E263020707D501F0D2
:100BB00020022A4303D0E26B42F00802E263E26BB8
:100BC000002A33D0800604D5880602D5204600F0DE
:100BD00079FA20684069E16BC0F38010090700D4FE
:100BE00028B3204600F060FA2068416949061AD50A
:100BF000416921F040014161606BA0B11B49016571
:100C0000606BFFF76AFB002810D0606B016DBDE8D8
:100C100070400847830610D58B060ED52046BDE8E8
:100C2000704000F04FBA2046FFF796FF70BD204697
:100C3000FFF792FF0020E06370BD030606D50B06A8
:100C400004D52046BDE8704000F01CBB4006F3D53B
:100C50004806F1D5D168204621F04001D16020211D
:100C600084F8391000F071F970BD00009910000887
:100C700070B5040004D094F83900002510B106E0E6
:100C8000012070BD84F83850204600F023F824205D
:100C900084F839002068C16821F40051C160204601
:100CA00000F05CFA2068016921F49041016120683C
:100CB000416921F02A0141612068C16841F4005175
:100CC000C160E563202084F8390084F83A000020F0
:100CD00070BD0000F0B587B0044614216846FFF7E8
:100CE000A7FA274F23680022264902240325072656
:100CF0002548BB4224D1234B14331F6847F010070B
:100D00001F601B6803F0100305930B6843F0010399
:100D10000B60096802AB01F0010105916902CDE9A0
:100D2000001483E864006946FFF7EAFA0022012113
:100D30002520FFF731FC2520FFF720FC07B0F0BD90
:100D4000124FBB42FAD10F4B10331F6847F40037E4
:100D50001F601B6803F4003305930B6843F0010325
:100D60000B60096802AB01F0010105910C21CDE98E
:100D7000001483E864006946FFF7C2FADEE700006A
:100D800000100140303802400000024000440040A2
:100D900090F83A30202B22D1F9B1F2B190F83830E6
:100DA000012B1CD081628285C2850021C163222271
:100DB00080F83A2080F838100168CA6842F48072DE
:100DC000CA6001684A6942F001024A610068C1686C
:100DD00041F02001C16000207047012070470220CF
:100DE00070470000274900680968884248D1264AB0
:100DF000264B10461178407881B1012914D0022980
:100E000020D0032922D0042924D0052926D0062960
:100E100028D007292AD008292CD007E0592805D145
:100E200001211170187003E0592807D000201070BC
:100E300015490122491C1348FFF7AABF022111706E
:100E40005870F5E7032111709870F1E704211170D3
:100E5000D870EDE7052111701871E9E706211170CE
:100E60005871E5E7072111709871E1E708211170C9
:100E7000D871DDE709211170187258885080D7E7C2
:100E8000704700002400002000000020180000200F
:100E90002DE9F843044690F839001F4616460D46E2
:100EA000202850D1B5B1AEB194F8380001284AD00D
:100EB000012084F838004FF00008C4F83C8021205D
:100EC00084F83900FFF7F8FAA6848146E68484F8AE
:100ED000388026E00120BDE8F883E08C401EE084E5
:100EE000A0684B46B0F5805F4FF000024FF08001E4
:100EF0002046009703D000F0F6F9E8B90DE000F0C5
:100F0000F2F9C8B928882168C0F308004860206950
:100F100008B16D1C05E0AD1C03E0216815F8010B5C
:100F20004860E08C0028D8D14B4600224021204662
:100F3000009700F0D8F908B10320CCE7202084F80E
:100F400039000020C7E70220C5E77047FEE7000030
:100F5000094808B5016841F080010160016801F0AD
:100F600080010091016841F001010160006800F01A
:100F70000100009008BD0000303802400C4810B558
:100F80000A4901604FF4E1314160002181600C2287
:100F9000C160C0E904128161C161FFF769FE0028E8
:100FA00003D0BDE81040FFF797B910BD0010014015
:100FB000240000200C4810B50A4901604FF4E131CB
:100FC0004160002181600C22C160C0E9041281618E
:100FD000C161FFF74DFE002803D0BDE81040FFF7C8
:100FE0007BB910BD0044004064000020FEE770475C
:100FF00070477047FFF766BA30B593B03021684646
:10100000FFF716F914210CA8FFF712F9194800256B
:10101000016841F080510160006800F0805011903B
:101020001548016841F4804101600068022400F421
:1010300080401190012003901020049000940694A9
:101040000820CDE90750A820CDE9090404200B9021
:101050006846FFF7BFFB0CA90F2081E831004FF471
:10106000A0500F90E002109005210CA8FFF7C6FADF
:1010700013B030BD403802400070004005480168A0
:1010800041F47001016003494FF00060803908604D
:101090007047000088ED00E010B5806B0021C1852D
:1010A000C184FFF759FD10BD0168CA6822F490722F
:1010B000CA6001684A6922F001024A61202180F871
:1010C0003A10704710B590F83A10222901D002204A
:1010D00010BD8168B1F5805F11D0016900290168F8
:1010E0001FD0496801F07F03816A4A1C82620B703D
:1010F000C18D491E0904090CC18518D02BE0026975
:10110000816A002A0268526805D0D2B20A80816AD8
:10111000491C8162ECE7C2F308020A80816A891CDB
:10112000F7E74A68816A4B1C83620A70E0E701684E
:10113000CA6822F02002CA600168CA6822F480727C
:10114000CA6001684A6922F001024A61202180F8E0
:101150003A10FFF747FE002010BD00002DE9F041D6
:10116000044600680169E26821F4405111430161BD
:101170002169A068E2690843616911430843216855
:10118000CA6849F20C639A430243CA602068416905
:10119000A26921F4407111434161E0691927642576
:1011A0003226B0F5004F354A354920684FF0000827
:1011B00006D0884201D0904236D1FFF7C9FA35E017
:1011C000884201D0904202D1FFF7C2FA01E0FFF756
:1011D000AFFA61684A18A0FB070148EB0803FEF765
:1011E000EFFF0146B0FBF5F00201B1FBF5F06FF047
:1011F0001803584301EB800006EBC000B0FBF5F08C
:1012000000F0F80002EB4002B1FBF5F0584301EBAF
:10121000800006EBC000B0FBF5F000F0070021688D
:1012200010448860BDE8F081FFF782FA61688B0F97
:101230008A00A0FB0701FEF7C3FF0146B0FBF5F0F3
:101240006FF01802504301EB800006EB0010B0FB7A
:10125000F5F000F0F002B1FBF5F002EB0012B1FB8B
:10126000F5F06FF01803584301EB800006EB001017
:10127000B0FBF5F000F00F00D1E7000000140140D2
:101280000010014090F83910212901D00220704748
:101290008168B1F5805F016A0BD04A1C0262026866
:1012A00009785160C18C491E0904090CC1840ED013
:1012B00017E009880268C1F308015160016900293B
:1012C000016A02D0491C0162ECE7891CFBE7016856
:1012D000CA6822F08002CA600068C16841F040011B
:1012E000C160002070472DE9F041984617460E4630
:1012F0000446069D1DE0681C1BD02DB1FFF7DCF8ED
:10130000A0EB0800A84214D92068C16821F4D0716C
:10131000C1602068416921F001014161202084F809
:10132000390084F83A00002084F838000320BDE832
:10133000F0812068006836EA000004D00020B8423E
:10134000D9D00020F3E70120F9E700000148FFF7BA
:1013500005BC000024000020FEE700000FB4024698
:1013600010B504A9034B039800F026F810BC5DF8F3
:1013700014FB0000711500080907090E002804DBA2
:1013800000F1E02080F80014704700F00F0000F139
:10139000E02080F8141D704702E008C8121F08C141
:1013A000002AFAD170477047002001E001C1121FE6
:1013B000002AFBD1704700002DE9FF4F8BB09A4601
:1013C0000F460546002606E025280BD052460D990B
:1013D00090476D1C761C28780028F5D10FB0304658
:1013E000BDE8F08F0024A0460122604900E00443DC
:1013F00015F8013F203B02FA03F00842F7D12878A4
:101400002E2817D115F8010F44F004042A280ED015
:101410006FF02F022878A0F1300109290AD808EBD3
:10142000880102EB410100EB01086D1CF2E757F85F
:10143000048B6D1C287869283ED006DC0028CDD0AE
:1014400063280BD0642804D136E0732810D07528A7
:101450004BD052460D999047761C85E017F8040B47
:101460008DF8000000208DF80100E946012003E01E
:1014700057F8049B4FF0FF3061074FF0000401D490
:101480000AE0641C44450DDA8442FADB19F80410C2
:101490000029F6D106E0641C8442FCDB19F8041034
:1014A0000029F8D1264404E019F8010B52460D99A1
:1014B0009047641EF8D257E001CF4FF00A0B002886
:1014C00002DA40422D2102E0210504D52B218DF8BE
:1014D0002410012103E0E10705D02021F7E70DF1F9
:1014E000200908910CE00021F9E701CF4FF00A0B29
:1014F000F9E75946FEF7A7FE01F1300209F8012D80
:101500000028F6D1ADEB090000F1200B600701D4F3
:101510004FF00108D84502DDA8EB0B0000E00020E9
:101520008046002406E009A85246005D0D999047C8
:10153000641C761C08988442F5DB04E03020524697
:101540000D999047761CB8F10001A8F10108F5DC6F
:1015500005E019F8010B52460D999047761CBBF136
:101560000001ABF1010BF4DC6D1C34E7092801002C
:1015700038B504468DF8000002230122694602486E
:10158000FFF786FC204638BD6400002008B5FEF752
:10159000A1FFFFF731FDFFF7DBFCFFF7EFFCFFF7E3
:1015A00009FD012209490A48FFF7F2FB074C79259A
:1015B000641E084B08A20DA116480095FFF7CEFE49
:1015C000628815A11348FFF7C9FEF2E70100002069
:1015D00024000020281600082E2E2F436F72652F3E
:1015E0005372632F6D61696E2E6300005B09444284
:1015F000475D2846696C653A25732C2046756E63F5
:101600003A257328292C204C696E653A2564293ABD
:101610002000000014000020BEE0C0EBCEAA25642C
:101620000D0A0D0A000000006D61696E00000000E7
:101630000000000000010203040607080900000082
:1016400000010203040000006816000800000020EA
:1016500018000000981300088016000818000020E9
:1016600090040000A8130008000000000100000022
:1016700010000000000000000024F4000000000042
:040000050800018965
:00000001FF
