:020000040800F2
:10000000C804002045010008690300086B030008CC
:100010006F03000873030008770300080000000066
:100020000000000000000000000000007B0300084A
:100030007D030008000000007F0300088103000822
:100040005F0100085F0100085F0100085F01000810
:100050005F0100085F0100085F0100085F01000800
:100060005F0100085F0100085F0100085F010008F0
:100070005F0100085F0100085F0100085F010008E0
:100080005F0100085F0100085F0100085F010008D0
:100090005F0100085F0100085F0100085F010008C0
:1000A0005F0100085F0100085F0100085F010008B0
:1000B0005F0100085F0100085F0100085F010008A0
:1000C0005F0100085F0100085F0100085F01000890
:1000D0005F0100085F0100085F0100085F01000880
:1000E0005F0100085F0100085F0100085F01000870
:1000F0005F0100085F0100085F0100085F01000860
:100100005F0100085F0100085F0100085F0100084F
:100110005F0100085F0100085F0100085F0100083F
:100120005F0100085F0100085F0100085F0100082F
:10013000DFF80CD001F068FC004800479701000888
:10014000C80400200648804706480047FEE7FEE74F
:10015000FEE7FEE7FEE7FEE7FEE7FEE7FEE7FEE777
:10016000AD1800083101000810B5034607E0187803
:100170000C78A04201D0002010BD5B1C491C10006F
:10018000A2F10104A2B2F2D10120F5E700E0401E85
:100190000028FCD1704710B500F0F4F826A001F05B
:1001A00065FC00F0EDF900F0B7FB2D490860C820B0
:1001B000FFF7ECFF00F08BFB2A4908602848026833
:1001C0000846016828A001F051FC2648006834491F
:1001D00088422AD133A001F049FC002000F069FADE
:1001E00047220021384800F0C2FA374937A001F011
:1001F0003DFC472200213B4800F043FB32493AA036
:1002000001F034FC472237492F48FFF7ADFF3C4946
:10021000087008460078012803D13AA001F026FCB6
:1002200006E041A001F022FC02E048A001F01EFC23
:1002300000F0C5FB00BFFEE70D0A20D5E2CAC7D219
:10024000BBB8F6324DB4AED0D0666C617368285737
:10025000323558313629CAB5D1E9200D0A000000DF
:10026000480000204C0000200D0A20466C61736895
:10027000494420697320307825582C20204D616E28
:10028000756661637475726572204465766963652D
:1002900020494420697320307825580D0A00000059
:1002A0001530EF000D0A20BCECB2E2B5BDBBAAB020
:1002B000EEB4AED0D0666C617368205732355831D9
:1002C0003620210D0A000000000000200D0A20D079
:1002D000B4C8EBB5C4CAFDBEDDCEAAA3BA2573204F
:1002E0000D090000800000200D0A20B6C1B3F6B54C
:1002F000C4CAFDBEDDCEAAA3BA2573200D0A000034
:10030000500000200D0A20324DB4AED0D0666C6192
:1003100073682857323558313629B2E2CAD4B3C986
:10032000B9A6210A0D0000000D0A20324DB4AED04E
:10033000D0666C6173682857323558313629B2E27D
:10034000CAD4CAA7B0DC210A0D0000000D0A20BBE8
:10035000F1C8A1B2BBB5BD2057323558313620495E
:1003600044210A0D00000000704700BFFEE700BFF7
:10037000FEE700BFFEE700BFFEE77047704770472B
:100380007047000000B585B0012144F2040000F080
:1003900099FC4FF40070ADF8100018208DF8130090
:1003A00003208DF8120004A9734800F04DFD4FF4AE
:1003B0008060ADF8100004208DF8130004A96E4889
:1003C00000F042FD4FF4E13000900020ADF8040051
:1003D000ADF80600ADF80800ADF80C000C20ADF843
:1003E0000A006946654800F0B6FE0121634800F046
:1003F0003DFF05B000BD70B504460D46E1B25F4853
:1004000000F0A3FF00BF5D48008810F0800FFAD015
:10041000204670BDF0B5034600270E460A2A03D0D9
:10042000002030700846F0BD33B9302006F8010BCB
:10043000002030700846F6E7002B03DA2D2006F87E
:10044000010B5B4242F210740DE093FBF4F505B929
:1004500037B105F1300006F8010B05FB1433012715
:100460000A2094FBF0F4002CEFDC002030700846EA
:10047000D9E70FB470B586B004460CA8019073E0BC
:100480000B9800785C281CD10B98401C0B900078CE
:100490006E2809D072280FD10D21204600F055FF9B
:1004A0000B98401C0B900BE00A21204600F04DFFFA
:1004B0000B98401C0B9003E00B98401C0B9000BF66
:1004C0004BE00B980078252840D10B98401C0B90EE
:1004D0000078642818D0732833D1019820C801907F
:1004E0000BE02978204600F030FF00BF4021204675
:1004F00000F099FF0028F9D06D1C28780028F0D171
:100500000B98401C0B9020E0019840C801900A22F3
:1005100002A93046FFF77EFF02AD0BE029782046A6
:1005200000F013FF00BF4021204600F07CFF0028B0
:10053000F9D06D1C28780028F0D10B98401C0B9046
:1005400003E00B98401C0B9000BF06E00B9810F8DE
:10055000011B0B90204600F0F8FE00BF4021204612
:1005600000F061FF0028F9D00B980078002887D1AF
:1005700006B070BC5DF814FB000801400038014073
:1005800000B587B00121242000F09CFB0121080365
:1005900000F098FB0121084600F094FB2020ADF804
:1005A000040003208DF8060018208DF8070001A92B
:1005B000FF4800F049FC4020ADF8040001A9FC48C8
:1005C00000F042FC8020ADF8040001A9F84800F0DA
:1005D0003BFC1020ADF804008DF8070001A9F44899
:1005E00000F032FC1021F24800F0D6FC0020ADF8FB
:1005F00008004FF48270ADF80A000020ADF80C003E
:100600000220ADF80E000120ADF810004002ADF858
:1006100012000820ADF814000020ADF816000720E5
:10062000ADF8180002A9E34800F07CFF0121E14881
:1006300001F018F807B000BD10B5044600BF022154
:10064000DC4801F098F80028F9D02146D94801F09B
:100650003FF800BF0121D74801F08DF80028F9D0FC
:10066000D44801F037F8C0B210BD10B500241021F5
:10067000CF4800F093FC0520FFF7DEFF00BFFF200E
:10068000FFF7DAFF044604F001000128F7D010213B
:10069000C74800F081FC10BD10B51021C44800F01F
:1006A0007DFC0620FFF7C8FF1021C14800F074FC54
:1006B00010BD10B50446FFF7EFFFFFF7D6FF10217E
:1006C000BB4800F06BFC2020FFF7B6FFC4F30740E7
:1006D000FFF7B2FFC4F30720FFF7AEFFE0B2FFF76A
:1006E000ABFF1021B24800F057FCFFF7BEFF10BD72
:1006F00010B5FFF7D1FF1021AD4800F04FFCC72027
:10070000FFF79AFF1021AA4800F046FCFFF7ADFF63
:1007100010BD70B504460D461646FFF7BDFF10210B
:10072000A34800F03BFC0220FFF786FFC5F307401B
:10073000FFF782FFC5F30720FFF77EFFE8B2FFF760
:100740007BFFB6F5807F01DD4FF4807603E02078F3
:10075000FFF772FF641C3000A6F101018EB2F6D1E2
:100760001021934800F018FCFFF77FFF70BD2DE9C2
:10077000F05F04460D4616460027B846B946BA460D
:10078000BB4605F0FF09C9F1000000F0FF0A304642
:10079000F11706EB1161C1F30727F11706EB1161A1
:1007A0000912A6EB012101F0FF08B9F1000F1CD1DD
:1007B0002FB9324629462046FFF7ABFF5FE009E03C
:1007C0004FF4807229462046FFF7A3FF05F5807598
:1007D00004F580743800A7F10101CFB2F0D1424690
:1007E00029462046FFF795FF49E0C7B9D04510DDFF
:1007F000A8EB0A0000F0FF0B524629462046FFF7FF
:1008000088FF554454445A4629462046FFF781FF45
:1008100035E0324629462046FFF77BFF2FE0A6EB66
:100820000A0086B23046F11706EB1161C1F30727C3
:10083000F11706EB11610912A6EB012101F0FF0887
:10084000524629462046FFF764FF5544544409E0C8
:100850004FF4807229462046FFF75BFF05F580754F
:1008600004F580743800A7F10101CFB2F0D1B8F1DE
:10087000000F04D0424629462046FFF74AFFBDE854
:10088000F09F70B504460D4616461021484800F00A
:1008900085FB0320FFF7D0FEC5F30740FFF7CCFE32
:1008A000C5F30720FFF7C8FEE8B2FFF7C5FE04E076
:1008B000FF20FFF7C1FE2070641C3000A6F101018B
:1008C0008EB2F5D110213A4800F066FB70BD2DE9DB
:1008D000F04100240025002600271021344800F0B4
:1008E0005DFB9F20FFF7A8FEFF20FFF7A5FE054652
:1008F000FF20FFF7A1FE0646FF20FFF79DFE0746FB
:1009000010212B4800F048FB280440EA062040EA6A
:1009100007042046BDE8F08110B5002410212448CA
:1009200000F03CFBAB20FFF787FEFF20FFF784FEC3
:10093000FF20FFF781FEFF20FFF77EFEFF20FFF77D
:100940007BFE044610211A4800F026FB204610BD0D
:1009500010B504461021164800F020FB0320FFF7D5
:100960006BFEC4F30740FFF767FEC4F30720FFF7F1
:1009700063FEE0B2FFF760FE10BD10B5FF20FFF789
:100980005BFE10BD10B5044600BF0221094800F00F
:10099000F2FE0028F9D02146064800F099FE00BF7B
:1009A0000121044800F0E7FE0028F9D0014803E0E7
:1009B000000801400030014000F08CFE10BD10B571
:1009C00010210C4800F0EAFAB920FFF735FE10219B
:1009D000084800F0E1FA10BD10B51021054800F0FC
:1009E000DDFAAB20FFF728FE1021024800F0D4FA10
:1009F00010BD000000080140DB48006840F0010025
:100A0000D949086008464068D8490840D649486036
:100A100008460068D6490840D3490860084600687F
:100A200020F4802008600846406820F4FE004860FA
:100A30004FF41F0088607047CB49096821F480316A
:100A4000C94A11601146096821F480211160B0F58E
:100A5000803F03D0B0F5802F0ED106E0C24909686F
:100A600041F48031C04A116007E0BF49096841F490
:100A7000A021BD4A116000E000BF00BF704710B563
:100A800001460022002300204A11012A02D1B64C5F
:100A9000236806E0022A02D1B34C236A01E0B24C7B
:100AA000636A01F01F02012494401C4201D001201E
:100AB00000E0002010BD70B500240025002600BF16
:100AC0003120FFF7DCFF0646641CB4F5A06F01D0AF
:100AD000002EF5D03120FFF7D2FF08B1012500E04C
:100AE0000025284670BD00219F4A116821F0F801B9
:100AF00041EAC001116070479E49086070470022BA
:100B0000994B5A6822F47C1240EA01031A43964B2F
:100B10005A6070479749086670470021924A5168A9
:100B200021F003010143516070478F48406800F095
:100B30000C00704700218C4A516821F0F0010143FC
:100B4000516070470021884A516821F4E0610143F7
:100B5000516070470021844A516821F4605141EA94
:100B6000C0015160704729B17F4A527A02437E4BDF
:100B70005A7206E07C4A527AC343DBB21A407A4B7F
:100B80005A7270477B49D831086070470021764A15
:100B9000516821F440410143516070470021724A7D
:100BA00020321170704A82F82010012802D00428E7
:100BB0000AD104E001216C4A2032117005E00521C0
:100BC000694A2032117000E000BF00BF70476A49D7
:100BD000086070476449096A0143634A11627047BB
:100BE000654944390860704730B500210022002370
:100BF00000245D4D6D6805F00C0121B1042905D07C
:100C0000082923D105E05D4D056022E05B4D0560BC
:100C10001FE0554D6D6805F47012534D6D6805F475
:100C20008033022505EB92421BB9554D55430560B3
:100C30000BE04D4D6D6815F4003F03D0504D55430A
:100C4000056002E04D4D5543056002E04B4D0560E7
:100C500000BF00BF444D6D6805F0F0010909494D22
:100C60006C5C0568E54045603F4D6D6805F4E061EA
:100C7000090A444D6C5C4568E54085603A4D6D68F5
:100C800005F46051C90A3F4D6C5C4568E540C5609C
:100C9000354D6D6805F44041890B3A4D10356C5C5B
:100CA000C568B5FBF4F5056130BD29B12E4A52691E
:100CB00002432D4B5A6104E02B4A526982432A4B6E
:100CC0005A61704729B1284A92690243264B9A61BA
:100CD00004E0254A92698243234B9A61704729B107
:100CE000214AD2690243204BDA6104E01E4AD269EC
:100CF00082431D4BDA61704729B11B4AD268024317
:100D0000194BDA6004E0184AD2688243164BDA6065
:100D1000704729B1144A12690243134B1A6104E067
:100D2000114A12698243104B1A61704712494039C7
:100D3000086070470F49C86470470B49C871704715
:100D40000948406A40F08070074948627047014690
:100D50000020054A92680A4201D0012000E00020EC
:100D60007047014988727047001002400000FFF888
:100D7000FFFFF6FE000042428004424200127A0069
:100D800000093D005100002010B50446C7488442C8
:100D900008D101210420FFF7AFFF00210420FFF755
:100DA000ABFF46E0C248844208D101210820FFF78A
:100DB000A3FF00210820FFF79FFF3AE0BD488442CF
:100DC00008D101211020FFF797FF00211020FFF725
:100DD00093FF2EE0B848844208D101212020FFF77C
:100DE0008BFF00212020FFF787FF22E0B3488442D9
:100DF00008D101214020FFF77FFF00214020FFF7AD
:100E00007BFF16E0AE48844208D101218020FFF725
:100E100073FF00218020FFF76FFF0AE0A94884429A
:100E200007D101218015FFF767FF0021A015FFF70B
:100E300063FF10BD10B501210846FFF75DFF0021DB
:100E40000120FFF759FF10BDF0B500220023002458
:100E500000250026002791F803C00CF00F0291F83E
:100E600003C01CF0100F03D091F802C04CEA02023C
:100E7000B1F800C01CF0FF0F31D0066800242BE051
:100E80004FF0010C0CFA04F5B1F800C00CEA0503B0
:100E9000AB4220D1A5004FF00F0C0CFA05F7BE4372
:100EA00002FA05FC4CEA060691F803C0BCF1280FD3
:100EB00006D14FF0010C0CFA04FCC0F814C00AE093
:100EC00091F803C0BCF1480F05D14FF0010C0CFAAA
:100ED00004FCC0F810C0641C082CD1D30660B1F823
:100EE00000C0BCF1FF0F34DD466800242EE004F1A1
:100EF000080C4FF0010E0EFA0CF5B1F800C00CEA28
:100F00000503AB4221D1A5004FF00F0C0CFA05F7F9
:100F1000BE4302FA05FC4CEA060691F803C0BCF198
:100F2000280F05D104F1080C0EFA0CFEC0F814E0ED
:100F300091F803C0BCF1480F07D104F1080C4FF041
:100F4000010E0EFA0CFEC0F810E0641C082CCED383
:100F50004660F0BD4FF6FF710180022181700421CF
:100F6000C17070470246002093680B4201D00120F7
:100F700000E0002070470146886880B27047024652
:100F80000020D3680B4201D0012000E00020704710
:100F90000146C86880B2704701617047416170477F
:100FA0000AB1016100E041617047C16070474FF4D0
:100FB00080320A43826181618261826982697047FD
:100FC0000022414B1A684FF680731A4042EA001221
:100FD0000A433D4B1A6070473C49C8617047F0B501
:100FE000002200230024002500F00046B6F1004F47
:100FF00002D1354EF46901E0334E7468C0F3034505
:1010000082B200F44016B6F5401F08D124F0706497
:101010002D4E766826F070662B4F7E6012E000F44D
:101020008016B6F5801F06D1032606FA05F39C4309
:1010300044F0706406E0460D360102FA06F6B44349
:1010400044F0706421B1460D360102FA06F63443CD
:1010500000F00046B6F1004F02D11B4EF46101E0F2
:10106000194E7460F0BD30B500228B071C0F0F23A2
:1010700003FA04F2144B08338C1053F824409443C1
:101080008D1043F825408C1053F824308C07240F22
:1010900000FA04F423430C4C08348D1044F8253036
:1010A00030BD0A49DC31086070470000000801408B
:1010B000000C0140001001400014014000180140E4
:1010C000001C0140002001400000014000002042BF
:1010D00010B50446FB48844209D101218803FFF77B
:1010E0000BFE00214FF48040FFF706FE32E0F64889
:1010F000844209D101214804FFF70BFE00214FF47F
:101100000030FFF706FE25E0F048844209D10121B6
:101110008804FFF7FEFD00214FF48020FFF7F9FD62
:1011200018E0EB48844209D10121C804FFF7F1FD22
:1011300000214FF40020FFF7ECFD0BE0E54884426E
:1011400008D101210805FFF7E4FD00214FF48010CC
:10115000FFF7DFFD10BD2DE9F04786B004460D46D0
:101160000026002700BFB146B246A88900B100BFE3
:10117000A246268A4CF6FF700640E888064326827F
:10118000A6894EF6F3100640A88829890843698984
:1011900008430643A681A68A4FF6FF400640A88969
:1011A0000643A68201A8FFF71FFD5446C5488245A5
:1011B00001D1049F00E0039FA08910F4004F08D0E4
:1011C00007EBC70000EB071029684900B0FBF1F8F6
:1011D00007E007EBC70000EB071029688900B0FBA8
:1011E000F1F86420B8FBF0F006013009642101FB3E
:1011F0001089A08910F4004F09D0322101EBC900F9
:101200006421B0FBF1F000F00700064308E0322152
:1012100001EB09106421B0FBF1F000F00F00064370
:10122000268106B0BDE8F0874FF416510160002119
:101230008180C18001810C21418100218181704721
:1012400010B50022028A4FF2FF031A400B884C8827
:1012500023438C882343CC8823431A43028210BD46
:101260000021018041808180C180704721B1828945
:1012700042F40052828104E082894DF6FF731A40E5
:1012800082817047F0B50024002500260023A1F5D7
:1012900010676A3F00D100BF0346C1F3421401F05A
:1012A0001F05012707FA05F6012C01D10C3304E0D4
:1012B000022C01D1103300E014331AB11F683743F8
:1012C0001F6002E01F68B7431F60F0BD10B51AB180
:1012D000838A0B43838204E0838ACC43A4B22340F5
:1012E000838210BD028A4FF6F0731A400282028A8E
:1012F0000A430282704782894FF2FF731A4082814B
:1013000082890A438281704721B1828942F00202B8
:10131000828104E082894FF6FD731A408281704712
:10132000028A4FF6DF731A400282028A0A4302825F
:10133000704721B1028A42F48042028204E0028AAC
:101340004BF6FF731A4002827047C1F30802828095
:10135000704701468888C0F308007047818941F0D2
:10136000010181817047028BD2B20283028B42EA73
:10137000012202837047028B02F47F420283028BB8
:101380000A430283704721B1828A42F0200282829E
:1013900004E0828A4FF6DF731A408282704721B1DF
:1013A000828A42F01002828204E0828A4FF6EF7352
:1013B0001A408282704721B1828A42F008028282FA
:1013C00004E0828A4FF6F7731A408282704721B197
:1013D000828942F40042828103E08289C2F30E02D4
:1013E0008281704721B1828A42F40062828204E0E5
:1013F000828A4FF2FF731A4082827047828A4FF6C8
:10140000FB731A408282828A0A438282704721B12A
:10141000828A42F00202828204E0828A4FF6FD73E1
:101420001A408282704702460020B1F5007F00D149
:1014300000BF13880B4201D0012000E0002070475C
:1014400001F40072B2F5007F00D100BFCA430280F0
:10145000704770B502460023002400250020A1F546
:1014600010666A3E00D100BFC1F3421501F01F04AF
:10147000012606FA04F4012D02D19689344006E0D3
:10148000022D02D1168A344001E0968A34400B12B4
:10149000012606FA03F31688334014B10BB101207C
:1014A00000E0002070BD10B500220023A1F51064FB
:1014B0006A3C00D100BF0A1201249440A3B2DC436D
:1014C000048010BD00380140004400400048004046
:1014D000004C00400050004010B50446BE48844215
:1014E00008D101218014FFF707FC0021A014FFF7A9
:1014F00003FC16E0B948844208D101210014FFF72B
:1015000008FC00212014FFF704FC0AE0B4488442E0
:1015100007D10121C013FFF7FCFB0021E013FFF707
:10152000F8FB10BD10B50022028802F441520B886E
:101530004C8823438C882343CC8823430C89234342
:101540004C8923438C892343CC8923431A4302804B
:10155000838B4FF2FF74234083830B8A038210BD79
:101560002DE9F04F85B004460D4600260227B0460F
:101570004FF00109B246B346A08B4FF2400108403C
:10158000A08302202084A68BA868022801D100BF76
:1015900038E0A88810B94FF0010901E04FF00209C6
:1015A0008E48844200D100E000BF6846FFF71CFB74
:1015B000DDF800B0E888B0F5007F0BD14FEA1B20C2
:1015C00000EB80004000A968B0FBF1F0401D1FFA5D
:1015D00080FA0CE04FEA4910BBFBF0F000EB800012
:1015E0004000A968B0FBF1F0401D1FFA80FA0A2004
:1015F000BAFBF0FA0AF00108AAEB0800C0F34F07A3
:101600004FEA0828022F01DBFF2F02DD02274FF0EF
:101610000008E88840EA080038432084A888A9899F
:101620000843698808432988084340F4006006435A
:10163000A68305B0BDE8F08F002101804180818044
:10164000C180018141818181C1810721018270476F
:101650000021018041808180C180022181600021C0
:101660008181704721B1028842F04002028004E08B
:1016700002884FF6BF731A400280704721B1828BF7
:1016800042F48062828304E0828B4FF6FF331A407B
:101690008283704770B5002300240B1101259D4003
:1016A000ACB21AB185882543858004E08588E6437D
:1016B000B6B23540858070BD10B51AB183880B4332
:1016C000838004E08388CC43A4B22340838010BD90
:1016D00081817047014688897047A1F57E42FF3AB3
:1016E00004D0028842F48072028004E002884FF63F
:1016F000FF631A400280704721B1828842F00402E1
:10170000828004E082884FF6FB731A408280704723
:1017100002884FF2FF731A40028002880A43028057
:101720007047018841F480510180704721B10288DF
:1017300042F40052028004E002884DF6FF731A4022
:101740000280704702460020012901D0108B00E082
:10175000908A70470146088A7047B1F5804F04D1DE
:10176000028842F48042028004E002884BF6FF7354
:101770001A40028070470246002013890B4201D0B4
:10178000012000E000207047CA4302817047F0B595
:101790000246002000230024002501F00F07012647
:1017A000BE40B3B20C110126A640B4B2968806EA38
:1017B000040516891E4202D00DB1012000E0002070
:1017C000F0BD10B5002201F00F040123A3409AB22E
:1017D000D343038110BD00000030014000380040B9
:1017E000003C004000200021674A126842F4803229
:1017F000654B1A6000BF644A126802F40031401C55
:1018000011B9B0F5A06FF6D15F4A126812F4003F2B
:1018100001D0012100E00021012942D15B4A126878
:1018200042F01002594B1A601A46126822F0030265
:101830001A601A46126842F002021A60524A52684E
:10184000514B5A601A4652685A601A46526842F41E
:1018500080625A601A46526822F47C125A601A4614
:10186000526842F4E8125A601A46126842F08072D6
:101870001A6000BF444A126812F0007FFAD0424A50
:10188000526822F00302404B5A601A46526842F0F6
:1018900002025A6000BF3C4A526802F00C02082A59
:1018A000F9D1704710B5FFF79DFF10BD10B5364850
:1018B000006840F001003449086008464068344937
:1018C00008403149486008460068324908402E49BE
:1018D00008600846006820F48020086008464068D8
:1018E00020F4FE0048604FF41F008860FFF7DAFF25
:1018F0004FF000602849086010BD10B5002000219D
:101900000022214B5B6803F00C0020B1042806D0B4
:10191000082828D107E0214B214C236027E01F4BEA
:101920001F4C236023E0184B5B6803F47011164BC7
:101930005B6803F48032022303EB914122B9194B17
:101940004B43174C23600DE00F4B5B6813F4003FD3
:1019500004D0144B4B43124C236003E00F4B4B431A
:101960000F4C236003E00D4B0D4C236000BF00BF04
:10197000054B5B68C3F303130B4CE05C084B1B681F
:10198000C340074C236010BD0010024000200240FD
:101990000000FFF8FFFFF6FE08ED00E000127A00FD
:1019A0006800002000093D006C0000202DE9F04790
:1019B000002591469A46074688462E46402418E060
:1019C00022464146384600F041F8B0EB090071EB81
:1019D0000A010ED322465146484600F027F83F1A26
:1019E00068EB010822460021012000F01FF845198C
:1019F0004E41201EA4F10104E2DC284631463A465D
:101A00004346BDE8F0870000064C074D06E0E0685D
:101A100040F0010394E8070098471034AC42F6D335
:101A2000FEF78AFB901D0008B01D0008202A04DB89
:101A30000023203A00FA02F106E000FA02F3914096
:101A4000C2F12002D040014318467047202A04DB2F
:101A5000203A21FA02F000217047D040C2F1200361
:101A600001FA03F31843D140704700000FB410B5DA
:101A700003A9044B044A029800F018F810BC5DF862
:101A800014FB0000F70300087C00002002E008C8F7
:101A9000121F08C1002AFAD170477047002001E0E8
:101AA00001C1121F002AFBD1704700002DE9FF4F32
:101AB00091B004469B460F46002645E1252876D185
:101AC0000025641CA74AA84601212378203B01FA7F
:101AD00003F0104202D00543641CF6E720782E285C
:101AE00018D114F8010F45F004052A280BD157F836
:101AF000048B641C0EE008EB880002EB400001EB55
:101B00000008641C01E06FF02F022178A1F1300081
:101B10000928F0D920786C280CD006DC4C2811D08C
:101B20006A2810D145F400150CE074280AD07A28F0
:101B300009D107E0617845F48015814202D1641C27
:101B400005F58015641C2078692808D018DC002869
:101B500070D058281CD063281FD06428AFD10A2128
:101B60000020CDE90C10C5F30250022845D1FF1D1D
:101B700027F00707D7E900010837CDE90E0140E05B
:101B800070285AD0732813D0752854D0782896D14D
:101B900010210022CDE90C1257E001CF8DF83C0056
:101BA00000208DF83D000DF13C09012004E0D3E058
:101BB00057F8049B4FF0FF3069074FF000050AD536
:101BC00000E06D1C45450EDA8542FADB19F8051078
:101BD0000029F6D107E000E06D1C8542FCDB19F816
:101BE00005100029F8D12E4404E019F8010B5A46DB
:101BF000139990476D1EF8D2A5E001CFC117CDE92A
:101C00000E010023C01A994109DADDE90E014042B4
:101C100061EB4101CDE90E014FF02D0002E02805F6
:101C200004D52B208DF80C0001203BE0E80739D0CB
:101C30002020F7E78CE00A21ABE710210022CDE954
:101C40000C1245F004054FF00808C5F302510229B3
:101C500008D1FF1D27F00707D7E90012CDE90E12C2
:101C6000083703E002CF0022CDE90E124FF0000A40
:101C7000290718D5702801D14020D3E7DDE90C01F0
:101C80001022504008430ED1DDE90E0100235940D7
:101C90005840084307D030208DF80C0020788DF88C
:101CA0000D000220824621782FA0582900D033A0B1
:101CB0000DF1300901900DE0DDE90C23DDE90E01A5
:101CC000FFF774FE019B9B5CA9F101021370914622
:101CD000CDE90E01DDE90E010023594058400843CB
:101CE000EAD104A9A1EB090020300290680701D4D1
:101CF0004FF0010802990020884501DDA8EB0100A2
:101D00008046002506E003A8405D5A461399904797
:101D1000761C6D1C5545F6DB04E030205A461399BD
:101D20009047761CB8F10000A8F10108F5DC05E049
:101D300019F8010B5A4613999047761C0298411ED8
:101D400002910028F4DC641C207800287FF4B6AEF1
:101D5000304615B0BDE8F08F5A4613999047761C6F
:101D6000F1E70000092801003031323334353637CD
:101D70003839414243444546000000003031323397
:101D800034353637383961626364656600000000B7
:101D9000B01D000800000020800000008C1A000820
:101DA000301E000880000020480400009C1A000833
:101DB00020B8D0D0BBC4FAD1A1D3C3D2B0BBF0738A
:101DC000746D3332BFAAB7A2B0E50D0A20202020DF
:101DD00020202020202020202020202068747470C3
:101DE0003A2F2F6669726573746D33322E74616F8A
:101DF00062616F2E636F6D00000000000000000044
:101E000000000000000102030401020304060708A9
:101E1000090204060800000000A24A0400000000B5
:101E2000000000000102030406070809000000008A
:0400000508000131BD
:00000001FF
