:020000040800F2
:100000003805002001010008971C0008431A000869
:10001000951C00089F0800089520000800000000BB
:100020000000000000000000000000009B1C000811
:10003000A108000800000000991C00089D1C000891
:100040001B0100081B0100081B0100081B01000820
:100050001B0100081B0100081B0100081B01000810
:100060001B0100081B0100081B0100081B01000800
:100070001B0100081B0100081B0100081B010008F0
:100080001B0100081B0100081B0100081B010008E0
:100090001B0100081B0100081B0100081B010008D0
:1000A0001B0100081B0100081B0100081B010008C0
:1000B0001B0100081B010008000000001B010008D4
:1000C0001B01000800000000000000001B010008E8
:1000D00000000000892000081B010008000000004B
:1000E000A30800081B0100081B010008DFF80CD062
:1000F00000F0B6FB00480047092A00083805002038
:100100000648804706480047FEE7FEE7FEE7FEE7B1
:10011000FEE7FEE7FEE7FEE7FEE7FEE7EF1C00086E
:10012000ED000008202A04DB203A21FA02F0002129
:10013000704721FA02F3D040C2F1200291400843F7
:1001400019467047D2B201E000F8012B491EFBD2DC
:1001500070470022F6E710B513460A4604461946D2
:10016000FFF7F0FF204610BDF0B480EA0102D40F83
:100170004200B2EB410F02D20246084611464A0045
:1001800042D0C30DDDB2C1F3C752AD1A202D35DA0E
:10019000C1F3160141F4000204B15242C5F1200638
:1001A00002FA06F12A411044B3EBD05F23D0C4B168
:1001B000012DA0EBC35009DCF0BC4FF0004202EA75
:1001C000C352DBB200F5000000F0A8BA400000F115
:1001D000807000EBC350A0F1807040EAD1704900FC
:1001E00009E0490841EAC071A0EBC35000F50000E6
:1001F000400800EBC350F0BC00F087BA6142012216
:1002000002EB4101001BF6E7F0BC704781F00041B2
:10021000AAE780F00040A7E780EA010210B502F0EB
:100220000043400022D04A001FD0010E01EB1261B2
:10023000C0F35600C2F3560240F4000042F400023C
:10024000A0FB022000047F39140400D0401C50EAB7
:10025000124001D44000491EC2B20C0604EBD0107B
:10026000401C4008802A02D003E0002010BD20F08E
:100270000100002900DA0020184310BD30B480EAE4
:10028000010202F0004530F0004221F0004013D09E
:1002900090B1C30DD40DC2F31601C0F31600E41AD9
:1002A00041F4000140F400027D34914201D3641C0A
:1002B00000E04900002C02DA30BC002070474FF407
:1002C00000000023914201D3891A034340084FEAFA
:1002D0004101F7D151B1914202D14FF0004105E007
:1002E00002D24FF0010101E06FF0010103EBC450B5
:1002F000284430BC00F009BA2DE9FE4F804681EA5F
:100300000300C00F0C46009021F0004123F000458F
:10031000B8EB0200A94105D24046214690461C4652
:100320000B46024623F00040104347D0270DC7F389
:100330000A00C3F30A510290401A019040286BDA78
:10034000C3F3130040F4801B0098924620B10023B1
:10035000D2EB030A63EB0B0B01985946C0F1400244
:10036000504600F0B1F906460D4650465946019AEE
:1003700000F0B9F910EB08006141002487EA11523E
:1003800084EAE7731A4340D0009A62B3019A012AC3
:100390004FEA075215DC001B61EB02014FF00042EF
:1003A00002EA0752CDE90042001C41F580113246B5
:1003B0002B4600F0F0F903B0BDE8F08F404621462F
:1003C000F9E7001B61EB0201001C41F580130018E6
:1003D0005B412018A2F5001747EB030140EAD570F6
:1003E000B6196D4111E06D084FEA360645EAC07551
:1003F0004FEA0752001B61EB0201001C41F580111E
:1004000049084FEA30000019514132462B4603B0EB
:10041000BDE8F04F00F0B0B9009801224000002381
:10042000D0EB020263EBE073009821464FEAE074E0
:10043000B8EB000061EB0401E9E783F000435BE700
:1004400081F0004158E72DE9FE4F81EA030404F0F2
:10045000004421F0004100944FF0000B23F00043D2
:1004600050EA01045ED052EA03045BD0C3F30A549D
:10047000C1F30A552C44A4F2F3340194A0FB0254B6
:10048000C1F3130141F48011C3F3130343F4801348
:1004900001FB024400FB034E840A970A44EA81549C
:1004A00047EA8357A4FB076802958D0A05FB078579
:1004B0004FEA932C04FB0C542705029D4FEA065883
:1004C00047EA1637B5EB08056EEB070C870E920E60
:1004D00047EA811742EA8312A7FB0201B6EB0B0140
:1004E00064EB00042B0D43EA0C335E1844EB1C5004
:1004F000DA465146E7FB0201C5F313044FEA0B331A
:1005000043EA14534FEA0432019C43EA0603A4F180
:100510000C040294009CCDE900B400F03CF903B057
:10052000BDE8F08F00200146F9E72DE9F04D81EAA2
:10053000030404F0004B21F0004514464FF0000A7C
:1005400023F0004150EA050220D054EA01021DD0F8
:10055000C5F30A570246C5F31303C1F31300C1F3F1
:100560000A5640F4801543F48013A7EB0608101BCD
:10057000D64608F2FD3873EB050002D308F10108F6
:1005800001E092185B41B8F1000F03DA0020014648
:10059000BDE8F08D00204FF48011064684460EE041
:1005A000171B73EB050705D3121B63EB050306430B
:1005B0004CEA010C49084FEA300092185B4150EABE
:1005C0000107EDD152EA030012D082EA040083EA67
:1005D0000501084305D0101BAB4106D201220023C0
:1005E00006E000224FF0004302E06FF001025310DA
:1005F0001AEB06004CEB085110EB0A0041EB0B0123
:10060000BDE8F04D00F0B8B8C10F80EAE0700844D2
:10061000CA079623002100F081B80EB5C10F80EA09
:10062000E0700844CA07002140F233438DE80E0011
:100630000A460B4600F0AFF803B000BD20F00040C2
:10064000C10DC0F3160040F400007F2901DA00203C
:100650007047962903DCC1F19601C840704796396E
:100660008840704770B5C1F30A5201F0004500247C
:10067000C1F3130140F2FF3341F480119A4201DAD1
:10068000002070BD40F233439A42A2F2334203DCB1
:100690005242FFF747FD00E090402C43F1D040422A
:1006A00070BD00F0004230F000400AD0C10D01F5ED
:1006B0006071C0F3160042EA0151C20840071143BD
:1006C0007047002001467047202A04DB203A00FAD8
:1006D00002F1002070479140C2F1200320FA03F399
:1006E000194390407047202A06DBCB17203A41FA85
:1006F00002F043EAE07306E041FA02F3D040C2F1AF
:10070000200291400843194670470029A8BF70474E
:10071000401C490008BF20F00100704710B4B0FA37
:1007200080FC00FA0CF050EA010404BF10BC7047D2
:1007300049B1CCF1200421FA04F411FA0CF118BFEC
:10074000012121430843A3EB0C01CB1D4FEA0061BB
:100750004FEA102042BF002010BC704700EBC3508E
:1007600010440029A4BF10BC7047401C490008BFBA
:1007700020F0010010BC704710B5141E73F1000486
:1007800008DA401C41F1000192185B411A4301D183
:1007900020F0010010BD2DE9F04D92469B4611B1AD
:1007A000B1FA81F202E0B0FA80F220329046FFF70F
:1007B0008BFF04460F4640EA0A0041EA0B0153460C
:1007C0005A46084313D0114653EA010019D0C8F124
:1007D00040025046FFF7A6FC05460E4650465946D5
:1007E0004246FFF771FF084305D0012004E0204690
:1007F0003946BDE8F08D0020054346EAE0762C43FB
:1008000037430A986305E40AA0EB08000022FD0ABA
:1008100044EA47540A3002D500200146E9E70105C1
:1008200010196941DDE9084500196941BDE8F04D3D
:10083000A2E770B521F0004303430CD0C1F30A5581
:100840000024D5EB040564EB0403D617AD1AB341BD
:1008500002DB0020014670BD201841EB025170BD43
:10086000064C074D06E0E06840F0010394E80700FD
:1008700098471034AC42F6D3FFF73CFC2031000817
:10088000403100080EB540F2334102910021CDE91C
:1008900000110A460B46FFF77EFF03B000BDFEE7DE
:1008A00070474FF4806000F069B8704710B590F859
:1008B00021100024022903D00421816301243DE09A
:1008C00001680A6822F00E020A6001680A6822F0D4
:1008D00001020A601A4A0168914201D1012121E016
:1008E000174A1432914201D110211BE0144A2832D8
:1008F000914201D1891515E0114A3C32914201D152
:1009000089140FE00E4A5032914202D14FF48031E7
:1009100008E00B4A6432914202D14FF4801101E0A9
:100920004FF08071064A083A5160012180F8211089
:10093000002180F82010416B01B18847204610BD8E
:100940000800024070B5044600F004F90546601C3A
:1009500002D004480078044400F0FCF8401BA04298
:10096000FAD370BD10000020B0F5806F03D10249AA
:100970004878401C4870704700000020044910B5BA
:100980000A68024202D00860FFF7EEFF10BD0000C7
:10099000140401402DE9F84FDFF89C91002409F17F
:1009A000040A0AF1040B23460F270BF1040EBBE0E7
:1009B0000125A5402A40AA4276D1DFF880C14E68C1
:1009C000A6EB0C0866452BD00DDC032E34D005DCDD
:1009D00036B3012E19D0022E2FD11BE0112E16D0C6
:1009E000122E2AD119E0B8F5881F19D006DCB8F507
:1009F000803F15D0B8F5801F1FD111E0B8F5001F5A
:100A00000ED0B8F5041F18D10AE0CB6815E0CB680A
:100A10001B1D12E0CB6808330FE0CB680C330CE0F1
:100A20008B682BB1012B4FF0080303D0456104E024
:100A3000042302E0056100E00023FF2A01D80646F6
:100A400001E000F104064FEA840501D9A5F1200573
:100A5000D6F8008007FA05FC28EA0C0803FA05F529
:100A600048EA0508C6F800804D68ED005BD5344DB6
:100A7000AE6946F00106AE61AD6924F0030605F0EB
:100A8000010500952F4D06EB050CDCF80850A60774
:100A9000360F07FA06F825EA0805DFF8AC8040456E
:100AA00003D14FF0000810E03DE0DFF8A0804045A2
:100AB00002D14FF0010808E0DFF89480404502D1F0
:100AC0004FF0020801E04FF0030808FA06F848EA80
:100AD0000508CCF808804D68D9F80060ED034D4654
:100AE00001D5164300E096432E604D68DAF80060A9
:100AF000AD03554601D5164300E096432E604D6880
:100B0000DBF80060ED025D4601D5164300E0964338
:100B10002E604D68DEF80060AD02754601D51643C3
:100B200000E096432E60641C0A6832FA04F57FF4F4
:100B30003FAFBDE8F88F0000000401400000111035
:100B4000001002400000014000080140000C01407C
:100B5000001001400148806870470000100000202C
:100B600002488168027811448160704710000020BB
:100B7000074810B5016841F010010160032000F042
:100B800075F8002000F006F800F024F8002010BDF1
:100B90000020024070B50D4D04464FF47A7128785C
:100BA000B1FBF0F00A490968B1FBF0F000F0ECFA93
:100BB00048B9102C07D200222146501E00F036F80A
:100BC00000206C6070BD012070BD0000100000208E
:100BD0001C0000200C4808B5816941F001018161C9
:100BE000816901F001010091C16941F08051C16149
:100BF000C06900F0805000900448416821F0E06135
:100C000041F08061416008BD0010024000000140D9
:100C1000002809DB00F01F020121914040098000FB
:100C200000F1E020C0F8001170470000F0B40E4B56
:100C30001B680C46C3F30223C3F10705042D00D93A
:100C40000425191D072901D2002300E0DB1E01261F
:100C500006FA05F1491E214099409E40761E164035
:100C60003143F0BC01F02BBA0CED00E0064900F076
:100C7000070208684FF6FF03184040EA0220034AC3
:100C800010430860704700000CED00E00000FA051A
:100C90002DE9F0470F46050061D0434E306800F063
:100CA0000700B84209D2306820F0070038433060AE
:100CB000306800F00700B84251D128683B4C8107EA
:100CC00012D5400703D5606840F4E0606060287882
:100CD000000703D5606840F4605060606068A968F0
:100CE00020F0F000084360602878C00728D06868CA
:100CF000012810D02168022810D0890700292EDA97
:100D0000616821F0030101436160FFF723FF804622
:100D100041F288390DE021688903EFE78901EDE7A9
:100D2000FFF718FFA0EB0801494502D90320BDE8F1
:100D3000F0876068696800F00C00B0EB810FEFD1BC
:100D4000306800F00700B8420BD9306820F0070087
:100D500038433060306800F00700B84201D001200D
:100D6000E5E72878400705D56068E96820F4E06089
:100D7000084360602878000706D56068296920F478
:100D8000605040EAC100606000F038F86168084ACD
:100D9000C1F30311515CC840064908600648006869
:100DA000FFF7F8FE0020C2E70020024000100240DA
:100DB000502F00081C0000201400002004480549A2
:100DC00000684968044AC1F30221515CC840704779
:100DD0001C00002000100240602F00080448054954
:100DE00000684968044AC1F3C221515CC840704799
:100DF0001C00002000100240602F000812A185B0E6
:100E00000FC98DE80F0014A0144A006804905168BF
:100E1000134801F00C03042B10D0082B0ED1C1F3A2
:100E20008343C9031DF803000AD5516804AAC1F31E
:100E30004041515C0A4A5043B0FBF1F005B07047A5
:100E400008494843FAE700000203040506070809B9
:100E50000A0B0C0D0E0F10100102000000100240D2
:100E600000127A0000093D002DE9F84F040070D00F
:100E70002078C04DC00749D06868C0F381000128C0
:100E800007D06868C0F38100022809D16868C003F0
:100E900006D52868800339D560680028E7D035E09A
:100EA0006068B0F5803F0BD010B1B0F5A02F11D025
:100EB000286820F480302860286820F4802002E030
:100EC000286840F480302860606890B1FFF742FEE7
:100ED00006460AE0286840F480202860F0E700BF5A
:100EE000FFF738FE801B642873D828688003F7D585
:100EF0000CE0FFF72FFE064605E000BFFFF72AFED5
:100F0000801B6428F0D828688003F7D420789A4E94
:100F100080074FF001094FF0000839D5686810F0DC
:100F20000C0F07D06868C0F38100022809D16868F7
:100F3000C00306D42868800714D52069012808D189
:100F400010E02069B0B1C6F80090FFF703FE074635
:100F500005E00AE1FFF7FEFDC01B0228C4D828689F
:100F60008007F7D52868616920F0F80040EAC100E1
:100F700028600DE0C6F80080FFF7ECFD074604E0AE
:100F8000FFF7E8FDC01B022823D828688007F7D4A4
:100F9000207800072CD57948A169D9B1C0F8009014
:100FA000FFF7D8FD074604E0FFF7D4FDC01B022879
:100FB0000FD8686A8007F7D571484FF4FA51006876
:100FC000B0FBF1F0009000BF0098411E0091FAD2F2
:100FD0000EE080E0C0F80080FFF7BCFD074604E0AB
:100FE000FFF7B8FDC01B022875D8686A8007F7D4E0
:100FF0002078400760D5E8690027C00008D4E86978
:1010000040F08050E861E869012700F080500090CE
:101010005C480168C90513D40168834641F48071B6
:101020000160FFF797FD824606E000BFFFF792FDE3
:10103000A0EB0A0064284ED8DBF80000C005F5D507
:10104000E06801280AD008B1052813D0286A20F0EA
:1010500001002862286A20F0040002E0286A40F0BB
:1010600001002862E06841F2883B98B1FFF772FD09
:1010700082460BE0286A40F004002862EEE700BFD9
:10108000FFF768FDA0EB0A0159455AD8286A800786
:10109000F6D50CE0FFF75EFD824605E0FFF75AFD4E
:1010A000A0EB0A0159454CD8286A8007F6D41FB135
:1010B000E86920F08050E861E06988B36968C1F3AD
:1010C0008101022944D00228C6F8608004D0FFF7CD
:1010D00041FD044638E034E0FFF73CFD074604E0FC
:1010E000FFF738FDC01B02282BD828688001F7D4F1
:1010F000206AB0F5803F05D16868A16820F400300F
:1011000008436860D4E908010843696821F4741150
:1011100008436860C6F86090FFF71CFD044606E0CF
:1011200025E000BFFFF716FD001B022809D828683C
:101130008001F7D51BE000BFFFF70CFD001B022864
:1011400002D90320BDE8F88F28688001F4D40EE0AE
:101150000128F7D06868226A00F48031914204D1F6
:10116000616A00F47010884201D00120EAE7002093
:10117000E8E70000001002400000424280044242C2
:101180001C0000200070004010B5401EB0F1807FB0
:1011900001D3012010BD4FF0E02460610F216017E2
:1011A00000F08DFF0020A06107202061002010BD0D
:1011B00010B590F83C20012A22D0012280F83C2072
:1011C000CA688C6822F4407222434C6822F4806220
:1011D00022430C6822F4006222430C6922F48052FC
:1011E00022434C6922F400522243C969002322F4AD
:1011F00080420A4301684A6480F83C30002010BDF8
:10120000022010BD70B590F83C20012A23D00124A3
:1012100080F83C40022280F83D2003685A689D68AF
:1012200022F070060A6832435A600C4B02689A42F8
:1012300005D0B2F1804F02D0094B9A4204D14968DF
:1012400025F080031943916080F83D40002180F82B
:101250003C10084670BD022070BD0000002C01400B
:101260000004004010B5040003D094F83D0010B114
:1012700007E0012010BD002084F83C00204600F06B
:101280001FF8022084F83D00211D206800F030FD89
:10129000012084F8460084F83E0084F83F0084F87A
:1012A000400084F8410084F8420084F8430084F848
:1012B000440084F8450084F83D00002010BD000083
:1012C00008B50C4A01680C48914207D1816941F484
:1012D00000618161806900F4006009E0B1F1804F34
:1012E00007D1C16941F00101C161C06900F001008D
:1012F000009008BD002C01400010024090F83D1005
:10130000012901D001207047022180F83D100168B9
:10131000CA6842F00102CA6000680A49884205D0E2
:10132000B0F1804F02D00849884204D1816801F0B1
:101330000701062903D0016841F001010160002086
:1013400070470000002C01400004004070B50446C6
:1013500090F83C00012817D0012584F83C50022069
:1013600084F83D002068826822F0770222F47F42F0
:1013700082600868502830D00DDC20284DD005DC74
:1013800098B310283BD148E0022070BD302844D0EB
:10139000402834D139E0602828D0702806D0B0F534
:1013A000805F2CD0B0F5005F29D10AE0CB68D1E98D
:1013B0000121206800F0D7FC2068816841F07701A6
:1013C00009E0CB68D1E90121206800F0CCFC20685D
:1013D000816841F48041816011E0CA6849682068F1
:1013E00000F076FD5021206807E016E0CA684968E1
:1013F000206800F07EFD6021206800F0BEFC84F8CB
:101400003D50002084F83C0070BDCA6849682068DF
:1014100000F05EFD40212068EFE72268014610469B
:10142000EBE7000000B585B0002100910191029129
:10143000039100680B49884212D10B48816941F041
:10144000040181618069694600F0040004904FF452
:10145000407000900220019003900448FFF79AFA30
:1014600005B000BD002C0140001002400008014002
:1014700010B5044690F83C0001280AD0012084F8F9
:101480003C0042B1042A0AD0082A0CD00C2A11D1FF
:101490000DE0022010BD206800F078FC0AE0206812
:1014A00000F09CFC06E0206800F0C4FC02E020682C
:1014B00000F0ECFC002084F83C0010BD10B50400E6
:1014C00003D094F83D0010B107E0012010BD0020CA
:1014D00084F83C00204600F01EF8022084F83D000D
:1014E000211D206800F004FC012084F8460084F8E7
:1014F0003E0084F83F0084F8400084F8410084F8FE
:10150000420084F8430084F8440084F8450084F8DD
:101510003D00002010BD704770B5044690F83C00B7
:101520000D4601280AD0012084F83C0042B1042A6B
:1015300018D0082A2AD00C2A4DD139E0022070BDDB
:10154000206800F023FC2068816941F00801816176
:101550002068816921F004018161206881692A691C
:10156000114311E0206800F039FC2068816941F4E2
:10157000006181612068816921F480618161206856
:1015800081692A6941EA0221816124E0206800F032
:1015900051FC2068C16941F00801C1612068C1693E
:1015A00021F00401C1612068C1692A69114311E079
:1015B000206800F06BFC2068C16941F40061C161E2
:1015C0002068C16921F48061C1612068C1692A690C
:1015D00041EA0221C161002084F83C0070BD10B5D1
:1015E000040003D094F83D0010B107E0012010BDC5
:1015F000002084F83C00204600F01EF8022084F809
:101600003D00211D206800F073FB012084F8460096
:1016100084F83E0084F83F0084F8400084F84100DC
:1016200084F8420084F8430084F8440084F84500BC
:1016300084F83D00002010BD7047000010B504463E
:10164000022249B104290ED0082913D094F8410090
:10165000012816D0012010BD94F83E000128F9D1D0
:1016600084F83E200FE094F83F000128F2D184F87E
:101670003F2008E094F840000128EBD184F8402096
:1016800001E084F841200122206800F05FFB0E4950
:101690002068884203D1426C42F4004242642068D0
:1016A000884205D0B0F1804F02D00849884204D169
:1016B000816801F00701062903D0016841F00101AA
:1016C0000160002010BD0000002C0140000400401B
:1016D0007047000070B5026804461068D16853690D
:1016E00010F00F0F52D003F0010501F490762E4355
:1016F0005FD0C20705D0CA0503D5E26B42F00102F4
:10170000E263420705D5DA0703D0E26B42F002023A
:10171000E263820705D5DA0703D0E26B42F00402E8
:10172000E263020707D501F020022A4303D0E26BEF
:1017300042F00802E263E26B002A33D0800604D54F
:10174000880602D5204600F0FCFB20684069E16B6A
:10175000C0F38010090700D428B3204600F0E3FB53
:101760002068416949061AD5416921F0400141616B
:10177000606BA0B12D494163606BFFF797F80028BB
:1017800010D0606B416BBDE870400847830610D5F0
:101790008B060ED52046BDE8704000F0D2BB204637
:1017A000FFF796FF70BD2046FFF792FF0020E06331
:1017B00070BD03062BD50B0629D594F839002128D6
:1017C000F6D1A068B0F5805F01D12069B0B1206A80
:1017D000411C2162216800784860E08C401E0004B2
:1017E000000CE084E4D12068C16821F08001C16070
:1017F0002068C16841F04001C16070BD206A008866
:10180000C0F308005060206A801C2062E5E74006B3
:10181000F3D54806F1D5D168204621F04001D160CA
:10182000202184F8391000F00BF970BD171F000853
:1018300070B5040004D094F83900002510B106E01A
:10184000012070BD84F83850204600F023F8242091
:1018500084F839002068C16821F40051C160204635
:1018600000F0B6FB2068016921F490410161206815
:10187000416921F02A0141612068C16841F40051A9
:10188000C160E563202084F8390084F83A00002024
:1018900070BD000030B585B000240094019402941E
:1018A00003942F4D03682F4802210322AB4231D10C
:1018B000836943F480438361836903F48043049321
:1018C000836943F0080383618069274D00F00800B5
:1018D00004904020CDE90001039269462846FFF7B5
:1018E00059F88020CDE90004694628460294FFF7A4
:1018F00051F81E48416841F0E06141F00401416047
:10190000002211462520FFF791F92520FFF780F9E5
:1019100005B030BD164DAB42FAD1C36943F4003374
:10192000C361C36903F400330493836943F0040380
:10193000836180690F4D00F0040004900420CDE91C
:101940000001039269462846FFF724F80820CDE9F4
:101950000004694628460294FFF71CF8D8E7000007
:101960000038014000100240000C0140000001401E
:10197000004400400008014090F83A30202B22D16A
:10198000F9B1F2B190F83830012B1CD08162828518
:10199000C2850021C163222280F83A2080F83810E5
:1019A0000168CA6842F48072CA6001684A6942F0FC
:1019B00001024A610068C16841F02001C160002055
:1019C00070470120704702207047000000681949E5
:1019D00088422ED118480023811D827832B1012A15
:1019E0000BD0022A0FD0032A12D014E0C278FF2AAB
:1019F00011D1012383700A700EE0C278FF2A0AD247
:101A00004A70022102E0C2788A700321817003E0EB
:101A1000C278FE2A06D0837007490122C91C0748F4
:101A2000FFF7AABF8370CA70B1F8011049BA81806C
:101A3000F2E770470038014000000020B4000020A9
:101A40007047FEE700B585B0002003901648816915
:101A500041F020018161816901F0200104918169D7
:101A600041F004018161816901F0040104918169FF
:101A700041F0080181618069694600F00800049026
:101A80004FF48060009009480190012002900848BE
:101A9000FEF780FF002211462820FFF7C7F8282014
:101AA000FFF7B6F805B000BD00100240000021109D
:101AB0000008014010B596B000240F9410941194C2
:101AC000129413941C2168461494FEF742FB2021C3
:101AD00007A8FEF73EFB2D482B4901604721C0E9CE
:101AE000011444F61F61C0E903148021C0E90541D7
:101AF000FFF7B8FB08B1FEF7D8FE4FF480500F9007
:101B00000FA92248FFF722FC08B1FEF7CEFE1F48BE
:101B1000FFF765FD08B1FEF7C8FE139413A91B4833
:101B20001494FFF76FFB08B1FEF7BFFE6020CDE90C
:101B30000004029403940494059400226946134817
:101B40000694FFF7E9FC08B1FEF7AFFE04226946F0
:101B50000E48FFF7E1FC08B1FEF7A7FE07940894D2
:101B600009944FF400500A94CDE90B4007A90748A7
:101B70000E94FFF71DFB08B1FEF797FE0348FFF731
:101B800051FC16B010BD0000002C014024000020C4
:101B900010B58EB000240794089409940A940B940D
:101BA0001C2168460C94FEF7D4FA1D484FF0804182
:101BB00001604721C0E9011444F61F61C0E9031424
:101BC00080218161FFF74EFB08B1FEF76EFE4FF4F6
:101BD0008050079007A91248FFF7B8FB08B1FEF73D
:101BE00064FE0F48FFF76AFC08B1FEF75EFE0B9437
:101BF0000BA90B480C94FFF705FB08B1FEF755FE47
:101C00000094019402940022694605480494FFF769
:101C10002FFC002801D0FEF748FE0EB010BD0000DA
:101C20006C0000200C4810B50A4901604FF4E13106
:101C30004160002181600C22C160C0E90412816111
:101C4000C161FFF7F5FD002803D0BDE81040FEF7A5
:101C50002CBE10BD00380140B40000200C4810B567
:101C60000A4901604FF4E1314160002181600C229A
:101C7000C160C0E904128161C161FFF7D9FD00288C
:101C800003D0BDE81040FEF710BE10BD0044004078
:101C9000F4000020FEE7704770477047FEF760BF12
:101CA00030B58FB028216846FEF753FA14210AA8F0
:101CB000FEF74FFA01210804CDE900100024029438
:101CC00002250491CDE907504FF4E01009906846D1
:101CD000FFF7CAF80F20CDE90A056802CDE90C40EC
:101CE00002210AA80E94FEF7D3FF0FB030BD704753
:101CF00070B50268134B144C4FF08046984203D0E5
:101D0000B04201D0A04203D122F070054A682A43B4
:101D1000984203D0B04201D0A04203D122F44074D3
:101D2000CA6822434C6922F08002224302608A681A
:101D3000C2620A688262984201D109690163012185
:101D4000416170BD002C01400004004010B501F05D
:101D50001F030121046A99408C430462016A9A407E
:101D60001143016210BD10B5846842EA032224F4D5
:101D70007F440A432243826010BD826822F07002D1
:101D80000A4342F0070181607047000030B5026AE3
:101D900022F001020262026A4368846924F073053A
:101DA0000C682C4322F002058A682A430A4DA84297
:101DB0000BD122F00805CA6823F440732A434D6909
:101DC00022F004021D438B692B4343608461496800
:101DD0004163026230BD0000002C014030B5026A50
:101DE00022F010020262026A436884690D6824F4DA
:101DF000E64444EA05248D6822F0200242EA0512F6
:101E00000B4DA8420ED1CD6822F0800242EA0512A5
:101E10004D6923F4406343EA85038D6922F0400253
:101E200043EA85034360846149688163026230BD8F
:101E3000002C014030B5026A22F480720262036A0B
:101E40004268C46923F4007324F073050C682C43C2
:101E50008D6843EA05230C4DA8420ED1CD6823F4CA
:101E6000006343EA05234D6922F4405242EA051219
:101E70008D6923F4806342EA05124260C4614968B7
:101E8000C163036230BD0000002C014030B5026A1E
:101E900022F480520262046A4268C3690D6823F426
:101EA000E64343EA05238D6824F4005444EA0534EC
:101EB000064DA84204D14D6922F4804242EA8512BF
:101EC0004260C36149680164046230BD002C014076
:101ED00010B5036A046A24F001040462846924F0E2
:101EE000F00444EA021423F00A020A438461026205
:101EF00010BD10B5036A23F0100303628369046AFE
:101F000023F4704343EA023224F0A00343EA0111B0
:101F10008261016210BD10B5406A0021C185C18493
:101F2000FFF7D6FB10BD0168CA6822F49072CA6040
:101F300001684A6922F001024A61202180F83A10C2
:101F4000704710B590F83A10222901D0022010BD38
:101F500082684FF480539A4201D1016921B1816AAC
:101F60009A421BD04AB10AE00268816A5268C2F301
:101F700008020A80816A891C08E0026972B102685D
:101F8000526802F07F020A70816A491C8162C18D29
:101F9000491E0904090CC18503D016E00268526885
:101FA000F1E70168CA6822F02002CA600168CA68C5
:101FB00022F48072CA6001684A6922F001024A6113
:101FC000202180F83A10FFF701FD002010BD00002D
:101FD00070B5044600680169E26821F4405111437C
:101FE00001612169A0680843616908432168CA68E2
:101FF00041F20C639A430243CA6020684169A269B6
:1020000021F44071114341611E492068884202D188
:10201000FEF7E4FE01E0FEF7D1FE00EBC00101EBAC
:102020000012606864218000B2FBF0F3B3FBF1F3AF
:102030006FF018067343B2FBF0F5B2FBF0F605EB58
:102040008305322303EB0515B5FBF1F5B6FBF1F67D
:1020500005F0F00505EB0615B2FBF0F6B2FBF0F06B
:10206000B0FBF1F06FF01802504306EB800003EB79
:102070000010B0FBF1F0216800F00F0028448860E8
:1020800070BD0000003801400148FFF723BB00008D
:10209000B4000020FEE7490050EAC12018BF042028
:1020A0004A0D18BF40F0010040F2FF72B2EB515FE1
:1020B00008BF40F00200012808BF0520704709074B
:1020C000090E002804DB00F1E02080F800147047BE
:1020D00000F00F0000F1E02080F8141D70470000B0
:1020E0002DE9F74F144694B00021C4E90211159967
:1020F000079121F00045C9498D4206DC1599C4E9D4
:10210000000117B00020BDE8F08FC549DFF814A327
:10211000A9423CDD0799C44E0029C44FC44A159911
:10212000534619DDFEF789F9554506D0C14AC24B21
:10213000FEF783F9C4E900010AE04FF0D352BE4B29
:10214000FEF77BF932463B46FEF777F9C4E900011A
:1021500017B00120BDE8F08FFEF7CEF8554506D048
:10216000B44AB54BFEF7C8F8C4E900010AE04FF0E5
:10217000D352B14BFEF7C0F832463B46FEF7BCF8EF
:10218000C4E9000117B04FF0FF30BDE8F08FAB4954
:10219000A942159978DB21F0004183468846A84A78
:1021A000A84BFEF750F90022A74BFEF7A5F8FEF763
:1021B00059FA0990FEF731FA06460F469C4A5346F3
:1021C000FEF741F943465A46FEF73AF980468A46F9
:1021D000984A994B30463946FEF735F92A0D0125C4
:1021E0000B9242465346FEF72BF9032DC4E900013A
:1021F00039D00B98C1F30A51401A05EB451111393A
:10220000814230DA9148C346784400EB0510CDF89E
:102210000CA00C90D0E9002330463946FEF713F9A4
:1022200002460B460491069058460399FEF705F9BD
:1022300080468A4602460B4658460399FEF7FDF84B
:10224000049B069AFEF7F9F883460C9803913946E9
:10225000D0E902233046FEF7F6F85A46039BFEF714
:10226000ECF86D1CBDE707980028A2BF099817B0CD
:10227000BDE8F08F616881F000416160099817B096
:102280004042BDE8F08FFFE784461598C1F3130183
:10229000C0F30A50A0F2F5304FEA601800F01F06B4
:1022A000C6F12000139000200690079041F4801E94
:1022B00005206D4676B1664A08EB00017A4452F873
:1022C000213002EB8101B3404A68139922FA01F1EF
:1022D000194305E05F4908EB0002794451F82210E8
:1022E000A1FB0E27A1FB0C131A449A4234BF012311
:1022F000002303EB070A05EB8003D3E901B70F4482
:102300008F4234BF0121002193448B4411B1934586
:1023100002D903E0934501D2012100E00021C3E985
:1023200001B7514445F82010011EA0F10100C1DCA5
:102330000298059F00F10050800F12900298DDE98D
:1023400003568000FEF769F9834628460D91FEF793
:1023500099FA6FF01D02FEF76CFACDE90E013046D6
:10236000FEF790FA6FF03D02FEF763FA80468A4668
:102370003846FEF787FA6FF05D02FEF75AFA074615
:10238000424653461191FDF7B7FFDDE90E23FDF7F5
:10239000B3FF5A460D9BFDF7AFFF00250E465A4688
:1023A00028460D9BFEF749F8DDE90E23FEF745F8B8
:1023B00042465346FEF741F83A46119BFEF740F875
:1023C000DFF898A0244A5346FEF73DF807468846B2
:1023D000234A244B31462846FEF735F83A46434611
:1023E000FDF78AFF074688464FF0A842534631461C
:1023F0002846FEF728F83A464346FDF77DFF159A32
:1024000012F0004F04D0129A81F000415242129211
:10241000C4E90001129817B0BDE8F08FFB21E93F35
:102420007CD90240FB21F93F7370032E8A19A33B2C
:10243000000040543163621A61B4D03DFB21394140
:1024400083C8C96D305FE43F0000E03F240E000008
:10245000A00D0000820D0000182D4454FB21F93D11
:102460003326A611460B113C2DE9FF4D21F0004803
:1024700007460C46B8F1795F08DAFEF7F3F8002852
:1024800001BF0020324904B0BDE8F08D3A46234632
:1024900010461946FDF7D7FF054602462D480E4661
:1024A0000B460621784400F05DF82A463346FDF7D6
:1024B000CAFFDDE9022382468B4638462146FDF7F6
:1024C000C2FF04460F4652465B4628463146FDF79A
:1024D000BAFF22463B46FDF7B0FF07468A464FF05B
:1024E000FF3228463146FEF7A4F91B4A90450ADA26
:1024F0003A465346FDF7A1FF04B00022BDE8F04D77
:10250000134BFDF79DBF154A4245A8BFA8F500151E
:102510004FF00004B8BF124D22462B46FDF78DFF49
:102520000646884622462B4600200949FDF785FFCE
:1025300004460D463A46534630464146FDF77DFF78
:1025400004B022462B46BDE8F04DFDF779BF0000F0
:102550000000F03F580B00003333D33F0000E93F49
:102560000000D23F2DE9F0414F1E00EBC7010446A9
:10257000D1E9000115461E4637F006020DD02A4665
:102580003346FDF760FF7F1E04EBC703D3E900234A
:10259000FDF7B2FE37F00602F1D1022F25D0042F4D
:1025A00013D0062F18BFBDE8F0812A463346FDF749
:1025B0004AFFD4E90A23FDF79FFE2A463346FDF77A
:1025C00042FFD4E90823FDF797FE2A463346FDF77C
:1025D0003AFFD4E90623FDF78FFE2A463346FDF77E
:1025E00032FFD4E90423FDF787FE2A463346FDF780
:1025F0002AFFD4E90223FDF77FFE2A463346FDF782
:1026000022FFD4E90023BDE8F041FDF775BE0000CC
:102610002DE9FF4D054621F0004084B00C46B0F195
:10262000795F0BDA2846FFF736FD042808BF00F073
:102630006FF8284608B02146BDE8F08D2A460B46C3
:102640001046FDF700FF06460F462A462346FDF7D3
:10265000FAFE804626488A4632463B4605217844A3
:10266000FFF780FF83461098029160B3214A224B06
:1026700040465146FDF7E7FECDE900015A46404687
:102680005146029BFDF7DFFE82468846DDE90601E2
:102690004FF0FF32FEF7CDF852464346FDF7CDFE30
:1026A00032463B46FDF7CFFEDDE90623FDF7C5FECA
:1026B000DDE90023FDF7C1FE08B02A462346BDE848
:1026C000F04DFDF7BDBE0B465A4630463946FDF784
:1026D000BAFE084A084BFDF70FFE42465346FDF787
:1026E000B2FE08B02A462346BDE8F04DFDF704BE11
:1026F000960A0000495555555555C5BF0122FEF7AC
:1027000098B80022134610461146FDF70EBF000090
:10271000024A00201107FEF78CB8000001FDFFFF00
:1027200002E008C8121F08C1002AFAD1704770479A
:10273000002001E001C1121F002AFBD170470000F8
:102740000149086070470000200000202DE9F84F83
:1027500004460D4621F0004000917349814211DC8E
:102760007249884201DC06D12CB120462946BDE8D9
:10277000F84FFFF7C3BF6E48002DCCBF6D496E49BF
:10278000BDE8F88F6D49814211DD6D498142D8BFA6
:102790004FF0FF366DDD20462946FFF77CFC04280C
:1027A00008BFFFF7B5FF20462946BDE8F88F654909
:1027B000654F25F00045814233DD6449814219DDD2
:1027C000002632464FF0804320462946FDF794FD0F
:1027D00080468A46012220462946FEF72AF8002232
:1027E0003B46FDF72AFE42465346FDF79EFE044651
:1027F0000D463EE001260022BA463B4620462946C9
:10280000FDF77AFD80460F460022534620462946B2
:10281000FDF713FE42463B46FDF787FE04460D4694
:1028200027E04B4981421BDDDFF828A10226002268
:10283000534620462946FDF706FE00223B46FDF79B
:102840005BFD80460F460022534620462946FDF791
:10285000F4FD42463B46FDF768FE04460D4608E09F
:10286000032622462B4600203B49FDF75EFE044628
:102870000D4622462B4610461946FDF7E4FD8B46D1
:10288000824602460B46FDF7DEFD07460246334808
:1028900088460B4606217844FFF764FE52465B46A5
:1028A000FDF7D1FD82462E488B463A464346052128
:1028B0007844FFF757FE3A464346FDF7C4FD02460B
:1028C0000B46002E504659460CDAFDF715FD224600
:1028D0002B46FDF7B8FD01B022462B46BDE8F04F70
:1028E000FDF7AEBDFDF708FD22462B46FDF7ABFD1B
:1028F0001C4A7A4402EBC603D3E90023FDF79DFD91
:1029000022462B46FDF799FD174A7A4402EBC6038F
:10291000D3E90023FDF794FD009A002AB8BF81F0A7
:102920000041BDE8F88F0000000010440000F07F77
:10293000182D4454FB21F93FFB21F9BF0000DC3F77
:102940000000203E0000F33F0000F03F0000E63FA3
:10295000008003400000F83F0000F0BF3607000091
:10296000F4060000920600005A06000000B5244B51
:1029700021F0004287B09A42DCBF0022134629DDD5
:10298000204B9A4208D140B94FF00100FFF7D8FE22
:10299000FFF7B7FE07B000BD03DBFFF7AFFE07B0E0
:1029A00000BD02AAFFF79CFB10F0030104BF0DF16C
:1029B000080C9CE80F000DD0012001290ED002293F
:1029C00014D00DF1080C00909CE80F00FFF720FEDA
:1029D00007B000BDFFF748FD07B000BD0DF1080CC2
:1029E00000909CE80F00FFF713FE05E00DF1080CC6
:1029F0009CE80F00FFF738FD07B081F0004100BDF3
:102A0000FB21E93F0000F07FFEF7B2F8FFF748F93D
:102A1000FFF718F8FFF74EF8FFF7BAF8FFF702F9DB
:102A2000FFF71CF99048FEF769FC00218F48FEF77C
:102A300005FE04218D48FEF701FE01228C498D48D8
:102A4000FEF79AFF894D40F2DC50296848632968F7
:102A500088634FF47A70FDF775FF854CDFF81882B4
:102A6000E41E4FF4FA67607820702078012830D097
:102A7000022830D00328F8D1A088A0F2DC51002928
:102A800008467CDAC0F10000FDF7C7FD4FF0333295
:102A90007A4BFDF74AFD0022794BFDF746FD0022F7
:102AA000784BFDF7D0FC0022774BFDF725FCFDF7B6
:102AB000D9FD764951F820004146FDF7DFFB744906
:102AC000FDF7AAFB7349FDF74FFB7349FDF7A1FB27
:102AD000C4E0A088C4E0A088A0F5A061DC3949D595
:102AE00008464042064600D57042FDF796FD8246F4
:102AF00096FBF7F08B46FDF787FD4146FDF78CFB13
:102B0000FDF7CFFDFFF732FF4FF06632634BFDF765
:102B100097FC0646A0888946A0F5A060DC3800D561
:102B2000404290FBF7F0FDF76FFD4146FDF774FB67
:102B3000FDF7B7FD00F0B6F832464B46FDF7F5FC61
:102B4000FFF704FE4FF0C042554BFDF7EEFC0022AC
:102B50004C4BFDF778FC00224B4BFDF7CDFB52466A
:102B60005B46FDF7C9FBFDF77DFD2968A0F2DC504F
:102B700040424863A688A6F2DC56002E00E048E0FA
:102B80007FF773AF704200D54042FDF746FD8246A5
:102B900096FBF7F08B46FDF737FD4146FDF73CFB12
:102BA000FDF77FFDFFF7E2FE4FF066323B4BFDF78E
:102BB00047FC0646A0888946A0F5A060DC3800D511
:102BC000404290FBF7F0FDF71FFD4146FDF724FB67
:102BD000FDF767FD00F066F832464B46FDF7A5FCB1
:102BE000FFF7B4FD4FF0C0422D4BFDF79EFC0022D5
:102BF000244BFDF728FC0022234BFDF77DFB5246BA
:102C00005B46FDF779FBFDF72DFD00F2DC502968EE
:102C100027E0B5DDFDF701FD4FF03332174BFDF72F
:102C200084FC0022164BFDF780FC0022154BFDF7BB
:102C30000AFC0022144BFDF75FFBFDF713FD13495F
:102C400051F820004146FDF719FB1149FDF7E4FA60
:102C50001049FDF789FA1049FDF786FAFDF7EEFCF9
:102C60002968486301E700006C0000202400002070
:102C700003000020B4000020DB0F49403333D33F72
:102C80000080664000409F4000407F40442D000887
:102C90000000FA440000FA430080BB446666F23F3D
:102CA000FB21094000B5254B21F0004287B09A4234
:102CB00003DC0022134600922BE0214B9A4208D1FC
:102CC00040B94FF00100FFF73BFDFFF71AFD07B0D9
:102CD00000BD03DBFFF712FD07B000BD02AAFFF73E
:102CE000FFF910F003014FF001000DD0012914D0BD
:102CF00002291AD00DF1080C9CE80F00FFF7B4FB75
:102D000007B081F0004100BD0DF1080C00909CE877
:102D10000F00FFF77DFC07B000BD0DF1080C9CE82B
:102D20000F00FFF7A1FB07B000BD0DF1080C0090EC
:102D30009CE80F00FFF76CFCE2E70000FB21E93F95
:102D40000000F07F00000000295C0F3D295C8F3DF2
:102D5000F4FDD43D04560E3EC520303EAAF1523E4D
:102D60006ABC743E83C08A3EBE9F9A3EFA7EAA3EEB
:102D700023DBB93E39B4C83E3D0AD73E2FDDE43EE1
:102D800021B0F23EEE7CFF3EDD24063F31080C3FD1
:102D900085EB113F508D173F91ED1C3F4A0C223FB0
:102DA00079E9263FA8C62B3F4E62303F6ABC343FCC
:102DB000FED4383F91ED3C3F9CC4403F1D5A443FF8
:102DC0009EEF473F96434B3F04564E3F7368513F3B
:102DD000E17A543FC74B573F23DB593F7F6A5C3F43
:102DE000DBF95E3FAE47613F8941803F9CC4803F35
:102DF000E926813F3789813F85EB813FD34D823F73
:102E00005C8F823FAAF1823F3333833F8195833FBA
:102E10000AD7833F9318843F1D5A843FE17A843F49
:102E20006ABC843FF4FD843FB81E853F4260853F05
:102E30000681853FCBA1853F8FC2853F54E3853F07
:102E40001904863FDD24863FA245863F6666863F9D
:102E50002B87863F2B87863FF0A7863FF0A7863FCC
:102E6000B4C8863FB4C8863F79E9863F79E9863F92
:102E700079E9863F79E9863F79E9863F79E9863FB6
:102E800079E9863F79E9863F79E9863F79E9863FA6
:102E900079E9863F79E9863FB4C8863FB4C8863F62
:102EA000B4C8863FF0A7863FF0A7863FF0A7863FCD
:102EB0002B87863F6666863F6666863FA245863FCD
:102EC000A245863FDD24863F1904863F1904863FCC
:102ED00054E3853F8FC2853FCBA1853F0681853F67
:102EE0000681853F4260853F7D3F853FB81E853F17
:102EF000F4FD843F2FDD843F6ABC843FA69B843F62
:102F0000E17A843F1D5A843F5839843F9318843FA7
:102F10000AD7833F46B6833F8195833FBC74833F86
:102F2000F853833F6F12833FAAF1823FE5D0823F7F
:102F300021B0823F986E823FD34D823F0E2D823F5B
:102F400085EB813FC1CA813FFCA9813F7368813F06
:102F50000000000000000000010203040607080949
:102F600000000000010203044FBB610567ACDD3FB8
:102F7000182D4454FB21E93F9BF681D20B73EF3FA0
:102F8000182D4454FB21F93FE2652F227F2B7A3C18
:102F9000075C143326A6813CBDCBF07A8807703CD1
:102FA000075C143326A6913CC4EB98999999C9BF44
:102FB000711623FEC671BCBF6D9A74AFF2B0B3BF79
:102FC0009AFDDE522DDEADBF2F6C6A2C44B4A2BF39
:102FD0000D5555555555D53FFF8300922449C23FA5
:102FE0006E204CC5CD45B73F513DD0A0660DB13FD9
:102FF000EB0D76244B7BA93F11DA22E33AAD903FEB
:103000004C5555555555A53F7751C1166CC156BF06
:103010009015CB19A001FA3EAD529C804F7E92BE16
:10302000C4B1B4BD9EEE213ED43888BEE9FAA8BD35
:1030300000004054FB21F93F3163621A61B4D03D76
:103040000000601A61B4D03D7370032E8A19A33B4F
:103050000000002E8A19A33BC14920259A837B39A1
:1030600000000000000000006E83F9A22915444E04
:10307000D15727FCC0DD34F5999562DB4190433C84
:10308000AB6351FE61C5BBDE3A6E24B7E0D24D4260
:10309000EA2E49061C92D1091CEB1DFE3EA729B160
:1030A000F53582E88444BB2E26709CE9417E5FB4EE
:1030B00039D69139F43953838B5F849C3B28F9BD11
:1030C000FF97F81F0F9805DE8B112FEF1F6D0A5A1F
:1030D000CF7E366DB709CB27663F464F2DEA5F9E00
:1030E000C7BA27757BF1E5EBF739073DEA92528ABB
:1030F000B15FFB6B085D8D1FA6F810111111813FA8
:10310000D561C119A0012ABF7DFEB157E31DC73E9D
:10311000EB9C2B8AE6E55ABE7CD5CF5A3AD9E53DE1
:103120004031000800000020240000002027000893
:103130006431000824000020140500003027000836
:10314000020000000000000000000000000000007D
:103150000100000010000000000000000024F40046
:04316000000000006B
:04000005080000ED02
:00000001FF
