:020000040800F2
:10000000B80500209D010008CB1C00084F1A00080D
:10001000C91C000871070008E12100080000000069
:10002000000000000000000000000000CF1C0008DD
:100030007307000800000000CD1C0008D11C000858
:10004000B7010008B7010008B7010008B7010008B0
:10005000B7010008B7010008B7010008B7010008A0
:10006000B7010008B7010008B7010008B701000890
:10007000B7010008B7010008B7010008B701000880
:10008000B7010008B7010008B7010008B701000870
:10009000B7010008B7010008B7010008B701000860
:1000A000B7010008B7010008B7010008B701000850
:1000B000B7010008751D0008B7010008B701000866
:1000C000B7010008B7010008B7010008B701000830
:1000D000B7010008B7010008B7010008B701000820
:1000E000B7010008B7010008B7010008B701000810
:1000F000B7010008B7010008B7010008B701000800
:10010000B7010008B7010008B7010008B7010008EF
:10011000B7010008B7010008B7010008B7010008DF
:10012000B7010008B7010008B7010008B7010008CF
:10013000B7010008B7010008B7010008B7010008BF
:10014000B7010008B7010008B7010008B7010008AF
:10015000B7010008B7010008B7010008B70100089F
:10016000B7010008B7010008B7010008B70100088F
:10017000B7010008B7010008B7010008000000003F
:10018000B7010008B7010008DFF80CD000F0DEFA74
:100190000048004715240008B8050020064880479D
:1001A00006480047FEE7FEE7FEE7FEE7FEE7FEE75C
:1001B000FEE7FEE7FEE7FEE7591D0008890100089B
:1001C0002DE9F05F0546002092469B46884606468C
:1001D000814640241BE0284641464746224600F01F
:1001E00035FA53465A46C01A914110D31146184663
:1001F000224600F01CFA2D1A67EB01084F462246F2
:100200000120002100F013FA17EB00094E41201ED7
:10021000A4F10104DFDC484631462A464346BDE8E6
:10022000F09FD2B201E000F8012B491EFBD27047CB
:100230000022F6E710B513460A4604461946FFF7B2
:10024000F0FF204610BD2DE9FE4F804681EA0300F5
:10025000C00F0C46009021F0004123F00045B8EBA0
:100260000200A94105D24046214690461C460B4655
:10027000024623F00040104347D0270DC7F30A0081
:10028000C3F30A510290401A019040286BDAC3F37D
:10029000130040F4801B0098924620B10023D2EB5B
:1002A000030A63EB0B0B01985946C0F1400250461C
:1002B00000F0BDF906460D4650465946019A00F039
:1002C000D5F910EB08006141002487EA115284EA55
:1002D000E7731A4340D0009A62B3019A012A4FEAA9
:1002E000075215DC001B61EB02014FF0004202EAED
:1002F0000752CDE90042001C41F5801132462B46E1
:1003000000F0D5F903B0BDE8F08F40462146F9E78B
:10031000001B61EB0201001C41F5801300185B41DA
:100320002018A2F5001747EB030140EAD570B61973
:100330006D4111E06D084FEA360645EAC0754FEA97
:100340000752001B61EB0201001C41F580114908B6
:100350004FEA30000019514132462B4603B0BDE848
:10036000F04F00F095B90098012240000023D0EB37
:10037000020263EBE073009821464FEAE074B8EBA9
:10038000000061EB0401E9E783F000435BE781F0E3
:10039000004158E72DE9FE4F81EA030404F00044D0
:1003A00021F0004100944FF0000B23F0004350EA8D
:1003B00001045ED052EA03045BD0C3F30A54C1F3D4
:1003C0000A552C44A4F2F3340194A0FB0254C1F367
:1003D000130141F48011C3F3130343F4801301FBB1
:1003E000024400FB034E840A970A44EA815447EA18
:1003F0008357A4FB076802958D0A05FB07854FEA22
:10040000932C04FB0C542705029D4FEA065847EA3B
:100410001637B5EB08056EEB070C870E920E47EA10
:10042000811742EA8312A7FB0201B6EB0B0164EBD2
:1004300000042B0D43EA0C335E1844EB1C50DA46E3
:100440005146E7FB0201C5F313044FEA0B3343EABD
:1004500014534FEA0432019C43EA0603A4F10C044E
:100460000294009CCDE900B400F021F903B0BDE88E
:10047000F08F00200146F9E72DE9F04D81EA0304F1
:1004800004F0004B21F0004514464FF0000A23F021
:10049000004150EA050220D054EA01021DD0C5F304
:1004A0000A570246C5F31303C1F31300C1F30A56FA
:1004B00040F4801543F48013A7EB0608101BD646C2
:1004C00008F2FD3873EB050002D308F1010801E0E2
:1004D00092185B41B8F1000F03DA00200146BDE835
:1004E000F08D00204FF48011064684460EE0171B65
:1004F00073EB050705D3121B63EB050306434CEAB8
:10050000010C49084FEA300092185B4150EA01079C
:10051000EDD152EA030012D082EA040083EA050119
:10052000084305D0101BAB4106D20122002306E090
:1005300000224FF0004302E06FF0010253101AEB6B
:1005400006004CEB085110EB0A0041EB0B01BDE833
:10055000F04D00F09DB80EB5C10F80EAE070084480
:10056000CA07002140F233438DE80E000A460B46CD
:1005700000F09DF803B000BD0EB540F2334102918A
:100580000021CDE900110A460B4600F090F803B0B7
:1005900000BD70B5C1F30A5201F000450024C1F35B
:1005A000130140F2FF3341F480119A4201DA002036
:1005B00070BD40F233439A42A2F2334203DC52420E
:1005C00000F044F800E090402C43F1D0404270BD70
:1005D000C1F30A5210B5C1F3130140F2FF3341F4E5
:1005E00080119A4201DA002010BD40F233439A4252
:1005F000A2F2334203DC524200F028F810BD9040D2
:1006000010BD30B50B46014600202022012409E030
:1006100021FA02F59D4205D303FA02F5491B04FABB
:1006200002F52844151EA2F10102F1DC30BD202A9A
:1006300004DB203A00FA02F1002070479140C2F139
:10064000200320FA03F3194390407047202A04DB6B
:10065000203A21FA02F00021704721FA02F3D0403B
:10066000C2F120029140084319467047202A06DB58
:10067000CB17203A41FA02F043EAE07306E041FA70
:1006800002F3D040C2F1200291400843194670475E
:1006900010B5141E73F1000408DA401C41F100018A
:1006A00092185B411A4301D120F0010010BD2DE9E1
:1006B000F04D92469B4611B1B1FA81F202E0B0FAD8
:1006C00080F220329046FFF7B2FF04460F4640EA20
:1006D0000A0041EA0B0153465A46084313D011461B
:1006E00053EA010019D0C8F140025046FFF7AEFFAF
:1006F00005460E46504659464246FFF798FF0843C6
:1007000005D0012004E020463946BDE8F08D0020E8
:10071000054346EAE0762C4337430A986305E40A2A
:10072000A0EB08000022FD0A44EA47540A3002D533
:1007300000200146E9E7010510196941DDE9084596
:1007400000196941BDE8F04DA2E70000064C074DD5
:1007500006E0E06840F0010394E807009847103491
:10076000AC42F6D3FFF714FD1C2500083C25000819
:10077000FEE770477047000070B5044600F0F6F8D9
:100780000546601C02D004480078044400F0EEF8EE
:10079000401BA042FAD370BD040000202DE9F84FA1
:1007A00000224FF0010803254FF00F0E0B6808FAE6
:1007B00002F42340A3426ED14E68012E05D0022ED2
:1007C00003D0112E01D0122E12D186684FEA420CAE
:1007D00005FA0CF7BE43CF6807FA0CF7374387607A
:1007E0004668A6430C79C4F3001494403443446033
:1007F000C668570005FA07FC8C6826EA0C06BC4060
:100800003443C4604C68022C01D0122C13D1D4089C
:1008100000EB8404A346D4F8209054074FEAD46A2E
:100820000EFA0AF629EA06090E6906FA0AF646EAF7
:100830000906CBF8206006680C7926EA0C0604F05D
:100840000304BC40344304604C68E40065D5364C76
:10085000266846F480462660246822F0030604F4E5
:1008600080440094314C3444A446D4F80848960798
:10087000370F0EFA07F6B4432D4EB04201D10026D1
:1008800024E02C4EB04201D101261FE02A4EB04296
:1008900002D102261AE040E0284EB04201D10326E0
:1008A00014E0274EB04201D104260FE0254EB0429D
:1008B00001D105260AE0244EB04201D1062605E00A
:1008C000224EB04201D1072600E00826BE40264352
:1008D000CCF808681E4E34684F689C43FF0300D56F
:1008E0001C4334601A4C241D26684F689E43BF0386
:1008F00000D51E432660164E083634684F689C4368
:10090000FF0200D51C433460114E0C3634684F682A
:100910009C43BF0200D51C433460521C102AFFF4D4
:1009200045AFBDE8F88F0000443802400030014078
:10093000000002400004024000080240000C024097
:10094000001002400014024000180240001C024047
:10095000003C0140426931EA020200D10904816190
:1009600070470AB1816170470904FBE7014880685C
:10097000704700000400002002488168027811449A
:1009800081607047040000200B4810B5016841F4F5
:1009900000710160016841F480610160016841F407
:1009A00080710160032000F071F8002000F006F86B
:1009B00000F024F8002010BD003C024070B50D4D41
:1009C00004464FF47A712878B1FBF0F00A490968BF
:1009D000B1FBF0F000F006FB48B9102C07D2002262
:1009E0002146501E00F032F800206C6070BD0120DE
:1009F00070BD000004000020100000200B4882B0F1
:100A0000016841F480410160006800F4804000907A
:100A10000648001F016841F080510160006800F045
:100A200080500090052002B000F030B844380240F9
:100A3000002809DB00F01F020121914040098000DD
:100A400000F1E020C0F8001170470000F0B40E4B38
:100A50001B680C46C3F30223C3F10705042D00D91C
:100A60000425191D072901D2002300E0DB1E012601
:100A700006FA05F1491E214099409E40761E164017
:100A80003143F0BC01F0BCBB0CED00E0064900F0C6
:100A9000070208684FF6FF03184040EA0220034AA5
:100AA00010430860704700000CED00E00000FA05FC
:100AB0002DE9F0470E46050065D0DFF81481D8F81F
:100AC0000000F7B200F00F00B04207D288F80070C3
:100AD000D8F8000000F00F00B04254D128683D4C17
:100AE000810712D5400703D5206840F4E05020600C
:100AF0002878000703D5206840F460402060206813
:100B0000A96820F0F000084320602878C0072DD0A5
:100B1000304968680839012812D0022813D0032808
:100B200011D00968890700292DDA216821F0030115
:100B300001432160FFF71AFF814641F2883A0EE037
:100B400009688903EFE709688901ECE7FFF70EFF01
:100B5000A0EB0901514502D90320BDE8F0872068C8
:100B6000696800F00C00B0EB810FEFD1D8F80010ED
:100B7000404601F00F01B14207D90770006800F04C
:100B80000F00B04201D00120E7E72878400705D5E3
:100B90002068E96820F4E0500843206028780007C6
:100BA00006D52068296920F4604040EAC100206031
:100BB00000F038F82168084AC1F30311515CC840BD
:100BC0000649086006480068FFF7F8FE0020C4E701
:100BD000003C0240083802400125000810000020B7
:100BE000080000200448054900680968044AC1F368
:100BF0008221515CC8407047100000200838024034
:100C0000112500080448054900680968044AC1F331
:100C10004231515CC8407047100000200838024043
:100C200011250008154810B5006810F00C02144892
:100C300013D01449042A0FD0082A0ED10F4C241FB8
:100C40002268236802F03F025B0207D52068C0F3E8
:100C50008810A0FB010106E0084610BD2168C1F321
:100C60008811A1FB00010023FFF7AAFA2168C1F354
:100C70000141491C4900B0FBF1F010BD08380240A9
:100C80000024F40040787D012DE9F84F04006ED077
:100C90002078DFF83C93C007A9F104054AD009F198
:100CA00004000168C1F38101012908D00068C0F384
:100CB000810002280AD1D9F80000400206D5286830
:100CC000800337D560680028E1D033E06068B0F574
:100CD000803F10D0B0F5A02F286810D020F48030CD
:100CE0002860286820F4802028606068A8B1FFF799
:100CF0003DFE06460DE0286840F48030F4E740F4FD
:100D000080202860F7E700BFFFF730FE801B6428D3
:100D100073D828688003F7D50CE0FFF727FE064656
:100D200005E000BFFFF722FE801B6428F0D828688A
:100D30008003F7D42078DFF89C8280074FF0000A08
:100D40003ED5A348001D016811F00C0F08D00068C3
:100D5000C0F3810002280BD1D9F80000400207D46B
:100D60002868800716D5E068012800D112E02BE141
:100D7000E068B8B10120C8F80000FFF7F7FD0646AB
:100D800005E000BFFFF7F2FD801B0228C0D82868ED
:100D90008007F7D52868216920F0F80040EAC100F3
:100DA00028600DE0C8F800A0FFF7E0FD064604E06B
:100DB000FFF7DCFD801B02281FD828688007F7D4C6
:100DC0002078000722D5824E83486169703671B160
:100DD00001210160FFF7CAFD074604E0FFF7C6FDE9
:100DE000C01B022809D830688007F7D50EE0C0F88C
:100DF00000A0FFF7BBFD074605E082E0FFF7B6FD68
:100E0000C01B02287DD830688007F7D420784007BF
:100E100068D5DFF8BCB100270BF13C0BDBF8000014
:100E2000C0000BD4DBF8001041F08051CBF800106B
:100E3000DBF80000012700F080500090674E30681A
:100E4000C00510D4306840F480703060FFF78EFD2C
:100E5000009005E0FFF78AFD0099401A022850D85B
:100E60003068C005F6D55A4EA0686C3601280FD000
:100E70000528306810D020F001003060306820F084
:100E800004003060A068B8B1FFF770FD00900FE07B
:100E9000306840F00100F4E740F004003060F7E70C
:100EA000FFF764FD0099411A41F28830814266D80B
:100EB00030688007F4D50EE0FFF758FD009007E09A
:100EC000FFF754FD0099411A41F28830814256D80B
:100ED00030688007F4D42FB1DBF8001021F0805186
:100EE000CBF80010A069C8B33949091D0968C1F3DE
:100EF000810102294AD00228504607D0C8F8600074
:100F000000E03CE0FFF732FD04463BE04746C8F80E
:100F10006000FFF72BFD064605E000BFFFF726FD4A
:100F2000801B02282BD828688001F7D4D4E9070158
:100F30000843A16A2A4A490802EB0141626A41EA70
:100F40008211084394F82C1040EA0161C9F800109E
:100F500001203866FFF70AFD044606E036E000BFD0
:100F6000FFF704FD001B022809D828688001F7D587
:100F70002CE000BFFFF7FAFC001B022802D9032077
:100F8000BDE8F88F28688001F4D41FE00128F7D06D
:100F9000D9F80000E26900F48001914214D1226A7C
:100FA00000F03F0191420FD147F6C071626A0140E3
:100FB000914209D1A26A00F44031914204D1E16A20
:100FC00000F07060884201D00120D9E70020D7E707
:100FD0000438024000004742800E47420070004043
:100FE0000000FFFF10B5401EB0F1807F01D301204B
:100FF00010BD4FF0E02460610F21601701F000F98F
:101000000020A06107202061002010BD70477047BC
:1010100010B590F83C20012A22D0012280F83C2013
:10102000CA688C6822F4407222434C6822F48062C1
:1010300022430C6822F4006222430C6922F480529D
:1010400022434C6922F400522243C969002322F44E
:1010500080420A4301684A6480F83C30002010BD99
:10106000022010BD70B590F83C20012A32D0012436
:1010700080F83C40022280F83D2003685A689D6851
:1010800022F070060A6832435A60134B02689A4293
:1010900014D0B2F1804F11D0104B9A420ED0104BA9
:1010A0009A420BD00F4B9A4208D00F4B9A4205D070
:1010B0000E4B9A4202D00E4B9A4204D1496825F059
:1010C00080031943916080F83D40002180F83C1076
:1010D000084670BD022070BD0000014000040040C1
:1010E00000080040000C00400004014000400140A6
:1010F0000018004010B5040003D094F83D0010B172
:1011000007E0012010BD002084F83C00204600F0DC
:101110000DF8022084F83D00211D206800F030FE0B
:10112000012084F83D00002010BD000008B50068D3
:101130001149884209D11148016841F0010101605B
:10114000006800F00100009008BD0D498842FBD105
:101150000A48001F016841F0020101600068012295
:1011600000F00200009000211D20FFF76FFCBDE899
:1011700008401D20FFF75CBC0000014044380240DD
:10118000000400400168CA6842F00102CA600068B9
:10119000816801F00701062903D0016841F00101CF
:1011A00001600020704770B5044690F83C000128AB
:1011B00017D0012584F83C50022084F83D002068B7
:1011C000826822F0770222F47F4282600868502809
:1011D00030D00DDC20284DD005DC98B310283BD151
:1011E00048E0022070BD302844D0402834D139E096
:1011F000602828D0702806D0B0F5805F2CD0B0F5DC
:10120000005F29D10AE0CB68D1E90121206800F014
:1012100028FE2068816841F0770109E0CB68D1E9B8
:101220000121206800F01DFE2068816841F48041A2
:10123000816011E0CA684968206800F0E7FE50212B
:10124000206807E016E0CA684968206800F0EFFEF1
:101250006021206800F00FFE84F83D50002084F8E3
:101260003C0070BDCA684968206800F0CFFE40218C
:101270002068EFE7226801461046EBE72DE9F041D0
:101280000D46040003D094F83D0018B108E0012099
:10129000BDE8F081002084F83C00204600F03AF8D8
:1012A000022084F83D002068816844F207029143DF
:1012B0008160211D206800F063FD226890689169BB
:1012C000166A2B68AF69034340F20330814341EA59
:1012D0000721A868EF6908434FF6FC418843E96895
:1012E00040EA0720014328692F6A000140EA0730DD
:1012F000084369686D6926F0AA0646EA0515294380
:1013000093602268906120680162012084F83D00AA
:101310000020BDE710B586B0044614216846FEF7EC
:1013200087FF2068B0F1804F1FD11148002102686B
:1013300042F001020260006800F0010005900C48D4
:101340001038026842F001020260006800F00100FB
:101350000590032000900220CDE901010120CDE994
:10136000031069460348FFF719FA06B010BD0000E4
:10137000403802400000024010B50446006891B1B8
:10138000042904D00122002100F05EFD2068012222
:101390005FF0040100F058FD2068016841F0010190
:1013A0000160002010BD01220021F3E7704770B5F5
:1013B0000446006801694FF00005C943890715D448
:1013C000C168C943890711D4E91E01610120207752
:1013D000206880698007204602D0FFF7E7FF04E01D
:1013E00000F0C2F8204600F044F925772068016932
:1013F000C943490717D4C168C943490713D46FF0DB
:1014000004010161022020772068806910F4407F88
:10141000204602D0FFF7CAFF04E000F0A5F82046FE
:1014200000F027F9257720680169C943090716D418
:10143000C168C943090712D46FF008010161042093
:1014400020772068C0698007204602D0FFF7AEFFF2
:1014500004E000F089F8204600F00BF925772068B9
:101460000169C943C90617D4C168C943C90613D461
:101470006FF010010161082020772068C06910F426
:10148000407F204602D0FFF791FF04E000F06CF8A7
:10149000204600F0EEF8257720680169C943C907A6
:1014A00008D1C168C943C90704D1891E016120461A
:1014B00000F002F920680169C943090609D4C1682E
:1014C000C943090605D46FF0800101612046FFF78A
:1014D0009DFD20680169C943490609D4C168C94313
:1014E000490605D46FF040010161204600F0D2F9B1
:1014F00020680169C94389060BD4C168C9438906BC
:1015000007D46FF0200101612046BDE87040FFF76D
:101510007EBD70BD10B586B0044614216846FEF746
:1015200087FE0E492068884216D10D4800210268C6
:1015300042F010020260006800F0100005904FF4C5
:10154000007000900220CDE901010120CDE90310D7
:1015500069460448FFF722F906B010BD00000140BB
:101560003038024000100240704770B5044690F8D1
:101570003C000D4601280DD0012684F83C60022075
:1015800084F83D0042B1042A18D0082A2AD00C2A37
:101590004DD139E0022070BD206800F075FC206854
:1015A000816941F0080181612068816921F00401AD
:1015B0008161206881692A69114311E0206800F087
:1015C00093FC2068816941F4006181612068816930
:1015D00021F480618161206881692A6941EA0221E0
:1015E000816124E0206800F0B5FC2068C16941F009
:1015F0000801C1612068C16921F00401C16120684E
:10160000C1692A69114311E0206800F0D7FC206805
:10161000C16941F40061C1612068C16921F4806140
:10162000C1612068C1692A6941EA0221C16184F867
:101630003D60002084F83C0070BD10B5040003D06C
:1016400094F83D0010B107E0012010BD002084F89F
:101650003C00204600F00CF8022084F83D00211DDB
:10166000206800F08DFB012084F83D00002010BDB3
:101670007047704710B504460068012200F0E4FB93
:101680000B492068884202D00A49884203D1416C44
:1016900041F4004141642068816801F00701062996
:1016A00003D0016841F001010160002010BD00007D
:1016B00000000140000401402DE9F0476E492DED86
:1016C000088B0068096888427ED16C480068416ACE
:1016D0006B4A89B28846118000214162694CA07E24
:1016E000A17F401A45B22577606AFEF734FF41ECCE
:1016F000190B2846FEF72FFF894649EC100B0646CA
:101700009FED618B51EC100B53EC182BFEF742FE52
:1017100053EC192BFEF797FDFEF73BFF074660627F
:1017200094F91800281AFEF716FF53EC182BFEF751
:10173000A3FEFEF72EFFA062FEF70DFF94ED041B43
:1017400053EC112BFEF726FE41EC1A0B3846FEF740
:1017500002FF94ED021B53EC112BFEF71BFE49EC2C
:10176000106B94ED001B41EC190B53EC112B51EC59
:10177000100BFEF70FFE41EC1B0B4046FEF7FCFE84
:101780008A464AEC100B054653EC1B2B51EC100B10
:10179000FEF759FD53EC192BFEF755FD53EC1A2BB0
:1017A000FEF751FDFEF714FF2084394CA07EA17F87
:1017B000401A46B22677606AFEF7CDFE41EC190B5F
:1017C0003046FEF7C8FE00E051E0894649EC100BB8
:1017D000074653EC182B51EC100BFEF7DBFD53ECD6
:1017E000192BFEF730FDFEF7D4FE8046606294F9B7
:1017F0001800301AFEF7AFFE53EC182BFEF73CFE34
:10180000FEF7C7FEA062FEF7A6FE94ED041B53ECA4
:10181000112BFEF7BFFD41EC190B4046FEF79BFE76
:1018200094ED021B53EC112BFEF7B4FD49EC107B39
:1018300094ED001B41EC180B53EC112B51EC100BE9
:10184000FEF7A8FD41EC100B4AEC115B53EC102B9A
:1018500051EC110BFEF7F7FC53EC182BFEF7F3FCE1
:1018600053EC192BFEF7EFFCFEF7B2FE2084BDEC23
:10187000088BBDE8F08700009800002018000020C9
:1018800000000020580100207B14AE47E17A743F2D
:1018900088010020704770B5040004D094F8390026
:1018A000002510B106E0012070BD84F838502046B4
:1018B00000F022F8242084F839002068C16821F45F
:1018C0000051C160204600F0C5FB2068016921F489
:1018D000904101612068416921F02A01416120683D
:1018E000C16841F40051C160E563202084F83900EB
:1018F00084F83A00002070BDF0B587B0044614218A
:101900006846FEF795FC1F4F236800221E490224FB
:10191000032507261D48BB4213D11B4B14331F68F8
:1019200047F010071F601B6803F0100305930B6856
:1019300043F001030B60096801F0010105916902A0
:1019400015E0134FBB421AD10F4B10331F6847F4F9
:1019500000371F601B6803F4003305930B6843F0E6
:1019600001030B60096801F0010105910C21CDE92B
:10197000001402AB694683E86400FEF70FFF07B06E
:10198000F0BD00000010014030380240000002406D
:10199000004400402DE9F843044690F839001F4602
:1019A00016460D46202850D1B5B1AEB194F8380096
:1019B00001284AD0012084F838004FF00008C4F80C
:1019C0003C80212084F83900FEF7D0FFA6848146B0
:1019D000E68484F8388026E00120BDE8F883E08CB6
:1019E000401EE084A0684B46B0F5805F4FF00002D7
:1019F0004FF080012046009703D000F0BFFBE8B90C
:101A00000DE000F0BBFBC8B928882168C0F30800CE
:101A10004860206908B16D1C05E0AD1C03E0216839
:101A200015F8010B4860E08C0028D8D14B46002205
:101A300040212046009700F0A1FB08B10320CCE72D
:101A4000202084F839000020C7E70220C5E7FEE720
:101A500030B587B014216846FEF7EAFB154800242C
:101A6000016841F080010160016801F08001059189
:101A7000016841F001010160016801F00101059177
:101A8000016841F01001016000680B4D00F010008A
:101A90000590002230212846FEF763FF3020009099
:101AA0000120CDE90104694628460394FEF776FE3D
:101AB00007B030BD303802400000024010B596B08B
:101AC00000240F9410941194129413941C2108A8CC
:101AD0001494FEF7ADFB20216846FEF7A9FB2948C8
:101AE000274901600621C0E9011440F65F11C0E9F1
:101AF00003148021C0E90541FFF7FCFA08B1FEF7A5
:101B000039FE4FF480500F900FA91E48FFF74BFB92
:101B100008B1FEF72FFE1B48FFF78FFD08B1FEF757
:101B200029FE139413A917481494FFF79BFA08B1E0
:101B3000FEF720FE6020CDE908040A940B940C9473
:101B40000D94002208A90F480E94FFF70EFD08B16E
:101B5000FEF710FE00944FF40050CDE904400294CB
:101B600001940394694607480794FFF751FA08B1B6
:101B7000FEF700FE0348FFF7CDFC16B010BD0000D5
:101B8000000001401800002010B58CB024216846E8
:101B9000FEF74EFB0024154809944FF080410A944B
:101BA000C0E90014611EC0E9024180210461816125
:101BB0000320CDE900040120CDE902040494CDE91D
:101BC00005400794694609480894FFF757FB08B198
:101BD000FEF7D0FD099409A904480A94FFF742FAD8
:101BE000002801D0FEF7C6FD0CB010BD5800002043
:101BF00010B586B000241748009401940294039411
:101C00000494134905940160A721C0E9011441F22D
:101C10008731C0E9031480218161FFF76BFA08B1B5
:101C2000FEF7A8FD4FF48050009069460948FFF781
:101C3000BAFA08B1FEF79EFD049404A9054805947C
:101C4000FFF710FA002801D0FEF794FD06B010BD92
:101C500000040040980000200C4810B50A490160BB
:101C60004FF4E1314160002181600C22C160C0E984
:101C700004128161C161FFF70EFE002803D0BDE8A8
:101C80001040FEF777BD10BD00100140D8000020C5
:101C90000C4810B50A4901604FF4E1314160002160
:101CA00081600C22C160C0E904128161C161FFF74B
:101CB000F2FD002803D0BDE81040FEF75BBD10BD6B
:101CC0000044004018010020FEE77047704770474D
:101CD000FEF752BE30B593B030216846FEF7A8FA41
:101CE00014210CA8FEF7A4FA19480025016841F058
:101CF00080510160006800F0805011901548016823
:101D000041F4804101600068022400F48040119099
:101D10000120039010200490009406940820CDE93F
:101D20000750A820CDE9090404200B906846FEF76F
:101D3000ABFF0CA90F2081E831004FF4A0500F90A9
:101D4000E002109005210CA8FEF7B2FE13B030BDE2
:101D500040380240007000400548016841F47001BD
:101D6000016003494FF0006080390860704700004F
:101D700088ED00E00148FFF71ABB00009800002042
:101D8000F0B50268254C264D264E274F274B4FF0C5
:101D9000804CA04209D0604507D0A84205D0B0428F
:101DA00003D0B84201D0984204D122F0700E4A68A4
:101DB00042EA0E02A0421BD0604519D0A84217D0BB
:101DC000B04215D0B84213D0984211D0184DA84255
:101DD0000ED0184DA8420BD0174DA84208D0174D71
:101DE000A84205D0164DA84202D0164DA84203D1F4
:101DF00022F44075CA682A434D6922F080022A43C2
:101E000002608A68C2620A688262A04201D0984277
:101E100001D10969016301214161F0BD0000014068
:101E20000004004000080040000C00400004014095
:101E300000400140004401400048014000180040BB
:101E4000001C00400020004010B501F01F030121DC
:101E5000046A99408C430462016A9A40114301620A
:101E600010BD10B5846842EA032224F47F440A437B
:101E70002243826010BD826822F070020A4342F061
:101E80000701816070470000F0B5026A22F001028C
:101E90000262036A42688469124E24F073050C687A
:101EA0002C4323F002058B682B430D4DA84201D033
:101EB000B04205D123F00807CB683B4323F004036D
:101EC000A84201D0B04205D14D6922F440721543B9
:101ED0008A692A4342608461496841630362F0BDB4
:101EE0000000014000040140F0B5026A22F0100237
:101EF0000262026A436884690D6824F4E64444EA95
:101F000005248D6822F0200242EA05120F4D104E82
:101F1000A84201D0B04206D1CF6822F0800242EA46
:101F2000071222F04002A84201D0B04207D14D6909
:101F300023F4406343EA85038D6943EA85034360E4
:101F40008461496881630262F0BD000000000140C5
:101F500000040140F0B5026A22F480720262026A53
:101F60004368C46922F4007224F073050C68124EB1
:101F70002C438D6842EA05220E4DA84201D0B042A2
:101F800006D1CF6822F4006242EA072222F480627E
:101F9000A84201D0B04207D14D6923F4405343EA2F
:101FA00005138D6943EA05134360C4614968C16341
:101FB0000262F0BD000001400004014030B5026A39
:101FC00022F480520262046A4268C3690D6823F4F5
:101FD000E64343EA05238D6824F4005444EA0534BB
:101FE000084DA84202D0084DA84204D14D6922F400
:101FF000804242EA85124260C3614968016404621A
:1020000030BD0000000001400004014010B5036A2B
:10201000046A24F001040462846924F0F00444EAB0
:10202000021423F00A020A438461026210BD10B553
:10203000036A23F0100303628369046A23F4704384
:1020400043EA023224F0A00343EA011182610162F3
:1020500010BD00002DE9F041044600680169E26806
:1020600021F44051114301612169A068E2690843EC
:102070006169114308432168CA6849F20C639A43B5
:102080000243CA6020684169A26921F4407111438A
:102090004161E069192764253226B0F5004F354AC1
:1020A000354920684FF0000806D0884201D09042A0
:1020B00036D1FEF7A7FD35E0884201D0904202D12B
:1020C000FEF7A0FD01E0FEF78DFD61684A18A0FB58
:1020D000070148EB0803FEF773F80146B0FBF5F083
:1020E0000201B1FBF5F06FF01803584301EB8000DB
:1020F00006EBC000B0FBF5F000F0F80002EB400288
:10210000B1FBF5F0584301EB800006EBC000B0FBDB
:10211000F5F000F00700216810448860BDE8F08108
:10212000FEF760FD61688B0F8A00A0FB0701FEF7D8
:1021300047F80146B0FBF5F06FF01802504301EB91
:10214000800006EB0010B0FBF5F000F0F002B1FBF0
:10215000F5F002EB0012B1FBF5F06FF018035843F5
:1021600001EB800006EB0010B0FBF5F000F00F0073
:10217000D1E7000000140140001001402DE9F041BA
:10218000984617460E460446069D1DE0681C1BD067
:102190002DB1FEF7EBFBA0EB0800A84214D9206894
:1021A000C16821F4D071C1602068416921F001014A
:1021B0004161202084F8390084F83A00002084F836
:1021C00038000320BDE8F0812068006836EA00008E
:1021D00004D00020B842D9D00020F3E70120F9E76D
:1021E000FEE700000FB4024610B504A9034B0398A4
:1021F00000F026F810BC5DF814FB0000F92300087D
:102200000907090E002804DB00F1E02080F8001423
:10221000704700F00F0000F1E02080F8141D7047B7
:1022200002E008C8121F08C1002AFAD1704770479F
:10223000002001E001C1121F002AFBD170470000FD
:102240002DE9FF4F8BB09A460F460546002606E063
:1022500025280BD052460D9990476D1C761C287886
:102260000028F5D10FB03046BDE8F08F0024A0461D
:102270000122604900E0044315F8013F203B02FAC7
:1022800003F00842F7D128782E2817D115F8010F4E
:1022900044F004042A280ED06FF02F022878A0F111
:1022A000300109290AD808EB880102EB410100EB53
:1022B00001086D1CF2E757F8048B6D1C287869281B
:1022C0003ED006DC0028CDD063280BD0642804D192
:1022D00036E0732810D075284BD052460D999047A0
:1022E000761C85E017F8040B8DF8000000208DF8AF
:1022F0000100E946012003E057F8049B4FF0FF304E
:1023000061074FF0000401D40AE0641C44450DDA73
:102310008442FADB19F804100029F6D106E0641CA7
:102320008442FCDB19F804100029F8D1264404E0AB
:1023300019F8010B52460D999047641EF8D257E0E8
:1023400001CF4FF00A0B002802DA40422D2102E0B3
:10235000210504D52B218DF82410012103E0E1078C
:1023600005D02021F7E70DF1200908910CE00021AC
:10237000F9E701CF4FF00A0BF9E75946FEF741F9AB
:1023800001F1300209F8012D0028F6D1ADEB09006A
:1023900000F1200B600701D44FF00108D84502DDA1
:1023A000A8EB0B0000E000208046002406E009A80E
:1023B0005246005D0D999047641C761C0898844233
:1023C000F5DB04E0302052460D999047761CB8F1B9
:1023D0000001A8F10108F5DC05E019F8010B5246EF
:1023E0000D999047761CBBF10001ABF1010BF4DCB9
:1023F0006D1C34E70928010038B504468DF800004B
:102400000223012269460248FFF7C4FA204638BD7C
:10241000D800002008B5FEF7B7FAFFF75BFCFFF71E
:1024200017FBFFF74BFBFFF7AFFBFFF715FCFFF7C1
:102430002FFCFFF7DDFB1948FEF7A4FE002118482A
:10244000FFF718F93C211748FEF796FF164C0122BA
:1024500010212046FEF785FA002220212046FEF7B3
:1024600080FA0F494FF41660096848630F4E4FF425
:10247000FA67822510212046FEF76CFA3846FEF7EF
:102480007BF90B4B0BA210A119480095FFF7AAFE90
:10249000328818A11648FFF7A5FEEBE79800002048
:1024A000180000205800002000000240000000201A
:1024B000FC2400082E2E2F436F72652F5372632F5A
:1024C0006D61696E2E6300005B094442475D2846DA
:1024D000696C653A25732C2046756E633A2573281E
:1024E000292C204C696E653A2564293A20000000A9
:1024F0001400002025640D0A0D0A00006D61696E4C
:1025000000000000000000000001020304060708AC
:102510000900000000010203040000003C2500083F
:1025200000000020180000002022000854250008A8
:1025300018000020A0050000302200080000000064
:102540000100000010000000000000000024F40062
:042550000000000087
:040000050800018965
:00000001FF
