:020000040800F2
:10000000500500209D0100086B1400082112000813
:1000100069140008A9020008011900080000000086
:100020000000000000000000000000006F14000845
:10003000AB020008000000006D14000871140008F5
:10004000B7010008B7010008B7010008B7010008B0
:10005000B7010008B7010008B7010008B7010008A0
:10006000B7010008B7010008B7010008B701000890
:10007000B7010008B7010008B7010008B701000880
:10008000B7010008B7010008B7010008B701000870
:10009000B7010008B7010008B7010008B701000860
:1000A000B7010008B7010008B7010008B701000850
:1000B000B701000815150008B7010008B7010008CE
:1000C000B7010008B7010008B7010008B701000830
:1000D000B7010008B7010008B7010008B701000820
:1000E000B7010008B7010008B7010008B701000810
:1000F000B7010008B7010008B7010008B701000800
:10010000B7010008B7010008B7010008B7010008EF
:10011000B7010008B7010008B7010008B7010008DF
:10012000B7010008B7010008B7010008B7010008CF
:10013000B7010008B7010008B7010008B7010008BF
:10014000B7010008B7010008B7010008B7010008AF
:10015000B7010008B7010008B7010008B70100089F
:10016000B7010008B7010008B7010008B70100088F
:10017000B7010008B7010008B7010008000000003F
:10018000B7010008B7010008DFF80CD000F07AF8DA
:1001900000480047411900085005002006488047E4
:1001A00006480047FEE7FEE7FEE7FEE7FEE7FEE75C
:1001B000FEE7FEE7FEE7FEE7F91400088901000804
:1001C0002DE9F05F0546002092469B46884606468C
:1001D000814640241BE0284641464746224600F01F
:1001E00041F853465A46C01A914110D31146184659
:1001F000224600F028F82D1A67EB01084F462246E8
:100200000120002100F01FF817EB00094E41201ECD
:10021000A4F10104DFDC484631462A464346BDE8E6
:10022000F09FD2B201E000F8012B491EFBD27047CB
:100230000022F6E710B513460A4604461946FFF7B2
:10024000F0FF204610BD202A04DB203A00FA02F11C
:10025000002070479140C2F1200320FA03F31943B4
:1002600090407047202A04DB203A21FA02F0002156
:10027000704721FA02F3D040C2F1200291400843B6
:1002800019467047064C074D06E0E06840F0010350
:1002900094E8070098471034AC42F6D3FFF778FF94
:1002A0007C1900089C190008FEE7704770470000A1
:1002B0002DE9F84F00224FF0010803254FF00F0EF3
:1002C0000B6808FA02F42340A3426ED14E68012E57
:1002D00005D0022E03D0112E01D0122E12D1866825
:1002E0004FEA420C05FA0CF7BE43CF6807FA0CF749
:1002F000374387604668A6430C79C4F300149440E2
:1003000034434460C668570005FA07FC8C6826EA47
:100310000C06BC403443C4604C68022C01D0122C43
:1003200013D1D40800EB8404A346D4F820905407DA
:100330004FEAD46A0EFA0AF629EA06090E6906FAA5
:100340000AF646EA0906CBF8206006680C7926EA28
:100350000C0604F00304BC40344304604C68E40021
:1003600065D5364C266846F480462660246822F01F
:10037000030604F480440094314C3444A446D4F879
:1003800008489607370F0EFA07F6B4432D4EB042D1
:1003900001D1002624E02C4EB04201D101261FE0FD
:1003A0002A4EB04202D102261AE040E0284EB04266
:1003B00001D1032614E0274EB04201D104260FE0FC
:1003C000254EB04201D105260AE0244EB04201D1AB
:1003D000062605E0224EB04201D1072600E008269D
:1003E000BE402643CCF808681E4E34684F689C43D4
:1003F000FF0300D51C4334601A4C241D26684F6847
:100400009E43BF0300D51E432660164E083634684F
:100410004F689C43FF0200D51C433460114E0C36DC
:1004200034684F689C43BF0200D51C433460521CA3
:10043000102AFFF445AFBDE8F88F000044380240B1
:100440000030014000000240000402400008024069
:10045000000C02400010024000140240001802404C
:10046000001C0240003C01400148806870470000C9
:1004700000000020024881680278114481607047C2
:10048000000000200B4810B5016841F400710160C4
:10049000016841F480610160016841F4807101608C
:1004A000032000F071F8002000F006F800F024F8B6
:1004B000002010BD003C024070B50D4D04464FF4C5
:1004C0007A712878B1FBF0F00A490968B1FBF0F0C5
:1004D00000F006FB48B9102C07D200222146501E1E
:1004E00000F032F800206C6070BD012070BD00008B
:1004F000000000200C0000200B4882B0016841F48D
:1005000080410160006800F4804000900648001FB0
:10051000016841F080510160006800F08050009057
:10052000052002B000F030B844380240002809DB52
:1005300000F01F02012191404009800000F1E020FD
:10054000C0F8001170470000F0B40E4B1B680C4659
:10055000C3F30223C3F10705042D00D90425191D97
:10056000072901D2002300E0DB1E012606FA05F16F
:10057000491E214099409E40761E16403143F0BCF2
:1005800001F0BFB90CED00E0064900F00702086871
:100590004FF6FF03184040EA0220034A1043086068
:1005A000704700000CED00E00000FA052DE9F0476F
:1005B0000E46050065D0DFF81481D8F80000F7B2C8
:1005C00000F00F00B04207D288F80070D8F80000A1
:1005D00000F00F00B04254D128683D4C810712D57D
:1005E000400703D5206840F4E050206028780007D9
:1005F00003D5206840F4604020602068A96820F09E
:10060000F000084320602878C0072DD03049686882
:100610000839012812D0022813D0032811D0096804
:10062000890700292DDA216821F0030101432160A7
:10063000FFF71AFF814641F2883A0EE00968890304
:10064000EFE709688901ECE7FFF70EFFA0EB09016E
:10065000514502D90320BDE8F0872068696800F0A1
:100660000C00B0EB810FEFD1D8F80010404601F03C
:100670000F01B14207D90770006800F00F00B042C7
:1006800001D00120E7E72878400705D52068E96810
:1006900020F4E050084320602878000706D5206841
:1006A000296920F4604040EAC100206000F038F879
:1006B0002168084AC1F30311515CC840064908602B
:1006C00006480068FFF7F8FE0020C4E7003C02403F
:1006D00008380240621900080C00002004000020C5
:1006E0000448054900680968044AC1F38221515C45
:1006F000C84070470C0000200838024072190008FA
:100700000448054900680968044AC1F34231515C54
:10071000C84070470C0000200838024072190008D9
:10072000154810B5006810F00C02144813D0144995
:10073000042A0FD0082A0ED10F4C241F22682368E8
:1007400002F03F025B0207D52068C0F38810A0FBCF
:10075000010106E0084610BD2168C1F38811A1FB24
:1007600000010023FFF72CFD2168C1F30141491C62
:100770004900B0FBF1F010BD083802400024F4003D
:1007800040787D012DE9F84F04006ED02078DFF825
:100790003C93C007A9F104054AD009F1040001689F
:1007A000C1F38101012908D00068C0F3810002284B
:1007B0000AD1D9F80000400206D52868800337D551
:1007C00060680028E1D033E06068B0F5803F10D069
:1007D000B0F5A02F286810D020F480302860286859
:1007E00020F4802028606068A8B1FFF73DFE06462F
:1007F0000DE0286840F48030F4E740F48020286061
:10080000F7E700BFFFF730FE801B642873D8286825
:100810008003F7D50CE0FFF727FE064605E000BF92
:10082000FFF722FE801B6428F0D828688003F7D4E5
:100830002078DFF89C8280074FF0000A3ED5A3485D
:10084000001D016811F00C0F08D00068C0F3810092
:1008500002280BD1D9F80000400207D4286880078D
:1008600016D5E068012800D112E02BE1E068B8B1AC
:100870000120C8F80000FFF7F7FD064605E000BFBD
:10088000FFF7F2FD801B0228C0D828688007F7D543
:100890002868216920F0F80040EAC10028600DE0D6
:1008A000C8F800A0FFF7E0FD064604E0FFF7DCFD16
:1008B000801B02281FD828688007F7D420780007FB
:1008C00022D5824E83486169703671B10121016081
:1008D000FFF7CAFD074604E0FFF7C6FDC01B02286C
:1008E00009D830688007F7D50EE0C0F800A0FFF700
:1008F000BBFD074605E082E0FFF7B6FDC01B0228FE
:100900007DD830688007F7D42078400768D5DFF8B5
:10091000BCB100270BF13C0BDBF80000C0000BD48E
:10092000DBF8001041F08051CBF80010DBF800003C
:10093000012700F080500090674E3068C00510D449
:10094000306840F480703060FFF78EFD009005E065
:10095000FFF78AFD0099401A022850D83068C00578
:10096000F6D55A4EA0686C3601280FD0052830689D
:1009700010D020F001003060306820F004003060BA
:10098000A068B8B1FFF770FD00900FE0306840F04C
:100990000100F4E740F004003060F7E7FFF764FD82
:1009A0000099411A41F28830814266D83068800748
:1009B000F4D50EE0FFF758FD009007E0FFF754FD77
:1009C0000099411A41F28830814256D83068800738
:1009D000F4D42FB1DBF8001021F08051CBF80010D7
:1009E000A069C8B33949091D0968C1F38101022909
:1009F0004AD00228504607D0C8F8600000E03CE02A
:100A0000FFF732FD04463BE04746C8F86000FFF7B9
:100A10002BFD064605E000BFFFF726FD801B0228E0
:100A20002BD828688001F7D4D4E907010843A16ACC
:100A30002A4A490802EB0141626A41EA82110843ED
:100A400094F82C1040EA0161C9F8001001203866C2
:100A5000FFF70AFD044606E036E000BFFFF704FD9D
:100A6000001B022809D828688001F7D52CE000BFB8
:100A7000FFF7FAFC001B022802D90320BDE8F88F1B
:100A800028688001F4D41FE00128F7D0D9F80000CD
:100A9000E26900F48001914214D1226A00F03F0122
:100AA00091420FD147F6C071626A0140914209D16B
:100AB000A26A00F44031914204D1E16A00F0706012
:100AC000884201D00120D9E70020D7E7043802404E
:100AD00000004742800E4742007000400000FFFFC8
:100AE00010B5401EB0F1807F01D3012010BD4FF042
:100AF000E02460610F21601700F003FF0020A06177
:100B000007202061002010BD7047704710B590F895
:100B10003C20012A22D0012280F83C20CA688C683F
:100B200022F4407222434C6822F4806222430C6813
:100B300022F4006222430C6922F4805222434C6961
:100B400022F400522243C969002322F480420A435E
:100B500001684A6480F83C30002010BD022010BDBE
:100B600070B590F83C20012A32D0012480F83C4036
:100B7000022280F83D2003685A689D6822F07006C2
:100B80000A6832435A60134B02689A4214D0B2F199
:100B9000804F11D0104B9A420ED0104B9A420BD07E
:100BA0000F4B9A4208D00F4B9A4205D00E4B9A42F7
:100BB00002D00E4B9A4204D1496825F080031943B4
:100BC000916080F83D40002180F83C10084670BDDF
:100BD000022070BD000001400004004000080040F9
:100BE000000C00400004014000400140001800409B
:100BF00010B5040003D094F83D0010B107E00120C7
:100C000010BD002084F83C00204600F00DF80220C2
:100C100084F83D00211D206800F082FC012084F84A
:100C20003D00002010BD000008B500681149884251
:100C300009D11148016841F001010160006800F02C
:100C40000100009008BD0D498842FBD10A48001FF1
:100C5000016841F0020101600068002200F002001A
:100C6000009011461D20FFF76FFCBDE808401D20D5
:100C7000FFF75CBC00000140443802400004004023
:100C800070B5044690F83C00012817D0012584F87F
:100C90003C50022084F83D002068826822F07702F0
:100CA00022F47F4282600868502830D00DDC202872
:100CB0004DD005DC98B310283BD148E0022070BD30
:100CC000302844D0402834D139E0602828D070281A
:100CD00006D0B0F5805F2CD0B0F5005F29D10AE0D6
:100CE000CB68D1E90121206800F07EFC2068816892
:100CF00041F0770109E0CB68D1E90121206800F0DB
:100D000073FC2068816841F48041816011E0CA6809
:100D10004968206800F03CFD5021206807E016E09B
:100D2000CA684968206800F044FD6021206800F02E
:100D300065FC84F83D50002084F83C0070BDCA6812
:100D40004968206800F024FD40212068EFE7226810
:100D500001461046EBE72DE9F0410D46040003D0B3
:100D600094F83D0018B108E00120BDE8F0810020B2
:100D700084F83C00204600F03BF8022084F83D0057
:100D80002068816844F2070291438160211D206838
:100D900000F0C6FB226890689169166A2B68AF69FB
:100DA000034340F20330814341EA0721A868EF6919
:100DB00008434FF6FC418843E96840EA07200143B5
:100DC00028692F6A000140EA0730084369686D69A5
:100DD00026F0AA0646EA0515294393602268906129
:100DE00020680162012084F83D000020BDE700007A
:100DF00010B586B0044614216846FFF719FA20683A
:100E0000B0F1804F1FD111480021026842F0010269
:100E10000260006800F0010005900C48103802687C
:100E200042F001020260006800F00100059003201A
:100E300000900220CDE901010120CDE903106946AF
:100E40000348FFF735FA06B010BD000040380240F5
:100E500000000240704770B50446006801694FF019
:100E60000005C943890715D4C168C943890711D44E
:100E7000E91E0161012020772068806980072046F3
:100E800002D0FFF7E7FF04E000F0C2F8204600F0D0
:100E900044F9257720680169C943490717D4C16817
:100EA000C943490713D46FF0040101610220207780
:100EB0002068806910F4407F204602D0FFF7CAFF07
:100EC00004E000F0A5F8204600F027F92577206817
:100ED0000169C943090716D4C168C943090712D477
:100EE0006FF008010161042020772068C069800745
:100EF000204602D0FFF7AEFF04E000F089F820465C
:100F000000F00BF9257720680169C943C90617D499
:100F1000C168C943C90613D46FF0100101610820EC
:100F200020772068C06910F4407F204602D0FFF788
:100F300091FF04E000F06CF8204600F0EEF8257711
:100F400020680169C943C90708D1C168C943C907F5
:100F500004D1891E0161204600F0E0F82068016993
:100F6000C943090609D4C168C943090605D46FF00D
:100F7000800101612046FFF7C7FD20680169C94370
:100F8000490609D4C168C943490605D46FF0400138
:100F90000161204600F0C3F820680169C943890651
:100FA0000BD4C168C943890607D46FF020010161E1
:100FB0002046BDE87040FFF7A8BD70BD10B586B0F3
:100FC000044614216846FFF733F90E492068884229
:100FD00016D10D480021026842F01002026000683C
:100FE00000F0100005904FF4007000900220CDE951
:100FF00001010120CDE9031069460448FFF758F9C3
:1010000006B010BD00000140303802400010024020
:10101000704770B5044690F83C000D4601280DD08D
:10102000012684F83C60022084F83D0042B1042A85
:1010300018D0082A2AD00C2A4DD139E0022070BDE0
:10104000206800F0E3FA2068816941F008018161BD
:101050002068816921F004018161206881692A6921
:10106000114311E0206800F001FB2068816941F420
:10107000006181612068816921F48061816120685B
:1010800081692A6941EA0221816124E0206800F037
:1010900023FB2068C16941F00801C1612068C16972
:1010A00021F00401C1612068C1692A69114311E07E
:1010B000206800F045FB2068C16941F40061C1610E
:1010C0002068C16921F48061C1612068C1692A6911
:1010D00041EA0221C16184F83D60002084F83C00AF
:1010E00070BD10B5040003D094F83D0010B107E0C6
:1010F000012010BD002084F83C00204600F00CF8D0
:10110000022084F83D00211D206800F009FA01202A
:1011100084F83D00002010BD70477047704770474D
:1011200070B5040004D094F83900002510B106E031
:10113000012070BD84F83850204600F023F82420A8
:1011400084F839002068C16821F40051C16020464C
:1011500000F042FB2068016921F4904101612068A0
:10116000416921F02A0141612068C16841F40051C0
:10117000C160E563202084F8390084F83A0000203B
:1011800070BD0000F0B587B0044614216846FFF733
:101190004FF81F4F236800221E490224032507260B
:1011A0001D48BB4213D11B4B14331F6847F0100777
:1011B0001F601B6803F0100305930B6843F00103E5
:1011C0000B60096801F001010591690215E0134FF8
:1011D000BB421AD10F4B10331F6847F400371F6012
:1011E0001B6803F4003305930B6843F001030B60A5
:1011F000096801F0010105910C21CDE9001402AB51
:10120000694683E86400FFF753F807B0F0BD0000BB
:10121000001001403038024000000240004400400D
:10122000FEE700000D4808B5016841F0800101604B
:10123000016801F080010091016841F00101016045
:10124000016801F001010091016841F010010160A5
:10125000006800F01000009008BD00003038024027
:1012600010B596B000240F94109411941294139416
:101270001C2108A81494FEF7DBFF20216846FEF726
:10128000D7FF294827490160A721C0E9011444F686
:101290001F61C0E903148021C0E90541FFF7A8FCE4
:1012A00008B1FFF703F84FF480500F900FA91E48C4
:1012B000FFF7E6FC08B1FEF7F9FF1B48FFF711FF47
:1012C00008B1FEF7F3FF139413A917481494FFF71E
:1012D00047FC08B1FEF7EAFF6020CDE908040A9454
:1012E0000B940C940D94002208A90F480E94FFF75C
:1012F00090FE08B1FEF7DAFF00944FF40050CDE9FC
:101300000440029401940394694607480794FFF748
:10131000FDFB08B1FEF7CAFF0348FFF74FFE16B00A
:1013200010BD0000000001401000002010B58CB07E
:1013300024216846FEF77CFF0024144809944FF0EE
:1013400080410A94C0E90014611EC0E902410461B1
:1013500084610120CDE90004CDE902040494CDE9C3
:1013600005400794694609480894FFF7F4FC08B162
:10137000FEF79CFF099409A904480A94FFF7F0FBC3
:10138000002801D0FEF792FF0CB010BD50000020E5
:1013900010B586B000241748009401940294039479
:1013A0000494134905940160A721C0E90114632145
:1013B000C0E9031480218161FFF71AFC08B1FEF730
:1013C00075FF4FF48050009069460A48FFF758FCBB
:1013D00008B1FEF76BFF049404A906480594FFF7D3
:1013E000BFFB002801D0FEF761FF06B010BD000072
:1013F00000040040900000200C4810B50A4901602C
:101400004FF4E1314160002181600C22C160C0E9EC
:1014100004128161C161FFF783FE002803D0BDE89B
:101420001040FEF743BF10BD00100140D000002067
:101430000C4810B50A4901604FF4E13141600021C8
:1014400081600C22C160C0E904128161C161FFF7B3
:1014500067FE002803D0BDE81040FEF727BF10BD8F
:101460000044004010010020FEE7704770477047BD
:10147000FFF700B830B593B030216846FEF7D8FECC
:1014800014210CA8FEF7D4FE19480025016841F08C
:1014900080510160006800F080501190154801688B
:1014A00041F4804101600068022400F48040119002
:1014B0000120039010200490009406940820CDE9A8
:1014C0000750A820CDE9090404200B906846FFF7D7
:1014D00059F90CA90F2081E831004FF4A0500F906A
:1014E000E002109005210CA8FFF760F813B030BDA2
:1014F00040380240007000400548016841F4700126
:10150000016003494FF000608039086070470000B7
:1015100088ED00E00148FFF79EBC0000900000202D
:10152000F0B50268254C264D264E274F274B4FF02D
:10153000804CA04209D0604507D0A84205D0B042F7
:1015400003D0B84201D0984204D122F0700E4A680C
:1015500042EA0E02A0421BD0604519D0A84217D023
:10156000B04215D0B84213D0984211D0184DA842BD
:101570000ED0184DA8420BD0174DA84208D0174DD9
:10158000A84205D0164DA84202D0164DA84203D15C
:1015900022F44075CA682A434D6922F080022A432A
:1015A00002608A68C2620A688262A04201D09842E0
:1015B00001D10969016301214161F0BD00000140D1
:1015C0000004004000080040000C004000040140FE
:1015D0000040014000440140004801400018004024
:1015E000001C00400020004010B5846842EA03223D
:1015F00024F47F440A432243826010BD826822F0B3
:1016000070020A4342F0070181607047F0B5026A38
:1016100022F001020262036A42688469124E24F0D9
:1016200073050C682C4323F002058B682B430D4D8A
:10163000A84201D0B04205D123F00807CB683B4354
:1016400023F00403A84201D0B04205D14D6922F431
:10165000407215438A692A43426084614968416344
:101660000362F0BD0000014000040140F0B5026AD1
:1016700022F010020262026A436884690D6824F451
:10168000E64444EA05248D6822F0200242EA05126D
:101690000F4D104EA84201D0B04206D1CF6822F0C3
:1016A000800242EA071222F04002A84201D0B04272
:1016B00007D14D6923F4406343EA85038D6943EA0A
:1016C000850343608461496881630262F0BD000064
:1016D0000000014000040140F0B5026A22F480726B
:1016E0000262026A4368C46922F4007224F073053E
:1016F0000C68124E2C438D6842EA05220E4DA8421A
:1017000001D0B04206D1CF6822F4006242EA07223B
:1017100022F48062A84201D0B04207D14D6923F47F
:10172000405343EA05138D6943EA05134360C461DE
:101730004968C1630262F0BD00000140000401403D
:1017400030B5026A22F480520262046A4268C369B8
:101750000D6823F4E64343EA05238D6824F400541E
:1017600044EA0534084DA84202D0084DA84204D1ED
:101770004D6922F4804242EA85124260C3614968A1
:101780000164046230BD000000000140000401401B
:1017900010B5036A046A24F001040462846924F029
:1017A000F00444EA021423F00A020A43846102624C
:1017B00010BD10B5036A23F0100303628369046A45
:1017C00023F4704343EA023224F0A00343EA0111F8
:1017D0008261016210BD00002DE9F04104460068FD
:1017E0000169E26821F44051114301612169A06857
:1017F000E26908436169114308432168CA6849F2F4
:101800000C639A430243CA6020684169A26921F4CB
:10181000407111434161E069192764253226B0F512
:10182000004F354A354920684FF0000806D08842FD
:1018300001D0904236D1FEF763FF35E0884201D0F7
:10184000904202D1FEF75CFF01E0FEF749FF6168BC
:101850004A18A0FB070148EB0803FEF7B1FC01465C
:10186000B0FBF5F00201B1FBF5F06FF0180358433F
:1018700001EB800006EBC000B0FBF5F000F0F800D3
:1018800002EB4002B1FBF5F0584301EB800006EBA0
:10189000C000B0FBF5F000F007002168104488603C
:1018A000BDE8F081FEF71CFF61688B0F8A00A0FB8A
:1018B0000701FEF785FC0146B0FBF5F06FF018025A
:1018C000504301EB800006EB0010B0FBF5F000F098
:1018D000F002B1FBF5F002EB0012B1FBF5F06FF096
:1018E0001803584301EB800006EB0010B0FBF5F045
:1018F00000F00F00D1E7000000140140001001408B
:10190000FEE70907090E002804DB00F1E02080F85B
:101910000014704700F00F0000F1E02080F8141D63
:10192000704702E008C8121F08C1002AFAD17047A8
:101930007047002001E001C1121F002AFBD170474F
:10194000FEF7A0FDFFF796FDFFF76CFCFFF788FCA4
:10195000FFF7ECFCFFF750FDFFF76AFDFFF718FDFE
:10196000FEE700000000000000000102030406077B
:101970000809000000000102030400009C1900088F
:10198000000000201000000022190008AC19000817
:10199000100000204005000032190008010000007E
:0C19A00010000000000000000024F40013
:040000050800018965
:00000001FF
