:020000040800F2
:10000000580700209D010008AF14000831130008B4
:10001000AD14000811060008751800080000000063
:1000200000000000000000000000000005160008AD
:100030001306000800000000B1140008451600086F
:10004000B7010008B7010008B7010008B7010008B0
:10005000B7010008B7010008B7010008B7010008A0
:10006000B7010008B7010008B7010008B701000890
:10007000B7010008B7010008B7010008B701000880
:10008000B7010008B7010008B7010008B701000870
:10009000B7010008B7010008B7010008B701000860
:1000A000B7010008B7010008B7010008B701000850
:1000B000B7010008B7010008B7010008B701000840
:1000C000B7010008B7010008B7010008B701000830
:1000D000B7010008B7010008B7010008B701000820
:1000E000B7010008B7010008B7010008B701000810
:1000F000B7010008B7010008B7010008B701000800
:10010000B7010008B7010008B7010008B7010008EF
:10011000B7010008B7010008B7010008B7010008DF
:10012000B7010008B7010008B7010008B7010008CF
:10013000B7010008B7010008B7010008B7010008BF
:10014000B7010008B7010008B7010008B7010008AF
:10015000B7010008B7010008B7010008B70100089F
:10016000B7010008B7010008B7010008B70100088F
:10017000B7010008B7010008B7010008000000003F
:10018000B7010008B7010008DFF80CD000F02EFA24
:1001900000480047911C0008580700200648804787
:1001A00006480047FEE7FEE7FEE7FEE7FEE7FEE75C
:1001B000FEE7FEE7FEE7FEE7CD160008890100082E
:1001C0002DE9F05F0546002092469B46884606468C
:1001D000814640241BE0284641464746224600F01F
:1001E00061F953465A46C01A914110D31146184638
:1001F000224600F048F92D1A67EB01084F462246C7
:100200000120002100F03FF917EB00094E41201EAC
:10021000A4F10104DFDC484631462A464346BDE8E6
:10022000F09FD2B201E000F8012B491EFBD27047CB
:100230000022F6E710B513460A4604461946FFF7B2
:10024000F0FF204610BD2DE9FE4F81EA030404F0C3
:10025000004421F0004100944FF0000B23F00043D4
:1002600050EA01045ED052EA03045BD0C3F30A549F
:10027000C1F30A552C44A4F2F3340194A0FB0254B8
:10028000C1F3130141F48011C3F3130343F480134A
:1002900001FB024400FB034E840A970A44EA81549E
:1002A00047EA8357A4FB076802958D0A05FB07857B
:1002B0004FEA932C04FB0C542705029D4FEA065885
:1002C00047EA1637B5EB08056EEB070C870E920E62
:1002D00047EA811742EA8312A7FB0201B6EB0B0142
:1002E00064EB00042B0D43EA0C335E1844EB1C5006
:1002F000DA465146E7FB0201C5F313044FEA0B331C
:1003000043EA14534FEA0432019C43EA0603A4F182
:100310000C040294009CCDE900B400F019F903B07C
:10032000BDE8F08F00200146F9E72DE9F04D81EAA4
:10033000030404F0004B21F0004514464FF0000A7E
:1003400023F0004150EA050220D054EA01021DD0FA
:10035000C5F30A570246C5F31303C1F31300C1F3F3
:100360000A5640F4801543F48013A7EB0608101BCF
:10037000D64608F2FD3873EB050002D308F10108F8
:1003800001E092185B41B8F1000F03DA002001464A
:10039000BDE8F08D00204FF48011064684460EE043
:1003A000171B73EB050705D3121B63EB050306430D
:1003B0004CEA010C49084FEA300092185B4150EAC0
:1003C0000107EDD152EA030012D082EA040083EA69
:1003D0000501084305D0101BAB4106D201220023C2
:1003E00006E000224FF0004302E06FF001025310DC
:1003F0001AEB06004CEB085110EB0A0041EB0B0125
:10040000BDE8F04D00F095B80EB540F233410291D1
:100410000021CDE900110A460B4600F099F803B01F
:1004200000BD01F0004330B421F0004150EA010268
:1004300006D00A0DA2F56072C1F31301002A02DC96
:1004400030BC00207047440F44EAC104C100E018EA
:1004500030BC00EBC25000F035B830B50B46014659
:1004600000202022012409E021FA02F59D4205D353
:1004700003FA02F5491B04FA02F52844151EA2F1FD
:100480000102F1DC30BD202A04DB203A00FA02F13F
:10049000002070479140C2F1200320FA03F3194372
:1004A00090407047202A04DB203A21FA02F0002114
:1004B000704721FA02F3D040C2F120029140084374
:1004C000194670470029A8BF7047401C490008BF63
:1004D00020F00100704710B4B0FA80FC00FA0CF074
:1004E00050EA010404BF10BC704749B1CCF12004AC
:1004F00021FA04F411FA0CF118BF01212143084339
:10050000A3EB0C01CB1D4FEA00614FEA102042BF64
:10051000002010BC704700EBC35010440029A4BF5A
:1005200010BC7047401C490008BF20F0010010BCFF
:10053000704710B5141E73F1000408DA401C41F135
:10054000000192185B411A4301D120F0010010BD57
:100550002DE9F04D92469B4611B1B1FA81F202E0CD
:10056000B0FA80F220329046FFF78DFF04460F4626
:1005700040EA0A0041EA0B0153465A46084313D0A9
:10058000114653EA010019D0C8F140025046FFF766
:1005900089FF05460E46504659464246FFF773FF0F
:1005A000084305D0012004E020463946BDE8F08D1F
:1005B0000020054346EAE0762C4337430A9863055A
:1005C000E40AA0EB08000022FD0A44EA47540A307E
:1005D00002D500200146E9E7010510196941DDE96E
:1005E000084500196941BDE8F04DA2E7064C074DEA
:1005F00006E0E06840F0010394E8070098471034F3
:10060000AC42F6D3FFF7C4FDB01E0008D01E0008B0
:10061000FEE770477047000070B5044600F0F0F840
:100620000546601C02D004480078044400F0E8F855
:10063000401BA042FAD370BD140000202DE9F84FF2
:1006400000224FF0010803254FF00F0E0B6808FA47
:1006500002F42340A3426ED14E68012E05D0022E33
:1006600003D0112E01D0122E12D186684FEA420C0F
:1006700005FA0CF7BE43CF6807FA0CF737438760DB
:100680004668A6430C79C4F3001494403443446094
:10069000C668570005FA07FC8C6826EA0C06BC40C1
:1006A0003443C4604C68022C01D0122C13D1D408FE
:1006B00000EB8404A346D4F8209054074FEAD46A90
:1006C0000EFA0AF629EA06090E6906FA0AF646EA59
:1006D0000906CBF8206006680C7926EA0C0604F0BF
:1006E0000304BC40344304604C68E40065D5364CD8
:1006F000266846F480462660246822F0030604F447
:1007000080440094314C3444A446D4F808489607F9
:10071000370F0EFA07F6B4432D4EB04201D1002632
:1007200024E02C4EB04201D101261FE02A4EB042F7
:1007300002D102261AE040E0284EB04201D1032641
:1007400014E0274EB04201D104260FE0254EB042FE
:1007500001D105260AE0244EB04201D1062605E06B
:10076000224EB04201D1072600E00826BE402643B3
:10077000CCF808681E4E34684F689C43FF0300D5D0
:100780001C4334601A4C241D26684F689E43BF03E7
:1007900000D51E432660164E083634684F689C43C9
:1007A000FF0200D51C433460114E0C3634684F688C
:1007B0009C43BF0200D51C433460521C102AFFF436
:1007C00045AFBDE8F88F00004438024000300140DA
:1007D000000002400004024000080240000C0240F9
:1007E000001002400014024000180240001C0240A9
:1007F000003C01400AB1816170470904FBE7000039
:100800000148806870470000140000200248816899
:100810000278114481607047140000200B4810B525
:10082000016841F400710160016841F48061016078
:10083000016841F480710160032000F061F800203C
:1008400000F006F800F024F8002010BD003C024043
:1008500070B50D4D04464FF47A712878B1FBF0F075
:100860000A490968B1FBF0F000F05BFC48B9102CB4
:1008700007D200222146501E00F022F800206C60B2
:1008800070BD012070BD0000140000202000002079
:100890000A4808B5016841F480410160006800F42D
:1008A000804000900548001F016841F080510160C0
:1008B000006800F08050009008BD000044380240FD
:1008C000F0B40E4B1B680C46C3F30223C3F10705BB
:1008D000042D00D90425191D072901D2002300E0A9
:1008E000DB1E012606FA05F1491E214099409E4073
:1008F000761E16403143F0BC00F0FABF0CED00E06C
:10090000064900F0070208684FF6FF03184040EA66
:100910000220034A10430860704700000CED00E01D
:100920000000FA052DE9F0470E46050065D0DFF816
:100930001481D8F80000F7B200F00F00B04207D2DF
:1009400088F80070D8F8000000F00F00B04254D1D1
:1009500028683D4C810712D5400703D5206840F434
:10096000E05020602878000703D5206840F46040FC
:1009700020602068A96820F0F000084320602878F3
:10098000C0072DD0304968680839012812D00228E4
:1009900013D0032811D00968890700292DDA2168AE
:1009A00021F0030101432160FFF72AFF814641F254
:1009B000883A0EE009688903EFE709688901ECE7E6
:1009C000FFF71EFFA0EB0901514502D90320BDE846
:1009D000F0872068696800F00C00B0EB810FEFD160
:1009E000D8F80010404601F00F01B14207D9077056
:1009F000006800F00F00B04201D00120E7E728783E
:100A0000400705D52068E96820F4E05008432060DD
:100A10002878000706D52068296920F4604040EA5C
:100A2000C100206000F038F82168084AC1F30311C2
:100A3000515CC8400649086006480068FFF708FF97
:100A40000020C4E7003C024008380240981E00081D
:100A500020000020180000200448054900680968AB
:100A6000044AC1F38221515CC84070472000002035
:100A700008380240A81E00080448054900680968B3
:100A8000044AC1F34231515CC84070472000002045
:100A900008380240A81E0008154810B5006810F07C
:100AA0000C02144813D01449042A0FD0082A0ED17E
:100AB0000F4C241F2268236802F03F025B0207D517
:100AC0002068C0F38810A0FB010106E0084610BDB5
:100AD0002168C1F38811A1FB00010023FFF770FB1F
:100AE0002168C1F30141491C4900B0FBF1F010BD80
:100AF000083802400024F40040787D012DE9F84FC9
:100B000004006ED02078DFF83C93C007A9F10405FB
:100B10004AD009F104000168C1F38101012908D01C
:100B20000068C0F3810002280AD1D9F80000400211
:100B300006D52868800337D560680028E1D033E007
:100B40006068B0F5803F10D0B0F5A02F286810D0B5
:100B500020F480302860286820F4802028606068B5
:100B6000A8B1FFF74DFE06460DE0286840F480303E
:100B7000F4E740F480202860F7E700BFFFF740FE6D
:100B8000801B642873D828688003F7D50CE0FFF732
:100B900037FE064605E000BFFFF732FE801B6428E3
:100BA000F0D828688003F7D42078DFF89C8280078B
:100BB0004FF0000A3ED5A348001D016811F00C0F4C
:100BC00008D00068C0F3810002280BD1D9F80000DA
:100BD000400207D42868800716D5E068012800D1B4
:100BE00012E02BE1E068B8B10120C8F80000FFF77F
:100BF00007FE064605E000BFFFF702FE801B022845
:100C0000C0D828688007F7D52868216920F0F80047
:100C100040EAC10028600DE0C8F800A0FFF7F0FD31
:100C2000064604E0FFF7ECFD801B02281FD8286869
:100C30008007F7D42078000722D5824E8348616967
:100C4000703671B101210160FFF7DAFD074604E05B
:100C5000FFF7D6FDC01B022809D830688007F7D5FA
:100C60000EE0C0F800A0FFF7CBFD074605E082E0EC
:100C7000FFF7C6FDC01B02287DD830688007F7D477
:100C80002078400768D5DFF8BCB100270BF13C0B9A
:100C9000DBF80000C0000BD4DBF8001041F08051FD
:100CA000CBF80010DBF80000012700F08050009026
:100CB000674E3068C00510D4306840F480703060F2
:100CC000FFF79EFD009005E0FFF79AFD0099401A9E
:100CD000022850D83068C005F6D55A4EA0686C3648
:100CE00001280FD00528306810D020F001003060B6
:100CF000306820F004003060A068B8B1FFF780FDD4
:100D000000900FE0306840F00100F4E740F004008C
:100D10003060F7E7FFF774FD0099411A41F288301F
:100D2000814266D830688007F4D50EE0FFF768FD91
:100D3000009007E0FFF764FD0099411A41F2883006
:100D4000814256D830688007F4D42FB1DBF8001008
:100D500021F08051CBF80010A069C8B33949091DB2
:100D60000968C1F3810102294AD00228504607D000
:100D7000C8F8600000E03CE0FFF742FD04463BE0BD
:100D80004746C8F86000FFF73BFD064605E000BF98
:100D9000FFF736FD801B02282BD828688001F7D486
:100DA000D4E907010843A16A2A4A490802EB014134
:100DB000626A41EA8211084394F82C1040EA01610A
:100DC000C9F8001001203866FFF71AFD044606E056
:100DD00036E000BFFFF714FD001B022809D8286881
:100DE0008001F7D52CE000BFFFF70AFD001B0228A9
:100DF00002D90320BDE8F88F28688001F4D41FE0F1
:100E00000128F7D0D9F80000E26900F4800191428E
:100E100014D1226A00F03F0191420FD147F6C07110
:100E2000626A0140914209D1A26A00F440319142C4
:100E300004D1E16A00F07060884201D00120D9E756
:100E40000020D7E70438024000004742800E4742A6
:100E5000007000400000FFFF70B5040005D00025C1
:100E6000A56294F8510010B106E0012070BD84F82D
:100E70005050204600F030F8022084F851002068DD
:100E8000016821F040010160D4E901010843D4E97F
:100E900003121143084361690843218B01F4007177
:100EA0000843E1690843216A0843A16A08432168AD
:100EB0000860A069042101EA1040616A08432168C2
:100EC00048602068C16921F40061C1616565012045
:100ED00084F85100002070BD10B586B0044614217E
:100EE0006846FFF7A5F913492068884220D11248C7
:100EF0000021026842F480520260006800F48050D1
:100F000005900D481438026842F002020260006841
:100F100000F002000590382000900220CDE9010188
:100F2000032003900520049069460448FFF786FBE0
:100F300006B010BD003001404438024000040240B9
:100F40002DE9F84F044690F8500000270A9E1D46F0
:100F500092468B464FF0010901280ED0012084F8FB
:100F60005000FFF74DFC804694F85100616801285D
:100F70000CD0B1F5827F07D102E00220BDE8F88FE6
:100F8000A16809B9042801D00227C2E0BBF1000F13
:100F900027D0BAF1000F24D01DB394F851000428D3
:100FA00002D0052084F8510000206065C4F838A004
:100FB000E587A587C4F830B0E586A586206460641F
:100FC00020680168490603D4016841F040010160CE
:100FD000E068B0F5006F606805D0E8B3012D46D039
:100FE0007FE0012795E008B1012D39D1206B216800
:100FF0000088C860206B801C2063E08E401EE08665
:101000002EE02068816889070FD5E18E69B1B9F1BA
:10101000010F0AD1216B0988C160206B801C2063FD
:10102000E08E401EE0864FF0000920688168C90705
:101030000CD0E18F51B1C068A16B0880A06B801CFF
:10104000A063E08F401EE0874FF00109FFF7D8FB57
:10105000A0EB0800B04200E009E001D3701C50D1C1
:10106000E08E0028CDD1E08F0028CAD13FE0206B70
:10107000216800780873206B401C2063E08E401EBE
:10108000E0862EE02068816889070FD5E18E69B17E
:10109000B9F1010F0AD1216B09780173206B401C53
:1010A0002063E08E401EE0864FF0000920688168D2
:1010B000C9070CD0E18F51B1C068A16B0870A06B5B
:1010C000401CA063E08F401EE0874FF00109FFF74E
:1010D00097FBA0EB0800B04202D3701C01D010E0D7
:1010E0007EB1E08E0028CDD1E08F0028CAD14246E3
:1010F0003146204600F010FA28B101272020606513
:1011000007E0032705E0A06818B92068C168806877
:101110000090012084F85100002084F850003846E7
:101120002CE710B5401EB0F1807F01D3012010BD27
:101130004FF0E02460610F21601700F0D9FB002020
:10114000A06107202061002010BD70B5040004D00C
:1011500094F83900002510B106E0012070BD84F834
:101160003850204600F022F8242084F83900206806
:10117000C16821F40051C160204600F0B5FA206832
:10118000016921F4904101612068416921F02A013F
:1011900041612068C16841F40051C160E5632020CD
:1011A00084F8390084F83A00002070BDF0B587B0AB
:1011B000044614216846FFF73BF81F4F23680022BE
:1011C0001E490224032507261D48BB4213D11B4B91
:1011D00014331F6847F010071F601B6803F01003EB
:1011E00005930B6843F001030B60096801F00101EE
:1011F0000591690215E0134FBB421AD10F4B103312
:101200001F6847F400371F601B6803F40033059321
:101210000B6843F001030B60096801F001010591BF
:101220000C21CDE9001402AB694683E86400FFF7A6
:1012300005FA07B0F0BD0000001001403038024050
:1012400000000240004400402DE9F843044690F8B5
:1012500039001F4616460D46202850D1B5B1AEB113
:1012600094F8380001284AD0012084F838004FF063
:101270000008C4F83C80212084F83900FFF7C0FA48
:10128000A6848146E68484F8388026E00120BDE803
:10129000F883E08C401EE084A0684B46B0F5805F88
:1012A0004FF000024FF080012046009703D000F07D
:1012B000AFFAE8B90DE000F0ABFAC8B928882168A8
:1012C000C0F308004860206908B16D1C05E0AD1C42
:1012D00003E0216815F8010B4860E08C0028D8D1A4
:1012E0004B46002240212046009700F091FA08B1B9
:1012F0000320CCE7202084F839000020C7E7022033
:10130000C5E7000010B5094C002210212046FFF768
:1013100071FA0220FFF780F9012210212046FFF721
:1013200069FABDE810400220FFF776B900000240DC
:10133000FEE70000F0B587B014216846FEF778FF9D
:1013400029480025016841F080010160016801F031
:1013500080010591016841F001010160016801F01F
:1013600001010591016841F004010160016801F08B
:1013700004010591016841F00201016000681B4E03
:1013800000F0020005900022B0213046FFF732FA4B
:10139000174F002210213846FFF72CFA0124902025
:1013A000CDE900040294694630460394FFF746F9FC
:1013B00020208DE83100694630460394FFF73EF95E
:1013C0004020CDE90005694630460295FFF736F921
:1013D0001020CDE900040294694638460394FFF7D3
:1013E0002DF907B0F0BD0000303802400000024087
:1013F00000080240104810B50E4901604FF4827198
:10140000416000218160C1604FF400720161C0E958
:1014100005122022C0E90721416281620A21C162CE
:10142000FFF71AFD002803D0BDE81040FFF7F2B81F
:1014300010BD000000300140800200200C4810B5B3
:101440000A4901604FF4E1314160002181600C22C2
:10145000C160C0E904128161C161FFF776FE002816
:1014600003D0BDE81040FFF7D5B810BD0010014013
:10147000D80200200C4810B50A4901604FF4E13150
:101480004160002181600C22C160C0E904128161C9
:10149000C161FFF75AFE002803D0BDE81040FFF7F6
:1014A000B9B810BD0044004018030020FEE77047A3
:1014B00070470000F3B5164F0E4681B00022102190
:1014C0003846FFF797F94FF6FF750123224601A929
:1014D00010480095FFF734FD0028F6D100BF00BF8B
:1014E00000BF00BF00208DF804000446321901231C
:1014F00001A908480095FFF723FD0028F6D1641CD8
:10150000032CF3DB012210213846FFF773F9FEBDEF
:10151000000002408002002038B504461248134BF8
:101520000068B0FBF3F04FF47A73584300906068A2
:10153000B0F5827F0DD10B4600920022802120461B
:1015400000F016F870B1606D40F020006065032077
:1015500038BD009830B1401E009020688068C043BC
:101560000006F6D5002038BD2000002000366E01B0
:101570002DE9F0411D4617460E460446DDF8188059
:1015800008E0681C06D0FFF73BF9A0EB0800A84272
:101590000BD255B12068806836EA000030D00020B8
:1015A000B842EED10020BDE8F0812068416821F00A
:1015B000E00141606068B0F5827F0BD1A068B0F5B2
:1015C000004F02D0B0F5806F04D12068016821F08F
:1015D00040010160A06AB0F5005F09D12068016890
:1015E00021F4005101602068016841F4005101605C
:1015F000012084F85100002084F850000320D2E735
:101600000120CDE77047000010B50D49C92000F05A
:1016100033F90B498120C91C00F02EF90849B1208B
:10162000891D00F029F90649C920093100F024F983
:101630000349BDE810400931C62000F01DB9000083
:1016400008000020FFF7E2B830B593B030216846BB
:10165000FEF7EEFD14210CA8FEF7EAFD194800255F
:10166000016841F080510160006800F080501190E5
:101670001548016841F4804101600068022400F4CB
:101680008040119001200390102004900094069453
:101690000820CDE90750A820CDE9090404200B90CB
:1016A0006846FFF72BFA0CA90F2081E831004FF4B0
:1016B000A0500F90E002109005210CA8FFF732F91E
:1016C00013B030BD4038024000700040054801684A
:1016D00041F47001016003494FF0006080390860F7
:1016E0007047000088ED00E02DE9F04104460068F5
:1016F0000169E26821F44051114301612169A06848
:10170000E26908436169114308432168CA6849F2E4
:101710000C639A430243CA6020684169A26921F4BC
:10172000407111434161E069192764253226B0F503
:10173000004F354A354920684FF0000806D08842EE
:1017400001D0904236D1FFF797F935E0884201D0B9
:10175000904202D1FFF790F901E0FFF77DF961684F
:101760004A18A0FB070148EB0803FEF729FD0146D4
:10177000B0FBF5F00201B1FBF5F06FF01803584330
:1017800001EB800006EBC000B0FBF5F000F0F800C4
:1017900002EB4002B1FBF5F0584301EB800006EB91
:1017A000C000B0FBF5F000F007002168104488602D
:1017B000BDE8F081FFF750F961688B0F8A00A0FB4C
:1017C0000701FEF7FDFC0146B0FBF5F06FF01802D3
:1017D000504301EB800006EB0010B0FBF5F000F089
:1017E000F002B1FBF5F002EB0012B1FBF5F06FF087
:1017F0001803584301EB800006EB0010B0FBF5F036
:1018000000F00F00D1E7000000140140001001407B
:101810002DE9F041984617460E460446069D1DE008
:10182000681C1BD02DB1FEF7EBFFA0EB0800A8420F
:1018300014D92068C16821F4D071C1602068416961
:1018400021F001014161202084F8390084F83A0038
:10185000002084F838000320BDE8F081206800688B
:1018600036EA000004D00020B842D9D00020F3E7C7
:101870000120F9E7FEE70000F3B5134E0F4681B0F3
:10188000002210213046FEF7B5FF4FF6FF75012309
:101890003A4601A90D480095FFF752FB0028F6D102
:1018A00000243A460323114608480095FFF748FBF9
:1018B0000028F6D1641C032CF3DB012210213046F2
:1018C000FEF798FFFEBD00000000024080020020ED
:1018D0000FB4054B10B503A9044A029800F028F88C
:1018E00010BC5DF814FB0000751C000824000020EB
:1018F0000907090E002804DB00F1E02080F800143D
:10190000704700F00F0000F1E02080F8141D7047D0
:1019100002E008C8121F08C1002AFAD170477047B8
:10192000002001E001C1121F002AFBD17047000016
:101930002DE9FF4F8BB088460546002606E0252896
:101940000BD0DDE90D1290476D1C761C287800281D
:10195000F5D10FB03046BDE8F08F0024A146A24675
:101960000122AE4900E0044315F8013F203B02FA92
:1019700003F00842F7D128782A2810D06FF02F0200
:101980002878A0F13001092915D809EB890102EB6B
:10199000410144F0020400EB01096D1CF0E758F826
:1019A000041B5FEA010903D544F40054C9F100099E
:1019B00044F002046D1C28782E2817D115F8010F69
:1019C00044F004042A280ED06FF02F022878A0F1EA
:1019D000300109290AD80AEB8A0102EB410100EB28
:1019E000010A6D1CF2E758F804AB6D1C28786C28CE
:1019F0000FD006DC4C2817D068280DD06A2814D1E7
:101A000004E0742810D07A280FD10DE044F40014BB
:101A10000AE044F4801401E044F4401469788142FF
:101A200002D104F580146D1C6D1C2878692865D0DE
:101A300006DC00288DD0632827D0642806D15DE01D
:101A40006E2808D073282AD0752877D0DDE90D12CA
:101A50009047761CE0E0C4F30250022809D0032826
:101A60000DD0D8F8001004280DD00E6008F104083D
:101A7000D2E0D8F80010F217C1E90062F6E7D8F812
:101A800000100E80F2E70E70F0E718F8041B8DF8D6
:101A9000001000208DF80100EB46012003E058F80B
:101AA00004BB4FF0FF3061074FF0000701D40AE09C
:101AB0007F1C57450DDA8742FADB1BF80710002917
:101AC000F6D106E07F1C8742FCDB1BF807100029DB
:101AD000F8D1DDE90D23A9EB07008146214600F08E
:101AE000B1F83044C61904E0DDE90D121BF8010B12
:101AF00090477F1EF8D22146484688E058F8040BEC
:101B0000C4F302514FF00A0B032900D100B204299B
:101B100000D140B2002802DA40422D2102E0210526
:101B200005D52B218DF82410012104E006E0E10702
:101B300010D02021F6E708AF089113E058F8040B05
:101B4000C4F302514FF00A0B032900D180B20429DB
:101B500000D1C0B20021EEE75946FEF77EFC3031DD
:101B600007F8011D0028F7D1ADEB070000F1200BAD
:101B7000600702D524F4803401E04FF0010ADA4511
:101B800002DDAAEB0B0000E00020824600EB0B0117
:101B900008980144A9EB01000A90E00306D4DDE9AE
:101BA0000D2321460A9800F04DF806444FF0000935
:101BB00008E009A911F80900DDE90D12904709F1C3
:101BC0000109761C08998945F3DBE0030CD5DDE9B2
:101BD0000D2321460A9800F035F8064404E0DDE9BB
:101BE0000D1230209047761CBAF10001AAF1010ACB
:101BF000F5DC05E0DDE90D1217F8010B9047761CC6
:101C0000BBF10001ABF1010BF4DC0A982146DDE9E0
:101C10000D2300F005F806446D1C97E60928010025
:101C20002DE9F041044600251E461746880404D4D9
:101C300005E039462020B0476D1C641EF9D52846C2
:101C4000BDE8F0812DE9F041044600251E4690468E
:101C5000C80301D5302700E02027880404D505E01B
:101C600041463846B0476D1C641EF9D52846BDE88C
:101C7000F081000038B504468DF8000002230122EF
:101C800069460248FFF7E0FA204638BDD802002036
:101C90002DED048BFEF7C2FDFFF7D6FCFFF74AFBE4
:101CA000FFF7CCFBFFF7E6FBFFF7A4FBFFF72AFBF0
:101CB000FFF7AAFC47A0FFF70BFE4E4E4E4C06F571
:101CC000C8772088142854D24B491020891CFFF76C
:101CD000F1FB49490D20491DFFF7ECFB46492588DA
:101CE000891C08784A780004897840EA0220084371
:101CF00046F82500400BFEF787FB9FED408B53EC29
:101D0000182BFEF712FB9FED3F9B53EC192BFEF7B0
:101D10009AFAFEF786FB00EE100A3749BCEEC00ABD
:101D2000491D10EE100A27F8150008784A780004BB
:101D3000897840EA022008432E49C83141F825003D
:101D4000400BFEF761FB53EC182BFEF7EEFA53EC59
:101D5000192BFEF778FAFEF764FB00EE100A2B4908
:101D6000BCEEC00A10EE100A21F815006D1C25808B
:101D70002BE027A0FFF7ACFD002506E056F8251064
:101D80002AA0FFF7A5FD6D1CADB220888542F5D3D2
:101D900028A0FFF79DFD28A0FFF79AFD002506E08B
:101DA00037F815102BA0FFF793FD6D1CADB22088FE
:101DB0008542F5D31FA0FFF78BFD0020208027A0D0
:101DC000FFF786FD1BA0FFF783FD1420FEF724FC20
:101DD00077E700000D0A0D0A687437303338C4A362
:101DE000BFE9BFAACABCB2E2CAD4A3A10D0A0D0AB8
:101DF00000000000280000200000002066666666E3
:101E00006666144000000000000024401C02002010
:101E100041CFE0D4ADCABCB5C4B5E7C1F7D3D0D08B
:101E2000A7D6B5CEAAA3BA0D0A00000020253264B9
:101E3000202000000D0A000041CFE0D7AABBBBBAAA
:101E4000F3B5C4B5E7C1F7D3D0D0A7D6B5CEAAA312
:101E5000BA0D0A0020256420200000000D0A2A2A5D
:101E60002A2A2A2A2A2A2A2A2A2A2A2A2A2A2A2AD2
:101E70002A2A2A2A2A2A2A2A2A2A2A2A2A2A2A2AC2
:101E80002A2A2A2A2A2A2A2A2A2A2A2A2A2A2A2AB2
:101E90002A2A2A2A0D0A0000000000000000000083
:101EA0000102030406070809000000000102030400
:101EB000D01E0008000000202800000010190008B3
:101EC000F81E000828000020300700002019000834
:101ED000000000000000000000005A0089FE0035EC
:101EE0002100005B01000000100000000000000065
:081EF0000024F40000000000D2
:040000050800018965
:00000001FF
