:020000040800F2
:100000000050002079420008AD3F0008AF3F0008D3
:10001000B13F0008B33F0008B53F000800000000F2
:10002000000000000000000000000000B73F0008D2
:10003000B93F000800000000BB3F0008BD3F0008BA
:10004000C1420008C1420008C1420008C142000884
:10005000C1420008C1420008C1420008C142000874
:10006000C1420008C1420008C1420008C142000864
:10007000C1420008C1420008C1420008C142000854
:10008000C1420008C1420008C1420008C142000844
:10009000C1420008C1420008C1420008C142000834
:1000A000C1420008C13F0008C1420008C142000827
:1000B000C1420008C1420008C1420008C142000814
:1000C000C1420008C1420008C1420008C142000804
:1000D000C1420008C1420008C1420008C1420008F4
:1000E000C1420008C1420008C142000800000000EF
:1000F0000000000000000000000000000000000000
:0C01000000000000000000005FF808F1A3
:1001100010B5054C237833B9044B13B10448AFF341
:1001200000800123237010BDF409002000000000AE
:100130004CC3000808B5034B1BB103490348AFF398
:10014000008008BD00000000F80900204CC3000832
:10015000034613F8012B002AFBD1181A0138704707
:1001600081F0004102E000BF83F0004330B54FEA68
:1001700041044FEA430594EA050F08BF90EA020FD5
:100180001FBF54EA000C55EA020C7FEA645C7FEA68
:10019000655C00F0E2804FEA5454D4EB5555B8BF8B
:1001A0006D420CDD2C4480EA020281EA030382EAFC
:1001B000000083EA010180EA020281EA0303362D8E
:1001C00088BF30BD11F0004F4FEA01314FF4801C61
:1001D0004CEA113102D0404261EB410113F0004F73
:1001E0004FEA03334CEA133302D0524263EB43032A
:1001F00094EA050F00F0A780A4F10104D5F1200EC8
:100200000DDB02FA0EFC22FA05F2801841F1000122
:1002100003FA0EF2801843FA05F359410EE0A5F1F6
:1002200020050EF1200E012A03FA0EFC28BF4CF027
:10023000020C43FA05F3C01851EBE37101F00045DD
:1002400007D54FF0000EDCF1000C7EEB00006EEBEA
:100250000101B1F5801F1BD3B1F5001F0CD3490874
:100260005FEA30004FEA3C0C04F101044FEA4452CB
:1002700012F5800F80F09A80BCF1004F08BF5FEA52
:10028000500C50F1000041EB045141EA050130BD32
:100290005FEA4C0C404141EB010111F4801FA4F1D5
:1002A0000104E9D191F0000F04BF01460020B1FA2A
:1002B00081F308BF2033A3F10B03B3F120020CDA62
:1002C0000C3208DD02F1140CC2F10C0201FA0CF040
:1002D00021FA02F10CE002F11402D8BFC2F1200CA5
:1002E00001FA02F120FA0CFCDCBF41EA0C0190405B
:1002F000E41AA2BF01EB0451294330BD6FEA0404A4
:100300001F3C1CDA0C340EDC04F11404C4F120028E
:1003100020FA04F001FA02F340EA030021FA04F3A0
:1003200045EA030130BDC4F10C04C4F1200220FAF7
:1003300002F001FA04F340EA0300294630BD21FA35
:1003400004F0294630BD94F0000F83F4801306BFFB
:1003500081F480110134013D4EE77FEA645C18BFEF
:100360007FEA655C29D094EA050F08BF90EA020F86
:1003700005D054EA000C04BF1946104630BD91EA7E
:10038000030F1EBF0021002030BD5FEA545C05D181
:100390004000494128BF41F0004130BD14F58004C0
:1003A0003CBF01F5801130BD01F0004545F0FE4134
:1003B00041F470014FF0000030BD7FEA645C1ABF69
:1003C000194610467FEA655C1CBF0B46024650EAA0
:1003D000013406BF52EA033591EA030F41F40021CC
:1003E00030BD00BF90F0000F04BF0021704730B552
:1003F0004FF4806404F132044FF000054FF0000127
:1004000050E700BF90F0000F04BF0021704730B5E7
:100410004FF4806404F1320410F0004548BF4042BC
:100420004FF000013EE700BF42004FEAE2014FEA11
:1004300031014FEA02701FBF12F07F4393F07F4FEC
:1004400081F06051704732F07F4208BF704793F0EF
:100450007F4F04BF41F40021704730B54FF4607402
:1004600001F0004521F000411CE700BF50EA010205
:1004700008BF704730B54FF000050AE050EA0102AE
:1004800008BF704730B511F0004502D5404261EB1E
:1004900041014FF4806404F132045FEA915C3FF45F
:1004A000D8AE4FF003025FEADC0C18BF03325FEAFC
:1004B000DC0C18BF033202EBDC02C2F1200300FAAD
:1004C00003FC20FA02F001FA03FE40EA0E0021FAD2
:1004D00002F11444BDE600BF70B54FF0FF0C4CF4C0
:1004E000E06C1CEA11541DBF1CEA135594EA0C0F72
:1004F00095EA0C0F00F0DEF82C4481EA030621EAAD
:100500004C5123EA4C5350EA013518BF52EA0335E7
:1005100041F4801143F4801338D0A0FB02CE4FF099
:100520000005E1FB02E506F00042E0FB03E54FF0C9
:100530000006E1FB03569CF0000F18BF4EF0010EC1
:10054000A4F1FF04B6F5007F64F5407404D25FEABD
:100550004E0E6D4146EB060642EAC62141EA555170
:100560004FEAC52040EA5E504FEACE2EB4F1FD0CB2
:1005700088BFBCF5E06F1ED8BEF1004F08BF5FEA30
:10058000500E50F1000041EB045170BD06F00046E2
:1005900046EA010140EA020081EA0301B4EB5C048F
:1005A000C2BFD4EB0C0541EA045170BD41F4801187
:1005B0004FF0000E013C00F3AB8014F1360FDEBFAC
:1005C000002001F0004170BDC4F10004203C35DA88
:1005D0000C341BDC04F11404C4F1200500FA05F30B
:1005E00020FA04F001FA05F240EA020001F00042AC
:1005F00021F0004110EBD37021FA04F642EB060122
:100600005EEA430E08BF20EAD37070BDC4F10C044B
:10061000C4F1200500FA04F320FA05F001FA04F20F
:1006200040EA020001F0004110EBD37041F10001FB
:100630005EEA430E08BF20EAD37070BDC4F1200506
:1006400000FA05F24EEA020E20FA04F301FA05F26E
:1006500043EA020321FA04F001F0004121FA04F216
:1006600020EA020000EBD3705EEA430E08BF20EAE6
:10067000D37070BD94F0000F0FD101F00046400020
:1006800041EB010111F4801F08BF013CF7D041EAA2
:10069000060195F0000F18BF704703F000465200A6
:1006A00043EB030313F4801F08BF013DF7D043EA77
:1006B0000603704794EA0C0F0CEA135518BF95EA2D
:1006C0000C0F0CD050EA410618BF52EA4306D1D1B4
:1006D00081EA030101F000414FF0000070BD50EAD3
:1006E000410606BF1046194652EA430619D094EA5D
:1006F0000C0F02D150EA013613D195EA0C0F05D147
:1007000052EA03361CBF104619460AD181EA03019A
:1007100001F0004141F0FE4141F470014FF0000052
:1007200070BD41F0FE4141F4780170BD70B54FF0ED
:10073000FF0C4CF4E06C1CEA11541DBF1CEA13556D
:1007400094EA0C0F95EA0C0F00F0A7F8A4EB05044F
:1007500081EA030E52EA03354FEA013100F0888046
:100760004FEA03334FF0805545EA131343EA12630F
:100770004FEA022245EA111545EA10654FEA0026C4
:100780000EF000419D4208BF964244F1FD0404F57D
:10079000407402D25B084FEA3202B61A65EB0305D9
:1007A0005B084FEA32024FF480104FF4002CB6EB96
:1007B000020E75EB030E22BFB61A754640EA0C0016
:1007C0005B084FEA3202B6EB020E75EB030E22BF56
:1007D000B61A754640EA5C005B084FEA3202B6EB97
:1007E000020E75EB030E22BFB61A754640EA9C0056
:1007F0005B084FEA3202B6EB020E75EB030E22BF26
:10080000B61A754640EADC0055EA060E18D04FEAE3
:10081000051545EA16754FEA06164FEAC30343EA83
:1008200052734FEAC2025FEA1C1CC0D111F4801F50
:100830000BD141EA00014FF000004FF0004CB6E749
:1008400011F4801F04BF01430020B4F1FD0C88BFE8
:10085000BCF5E06F3FF6AFAEB5EB030C04BFB6EBF3
:10086000020C5FEA500C50F1000041EB045170BDE6
:100870000EF0004E4EEA113114EB5C04C2BFD4EB13
:100880000C0541EA045170BD41F480114FF0000E97
:10089000013C90E645EA060E8DE60CEA135594EA13
:1008A0000C0F08BF95EA0C0F3FF43BAF94EA0C0F16
:1008B0000AD150EA01347FF434AF95EA0C0F7FF48B
:1008C00025AF104619462CE795EA0C0F06D152EADF
:1008D00003353FF4FDAE1046194622E750EA4106C3
:1008E00018BF52EA43067FF4C5AE50EA41047FF4D4
:1008F0000DAF52EA43057FF4EBAE12E74FF0FF3C39
:1009000006E000BF4FF0010C02E000BF4FF0010C09
:100910004DF804CD4FEA410C7FEA6C5C4FEA430C82
:1009200018BF7FEA6C5C1BD001B050EA410C0CBFD1
:1009300052EA430C91EA030F02BF90EA020F002033
:10094000704710F1000F91EA030F58BF994208BF9A
:1009500090422CBFD8176FEAE37040F00100704757
:100960004FEA410C7FEA6C5C02D150EA013C07D1AE
:100970004FEA430C7FEA6C5CD6D152EA033CD3D0F9
:100980005DF8040B704700BF8446104662468C46F3
:100990001946634600E000BF01B5FFF7B7FF002826
:1009A00048BF10F1000F01BD4DF808EDFFF7F4FF4F
:1009B0000CBF012000205DF808FB00BF4DF808EDDA
:1009C000FFF7EAFF34BF012000205DF808FB00BFFD
:1009D0004DF808EDFFF7E0FF94BF012000205DF81F
:1009E00008FB00BF4DF808EDFFF7CEFF94BF0120D4
:1009F00000205DF808FB00BF4DF808EDFFF7C4FFCD
:100A000034BF012000205DF808FB00BF4FEA410C15
:100A10007FEA6C5C02D150EA013C0AD14FEA430CF8
:100A20007FEA6C5C02D152EA033C02D14FF0000035
:100A300070474FF0010070474FEA410212F5001273
:100A400015D211D56FF47873B3EB625212D94FEA15
:100A5000C12343F0004343EA505311F0004F23FAFF
:100A600002F018BF404270474FF00000704750EA54
:100A7000013005D111F0004008BF6FF00040704711
:100A80004FF00000704700BF4FEA4102B2F1E0436F
:100A900024BFB3F5001CDCF1FE5C0DD901F0004C65
:100AA0004FEAC0024CEA5070B2F1004F40EB8300B5
:100AB00008BF20F00100704711F0804F21D113F1E1
:100AC0003872BCBF01F00040704741F480114FEA1A
:100AD0005252C2F11802C2F1200C10FA0CF320FAA3
:100AE00002F018BF40F001004FEAC1234FEAD323C0
:100AF00003FA0CFC40EA0C0023FA02F34FEA43032A
:100B0000CCE77FEA625307D150EA01331EBF4FF0B2
:100B1000FE4040F44000704701F0004040F0FE40CD
:100B200040F40000704700BF80F0004002E000BFCA
:100B300081F0004142001FBF5FEA410392EA030FC8
:100B40007FEA226C7FEA236C6AD04FEA1262D2EB12
:100B50001363C1BFD218414048404140B8BF5B4217
:100B6000192B88BF704710F0004F40F4000020F0B0
:100B70007F4018BF404211F0004F41F4000121F0C6
:100B80007F4118BF494292EA030F3FD0A2F1010210
:100B900041FA03FC10EB0C00C3F1200301FA03F14E
:100BA00000F0004302D5494260EB4000B0F5000F71
:100BB00013D3B0F1807F06D340084FEA310102F130
:100BC0000102FE2A51D2B1F1004F40EBC25008BFE2
:100BD00020F0010040EA03007047490040EB0000AC
:100BE00010F4000FA2F10102EDD1B0FA80FCACF1DB
:100BF000080CB2EB0C0200FA0CF0AABF00EBC250DA
:100C000052421843BCBFD0401843704792F0000FC7
:100C100081F4000106BF80F400000132013BB5E71A
:100C20004FEA41037FEA226C18BF7FEA236C21D090
:100C300092EA030F04D092F0000F08BF08467047F5
:100C400090EA010F1CBF0020704712F07F4F04D1C3
:100C5000400028BF40F00040704712F100723CBFD6
:100C600000F50000704700F0004343F0FE4040F400
:100C7000000070477FEA226216BF08467FEA2363BE
:100C80000146420206BF5FEA412390EA010F40F4A9
:100C9000800070474FF0000304E000BF10F00043F5
:100CA00048BF40425FEA000C08BF704743F09643DC
:100CB00001464FF000001CE050EA010208BF7047F7
:100CC0004FF000030AE000BF50EA010208BF70477E
:100CD00011F0004302D5404261EB41015FEA010C93
:100CE00002BF84460146002043F0B64308BFA3F18B
:100CF0008053A3F50003BCFA8CF2083AA3EBC2536D
:100D000010DB01FA02FC634400FA02FCC2F120028B
:100D1000BCF1004F20FA02F243EB020008BF20F0C2
:100D20000100704702F1200201FA02FCC2F1200228
:100D300050EA4C0021FA02F243EB020008BF20EA1D
:100D4000DC7070474FF0FF0C1CEAD0521EBF1CEA4B
:100D5000D15392EA0C0F93EA0C0F6FD01A4480EA39
:100D6000010C400218BF5FEA41211ED04FF0006322
:100D700043EA501043EA5111A0FB01310CF000404E
:100D8000B1F5000F3EBF490041EAD3715B0040EA74
:100D9000010062F17F02FD2A1DD8B3F1004F40EB44
:100DA000C25008BF20F00100704790F0000F0CF017
:100DB000004C08BF49024CEA502040EA51207F3ADB
:100DC000C2BFD2F1FF0340EAC250704740F40000B6
:100DD0004FF00003013A5DDC12F1190FDCBF00F0A7
:100DE00000407047C2F10002410021FA02F1C2F155
:100DF000200200FA02FC5FEA310040F1000053EAF1
:100E00004C0308BF20EADC70704792F0000F00F03E
:100E1000004C02BF400010F4000F013AF9D040EA44
:100E20000C0093F0000F01F0004C02BF490011F4D8
:100E3000000F013BF9D041EA0C018FE70CEAD153D6
:100E400092EA0C0F18BF93EA0C0F0AD030F0004C56
:100E500018BF31F0004CD8D180EA010000F000400A
:100E6000704790F0000F17BF90F0004F084691F0C8
:100E7000000F91F0004F14D092EA0C0F01D1420202
:100E80000FD193EA0C0F03D14B0218BF084608D1CB
:100E900080EA010000F0004040F0FE4040F4000015
:100EA000704740F0FE4040F4400070474FF0FF0CA8
:100EB0001CEAD0521EBF1CEAD15392EA0C0F93EAEF
:100EC0000C0F69D0A2EB030280EA010C49024FEA41
:100ED000402037D04FF0805343EA111143EA1013FA
:100EE0000CF000408B4238BF5B0042F17D024FF4B2
:100EF000000C8B4224BF5B1A40EA0C00B3EB510F8D
:100F000024BFA3EB510340EA5C00B3EB910F24BF75
:100F1000A3EB910340EA9C00B3EBD10F24BFA3EBFA
:100F2000D10340EADC001B0118BF5FEA1C1CE0D1C2
:100F3000FD2A3FF650AF8B4240EBC25008BF20F075
:100F4000010070470CF0004C4CEA50207F32C2BFC9
:100F5000D2F1FF0340EAC250704740F400004FF066
:100F60000003013A37E792F0000F00F0004C02BF97
:100F7000400010F4000F013AF9D040EA0C0093F061
:100F8000000F01F0004C02BF490011F4000F013BBB
:100F9000F9D041EA0C0195E70CEAD15392EA0C0F23
:100FA00008D142027FF47DAF93EA0C0F7FF470AF5B
:100FB000084676E793EA0C0F04D14B023FF44CAF9E
:100FC00008466EE730F0004C18BF31F0004CCAD133
:100FD00030F000427FF45CAF31F000437FF43CAF6F
:100FE0005FE700BF4FF0FF3C06E000BF4FF0010C91
:100FF00002E000BF4FF0010C4DF804CD4FEA400273
:101000004FEA41037FEA226C18BF7FEA236C11D0BC
:1010100001B052EA530C18BF90EA010F58BFB2EB6F
:10102000030088BFC81738BF6FEAE17018BF40F0EF
:10103000010070477FEA226C02D15FEA402C05D1A3
:101040007FEA236CE4D15FEA412CE1D05DF8040B28
:10105000704700BF844608466146FFE70FB5FFF7BB
:10106000C9FF002848BF10F1000F0FBD4DF808ED73
:10107000FFF7F4FF0CBF012000205DF808FB00BF64
:101080004DF808EDFFF7EAFF34BF012000205DF8BE
:1010900008FB00BF4DF808EDFFF7E0FF94BF01200B
:1010A00000205DF808FB00BF4DF808EDFFF7D2FF08
:1010B00094BF012000205DF808FB00BF4DF808ED4B
:1010C000FFF7C8FF34BF012000205DF808FB00BF18
:1010D0004FEA4002B2F1FE4F0FD34FF09E03B3EB45
:1010E00012620DD94FEA002343F0004310F0004F85
:1010F00023FA02F018BF404270474FF000007047DB
:1011000012F1610F01D1420205D110F0004008BF79
:101110006FF0004070474FF00000704742000ED261
:10112000B2F1FE4F0BD34FF09E03B3EB126209D422
:101130004FEA002343F0004323FA02F070474FF0D8
:101140000000704712F1610F01D1420202D14FF04D
:10115000FF3070474FF00000704700BF7BB972B995
:101160000029BEBF00204FF0004106E008BF002864
:101170001CBF6FF000414FF0FF3000F0BFB9ADF180
:10118000080C6DE904CE002909DB002B1ADB00F006
:101190004DF8DDF804E0DDE9022304B07047404279
:1011A00061EB4101002B1BDB00F040F8DDF804E0AF
:1011B000DDE9022304B0404261EB4101524263EB9E
:1011C00043037047524263EB430300F02FF8DDF80E
:1011D00004E0DDE9022304B0404261EB41017047C5
:1011E000524263EB430300F021F8DDF804E0DDE94F
:1011F000022304B0524263EB4303704753B94AB928
:10120000002908BF00281CBF4FF0FF314FF0FF300E
:1012100000F074B9ADF1080C6DE904CE00F006F8E9
:10122000DDF804E0DDE9022304B070472DE9F04762
:101230008C460446089E002B4BD18A42154667D93E
:10124000B2FA82F24AB1C2F1200701FA02F320FA9F
:1012500007F7954047EA030C94404FEA154EBCFB54
:10126000FEF71FFA85F80EFB17C307FB08F9210CE0
:1012700041EA0343994509D9EB1807F1FF3180F0A2
:101280001C81994540F21981023F2B44A3EB0903CD
:10129000B3FBFEF00EFB103300FB08F1A4B244EAEE
:1012A0000344A14209D92C1900F1FF3380F00781D2
:1012B000A14240F2048102382C4440EA0740002752
:1012C000641A1EB10023D440C6E900433946BDE884
:1012D000F0878B4209D9002E00F0EC800027C6E988
:1012E000000138463946BDE8F087B3FA83F7002F8E
:1012F00048D18B4202D3824200F2FB80841A61EB18
:10130000030301209C46002EE0D0C6E9004CDDE737
:1013100002B9FFDEB2FA82F2002A40F08F80012784
:10132000491B4FEA15481FFA85F9B1FBF8FE08FB87
:101330001E1109FB0EF04FEA144C4CEA014398428F
:1013400007D9EB180EF1FF3102D2984200F2CD809E
:101350008E461B1AB3FBF8F008FB103309FB00F9AB
:10136000A4B244EA0344A14507D92C1900F1FF3384
:1013700002D2A14500F2B6801846A4EB090440EA67
:101380000E409EE7C7F12005BB4022FA05FC4CEA5F
:10139000030C21FA05F44FEA1C4EB4FBFEF91FFAC8
:1013A0008CF80EFB194420FA05F3B94009FB08FA42
:1013B00019430B0C43EA0444A24502FA07F200FA6F
:1013C00007F30BD91CEB040409F1FF3080F088808F
:1013D000A24540F28580A9F102096444A4EB0A0405
:1013E000B4FBFEF00EFB104400FB08FA89B241EAA0
:1013F0000444A24508D91CEB040400F1FF316BD270
:10140000A24569D90238644440EA0940A0FB028938
:10141000A4EB0A044C454146CE4654D351D0002E8D
:1014200069D05A1A64EB0E0404FA05F522FA07F3A0
:10143000FC401D43C6E90054002747E79540C2F130
:10144000200321FA03F04FEA1548B0FBF8F71FFA22
:1014500085F908FB170024FA03F3914007FB09FC08
:101460000B43190C41EA00418C4504FA02F407D9F8
:10147000691807F1FF3031D28C452FD9023F29443A
:10148000A1EB0C01B1FBF8F008FB101C00FB09FEFE
:1014900099B241EA0C418E4507D9691800F1FF3332
:1014A00018D28E4516D902382944A1EB0E0140EA24
:1014B00007473AE73746304608E70F46E6E618465C
:1014C000FBE64345ABD2B8EB020169EB0C020138F5
:1014D0009646A4E71846E8E7084695E70746CFE7AB
:1014E00081467BE702382C4447E7AEF1020E2B44DD
:1014F0002FE7384607E73746E8E600BF704700BFEA
:101500002DE9FF474FF0010804ADC64C25F80C8DBE
:1015100007460E46D4E9001091462B460222897CEC
:10152000007801F093FF824620B14FF0FF3004B005
:10153000BDE8F087C82002F0ABFFD4E900108DF8B9
:1015400004A02B464246C97B007801F07FFF0028AB
:10155000EBD1D4E900102B4642464979007801F0DE
:1015600075FF0028E1D1D4E900102B464246897C62
:10157000007801F06BFF0028D7D1D4E900102B468A
:101580004246C97D007801F061FF0028CDD1D4E941
:1015900000102B4642460979007801F057FF0028D9
:1015A000C3D1D4E900100C238DF8043042462B46F9
:1015B0000979007801F04AFF0028B6D10F2002F027
:1015C00067FFD4E90010A36A42465B7A8DF80430C5
:1015D00089782B46007801F039FF0028A5D1D4E99D
:1015E0000010A36A42461B7A8DF8043049782B46D6
:1015F000007801F02BFF002897D1A36A9B7AB9F1FC
:10160000000F01D063F01F038DF80430D4E90010FF
:101610002B4601228979007801F018FF002884D137
:10162000B9F1000F00F0FC80A36ADB7A63F01F03BE
:101630008DF80430D4E900102B460122C9790078D6
:1016400001F004FF00287FF470AFB9F1000F02D061
:10165000C82002F01DFFD4E9001040238DF80430AB
:1016600001222B460979007801F0F0FE00287FF472
:101670005CAFD4E9001078238DF8043001222B46AA
:101680004979007801F0E2FE804600287FF44DAFF2
:10169000322002F0FDFED4E900108DF804802B46C4
:1016A00001224979007801F0D1FE00287FF43DAF96
:1016B000D4E900102B460222897A007801F0D8FE86
:1016C00000287FF432AF9DF804309DF805908046E5
:1016D00049EA03290C23B9FBF3F9C7E90100386093
:1016E000C6E901005FFA89F930605FFA88F34B457B
:1016F000C0F09A80002539685FFA89F4CB174FEA69
:10170000034C8322002308044CEA1141FFF726FD15
:1017100022462B46FFF722FD79683860CB174FEA47
:10172000034C8322002308044CEA1141FFF716FD05
:1017300022462B46FFF712FDB9687860CB174FEAB7
:10174000034C8322002308044CEA1141FFF706FDF5
:1017500022462B46FFF702FDB8603368D9174FEADF
:1017600003480A0442EA1349B8F1000F79F1000373
:1017700006DA40F2FF72002318EB020849EB030976
:101780004FEAD82022462B4640EA49504FEAE92149
:10179000FFF7E4FC73683060D9174FEA03480A0486
:1017A00042EA1349B8F1000F79F1000306DA40F27A
:1017B000FF72002318EB020849EB03094FEAD82017
:1017C00022462B4640EA49504FEAE921FFF7C6FC82
:1017D000B3687060D9174FEA03480A0442EA134914
:1017E000B8F1000F79F1000306DA40F2FF7200232E
:1017F00018EB020849EB03094FEAD82022462B4692
:1018000040EA49504FEAE921FFF7A8FC0028B06000
:10181000CCBFA0F5803000F58030B060002086E6B7
:10182000182305E70C000020D4E900102B460C22F9
:10183000C97A007801F01CFE08F1010800287FF445
:1018400074AE9DF806309DF807209DF8081042EA16
:1018500003229DF809309DF8040043EA01239DF816
:10186000051012B241EA0021306809B2014431602A
:1018700071681BB20A447260B2689DF80E1013447E
:10188000B3609DF80D209DF80C309DF80A0042EAE7
:1018900003229DF80F3012B243EA01239DF80B108A
:1018A0001BB241EA0021386809B201443960796805
:1018B0000A447A60BA681344BB6016E713B5134C48
:1018C00094F8243093B1C0B102238DF80730D4E9E5
:1018D00000100DF107030122C97B007801F0B6FD6D
:1018E00070B99DF80730637402B010BDA27A3AB1A6
:1018F00018B1627C3AB90123E7E78DF80700E6E703
:101900004FF0FF30F0E71846EEE700BF0C00002074
:1019100037B5514CA37A1BB94FF0FF3003B030BD3F
:101920000023D4E9001002AD05F8013D2B46012249
:10193000C97B007801F08AFD0028EDD1D4E90010C0
:101940002B4601224979007801F080FD0028E3D17F
:10195000D4E900102B4601220979007801F076FDC8
:101960000028D9D1636818782368197994F824304D
:10197000002B3CD00C2301228DF807302B4601F0C0
:1019800065FD0028C8D1322002F082FDD4E90010A4
:10199000C0238DF80730A37A0979DA0744BFE02322
:1019A0008DF8073001222B46007801F04FFD00280A
:1019B000B2D1637C03B10223D4E900108DF8073063
:1019C00001222B46C97B007801F040FD0028A3D1FD
:1019D0002B468DF80700D4E90010012249790078E0
:1019E00001F034FD003018BF0120404296E7042387
:1019F00001228DF807302B4601F028FD00288BD1FD
:101A0000A37C13B9A37ADB0724D44023D4E90010C4
:101A10008DF8073001222B460979007801F016FD78
:101A200000287FF479AF322002F032FD637C03B1ED
:101A30000123D4E900108DF8073001222B46C97B21
:101A4000007801F003FD00287FF466AFD4E90010B0
:101A5000024BC2E76023D9E70C0000201C000020E5
:101A60000B4B1B7A032B10D8DFE803F00206090C9E
:101A7000FA230380002070474FF4FA73F9E74FF41C
:101A80007A73F6E74FF4FA63F3E70023F1E700BF58
:101A90000C00002013B51A4CA37A13B94FF0FF3095
:101AA0001DE0B0F5FA7F24D01BD8FA28F6D1002328
:101AB0008DF807309DF80720237AB3EBD20F1CD0A6
:101AC000D4E900100DF1070301228979007801F0B3
:101AD000BDFC0028E2D19DF80730DB08237202B07C
:101AE00010BDB0F57A7F06D0B0F5FA6FD6D11823C5
:101AF000DEE70823DCE71023DAE70020EFE700BF8A
:101B00000C0000200C4B5A7A032A12D8DFE802F0AE
:101B1000020B0D0F02220270DB7C13B103785B0015
:101B20000370002070470422F5E70822F3E7102233
:101B3000F1E74FF0FF3070470C00002013B5184C50
:101B4000A37A13B94FF0FF301CE0042822D01BD831
:101B50000228F7D100238DF807309DF80720637A1B
:101B6000B3EBD20F1AD0D4E900100DF10703012214
:101B7000C979007801F06AFC0028E3D19DF80730AC
:101B8000DB08637202B010BD082805D01028D9D137
:101B90001823E0E70823DEE71023DCE70020F1E765
:101BA0000C0000200C4BDB7A013B052B12D8DFE840
:101BB00003F00307090B0D0FBC23038000207047BF
:101BC0006223FAE72A23F8E71423F6E70A23F4E767
:101BD0000523F2E70023F0E70C00002013B5194CB1
:101BE000A37A1BB94FF0FF3002B010BDBB2816D945
:101BF00001238DF80730E27A9DF807309A421FD012
:101C0000D4E900100DF1070301228978007801F072
:101C10001DFC0028E6D19DF80730E372E4E7612857
:101C200001D90223E5E7292801D90323E1E7132895
:101C300001D90423DDE709288CBF05230623D8E753
:101C40000020D1E70C000020054A92F824301BB98F
:101C5000D2890280184670474FF0FF30704700BFAE
:101C60000C0000200A4B1B7A032B0DD8DFE803F091
:101C70000206080A074B036000207047064BFAE78C
:101C8000064BF8E7064BF6E74FF0FF30704700BF12
:101C90000C00002000000343000083423333034262
:101CA000333383410E4B5A7A032A16D8DFE802F009
:101CB000020C0F124FF480420280DB7C13B10388C8
:101CC0005B0803800020704741F69C72F4E74FF4F4
:101CD0008052F1E74FF40062EEE74FF0FF307047BB
:101CE0000C000020F8B5124B93F824201E46E2B9F0
:101CF0009C7A9CB100F0FE052C401F7C1C74641B78
:101D000018BF4FF0FF340DB9187D50B10120FFF717
:101D1000D5FD45B1FFF7FCFD28B137744FF0FF3416
:101D200001E0FFF7CBFD2046F8BD0024FBE700BF34
:101D30000C0000202DE9F743244D064695F8243089
:101D400089461746A84623B94FF0FF3003B0BDE8D7
:101D5000F083AB7A002BF7D0D5E9001001AB02225B
:101D6000897A007801F084FB0028EDD19DF80430D9
:101D70009DF8054044EA0324B44201D23870E3E7F9
:101D800068684388B4EB530F11D9296801AB01226D
:101D9000497C007801F06CFB0028D5D19DF8043017
:101DA000DB0604D5FFF7B4FD6FF00100CEE7D8E9FC
:101DB00000104B46F2B2C97A007801F059FB0028B6
:101DC000C2D1B4FBF6F4013C3C70BFE70C0000202C
:101DD00037B5364C0546A37C834241D06368012267
:101DE0001878236819790DF10703002D3AD001F016
:101DF0003FFB18B14FF0FF3003B030BD9DF8073006
:101E0000D4E9001023F020038DF8073001220DF1F2
:101E100007030979007801F019FB0028EAD10320B3
:101E200002F036FB02238DF8073094F8223013B10C
:101E300082238DF8073094F823302BB19DF80730BA
:101E400043F030038DF80730D4E900100DF107039B
:101E50000122097D007801F0F9FA0028CAD1A574A1
:101E60000020C9E701F004FB0028C3D1D4E9001029
:101E7000A27A9DF80730D2074CBF43F0200323F02D
:101E800020038DF8073001220DF10703097900784E
:101E900001F0DCFA0028ADD1032002F0F9FA94F841
:101EA0002230002BC5D08023C3E700BF0C000020E8
:101EB00037B5184C054694F82330834228D008B330
:101EC00030238DF80730A37C2BB19DF8073043F009
:101ED00002038DF8073094F822302BB19DF80730BB
:101EE00063F07F038DF80730D4E900100DF107038C
:101EF0000122097D007801F0A9FA30B984F8235055
:101F000003B030BD8DF80700DDE74FF0FF30F7E795
:101F10000020F5E70C000020282837B5044602D938
:101F20004FF0FF3012E0274D90B9FFF7C1FFD5E920
:101F300000104FF4E063ADF80430022201AB897C5D
:101F4000007801F083FA0028EAD1287503B030BD8B
:101F50000120FFF7ADFF2023012C8DF8043020D1A4
:101F6000002305208DF80530FFF738FED5E9001075
:101F70009DF8053002229B0143F007038DF80530E0
:101F8000897C01AB007801F061FA04460028C7D1D2
:101F90000823AB72012328732B75FFF7A3FE20469D
:101FA000D4E7052C01D80123DBE7142C97BF0223CB
:101FB00003238DF805300A2084BF8DF805301420E6
:101FC000D2E700BF0C000020F7B51F4B04469A7AF9
:101FD0001E461AB94FF0FF3003B0F0BD93F82450FD
:101FE000002DF7D11B7D53B1431E272B04D8C0B25F
:101FF000FFF792FF2846EFE72846FFF78DFFD6E967
:102000000010B4F57A7F28BF4FF47A74042C38BFDF
:1020100004244FF47A7797FBF4F402AB013C03F805
:10202000014D01224978007801F010FA0546002898
:10203000D0D19DF80700013097FBF0F0F081400807
:10204000FFF7CCFDD6E700BF0C00002010F07003B6
:1020500037B5054613D001232B4C8DF80730D4E952
:1020600000100DF107030122897C007801F0EEF9E0
:1020700048B100234FF0FF30A37203B030BD0028F9
:10208000EAD14023E8E79DF8073023F040032373AB
:102090006B0656BF04238DF807008DF80730A9069C
:1020A00058BF9DF80730D4E900105CBF43F002032D
:1020B0008DF80730EA0658BF9DF807304FF001024F
:1020C0005CBF43F001038DF807302B0758BF9DF824
:1020D0000730C97C5CBF43F038038DF807300078C7
:1020E0000DF1070301F0B2F90028C2D115F0F70F86
:1020F00001D0FFF7DDFEA57200253220257502F024
:10210000C7F92846B9E700BF0C0000208023F7B5C7
:102110004C4E02AD05F8083DD6E900102B460122D1
:10212000897C007801F092F93446074620B14FF0DF
:10213000FF34204603B0F0BD642002F0A9F9D6E9CF
:1021400000108DF800702B460122897C007801F088
:102150007DF90028EBD1D6E900102B460622897DB7
:10216000007801F085F90028E1D19DF805309DF84F
:1021700003209B00520002F0020203F00403134309
:102180009DF8012002F00102134340D0012BD9B287
:1021900035D1E3744FF6FF73E3812374FF23A374F7
:1021A0004FF0FF33A3600123638423730023264A87
:1021B000C4F81630A382536093604FF4FA606362F0
:1021C000FFF768FC0028B2D10220FFF7B7FC002817
:1021D000ADD12A20FFF702FD0028A8D13220FFF759
:1021E000F3FE0028A3D1FFF77DFD00289FD1FFF764
:1021F000EFFD044600289AD1FFF728FF99E702294E
:1022000001D10023C5E7114804F002F88FE7D6E9B1
:1022100000102B460122C978007801F029F9002826
:1022200085D19DF8003013F00F0303D1084804F066
:1022300047F87CE7042BE4D1064804F041F8012379
:10224000A7E700BF0C000020220000209CC400086B
:10225000C2C400080EC50008F7B50D4616461AB9E7
:102260004FF0FF3003B0F0BD124CA37A002BF7D033
:102270006768030A8DF80430C0B27B898DF80500C9
:1022800008449842ECDC216801AB0222097E3878D0
:1022900001F0DCF80028E3D1D4E900103346EAB2BB
:1022A000497D007801F0D2F8003018BF012040428B
:1022B000D8E700BF0C000020F7B50D4616461AB946
:1022C0004FF0FF3003B0F0BD124CA37A002BF7D0D3
:1022D0006768030A8DF80430C0B27B898DF8050069
:1022E00008449842ECDC216801AB0222097E387870
:1022F00001F0ACF80028E3D1D4E900103346EAB28B
:10230000497D007801F0B4F8003018BF0120404248
:10231000D8E700BF0C0000202DE9F04F254D89B013
:1023200095F82540074689461646019324B14FF09B
:10233000FF3009B0BDE8F08F0029F8D0BC4214D3BB
:10234000330A8DF80C308DF80D60D5E9001003AB21
:102350000222897E007801F079F80028E7D1012374
:1023600085F82530019BEB84E3E7A7EB0408B8F17F
:10237000100FA8BF4FF0100809EB040B1FFA88FAE2
:102380005A4651462046FFF767FF0028CFD104AADE
:1023900051462046FFF790FF0028C8D1524604A9B5
:1023A000584603F01DFF10B95444A4B2C6E76FF0BD
:1023B0000100BEE70C00002037B51C4D044695F81F
:1023C000243083421DD0F8B195F825305BB300244A
:1023D0000020FFF773FA0020FFF7FAFCE88CFFF704
:1023E000F3FD02AB686803F8014D01222321007858
:1023F00001F02CF8012085F82400FFF75FFAFFF7C1
:1024000087FA002003B030BDFFF758FA2A7C02ABF0
:10241000686803F8012D23210122007801F016F8E5
:1024200085F82440EBE74FF0FF30EBE70C0000208D
:102430002DE9F04FB74C97B094F8243002908846BD
:10244000019323B10020FFF7B7FF012301930DF1A2
:102450002600FFF705FB0DF12500FFF753FB0DF1FB
:102460002A00FFF79FFB0AA8FFF7EEFBA37A0022E2
:102470000393237C414602980593FFF741F8002817
:1024800040F088800DF14009012249460DA8FFF770
:1024900037F8002840F0AF8060680CAB04220D21B3
:1024A000007800F0E5FF002800F0AD8000264FF036
:1024B000010A354613AF59F8253058F82500C01ADF
:1024C0000028B8BF4042FEF7E9FB4FF05E51FEF72F
:1024D00039FC57F825308346002118460493FEF74F
:1024E000C5FD002840F0D480049B58461946FEF7ED
:1024F000DDFC4FF07E51FEF71BFB874920F00040CA
:10250000FEF7DCFD10B10AFA05F31E430135032D79
:10251000D1D16068F3B204932A463B460D2100787E
:1025200000F0A6FF002840F0F38005468046012613
:102530009DF84C30DFF8F8B103F01F038DF84C30F4
:102540009DF84D30DFF8ECA103F01F038DF84D30FE
:102550009DF84E30DFF8C09103F01F038DF84E3028
:102560000697029B53F828000DAB53F82820801AD9
:102570000028B8BF4042FEF791FB4FF05E51FEF7D6
:10258000E1FB069B074618F80320002A00F0B880FC
:1025900058468CE0002241460298FEF7B1FF002821
:1025A0003FF470AF00254FF6FF730126E3812374DB
:1025B0004FF0FF33BDF82600A3602673FFF76AFAD9
:1025C0009DF82500FFF7BAFABDF82A00FFF706FBD1
:1025D000BDF82800FFF7F8FC0398FFF737FD0598D2
:1025E000FFF780FB019B13B13046FFF7E5FE28465D
:1025F00017B0BDE8F08F012249460DA8FEF780FF15
:102600000028CFD148E79DF830309DF83310DB101B
:10261000C1F3011203F01C0313439DF831208DF820
:102620002C30D210C1F3810302F01C021A438DF842
:102630002D20054600229DF8323001F00301DB1009
:1026400003F01C030B438DF82E30DFF8ECB0334B56
:1026500013AF0DF12C0A15F80A6036B93A6001354E
:10266000032D07F10407F6D120E7C7F800B0013EBB
:1026700016F0FF0602D10AF80560F0E7194638683F
:1026800006920493FEF75EFB069A3860049BEEE721
:1026900023495846FEF7F4FC00287FF434AF214963
:1026A00058462DE751460792FEF74CFB079A013A30
:1026B00012F0FF02F6D113AB014603F808203846AA
:1026C000FEF7F4FB4FF07E51FEF732FA494620F058
:1026D0000040FEF7F3FC10B106FA08F2154308F1CA
:1026E0000108B8F1030F7FF43CAFEDB2B5FA85F500
:1026F000049B6D09002B7FF456AF45F0020552E7AD
:102700000949FEF7BDFC0028E6D108493846E0E754
:102710000725EAE70C000020295C0F3E1D5A843F84
:102720009A99993E3333733F000020410000D24212
:102730000000C84154E3853F7B14AE3E10B588B01D
:1027400005A902A8FFF774FE032836D101A8FFF7F8
:1027500089FA019C0298FEF7A1FA2146FEF7F2FAE7
:10276000FEF7B6FC02900398FEF798FA2146FEF7B2
:10277000E9FAFEF7ADFC03900498FEF78FFA2146C4
:10278000FEF7E0FAFEF7A4FC049002A800F052FA6B
:102790000DF10200FFF786FABDF80230059A05A890
:1027A0005A430592069A5A430692079A534307934F
:1027B00000F0A8FA002008B010BD0120FBE790F956
:1027C0000030002B0CDC0DD190F90130002B0BDC1C
:1027D0000CD190F90230002B0ADC0BD10720704796
:1027E0000020704704207047012070470520704783
:1027F000022070470620704710B50246FFF7DFFF42
:102800000146D01CFFF7DBFF0446901DFFF7D7FF02
:10281000800140EAC400084380B210BD7047000048
:1028200010B5364803F04CFDFFF770FC002850D17E
:102830007820FFF70BFC10F0FF0F4CD1304803F06D
:102840003FFD7820FFF74EFA10F0FF0F45D12D48DD
:1028500003F036FD6420FFF7B7FB10F0FF0F3ED109
:10286000294803F02DFD00F057F910F0FF0F38D183
:10287000264803F025FD2648FFF7BEFF00F056F975
:1028800010F0FF0F2FD1234803F01AFD40F2731010
:1028900000F05CFC10F0FF0F27D11F4803F010FD83
:1028A000642000F0A5FA10F0FF0F20D11B4803F0C0
:1028B00007FDFFF743FFE0B9194803F001FD0120D0
:1028C000FFF77AFDC4B2B4B9164803F0F9FC20460C
:1028D00010BD0A24FBE70124F9E70224F7E70324EB
:1028E000F5E70424F3E70524F1E70624EFE70724DE
:1028F000EDE70824EBE70924E9E700BFB8C30008C7
:10290000C8C30008DCC30008F3C300080BC40008F8
:10291000000000202FC4000847C400085EC400085F
:1029200074C4000886C400082DE9F04F91B00DF181
:10293000190301930DF11A03CDE9041200938146A6
:1029400007AB0CAA0AA908A800F0D2FC0390002843
:1029500040F0C680BDF81A30DB0540F1C3800C980A
:10296000FEF79CF94FF04251FEF7ECF906460D9840
:10297000FEF794F94FF04251FEF7E4F905460E9840
:10298000FEF78CF94FF04251FEF7DCF904460F9840
:10299000FEF784F94FF04251FEF7D4F94FF0404171
:1029A00007462846FEF7CEF9314680463046FEF708
:1029B000C1F8394682464046FEF7C4F921468346AF
:1029C0005046FEF7BFF901465846FEF7B3F8FDF74B
:1029D0002BFD08F045FF44A3D3E90023FDF77CFD60
:1029E000FEF752F82146C9F800002046FEF7A2F88B
:1029F000294683464046FEF7A5F9214680465846BB
:102A0000FEF7A0F901464046FEF792F84FF07E51DE
:102A1000FEF790F8FDF708FD80468946584639468E
:102A2000FEF790F9294683465046FEF78BF901469A
:102A30005846FEF77FF8FDF7F7FC42464B4608F094
:102A400063FF29A3D3E90023FDF746FDFEF71CF839
:102A5000049B314618603046FEF774F929468046DB
:102A60002846FEF76FF901464046FEF763F8214617
:102A700080462046FEF766F901464046FEF758F8C4
:102A8000394680463846FEF75DF901464046FEF776
:102A90004FF8FDF7C9FC8046894628462146FEF7D7
:102AA00051F9394604463046FEF74CF901462046B6
:102AB000FEF740F80146FEF73DF8FDF7B5FC42464B
:102AC0004B4608F021FF08A3D3E90023FDF704FDDE
:102AD000FDF7DAFF059B1860039811B0BDE8F08F91
:102AE0000120FAE70220F8E76666666666A64C40B3
:102AF0001FB5084A01AB10685168127A03C3092157
:102B00001A704FF4976001AAFFF7A6FB05B05DF8B5
:102B100004FB00BF68C30008C8234FF48062024969
:102B200040F6F630FFF7F8BB70C500081FB54CF64D
:102B30004C53ADF808306C238DF80A304CF60C136A
:102B4000ADF80C302C2300F003018DF80E3004ABEF
:102B5000194411F8083CC0F3C1028DF8003004ABF1
:102B60001A4412F8083C04468DF80130C0F3811372
:102B700004A8034413F8080C11F8041C12F8042CE0
:102B800013F8043C8DF802008DF804108DF8052030
:102B900003216A4640F226408DF80630FFF75CFBC1
:102BA00018B14FF0FF3004B010BD01AA032140F26C
:102BB0002A40FFF751FB0028F3D145F23663ADF808
:102BC000003076238DF8023044F22663ADF80430ED
:102BD000662361078DF8063041BF37238DF800303A
:102BE00027238DF80430A20641BF57238DF801300A
:102BF00047238DF80530E30542BF77238DF8023077
:102C000067236A464FF003014FF4886048BF8DF890
:102C10000630FFF721FB0028C3D101AA032140F2AF
:102C20003140FFF719FB0028BBD1014B1C81BAE7EB
:102C3000100A0020314BF7B51B8903F0030250F84E
:102C400022405907C3F3C10250F8226048BF6442D2
:102C50009A06C3F3811250F82200294A48BF7642EF
:102C600084FB0245DB0548BF404280FB0201A30F05
:102C700043EA850386FB02671A168DF804201A14AE
:102C8000840F8DF805201A12B50F44EA81048DF8DF
:102C90000620042101AA4FF4747045EA87058DF8D7
:102CA0000730FFF7D9FA18B14FF0FF3003B0F0BD8D
:102CB0002B168DF804302B148DF8053001AA2B1239
:102CC00004214FF475708DF806308DF80750FFF72A
:102CD000C3FA0028E8D123168DF8043023148DF8A8
:102CE000053001AA231204214FF476708DF80630C6
:102CF0008DF80740FFF7B0FAD8E700BF100A0020B0
:102D000009E3CA022DE97F4305460DF10200FEF7F3
:102D1000C9FFBDF80220D303560C344A118901F0D3
:102D2000030255F82240C1F3C102480755F82200BA
:102D300048BF64428A0648BF4042C1F38112C905B8
:102D400004FB06F14FEAE47955F8222003FB091150
:102D5000A4FB03450D444FEA947C4CEA850C48BF24
:102D6000524200FB06F556434FEAE07903FB095552
:102D7000A0FB03014FEAE27903FB0966A2FB0323F0
:102D80002944840F44EA81043344910F41EA8301CA
:102D90004FEA2C638DF804304FEA2C438DF8053050
:102DA0004FEA2C238DF8063023168DF808302314B3
:102DB0008DF8093023128DF80A300B168DF80C307F
:102DC0000B148DF80D308DF80F100B1201AA0C2189
:102DD0004FF425708DF807C08DF80B408DF80E303C
:102DE000FFF73AFA04B0BDE8708300BF100A002074
:102DF00010B50446144A86B01068516803AB03C38B
:102E00009068C82C186003D94FF0FF3006B010BD91
:102E100000238DF80430C82393FBF4F301AA013B8F
:102E2000022140F216208DF80530FFF715FA002830
:102E3000EAD103AA0C2140F6C120FFF70DFA0028C1
:102E4000E2D1024B9C81E1E771C30008100A002027
:102E500073B50446600702D14FF0FF3046E0B1F58C
:102E6000C86FF9D80846FDF715FF4649FEF71EF86A
:102E700005460DF10300FEF745FE9DF80330042BD7
:102E800044D035D8022BE7D14FF08D412846FDF7CD
:102E900059FFFEF743F93C4986B22846FDF752FF39
:102EA000FEF73CF9330A80B28DF80430E2074FEAAE
:102EB00010238DF805608DF806308DF8070039D4A1
:102EC000A30710D501AA02214FF4EC70FFF7C4F953
:102ED0000028C1D10DF1060202214FF49470FFF7D2
:102EE000BBF90028B8D114F0040035D102B070BD90
:102EF000082B15D0102BAFD14FF08A412846FDF793
:102F000021FFFEF70BF9214986B2C6E74FF08C414D
:102F10002846FDF717FFFEF701F91D4986B2BCE709
:102F20004FF08B412846FDF70DFFFEF7F7F81949E2
:102F300086B2B2E701AA02214FF4EA70FFF78CF9DA
:102F4000002889D10DF1060202214FF49270FFF79B
:102F500083F90028B4D07FE701AA02214FF4EE7074
:102F6000FFF77AF900287FF477AF0DF1060202210E
:102F70004FF49670FFF770F9003018BF01204042FF
:102F8000B4E700BF00004843000040460000C044D2
:102F90000000C0450000404510F0010318BF302379
:102FA00007B582078DF8073048BF9DF807300DF14F
:102FB000070244BF43F00C038DF80730430748BFB6
:102FC0009DF807304FF0010148BF43F003034FF471
:102FD000A47048BF8DF80730FFF73EF903B05DF8E5
:102FE00004FB07B570B1042828BF042002AA0138E9
:102FF00002F8010D012140F24F10FFF72DF903B047
:103000005DF804FB0120F1E7052307B5B0FBF3F001
:1030100001AA030A8DF8050002214FF4EF708DF824
:103020000430FFF719F903B05DF804FB052307B579
:10303000B0FBF3F001AA030A8DF8050002214FF45A
:10304000ED708DF80430FFF707F903B05DF804FB6D
:103050004FF47A7307B590FBF3F041430B168DF8EC
:1030600004300B148DF805308DF807100B1201AAEF
:1030700004214FF4AE708DF80630FFF7EDF803B081
:103080005DF804FB052307B5B0FBF3F001AA030AC2
:103090008DF8050002214FF4AD708DF80430FFF774
:1030A000DBF803B05DF804FB052307B5B0FBF3F0D4
:1030B00001AA030A8DF8050002214FF4AC708DF8C7
:1030C0000430FFF7C9F803B05DF804FB1FB520B169
:1030D000FFF70EFD05B05DF804FB074A01AB106871
:1030E0005168127A03C309211A704FF4976001AA3C
:1030F000FFF7B2F8EEE700BF7DC3000807B560B187
:10310000074B01AA042140F698200193FFF7A4F889
:10311000FEF7FEFB03B05DF804FB4FF08B33F0E7E6
:10312000C0C2C4C607B560B1074B01AA042140F66E
:103130009E200193FFF790F8FEF7EAFB03B05DF8DD
:1031400004FB4FF0A333F0E7202830382DE9FF418E
:10315000624B04AD45F80C3D04462A460421682024
:10316000FFF77AF8A32314F040078DF804301FBF4F
:10317000C0238DF80530C8238DF8063012BFC22356
:103180008DF805308DF8063014F4C0788DF80730CE
:1031900015BF4CF6C4434AF2A333ADF80830ADF87E
:1031A000083014BFC623A3238DF80A30A3232A4670
:1031B0000A2140F6A7208DF80B308DF80C308DF8E1
:1031C0000D30FFF749F814F0030614BF2023D8236D
:1031D0002A46012140F6B6208DF80430FFF73CF86E
:1031E00014F020006AD0FFF783FCB8F1000F0AD07A
:1031F000E1054CBF3A4B3B4B2A46042140F6A22046
:103200000193FFF729F8E2075BD5F8232A4601214D
:103210004FF40B608DF80430FFF71EF8FA210720F9
:10322000FFF716FE0720FFF7B7FE0120FFF7D9FED4
:103230006420FFF7E9FE4FF4FA70FFF7F7FEC821AC
:103240002948FFF705FF2820FFF71CFF0A20FFF79A
:103250002BFFA3074CBFD923D8232A46012140F2D4
:103260003D708DF80430FEF7F7FF14F0040018BF2E
:103270000120FFF743FF14F0100018BF01201B4D81
:10328000FFF750FF44F008036B81FEF741FB2B462C
:103290000FBBAF73B8F1000F02D09A7B06329A735E
:1032A00014F0140F1EBF9A7B10329A7316B19A7BDA
:1032B00004329A73002004B0BDE8F081FFF706FFE6
:1032C00093E7D8232A4601214FF40B608DF8043090
:1032D000FEF7C2FFBDE70622AA73DBE702CAE309D5
:1032E000B28BB69BB080B49009E3CA02100A0020EA
:1032F0002DE9F04F9846002389B0129CDFF848B1C1
:1033000006460F4691462380139A69469BF80E00A5
:10331000FEF710FDDA46054660BBBBF80A2012F046
:10332000140F00F08E800199009891FA81FEC9F87F
:1033300004E04FEA2E4E0EFB0EFE00BAC9F8000064
:103340000014029B00FB00E019BA4FEA214C039BDA
:103350000CFB0C0C1BBAC9F80C301B1403FB03C389
:1033600003F17143B3F1007FC9F8081005D9FEF7E6
:10337000CFFA25804FF0FF355FE0238843F4807358
:103380002380102350061CD508A9194411F820CC1D
:1033900011F81F0C063340EA0C20388011F81ECCBF
:1033A00011F81D0CDBB240EA0C20788011F81C0CDF
:1033B00011F81B1C41EA0021B980218841F0080165
:1033C000218012F4C07F1CD008A9194411F8207C78
:1033D00011F81F0C063340EA0720308011F81E7CDC
:1033E00011F81D0CDBB240EA0720708011F81C0CAC
:1033F00011F81B1C41EA0021B180218841F07001C5
:103400002180910716D00DEB03046378E678DA0784
:1034100008D5DAF8003006F00701C6F3C200013122
:1034200003B1984763781B0704D5DAF804300BB171
:10343000B00998474046FFF7F1F9284609B0BDE8C2
:10344000F08F03469EE700BF100A00201FB54FF41F
:103450007A7400930123CDE901240A4600FA03F1AE
:10346000024801F0F5FB002004B010BDE00E002082
:103470001FB54FF47A7400930123CDE901240A4665
:1034800000FA03F1024801F073FC002004B010BD03
:10349000E00E00200000000007B5022201AB412130
:1034A0006820FFF7E5FF9DF804309DF8050040EA2D
:1034B000032000B2FCF7A6FF00220B4BFDF736F904
:1034C00007A3D3E90023FCF751FEFDF7DDFA074916
:1034D000FDF738FCFDF7FCFD00B203B05DF804FB1E
:1034E000A4703D0AD7434240004075400000C842E6
:1034F00073B506460D4614466B46062243216820E6
:10350000FFF7B6FFA0B99DF800209DF8013043EA0F
:10351000022333809DF802209DF8033043EA022302
:103520002B809DF804209DF8053043EA0223238078
:1035300002B070BD73B506460D4614466B460622B2
:103540003B216820FFF794FFA0B99DF800209DF86B
:10355000013043EA022333809DF802209DF80330B6
:1035600043EA02232B809DF804209DF8053043EAAE
:103570000223238002B070BD07B50A468DF807000C
:1035800001B101224021074801F0DEF84FF47A73BF
:1035900001220DF10701044802F078F803B05DF84C
:1035A00004FB00BF00080140980F002070B5B02454
:1035B0000E4E00212046FFF7DFFF00210846FFF7EF
:1035C000DBFF00211020FFF7D7FF002516F835009C
:1035D00001210135FFF7D0FF802DF7D10134E4B28E
:1035E000B82C06F10106E4D170BD00BF600A0020CE
:1035F0000020064B03F10801002203F832000132DB
:10360000802AFAD101338B42F6D17047600A00203C
:103610000020064B191D002203F832000132802AD7
:10362000FAD101338B42F6D1704700BF640A002003
:10363000054BCA0803EBC00001F0070301219940C4
:10364000835C194381547047600A0020012210B541
:10365000064BCC0803EBC000035D01F0070102FA42
:1036600001F123EA0101015510BD00BF600A0020ED
:10367000802A2DE9F84306460D4613D8402B11D871
:1036800082420FD38B420DD382420DD100275C1AA8
:1036900005E02944C9B23046FFF7CAFF0137F9B245
:1036A000A142F6DBBDE8F8838B42A2EB00070BD109
:1036B000002405E030442946C0B2FFF7B9FF0134C9
:1036C000E0B2B842F6DBEDE74FF00A095C1AE4B26B
:1036D00009FB04F4FBB294FBF3F44FF00008E4B2EE
:1036E0005FFA88F0B842DDDA00FB04F191FBF9F1F2
:1036F00030442944C9B2C0B2FFF79AFF08F101086B
:10370000EEE700002DE9F04F1D4613F0070318BF48
:1037100001234FF024098A4603EBD50369084B4384
:1037200085B0DBB2A2F120060193224BF6B209FB71
:103730000639214B074603EB061302930C2354462C
:103740004FF000081D4A03FB06230393019A5FFA1A
:1037500088F39A4202D805B0BDE8F08F0C2D1AD13B
:10376000039B13F8086004F1080B5FFA8BFB330628
:103770002146384618D5FFF75BFF0134E4B2A4EBCD
:103780000A017300A942DEB211D154460137FFB2DB
:1037900008F10108DAE7102D01D1029BE1E7182DAD
:1037A000D9D119F80860DEE7FFF750FFE5E7A34538
:1037B000DDD1EDE7CADB0008DAD5000866D10008E4
:1037C0002DE9F84304460D461E464FEA5308571E9E
:1037D000C3F1800917F8012FA2F120035E2B01D954
:1037E000BDE8F883204644442946E4B23346FFF757
:1037F00089FF4C45C2BF0235EDB20024EAE7000064
:10380000012210B5444C1146204600F09DFF642073
:1038100000F03EFE00220121204600F095FFC82066
:1038200000F036FE01222046114600F08DFF0021F7
:10383000AE20FFF7A1FE00210846FFF79DFE002104
:103840001020FFF799FE00214020FFF795FE002190
:103850008120FFF791FE0021CF20FFF78DFE002190
:10386000A120FFF789FE0021C820FFF785FE002177
:10387000A620FFF781FE0021A820FFF77DFE002192
:103880003F20FFF779FE0021D320FFF775FE0021CE
:103890000846FFF771FE0021D520FFF76DFE0021DD
:1038A0008020FFF769FE0021D920FFF765FE002187
:1038B000F120FFF761FE0021DA20FFF75DFE002115
:1038C0001220FFF759FE0021DB20FFF755FE0021F3
:1038D0004020FFF751FE00212020FFF74DFE002180
:1038E0000220FFF749FE00218D20FFF745FE002151
:1038F0001420FFF741FE0021A420FFF73DFE002128
:10390000A620FFF739FE0021AF20FFF735FEBDE806
:103910001040FFF76DBE00BF000C014010222DE9E2
:10392000F04788B00DEB0200002102F068FC344B38
:10393000344D9A69DFF8D4A042F010029A619A6976
:10394000314C02F010020092009A9A69284642F027
:1039500020029A619A694FF4005102F0200201920C
:10396000019A9A69012742F004029A619A694FF01C
:10397000110802F004020292029A9A694FF00309B8
:1039800042F008029A619B69002203F00803039346
:10399000039B00F0D9FE50460022402100F0D4FEE7
:1039A0000022204643F2030100F0CEFE4FF4005304
:1039B00004A9284600260225CDE90438CDE9067978
:1039C00000F0E2FD402304A95046CDE90437CDE9DB
:1039D000066500F0D9FD04A92046CDE90497CDE99C
:1039E000066500F0D1FD4FF4405304A92046CDE90F
:1039F0000438CDE9066500F0C7FD08B0BDE8F087E2
:103A00000010024000100140000C0140000801407D
:103A100008B50B480B4A0C4BC0E9002300234FF4B8
:103A20008042C0E90233C0E90423C0E906330362DF
:103A300001F062F818B1BDE8084000F0D3B908BD44
:103A4000E00E002000540040A086010010B504469E
:103A500086B01022002102A802F0D1FB2268114B8F
:103A60009A421CD1104CC022A36902A943F008035A
:103A7000A361A3690D4803F008030093009B122380
:103A8000CDE902230323059300F07EFDE36943F4AF
:103A90000013E361E36903F400130193019B06B093
:103AA00010BD00BF0054004000100240000C014057
:103AB00010B5142490B02246002108A802F09FFB04
:103AC0002246002101A802F09AFB022401224FF4B1
:103AD0008033CDE90623CDE90D434FF4E01306A86A
:103AE0000A920F9301F082FA0F230022CDE90134EC
:103AF0004FF48063214601A8CDE90323059301F02B
:103B00004DFC10B010BD000038B51C4B834234D1C1
:103B10001B4C4FF4005123781A48C72B8CBF01224D
:103B2000002200F011FE184B1849186800F0E6FB5F
:103B300000F00EFC207810F07F0507D1FFF768FD3C
:103B400030237F2219462846FFF792FD104B11497A
:103B50001868FDF7ABF94FF08341FDF7F3F80E4914
:103B6000FCF7E8FFFDF7DAFA2378C1B203F07F0033
:103B7000FFF75EFD23780133237038BDF00F00207E
:103B8000200A002000100140840F00205C0F00205C
:103B9000240A00200000C84200004042024B1A687C
:103BA0005206FCD5586070470038014070B588B0A7
:103BB00008ABD41C1D198826002305F8203C8DF87D
:103BC00000608DF801008DF80220D8B282420ED834
:103BD00000210232CBB2934201F101010DDD00213F
:103BE000CBB29C4201F1010111DA08B070BDCE5C8C
:103BF0000DEB0300C6700133E7E708A8034413F890
:103C0000203C15F8200C034405F8203CE2E708AA04
:103C1000134413F8200CFFF7C1FFE1E71FB5C0F311
:103C200007638DF80030C0F307438DF80130C0F30F
:103C300007238DF80230C1F307638DF80430C1F318
:103C400007438DF80530C1F307238DF80630C2F322
:103C500007638DF80830C2F307438DF803008DF831
:103C600007108DF809308DF80B20C2F30723694641
:103C70000C22A2208DF80A30FFF798FF05B05DF8FE
:103C800004FB00008FB500F0DFFBFFF711FFFFF72B
:103C900045FEFFF7BDFE00F097FA00F0B9F900F01D
:103CA00043FA00F00FF9FFF7ABFD3B4801F00EFEC1
:103CB00000213A4802F0F0F8394800F095F8002168
:103CC0001023384A0846FFF77BFDFFF76FFC364CA0
:103CD000FEF7A6FD002856D1344802F0F1FAFFF7AE
:103CE00087FC00F0EFFADFF8D090DFF8D080304D9D
:103CF000304F314A31492F48FEF716FE044600285E
:103D0000F7D1FFF7C9FB2E4B2E4A18802E492F48BA
:103D1000FFF710FC2E4E2F4A2F493048FFF7E8FBE3
:103D2000D9F80020D8F800103868FFF777FF30681E
:103D3000FCF77AFB02460B46294802F069FA38681C
:103D4000FCF772FB02460B466846294602F076FBFA
:103D50006A46102321462046FFF732FD3068FCF703
:103D600063FB02460B466846294602F067FB1023B8
:103D700020466A461946FFF723FDFFF717FC64202B
:103D800000F086FBB4E7204602F09AFA4FF4FA708E
:103D900000F07EFB9CE700BFF00F002038100020F1
:103DA0008010002026E9000835E9000847E90008EE
:103DB0005AE90008840F0020800F0020880F00209F
:103DC0005A0F00208E0F00207C0F0020580F00207B
:103DD000240A0020340F0020900F00208C0F0020B8
:103DE00053E9000870470000044B02221860044B9E
:103DF000186800238068194602F06ABA940F002000
:103E000044000020022808B505D902F0BFF90923B3
:103E10000360002008BD0120FCE7000001380128F4
:103E200010B514460BD809484FF47A7392B2006863
:103E300002F0F8F8002818BF0524204610BD02F053
:103E4000A5F909234FF0FF340360F6E7940F002033
:103E5000022808B506D902F099F9092303604FF04A
:103E6000FF3008BD0020FCE708B502F08FF90923F8
:103E700003604FF0FF3008BD08B558B909484FF44A
:103E80007A730122006802F024F900280CBF012097
:103E9000052008BD02F07AF9092303604FF0FF30D6
:103EA000F7E700BF940F0020022808B504D84FF4AC
:103EB00000534B60002008BD02F068F9092303603D
:103EC000F8E7000008B54FF482730D480D4AC0E9C9
:103ED000002300234FF40072C0E90233C0E9043329
:103EE000C0E90623C0E9083383620A23C36201F0F4
:103EF00075FB18B1BDE80840FFF774BF08BD00BFEF
:103F0000980F00200030014010B5044686B0102202
:103F1000002102A802F073F92268114B9A421DD1C8
:103F200003F560439A6902A942F480529A619A6942
:103F30000C4802F480520092009A9A6942F00402FE
:103F40009A619B69A02203F004030193019B022361
:103F5000CDE902230323059300F016FB06B010BD44
:103F600000300140000801400E4B82B09A6942F0D7
:103F700001029A619A6902F001020092009ADA69DC
:103F800042F08052DA61DB69074A03F08053019303
:103F9000019B536823F0E06343F08063536002B0F9
:103FA000704700BF00100240000001407047FEE76C
:103FB000FEE7FEE7FEE770477047704700F056BA2D
:103FC000014801F0B2BC00BFF00F00200B4B10B550
:103FD0001968024609B90A491960186809490A4C62
:103FE0000244091B8A4206D902F0D0F80C23036070
:103FF0004FF0FF3010BD1A60FCE700BF280A002018
:10400000D81000200050002000040000704700007D
:104010007FB51022002102A802F0F1F847221548CE
:1040200015490023C0E9001242F20F72CDE90033B6
:104030008360C0E9032343618023836101F050FD65
:1040400008B1FFF7CFFE4FF4805302A9094802934D
:1040500001F031FE08B1FFF7C5FE002369460548AF
:10406000CDE9003301F01AFF08B1FFF7BBFE07B03E
:104070005DF804FBF00F0020002C014007B5036839
:10408000144A934214D1144B0C219A69192042F41A
:1040900000629A619B69002203F400630093009B15
:1040A00000F01AFA192003B05DF804EB00F048BAEA
:1040B000B3F1804F0AD103F50433DA6942F001020B
:1040C000DA61DB6903F001030193019B03B05DF842
:1040D00004FB00BF002C01400010024010B5044654
:1040E00086B01022002102A802F089F82368B3F1FB
:1040F000804F14D103F504339A6902A942F00402F7
:104100009A619B69012203F004030193019B12232E
:10411000CDE9022303230348059300F035FA06B0E6
:1041200010BD00BF0008014010B58EB01022002164
:1041300003A802F064F800241C2221460DEB0200C3
:10414000CDE9014402F05BF847234FF080411D4860
:10415000C0E900136323C0E90334802384608361D2
:1041600001F0BEFC08B1FFF73DFE4FF4805303A9F8
:104170001448039301F09FFD08B1FFF733FE114887
:1041800001F0DAFC08B1FFF72DFE002301A90D486C
:10419000CDE9013301F082FE08B1FFF723FE602272
:1041A0000A23CDE90723002207A9064809920B92AA
:1041B00001F01AFD08B1FFF715FE0248FFF78EFF68
:1041C0000EB010BD3810002008B54FF4E1330A4896
:1041D0000A4AC0E9002300230C22C0E9023303612C
:1041E000C0E90523C36101F0EFFE18B1BDE8084046
:1041F000FFF7F8BD08BD00BF801000200038014067
:1042000010B5044686B01022002102A801F0F7FF85
:104210002268174B9A4228D103F558439A6902A99C
:1042200042F480429A619A69124802F480420092F4
:10423000009A9A6942F004029A619B694FF40072F5
:1042400003F004030193019B0223CDE9022303231E
:10425000059300F099F94FF4806100230548CDE9FA
:10426000021302A9049300F08FF906B010BD00BF3D
:104270000038014000080140002103E00B4B5B586F
:10428000435004310A480B4B42189A42F6D30A4A6B
:1042900002E0002342F8043B084B9A42F9D3FFF7AF
:1042A000B5FE01F079FFFFF7EDFC704764EC000804
:1042B00000000020F4090020F4090020D4100020A0
:1042C000FEE7000000230A4A0A4913605360936026
:1042D0001361D36051619361D361074A13605360E6
:1042E00093601361D36053619361D361704700BFE2
:1042F0005C0F002000002041380F0020F8B50E6848
:104300000C4601463046FCF713FC2169A0600546C7
:10431000FCF70EFCE169FCF715FD616907462846CC
:10432000FCF710FD01463846FCF704FCE16807463F
:104330002161E5602846FCF7FDFBA169FCF702FD61
:1043400001463046FCF7F4FB20603846F8BD00001B
:10435000F8B5254C05462068FCF766F80646284661
:104360000F46FCF761F81EA3D3E90023FCF7B4F86D
:1043700002460B4630463946FBF7F8FEFCF784FB55
:1043800000212060FCF77CFE184DA8B1184E4FF4B8
:1043900080511848002200F0D7F931462068FCF718
:1043A0006FFE00B12660216813482D68FCF7C0FB42
:1043B000FCF7B4FE6863F8BD104E4FF480510D4811
:1043C000012200F0C1F931462068FCF777FE00B108
:1043D0002660094920682D68FCF7ACFBE8E700BFC0
:1043E0007B14AE47E17A743F240A00203810002085
:1043F0000000B4C2000C0140000020410000B442A3
:1044000038B50E4B054618784FF47A73B3FBF0F3CA
:104410000B4A1068B0FBF3F000F0A0F8044658B95E
:104420000F2D09D8024629464FF0FF3000F054F80E
:104430002046044B1D6038BD0120FCE73C000020F5
:104440003800002040000020074A08B51368032008
:1044500043F01003136000F02DF80020FFF7D0FFA9
:10446000FFF782FD002008BD00200240034A044BF4
:1044700011681B780B441360704700BFC010002008
:104480003C000020014B1868704700BFC01000209E
:1044900038B50446FFF7F6FF0546631C1EBF044B04
:1044A0001B78E418FFF7EEFF401BA042FAD338BD9B
:1044B0003C000020074A0002D36800F4E06023F4C7
:1044C000E0631B041B0C43F0BF6343F4003303435E
:1044D000D360704700ED00E0174B70B5DC684FF01B
:1044E000FF36C4F30224C4F10705042D04F10403CC
:1044F00028BF0425062B98BF002406FA05F388BFC1
:10450000033C21EA0303A34006FA04F422EA04046C
:10451000002843EA0403A8BF00F160404FEA0313F8
:10452000B8BF064ADBB2ABBF00F5614000F00F0038
:1045300080F80033135470BD00ED00E014ED00E08E
:10454000002808DB0123420900F01F0003FA00F0F5
:10455000014B43F82200704700E100E00138B0F160
:10456000807F0AD2F021064B064A586082F8231059
:104570000020072298601A6070470120704700BF32
:1045800010E000E000ED00E02DE9F74F00242646A2
:10459000654BDFF8A4C1DFF8A4E10A6832FA06F53A
:1045A00002D103B0BDE8F08F4FF0010808FA06F819
:1045B00002EA080290457ED14D68122D00F0A980D4
:1045C00000F28280022D00F0A18076D8002D00F04C
:1045D0008880012D00F098804FF00F09FF2A93BFCB
:1045E000824606F18045083DD0F800B092BFB50084
:1045F000D0F804B0AD0009FA05F82BEA080804FA6F
:1046000005F588BF00F1040A48EA0505CAF800501C
:10461000D1F804A01AF0805F4DD0444F26F0030873
:10462000BD6908F1804845F00105BD61BD6908F527
:10463000803805F00105019506F0030B019D4FEA56
:104640008B0BD8F8085009FA0BF925EA0909384DFF
:10465000A84263D005F58065A84261D005F5806564
:10466000A8425FD005F58065A8420CBF032504254C
:1046700005FA0BF545EA0905C8F808501D681AF453
:10468000803F14BF154395431D605D681AF4003FD9
:1046900014BF154395435D609D681AF4801F14BFD5
:1046A000154395439D60DD681AF4001F14BF2A432B
:1046B00025EA0202DA6001366FE7032D22D0112DC0
:1046C0008AD1CC68043487E71A4FBD4209D012D88A
:1046D000DFF86C904D4504D009F580394D457FF4E5
:1046E0007BAF8C68C4B1012C0CBFC0F81080C0F83F
:1046F0001480082470E76545F3D07545F1D0DFF8E4
:104700004490EBE7002467E7CC6865E7CC680834A1
:1047100062E7CC680C345FE704245DE70025A7E777
:104720000125A5E70225A3E700040140001002408F
:10473000000801400000211000003110000032107C
:1047400000001110000022100AB101617047090435
:10475000FBE7016800224B6913F4806310D06FF40B
:1047600080634B612023026380F83D3080F83E2057
:10477000036C80F83C2043F004030364012070477D
:10478000184670472DE9F0410446164698468FB208
:104790002568686937EA000017D06B695A0516D595
:1047A0002B68202243F400732B606FF480636B61ED
:1047B0000023236384F83D2084F83E30226C42F0CD
:1047C00004020120226484F83C30BDE8F081731CAF
:1047D000DFD0FFF757FEA0EB0800B04201D8002E53
:1047E000D6D100232022236384F83D2084F83E3074
:1047F000226C42F02002E4E770B504460D461646EE
:1048000023685B695B0701D5002070BD2046FFF778
:10481000A0FFA8B96A1CF3D0FFF734FE801BA842A2
:1048200001D8002DECD100232022236384F83D2001
:1048300084F83E30226C84F83C3042F0200222643E
:104840000120E2E770B504460D461646206843692C
:1048500013F0400301D0002010E04269D2060ED5CB
:104860006FF0100242612022236384F83D2084F817
:104870003E30226C0120226484F83C3070BDFFF78A
:1048800001FE801BA84201D8002DDFD10023202289
:10489000236384F83D2084F83E30226C42F02002ED
:1048A000E8E72DE9F843044690461F46089E4FEA84
:1048B00011498DB22168B9F1010F0CBF4B698B69A9
:1048C00035EA03030CBF01230023984501D00020E3
:1048D00016E07B1CEFD0FFF7D5FD801BB84201D856
:1048E000002FE7D1002320220120236384F83D20FC
:1048F00084F83E30226C84F83C3042F0200222647E
:10490000BDE8F88370B504460D46164623685B691A
:104910001B0601D5002070BD2046FFF71AFFA8B97D
:104920006A1CF3D0FFF7AEFD801BA84201D8002D12
:10493000ECD100232022236384F83D2084F83E300C
:10494000226C84F83C3042F0200222640120E2E72D
:104950002DE9FF4115460268984613680B9E43F403
:10496000807313600F460A9B009600224FF00111DE
:104970000446FFF796FF236838B11B68DB0502D5B4
:104980004FF40073236403200AE007F0FE071F6161
:104990000A9A334618492046FFF7F4FE18B1012061
:1049A00004B0BDE8F081236803905A690A99039224
:1049B0009B69324603932046039BFFF7A3FF40B158
:1049C000236C042B01BF2268136843F40073136047
:1049D000E5E7B8F1010F236802D1EDB21D61DFE711
:1049E0002A0A1A610A9932462046FFF78BFF0028EF
:1049F000E6D12368F1E700BF020001002DE9FF4185
:104A00009846036816461A680B9D42F480621A6045
:104A10001A680F4642F480721A604FF001110A9B27
:104A2000009500220446FFF73CFF236848B11B684D
:104A3000DB0502D54FF400732364032004B0BDE806
:104A4000F081FFB207F0FE021A612A492B460A9A4A
:104A50002046FFF797FE08B10120EFE72368039097
:104A60005A690A9903929B692A4603932046039B3D
:104A7000FFF748FF40B1236C042B01BF2268136885
:104A800043F400731360E7E7B8F1010F236825D101
:104A9000F6B21E612A460A992046FFF733FF024606
:104AA0000028E8D1216820460B6843F480730B602E
:104AB0000A9B00954FF00111FFF7F3FE23680028D1
:104AC000B5D147F001071F610A9A2B4609492046D4
:104AD000FFF758FE003018BF0120AFE7320A1A6115
:104AE0000A992A462046FFF70DFF0028C3D1236804
:104AF000CEE700BF0200010070B5044608B90120EE
:104B000070BD90F83D3003F0FF021BB980F83C20E7
:104B1000FEF79CFF242384F83D3023681A6822F0B6
:104B200001021A601A6842F400421A601A6822F4FC
:104B300000421A6000F0CEFC6368414A93424DD8AF
:104B4000404A9042DBD940492268B0FBF1F15568F8
:104B500025F03F050D435560156A25F03F050131ED
:104B600029431162D169364D21F44F41AB4221F006
:104B7000FF0100F1FF3048D85B00B0FBF3F0431CAD
:104B8000C3F30B03042B38BF04230B43D361116819
:104B9000D4E9073021F0C00103430B43136091684F
:104BA000D4E9030321F40341034321F0FF010B4344
:104BB0009360D168D4E9053021F0FF0103430B4332
:104BC000D3601368002043F00103136020232064A6
:104BD00084F83D30206384F83E0091E71B4A904200
:104BE0008DD9194E4FF49671B0FBF6F622687143D9
:104BF000556825F03F0535434FF47A765560156AC0
:104C0000B1FBF6F125F03F05A9E7A56855B903EB1F
:104C10004303B0FBF3F0431CC3F30B036BB143F44A
:104C20000043B2E719256B43B0FBF3F0431CC3F319
:104C30000B0313B143F44043A7E70123A5E700BFEB
:104C4000A08601007F841E0040420F00FF083D0047
:104C50002DE9F743044699460F4690460C9EFFF710
:104C600011FC94F83D300546202B03D0022003B000
:104C7000BDE8F0830090192301223B492046FFF74D
:104C800010FE0028F2D194F83C30012BEED0012325
:104C900084F83C30236820461A68D10758BF1A6848
:104CA00039465CBF42F001021A601A6822F40062C1
:104CB0001A60212384F83D30402384F83E300023DD
:104CC00023640A9BCDE900656362BDF82C3042463F
:104CD0006385638D2385254BE3624B46FFF738FEE2
:104CE00000282AD00120C2E7FFF70CFE40B1236C58
:104CF000042B01BF2268136843F400731360F1E7CB
:104D0000636A27681A4612F8011B39616262628D74
:104D1000218D013A92B262857A69481E80B25207AB
:104D200020850AD548B15A7802333A616362638DAF
:104D30000239013B9BB221856385238D2A4631468A
:104D40002046002BD0D1FFF757FD0028CFD1226895
:104D5000136843F400731360202384F83C0084F844
:104D60003D3084F83E0082E7020010000000FFFFA3
:104D70002DE9F04399460023044689B003930D467C
:104D80009046129FFFF77EFB94F83D300646202B9D
:104D900004D00225284609B0BDE8F083009019230D
:104DA00001228E492046FFF77CFD0028F1D194F8BE
:104DB0003C30012BEDD0012384F83C302368294698
:104DC0001A682046D2075EBF1A6842F001021A60D4
:104DD0001A6822F400621A60222384F83D304023CE
:104DE00084F83E3000232364109BCDE90076636293
:104DF000BDF8443042466385638D2385784BE3627A
:104E00004B46FFF7FBFD054608B10125C2E7228DA1
:104E1000236892B904905A6904929A690492049A98
:104E20001A6842F400721A60202384F83D3000238F
:104E300084F83E3084F83C30ACE7012A32D11A685D
:104E400022F480621A6072B6236805905A6905924E
:104E50009A690592059A1A6842F400721A6062B65D
:104E6000DFF88081DFF88091238D002BDCD0032BCD
:104E700000F29580012B31D1324639462046FFF7AA
:104E8000E1FC0028C1D123681A69636A1A70636A59
:104E900001336362238D013B2385638D013B9BB20C
:104EA0006385E1E7022A1A680ED142F400621A60B3
:104EB00072B6236806905A6906929A690692069A13
:104EC0001A6822F48062C9E742F480621A6007908F
:104ED0005A6907929B690793079BC1E7022B0096CB
:104EE0003B464FF000024146204618D1FFF7D9FC5F
:104EF00000288AD172B623681A6842F400721A60D8
:104F00001A69636A1A70636A01336362238D013B15
:104F10002385638D013B9BB2638562B6B3E7FFF7E0
:104F2000C0FC00287FF471AF2268136823F480630B
:104F3000136072B623681A69636A1A7046F2A8127F
:104F4000616A4B1C6362238D013B2385638D013BAA
:104F50009BB26385D9F80030B3FBF2F223235343AD
:104F60000393039B013B0393039B6BB920222363B1
:104F700084F83D2084F83E30226C42F02002226406
:104F800062B684F83C3040E723685A695007E8D598
:104F90001A6842F400721A601B694B70B3E732461C
:104FA00039462046FFF74EFC00287FF42EAF2368D9
:104FB0001A69636A1A70626A531C6362238D013B2B
:104FC0002385638D013B9BB263852368596949073B
:104FD0007FF54AAF1B69537059E700BF020010000C
:104FE0000000FFFF04000100380000202DE9F3411C
:104FF000054608B901203CE00368DB0710D42B68A4
:105000009F075DD42B68190700F194802B685A071D
:1050100000F1BE80E869002840F02C81002028E0E3
:105020008F4C636803F00C03042B07D0636803F014
:105030000C03082B09D16368DE0306D523689C03A3
:10504000DDD56B68002BDAD1D4E76B68B3F5803F10
:1050500012D1236843F480332360FFF713FA064626
:1050600023689803CBD4FFF70DFA801B6428F7D987
:10507000032002B0BDE8F0819BB9236823F480339C
:105080002360236823F480232360FFF7FBF906469F
:1050900023689903B3D5FFF7F5F9801B6428F7D986
:1050A000E6E7B3F5A02F236803D143F48023236000
:1050B000CFE723F480332360236823F48023CBE7F6
:1050C000674C636813F00C0F07D0636803F00C03A0
:1050D000082B10D16368DA030DD423689B0702D52F
:1050E0002B69012B86D123686A6923F0F80343EA10
:1050F000C203236086E72A695A4B6AB101221A600B
:10510000FFF7C0F9064623689F07ECD4FFF7BAF90A
:10511000801B0228F7D9ABE71A60FFF7B3F9064600
:10512000236898077FF56EAFFFF7ACF9801B022864
:10513000F6D99DE7AA694A4C4B4BDAB101221A60B5
:10514000FFF7A0F90646636A9B070DD54FF4FA52A4
:10515000464B1B68B3FBF2F3019300BF019B5A1E41
:105160000192002BF9D151E7FFF78CF9801B02283F
:10517000E9D97DE71A60FFF785F90646636A9F075C
:105180007FF544AFFFF77EF9801B0228F6D96FE761
:10519000334CE369D80024D40127E36943F08053FA
:1051A000E361E36903F080530093009B304E336862
:1051B000D90518D5EB68012B26D1236A43F00103EA
:1051C0002362FFF75FF941F288368046236A9B0726
:1051D0003FD5002F3FF41EAFE36923F08053E36116
:1051E00018E70027E2E7336843F480733360FFF782
:1051F00049F980463368DA05DCD4FFF743F9A0EBC0
:1052000008006428F6D933E7ABB9236A41F288383D
:1052100023F001032362236A23F004032362FFF7D0
:1052200031F90646236A9807D3D5FFF72BF9801B7F
:105230004045F7D91CE7052B236A03D143F004034B
:105240002362BAE723F001032362236A23F00403F5
:10525000B6E7FFF717F9A0EB0800B042B6D907E7A9
:105260000010024000004242800442423800002008
:10527000007000402A4B5A681C4602F00C02082AB3
:105280003DD00023274E022833602BD1FFF7FAF8D8
:105290000746236899011FD42B6AB3F5803F05D1D7
:1052A0006268A96822F400320A436260696A62682F
:1052B0000B4322F474121343636001233360FFF73E
:1052C000E1F8054623689A013FF5A8AEFFF7DAF842
:1052D000401B0228F6D9CBE6FFF7D4F8C01B022802
:1052E000D7D9C5E6FFF7CEF8054623689B017FF5C1
:1052F00095AEFFF7C7F8401B0228F6D9B8E601289B
:105300003FF4B7AE58682B6A00F480329A427FF4BB
:1053100071AE6B6A00F47010C01A18BF0120A8E6C5
:10532000001002406000424230B5184B87B002AC1A
:1053300003F11005224618685968083303C2AB42CE
:105340001446F7D140F201231149ADF804304B68FF
:1053500003F00C02082A17D1C3F3834206A80244C3
:10536000DB0312F8102C0CD54B680A48C3F34043FA
:10537000504306AA134413F8143CB0FBF3F007B0F3
:1053800030BD05485043FAE70248F8E79CC30008DF
:105390000010024000127A0000093D002DE9F041A2
:1053A0000D46044610B90120BDE8F081444A136857
:1053B00003F007038B4228D321688E0730D4CA0735
:1053C00043D43F4A136803F00703AB4265D8226811
:1053D0003C4D12F0040F6CD1130706D56B6822699F
:1053E00023F4605343EAC2036B60FFF79DFF6B68D1
:1053F000354AC3F30313D35CD840344B1860344BA5
:105400001868FEF7FDFF0020CEE7136823F00703BE
:105410000B431360136803F007038B42C3D1CBE740
:10542000284B11F0040F1EBF5A6842F4E0625A6024
:10543000080742BF5A6842F460525A605A68A0682E
:1054400022F0F00202435A60B9E762681D4E012A59
:1054500033681AD113F4003FA5D0736841F288383D
:1054600023F0030313437360FFF70CF807467368D8
:10547000626803F00C03B3EB820FA2D0FFF702F8CF
:10548000C01B4045F3D903208EE7022A02D113F056
:10549000007FE1E713F0020FDEE7136823F0070354
:1054A0002B431360136803F00703AB427FF47BAF19
:1054B0008DE76B68E16823F4E0630B436B608BE777
:1054C00000200240001002405DE900083800002082
:1054D00040000020044B054A5B68C3F30223D35C01
:1054E000034A1068D8407047001002406DE9000878
:1054F00038000020044B054A5B68C3F3C223D35C29
:10550000034A1068D8407047001002406DE9000857
:10551000380000202DE9F3411C4616460F4605468B
:10552000FEF7B0FF3444241AFEF7ACFF8046234B4D
:105530001B68C3F3CB3363432A680193936837EA4C
:10554000030301D000202EE0731CF7D0FEF79AFF72
:10555000A0EB0800A04229D32B685A6822F0E00291
:105560005A606A68B2F5827F0AD1AA68B2F5004F24
:1055700002D0B2F5806F03D11A6822F040021A609F
:10558000AA6AB2F5005F07D11A6822F400521A60C5
:105590001A6842F400521A60012385F85130002342
:1055A000032085F8503002B0BDE8F081019B002B4C
:1055B000019B08BF0024013BBEE700BF380000206C
:1055C00010B513460A4680210446FFF7A3FF20B119
:1055D0000320636D43F02003636510BD10B50446DE
:1055E000002851D0436A002B4AD14268B2F5827F2D
:1055F00000D0C3610023A36294F8513003F0FF028E
:1056000023B984F850202046FEF77EFC022322684E
:1056100084F851301368A06823F040031360636876
:1056200000F4044003F482730343E068A16900F4CA
:1056300000600343206900F002000343606900F04A
:105640000100034301F400700343E069090C00F01A
:1056500038000343206A01F0040100F08000034396
:10566000A06A00F40050034313605160D369002026
:1056700023F40063D3610123606584F8513010BDC9
:105680000023C0E90433B5E70120F8E72DE9F34131
:105690001E4690F850300446012B0D46904600F00F
:1056A0009E80012380F85030FEF7ECFE074694F808
:1056B0005100C0B2012840F09080002D60D0B8F1B8
:1056C000000F5DD00323002084F85130A36860658B
:1056D000B3F5004FA4F83680A063A087E087C4E943
:1056E00010002563A4F83480206807D1036823F0F4
:1056F00040030360036843F4804303600368E26887
:105700005B065EBF036843F040030360B2F5006FC1
:1057100063683ED113B1B8F1010F07D135F8023BF0
:10572000C3602563E38E013B9BB2E386E38E9BB2AD
:10573000A3B93A4631462046FFF742FF002849D137
:10574000A36833B901932368DA6801929B680193D7
:10575000019B606D003018BF012011E02268936842
:10576000980705D5236B33F8021BD1602363D9E773
:10577000FEF788FEC01BB042D8D3711CD6D00320E0
:10578000012384F85130002384F8503002B0BDE882
:10579000F08113B1B8F1010F08D12B780373236B9B
:1057A00001332363E38E013B9BB2E386E38E9BB21E
:1057B000002BBED023689A68920703D5226B12781B
:1057C0001A73ECE7FEF75EFEC01BB042EED3731C0B
:1057D000ECD0D4E720236365B2E70220D0E70220B3
:1057E000D4E70000036A70B523F001030362036A83
:1057F000446882690D6822F073022A438D6823F0A1
:1058000002032B430A4DA8420BD1CD6823F00803B5
:105810002B4324F44074D1E90556354323F00403A7
:105820002C43446082614A684263036270BD00BFDA
:10583000002C0140036A70B523F480730362036A8D
:105840004468C2690D6822F073022A438D6823F40C
:10585000007343EA05230B4DA8420DD1CD6823F414
:10586000006343EA052324F44054D1E90556354347
:1058700023F4806344EA05144460C2614A68C26349
:10588000036270BD002C0140036A30B523F48053DD
:105890000362036A4468C2690D6822F4E64242EA80
:1058A00005228D6823F4005343EA0533064DA842D0
:1058B00002BF4D6924F4804444EA85144460C26107
:1058C0004A680264036230BD002C014090F83D300C
:1058D000012B20D1022380F83D300368DA6842F0C2
:1058E0000102DA600D4A93420AD0B3F1804F07D02B
:1058F000A2F59432934203D002F58062934204D120
:105900009A6802F00702062A03D01A6842F00102E0
:105910001A60002070470120704700BF002C014032
:1059200070477047704770477047036810B51A6931
:10593000044691070ED5DA6892070BD56FF0020284
:105940001A6101229B6902779B0777D0FFF7EAFF74
:105950000023237723681A69500710D5DA685107A6
:105960000DD56FF004021A6102229B69227713F4AD
:10597000407F204668D0FFF7D5FF002323772368B8
:105980001A6912070FD5DA6810070CD56FF00802F4
:105990001A610422DB692277990720465AD0FFF763
:1059A000C1FF0023237723681A69D20610D5DA686D
:1059B000D0060DD56FF010021A610822DB6922773C
:1059C00013F4407F20464BD0FFF7ACFF0023237732
:1059D00023681A69D10708D5DA68D20705D56FF0B0
:1059E000010220461A61FEF78FF823681A69100633
:1059F00008D5DA68110605D56FF0800220461A61D5
:105A000000F07FFA23681A69520608D5DA68500652
:105A100005D56FF0400220461A61FFF785FF236825
:105A20001A69910622D5DA6892061FD56FF0200216
:105A30002046BDE810401A6100F062BAFFF771FF1E
:105A40002046FFF770FF83E7FFF76BFF2046FFF765
:105A50006AFF92E7FFF765FF2046FFF764FFA0E7C4
:105A6000FFF75FFF2046FFF75EFFAFE710BD0000C6
:105A70001A4A036890420AD0B0F1804F07D0A2F5CD
:105A80009432904203D002F58062904215D14A6868
:105A900023F070031343114A90420AD0B0F1804FB3
:105AA00007D0A2F59432904203D002F58062904272
:105AB00003D1CA6823F4407313434A6923F0800377
:105AC000134303608B68C3620B688362034B984285
:105AD00004BF0B690363012343617047002C01403D
