:020000040800F2
:10000000500500209D010008B70F0008050E0008EC
:10001000B50F0008A9020008BD120008000000008A
:10002000000000000000000000000000BB0F0008FE
:10003000AB02000800000000B90F0008BD0F000867
:10004000B7010008B7010008B7010008B7010008B0
:10005000B7010008B7010008B7010008B7010008A0
:10006000B7010008B7010008B7010008B701000890
:10007000B7010008B7010008B7010008B701000880
:10008000B7010008B7010008B7010008B701000870
:10009000B7010008B7010008B7010008B701000860
:1000A000B7010008B7010008B7010008B701000850
:1000B000B7010008B7010008B7010008B701000840
:1000C000B7010008B7010008B7010008B701000830
:1000D000B7010008B7010008B7010008B701000820
:1000E000B7010008B7010008B7010008B701000810
:1000F000B7010008B7010008B7010008B701000800
:10010000B7010008B7010008B7010008B7010008EF
:10011000B7010008B7010008B7010008B7010008DF
:10012000B7010008B7010008B7010008B7010008CF
:10013000B7010008B7010008B7010008B7010008BF
:10014000B7010008B7010008B7010008B7010008AF
:10015000B7010008B7010008B7010008B70100089F
:10016000B7010008B7010008B7010008B70100088F
:10017000B7010008B7010008B7010008000000003F
:10018000B7010008B7010008DFF80CD000F07AF8DA
:1001900000480047FD12000850050020064880472F
:1001A00006480047FEE7FEE7FEE7FEE7FEE7FEE75C
:1001B000FEE7FEE7FEE7FEE74510000889010008BC
:1001C0002DE9F05F0546002092469B46884606468C
:1001D000814640241BE0284641464746224600F01F
:1001E00041F853465A46C01A914110D31146184659
:1001F000224600F028F82D1A67EB01084F462246E8
:100200000120002100F01FF817EB00094E41201ECD
:10021000A4F10104DFDC484631462A464346BDE8E6
:10022000F09FD2B201E000F8012B491EFBD27047CB
:100230000022F6E710B513460A4604461946FFF7B2
:10024000F0FF204610BD202A04DB203A00FA02F11C
:10025000002070479140C2F1200320FA03F31943B4
:1002600090407047202A04DB203A21FA02F0002156
:10027000704721FA02F3D040C2F1200291400843B6
:1002800019467047064C074D06E0E06840F0010350
:1002900094E8070098471034AC42F6D3FFF778FF94
:1002A0003813000858130008FEE770477047000035
:1002B0002DE9F84F00224FF0010803254FF00F0EF3
:1002C0000B6808FA02F42340A3426ED14E68012E57
:1002D00005D0022E03D0112E01D0122E12D1866825
:1002E0004FEA420C05FA0CF7BE43CF6807FA0CF749
:1002F000374387604668A6430C79C4F300149440E2
:1003000034434460C668570005FA07FC8C6826EA47
:100310000C06BC403443C4604C68022C01D0122C43
:1003200013D1D40800EB8404A346D4F820905407DA
:100330004FEAD46A0EFA0AF629EA06090E6906FAA5
:100340000AF646EA0906CBF8206006680C7926EA28
:100350000C0604F00304BC40344304604C68E40021
:1003600065D5364C266846F480462660246822F01F
:10037000030604F480440094314C3444A446D4F879
:1003800008489607370F0EFA07F6B4432D4EB042D1
:1003900001D1002624E02C4EB04201D101261FE0FD
:1003A0002A4EB04202D102261AE040E0284EB04266
:1003B00001D1032614E0274EB04201D104260FE0FC
:1003C000254EB04201D105260AE0244EB04201D1AB
:1003D000062605E0224EB04201D1072600E008269D
:1003E000BE402643CCF808681E4E34684F689C43D4
:1003F000FF0300D51C4334601A4C241D26684F6847
:100400009E43BF0300D51E432660164E083634684F
:100410004F689C43FF0200D51C433460114E0C36DC
:1004200034684F689C43BF0200D51C433460521CA3
:10043000102AFFF445AFBDE8F88F000044380240B1
:100440000030014000000240000402400008024069
:10045000000C02400010024000140240001802404C
:10046000001C0240003C01400148806870470000C9
:1004700000000020024881680278114481607047C2
:10048000000000200B4810B5016841F400710160C4
:10049000016841F480610160016841F4807101608C
:1004A000032000F061F8002000F006F800F024F8C6
:1004B000002010BD003C024070B50D4D04464FF4C5
:1004C0007A712878B1FBF0F00A490968B1FBF0F0C5
:1004D00000F0F6FA48B9102C07D200222146501E2F
:1004E00000F022F800206C6070BD012070BD00009B
:1004F000000000200C0000200A4808B5016841F403
:1005000080410160006800F4804000900548001FB1
:10051000016841F080510160006800F08050009057
:1005200008BD000044380240F0B40E4B1B680C4676
:10053000C3F30223C3F10705042D00D90425191DB7
:10054000072901D2002300E0DB1E012606FA05F18F
:10055000491E214099409E40761E16403143F0BC12
:1005600000F0ADBE0CED00E0064900F0070208689F
:100570004FF6FF03184040EA0220034A1043086088
:10058000704700000CED00E00000FA052DE9F0478F
:100590000E46050065D0DFF81481D8F80000F7B2E8
:1005A00000F00F00B04207D288F80070D8F80000C1
:1005B00000F00F00B04254D128683D4C810712D59D
:1005C000400703D5206840F4E050206028780007F9
:1005D00003D5206840F4604020602068A96820F0BE
:1005E000F000084320602878C0072DD030496868A3
:1005F0000839012812D0022813D0032811D0096825
:10060000890700292DDA216821F0030101432160C7
:10061000FFF72AFF814641F2883A0EE00968890314
:10062000EFE709688901ECE7FFF71EFFA0EB09017E
:10063000514502D90320BDE8F0872068696800F0C1
:100640000C00B0EB810FEFD1D8F80010404601F05C
:100650000F01B14207D90770006800F00F00B042E7
:1006600001D00120E7E72878400705D52068E96830
:1006700020F4E050084320602878000706D5206861
:10068000296920F4604040EAC100206000F038F899
:100690002168084AC1F30311515CC840064908604B
:1006A00006480068FFF708FF0020C4E7003C02404E
:1006B000083802401E1300080C000020040000202F
:1006C0000448054900680968044AC1F38221515C65
:1006D000C84070470C000020083802402E13000864
:1006E0000448054900680968044AC1F34231515C75
:1006F000C84070470C000020083802402E13000844
:10070000154810B5006810F00C02144813D01449B5
:10071000042A0FD0082A0ED10F4C241F2268236808
:1007200002F03F025B0207D52068C0F38810A0FBEF
:10073000010106E0084610BD2168C1F38811A1FB44
:1007400000010023FFF73CFD2168C1F30141491C72
:100750004900B0FBF1F010BD083802400024F4005D
:1007600040787D012DE9F84F04006ED02078DFF845
:100770003C93C007A9F104054AD009F104000168BF
:10078000C1F38101012908D00068C0F3810002286B
:100790000AD1D9F80000400206D52868800337D571
:1007A00060680028E1D033E06068B0F5803F10D089
:1007B000B0F5A02F286810D020F480302860286879
:1007C00020F4802028606068A8B1FFF74DFE06463F
:1007D0000DE0286840F48030F4E740F48020286081
:1007E000F7E700BFFFF740FE801B642873D8286836
:1007F0008003F7D50CE0FFF737FE064605E000BFA3
:10080000FFF732FE801B6428F0D828688003F7D4F5
:100810002078DFF89C8280074FF0000A3ED5A3487D
:10082000001D016811F00C0F08D00068C0F38100B2
:1008300002280BD1D9F80000400207D428688007AD
:1008400016D5E068012800D112E02BE1E068B8B1CC
:100850000120C8F80000FFF707FE064605E000BFCC
:10086000FFF702FE801B0228C0D828688007F7D552
:100870002868216920F0F80040EAC10028600DE0F6
:10088000C8F800A0FFF7F0FD064604E0FFF7ECFD16
:10089000801B02281FD828688007F7D4207800071B
:1008A00022D5824E83486169703671B101210160A1
:1008B000FFF7DAFD074604E0FFF7D6FDC01B02286C
:1008C00009D830688007F7D50EE0C0F800A0FFF720
:1008D000CBFD074605E082E0FFF7C6FDC01B0228FE
:1008E0007DD830688007F7D42078400768D5DFF8D6
:1008F000BCB100270BF13C0BDBF80000C0000BD4AF
:10090000DBF8001041F08051CBF80010DBF800005C
:10091000012700F080500090674E3068C00510D469
:10092000306840F480703060FFF79EFD009005E075
:10093000FFF79AFD0099401A022850D83068C00588
:10094000F6D55A4EA0686C3601280FD005283068BD
:1009500010D020F001003060306820F004003060DA
:10096000A068B8B1FFF780FD00900FE0306840F05C
:100970000100F4E740F004003060F7E7FFF774FD92
:100980000099411A41F28830814266D83068800768
:10099000F4D50EE0FFF768FD009007E0FFF764FD77
:1009A0000099411A41F28830814256D83068800758
:1009B000F4D42FB1DBF8001021F08051CBF80010F7
:1009C000A069C8B33949091D0968C1F38101022929
:1009D0004AD00228504607D0C8F8600000E03CE04A
:1009E000FFF742FD04463BE04746C8F86000FFF7CA
:1009F0003BFD064605E000BFFFF736FD801B0228E1
:100A00002BD828688001F7D4D4E907010843A16AEC
:100A10002A4A490802EB0141626A41EA821108430D
:100A200094F82C1040EA0161C9F8001001203866E2
:100A3000FFF71AFD044606E036E000BFFFF714FD9D
:100A4000001B022809D828688001F7D52CE000BFD8
:100A5000FFF70AFD001B022802D90320BDE8F88F2A
:100A600028688001F4D41FE00128F7D0D9F80000ED
:100A7000E26900F48001914214D1226A00F03F0142
:100A800091420FD147F6C071626A0140914209D18B
:100A9000A26A00F44031914204D1E16A00F0706032
:100AA000884201D00120D9E70020D7E7043802406E
:100AB00000004742800E4742007000400000FFFFE8
:100AC00010B5401EB0F1807F01D3012010BD4FF062
:100AD000E02460610F21601700F0F1FB0020A061AD
:100AE00007202061002010BD70B590F83C20012A3D
:100AF00032D0012480F83C40022280F83D20036877
:100B00005A689D6822F070060A6832435A60134B97
:100B100002689A4214D0B2F1804F11D0104B9A4221
:100B20000ED0104B9A420BD00F4B9A4208D00F4B6D
:100B30009A4205D00E4B9A4202D00E4B9A4204D1F3
:100B4000496825F080031943916080F83D400021F9
:100B500080F83C10084670BD022070BD00000140C6
:100B60000004004000080040000C00400004014068
:100B7000004001400018004010B5040003D094F874
:100B80003D0010B107E0012010BD002084F83C00BA
:100B9000204600F00DF8022084F83D00211D206859
:100BA00000F05EFA012084F83D00002010BD000036
:100BB00008B500680949884201D1094804E0B0F14C
:100BC000804F09D10648001F016841F00101016012
:100BD000006800F00100009008BD00000000014026
:100BE0004438024070B5044690F83C00012817D004
:100BF000012584F83C50022084F83D00206882687A
:100C000022F0770222F47F4282600868502830D0B8
:100C10000DDC20284DD005DC98B310283BD148E0EE
:100C2000022070BD302844D0402834D139E06028FB
:100C300028D0702806D0B0F5805F2CD0B0F5005FCA
:100C400029D10AE0CB68D1E90121206800F06CFAD3
:100C50002068816841F0770109E0CB68D1E9012182
:100C6000206800F061FA2068816841F48041816069
:100C700011E0CA684968206800F068FA50212068CD
:100C800007E016E0CA684968206800F070FA602141
:100C9000206800F053FA84F83D50002084F83C00AE
:100CA00070BDCA684968206800F050FA4021206889
:100CB000EFE7226801461046EBE770B5040004D068
:100CC00094F83900002510B106E0012070BD84F8C9
:100CD0003850204600F022F8242084F8390020689B
:100CE000C16821F40051C160204600F053FA206829
:100CF000016921F4904101612068416921F02A01D4
:100D000041612068C16841F40051C160E563202061
:100D100084F8390084F83A00002070BDF0B587B03F
:100D2000044614216846FFF783FA304B27680022F7
:100D30002F490224032507262E489F4219D12C4B08
:100D400014331F6847F010071F601B6803F010037F
:100D500005930B6843F001030B60096802AB01F0D7
:100D6000010105916902CDE9001483E86400694638
:100D70001AE01F4BDFF880C01033674518D11F6899
:100D800047F400371F601B6803F4003305930B68BA
:100D900043F001030B60096801F0010105910C218A
:100DA000CDE9001469461CE0FFF782FA07B0F0BDF8
:100DB00012488742FAD1186840F4802018601868F9
:100DC00000F480200590086840F002000860086880
:100DD000694600F0020005904FF44060CDE9000440
:100DE000074802AF87E86400DEE70000001001401A
:100DF00030380240000002400044004000480040FB
:100E000000040240FEE700000D4808B5016841F00B
:100E100080010160016801F080010091016841F0EA
:100E200001010160016801F001010091016841F0D8
:100E300002010160006800F00200009008BD00009F
:100E40003038024010B586B0002417480094019451
:100E500002940394049413490594C0E900144FF6D6
:100E6000FF71C0E90241046144618461FFF784FEBF
:100E700008B1FFF71BFA4FF48050009069460A480A
:100E8000FFF7B0FE08B1FFF711FA049404A9064871
:100E90000594FFF729FE002801D0FFF707FA06B0F6
:100EA00010BD0000000001401000002010B586B009
:100EB00000241548009401940294039404944FF084
:100EC00080410594C0E90014611EC0E9024104613B
:100ED0008461FFF751FE08B1FFF7E8F94FF4805045
:100EE000009069460848FFF77DFE08B1FFF7DEF97C
:100EF000049404A904480594FFF7F6FD002801D0E6
:100F0000FFF7D4F906B010BD500000200C4810B512
:100F10000A4901604FF4E1314160002181600C22F7
:100F2000C160C0E904128161C161FFF7C6FE0028FB
:100F300003D0BDE81040FFF7B9B910BD0010014063
:100F4000900000200C4810B50A4901604FF4E131CF
:100F50004160002181600C22C160C0E904128161FE
:100F6000C161FFF7AAFE002803D0BDE81040FFF7DB
:100F70009DB910BD00440040D00000200C4810B5C1
:100F80000A4901604FF4E1314160002181600C2287
:100F9000C160C0E904128161C161FFF78EFE0028C3
:100FA00003D0BDE81040FFF781B910BD00480040F4
:100FB00010010020FEE7704770477047FFF75ABAEC
:100FC00030B593B030216846FFF732F914210CA8F0
:100FD000FFF72EF919480025016841F080510160A2
:100FE000006800F0805011901548016841F480417C
:100FF00001600068022400F48040119001200390F9
:1010000010200490009406940820CDE90750A820F1
:10101000CDE9090404200B906846FFF7A3FB0CA957
:101020000F2081E831004FF4A0500F90E0021090A3
:1010300005210CA8FFF7AAFA13B030BD40380240D2
:10104000007000400548016841F4700101600349E7
:101050004FF00060803908607047000088ED00E0C4
:10106000F0B50268254C264D264E274F274B4FF0F2
:10107000804CA04209D0604507D0A84205D0B042BC
:1010800003D0B84201D0984204D122F0700E4A68D1
:1010900042EA0E02A0421BD0604519D0A84217D0E8
:1010A000B04215D0B84213D0984211D0184DA84282
:1010B0000ED0184DA8420BD0174DA84208D0174D9E
:1010C000A84205D0164DA84202D0164DA84203D121
:1010D00022F44075CA682A434D6922F080022A43EF
:1010E00002608A68C2620A688262A04201D09842A5
:1010F00001D10969016301214161F0BD0000014096
:101100000004004000080040000C004000040140C2
:1011100000400140004401400048014000180040E8
:10112000001C00400020004010B5846842EA032201
:1011300024F47F440A432243826010BD826822F077
:1011400070020A4342F007018160704710B5036ADC
:10115000046A24F001040462846924F0F00444EA7F
:10116000021423F00A020A438461026210BD10B522
:10117000036A23F0100303628369046A23F4704353
:1011800043EA023224F0A00343EA011182610162C2
:1011900010BD00002DE9F041044600680169E268D5
:1011A00021F44051114301612169A068E2690843BB
:1011B0006169114308432168CA6849F20C639A4384
:1011C0000243CA6020684169A26921F44071114359
:1011D0004161E069192764253226B0F5004F354A90
:1011E000354920684FF0000806D0884201D090426F
:1011F00036D1FFF775FA35E0884201D0904202D12E
:10120000FFF76EFA01E0FFF75BFA61684A18A0FB8E
:10121000070148EB0803FEF7D3FF0146B0FBF5F0EA
:101220000201B1FBF5F06FF01803584301EB8000A9
:1012300006EBC000B0FBF5F000F0F80002EB400256
:10124000B1FBF5F0584301EB800006EBC000B0FBAA
:10125000F5F000F00700216810448860BDE8F081D7
:10126000FFF72EFA61688B0F8A00A0FB0701FEF7DB
:10127000A7FF0146B0FBF5F06FF01802504301EBF9
:10128000800006EB0010B0FBF5F000F0F002B1FBBF
:10129000F5F002EB0012B1FBF5F06FF018035843C4
:1012A00001EB800006EB0010B0FBF5F000F00F0042
:1012B000D1E700000014014000100140FEE70907DB
:1012C000090E002804DB00F1E02080F800147047CC
:1012D00000F00F0000F1E02080F8141D704702E0DC
:1012E00008C8121F08C1002AFAD1704770470020B1
:1012F00001E001C1121F002AFBD17047FFF7C2F8BD
:10130000FFF75EFEFFF780FDFFF79CFDFFF7CEFDC8
:10131000FFF7FCFDFFF716FEFFF730FEFEE70000CB
:101320000000000000000102030406070809000095
:101330000000010203040000581300080000002010
:1013400010000000DE1200086813000810000020E2
:1013500040050000EE12000801000000100000002F
:08136000000000000024F4006D
:040000050800018965
:00000001FF
