:020000040800F2
:10000000A8060020010100080B2B0008F1230008BE
:10001000092B00083F0A0008DD2F0008000000003F
:100020000000000000000000000000000F2B00088E
:10003000410A0008000000000D2B0008112B0008E9
:100040001B0100081B0100081B0100081B01000820
:100050001B0100081B0100081B0100081B01000810
:100060001B0100081B0100081B0100081B01000800
:100070001B0100081B0100081B0100081B010008F0
:100080001B0100081B0100081B0100081B010008E0
:100090001B0100081B0100081B0100081B010008D0
:1000A0001B010008652B00081B0100081B0100084C
:1000B0001B0100081B0100081B0100081B010008B0
:1000C0001B0100081B0100081B0100081B010008A0
:1000D0001B0100081B010008D12F00081B010008AC
:1000E0001B0100081B0100081B010008DFF80CD0F1
:1000F00000F042FC0048004775470008A8060020B1
:100100000648804706480047FEE7FEE7FEE7FEE7B1
:10011000FEE7FEE7FEE7FEE7FEE7FEE7632B0008EB
:10012000ED000008202A04DB203A21FA02F0002129
:10013000704721FA02F3D040C2F1200291400843F7
:1001400019467047D2B201E000F8012B491EFBD2DC
:1001500070470022F6E710B513460A4604461946D2
:10016000FFF7F0FF204610BDF0B480EA0102D40F83
:100170004200B2EB410F02D20246084611464A0045
:1001800042D0C30DDDB2C1F3C752AD1A202D35DA0E
:10019000C1F3160141F4000204B15242C5F1200638
:1001A00002FA06F12A411044B3EBD05F23D0C4B168
:1001B000012DA0EBC35009DCF0BC4FF0004202EA75
:1001C000C352DBB200F5000000F004BB400000F1B8
:1001D000807000EBC350A0F1807040EAD1704900FC
:1001E00009E0490841EAC071A0EBC35000F50000E6
:1001F000400800EBC350F0BC00F0E3BA61420122BA
:1002000002EB4101001BF6E7F0BC704781F00041B2
:10021000AAE780F00040A7E780EA010210B502F0EB
:100220000043400022D04A001FD0010E01EB1261B2
:10023000C0F35600C2F3560240F4000042F400023C
:10024000A0FB022000047F39140400D0401C50EAB7
:10025000124001D44000491EC2B20C0604EBD0107B
:10026000401C4008802A02D003E0002010BD20F08E
:100270000100002900DA0020184310BD420005D01B
:10028000C0F3C7525242914201DC0020704700EB9C
:10029000C15070472DE9FE4F804681EA0300C00F30
:1002A0000C46009021F0004123F00045B8EB02001D
:1002B000A94105D24046214690461C460B460246BF
:1002C00023F00040104347D0270DC7F30A00C3F3C3
:1002D0000A510290401A019040286BDAC3F31300D0
:1002E00040F4801B0098924620B10023D2EB030A11
:1002F00063EB0B0B01985946C0F14002504600F0E9
:100300003FFA06460D4650465946019A00F047FA14
:1003100010EB08006141002487EA115284EAE77378
:100320001A4340D0009A62B3019A012A4FEA075259
:1003300015DC001B61EB02014FF0004202EA07529C
:10034000CDE90042001C41F5801132462B4600F0F9
:100350007EFA03B0BDE8F08F40462146F9E7001B66
:1003600061EB0201001C41F5801300185B4120186D
:10037000A2F5001747EB030140EAD570B6196D41AD
:1003800011E06D084FEA360645EAC0754FEA07529C
:10039000001B61EB0201001C41F5801149084FEA86
:1003A00030000019514132462B4603B0BDE8F04FF2
:1003B00000F03EBA0098012240000023D0EB020278
:1003C00063EBE073009821464FEAE074B8EB00005D
:1003D00061EB0401E9E783F000435BE781F0004152
:1003E00058E72DE9FE4F81EA030404F0004421F0B0
:1003F000004100944FF0000B23F0004350EA010449
:100400005ED052EA03045BD0C3F30A54C1F30A5529
:100410002C44A4F2F3340194A0FB0254C1F3130161
:1004200041F48011C3F3130343F4801301FB02442E
:1004300000FB034E840A970A44EA815447EA835733
:10044000A4FB076802958D0A05FB07854FEA932CEC
:1004500004FB0C542705029D4FEA065847EA16375D
:10046000B5EB08056EEB070C870E920E47EA811775
:1004700042EA8312A7FB0201B6EB0B0164EB000416
:100480002B0D43EA0C335E1844EB1C50DA46514600
:10049000E7FB0201C5F313044FEA0B3343EA14539D
:1004A0004FEA0432019C43EA0603A4F10C040294CF
:1004B000009CCDE900B400F0CAF903B0BDE8F08FAC
:1004C00000200146F9E72DE9F04D81EA030404F02C
:1004D000004B21F0004514464FF0000A23F0004184
:1004E00050EA050220D054EA01021DD0C5F30A5794
:1004F0000246C5F31303C1F31300C1F30A5640F4D7
:10050000801543F48013A7EB0608101BD64608F2AB
:10051000FD3873EB050002D308F1010801E09218E1
:100520005B41B8F1000F03DA00200146BDE8F08D11
:1005300000204FF48011064684460EE0171B73EB33
:10054000050705D3121B63EB050306434CEA010CB8
:1005500049084FEA300092185B4150EA0107EDD19B
:1005600052EA030012D082EA040083EA050108433C
:1005700005D0101BAB4106D20122002306E0002269
:100580004FF0004302E06FF0010253101AEB060037
:100590004CEB085110EB0A0041EB0B01BDE8F04DAC
:1005A00000F046B9C10F80EAE0700844CA079623FC
:1005B000002100F00FB90EB5C10F80EAE0700844C9
:1005C000CA07002140F233438DE80E000A460B466D
:1005D00000F03DF903B000BD0EB540F23341029189
:1005E0000021CDE900110A460B4600F030F903B0B6
:1005F00000BD00F0004220F00040C10DC0F3160025
:1006000040F400007F2901DA00207047962903DCBE
:10061000C1F19601C84001E096398840002AF4D023
:100620004042704770B5C1F30A5201F00045002402
:10063000C1F3130140F2FF3341F480119A4201DA11
:10064000002070BD40F233439A42A2F2334203DCF1
:100650005242FFF767FD00E090402C43F1D040424A
:1006600070BDC1F30A5210B5C1F3130140F2FF335C
:1006700041F480119A4201DA002010BD40F2334368
:100680009A42A2F2334203DC5242FFF74BFD10BD07
:10069000904010BD00F0004230F000400AD0C10D83
:1006A00001F56071C0F3160042EA0151C20840072B
:1006B0001143704700200146704701F0004330B4F9
:1006C00021F0004150EA010206D00A0DA2F5607245
:1006D000C1F31301002A02DC30BC00207047440F34
:1006E00044EAC104C100E01830BC00EBC25000F085
:1006F00068B830B50B46014600202022012409E0ED
:1007000021FA02F59D4205D303FA02F5491B04FACA
:1007100002F52844151EA2F10102F1DC30BD2DE9DD
:10072000F05F0546002092469B4688460646814675
:1007300040241BE02846414647462246FFF7F2FC8C
:1007400053465A46C01A914110D3114618462246C4
:1007500000F016F82D1A67EB01084F4622460120DB
:10076000002100F00DF817EB00094E41201EA4F106
:100770000104DFDC484631462A464346BDE8F09F87
:10078000202A04DB203A00FA02F100207047914051
:10079000C2F1200320FA03F3194390407047202A46
:1007A00006DBCB17203A41FA02F043EAE07306E099
:1007B00041FA02F3D040C2F12002914008431946A9
:1007C00070470029A8BF7047401C490008BF20F0AF
:1007D0000100704710B4B0FA80FC00FA0CF050EA47
:1007E000010404BF10BC704749B1CCF1200421FAC8
:1007F00004F411FA0CF118BF012121430843A3EBC3
:100800000C01CB1D4FEA00614FEA102042BF0020CF
:1008100010BC704700EBC35010440029A4BF10BCAB
:100820007047401C490008BF20F0010010BC704711
:1008300010B5141E73F1000408DA401C41F10001E8
:1008400092185B411A4301D120F0010010BD2DE93F
:10085000F04D92469B4611B1B1FA81F202E0B0FA36
:1008600080F220329046FFF78BFF04460F4640EAA5
:100870000A0041EA0B0153465A46084313D0114679
:1008800053EA010019D0C8F140025046FFF74AFC74
:1008900005460E46504659464246FFF771FF08434B
:1008A00005D0012004E020463946BDE8F08D002047
:1008B000054346EAE0762C4337430A986305E40A89
:1008C000A0EB08000022FD0A44EA47540A3002D592
:1008D00000200146E9E7010510196941DDE90845F5
:1008E00000196941BDE8F04DA2E770B521F0004361
:1008F00003430CD0C1F30A550024D5EB040564EB87
:100900000403D617AD1AB34102DB0020014670BDC7
:10091000201841EB025170BDC1F30A52C1F313011B
:1009200040F2FF3341F480119A4202DA002001467E
:10093000704740F233439A42A2F2334202DC524201
:10094000FFF7F0BBFFF71CBF30B5041E71F10004C8
:1009500004DB4FF00044404264EB0101141E73F1CC
:10096000000405DB1C464FF00043524263EB0403D6
:10097000994208BF904230BD064C074D06E0E06842
:1009800040F0010394E8070098471034AC42F6D3D6
:10099000FFF7B0FB30510008505100082DE9F04D31
:1009A00000231A461B1A8A4103DB00200146BDE8DA
:1009B000F08DC1F30A52C1F3130141F480154FF0D9
:1009C000000BD10702D100186D41521E00270446CA
:1009D00040F2FF11384601EB620A3E46804602466D
:1009E00000204FF48011FFF79DFBC2197141BB1825
:1009F00046EB0100B4EB030C75EB000C04D3E41AD6
:100A000065EB000517460E46241908F101006D41FB
:100A100080463428E3DDF91946EB0600091BA8419E
:100A200003D24FF0FF32134601E0002213461BEBC6
:100A3000070046EB0A51BDE8F04DFFF7F9BEFEE7AF
:100A40007047704710B590F821100024022903D098
:100A50000421816301243DE001680A6822F00E024E
:100A60000A6001680A6822F001020A601A4A0168F5
:100A7000914201D1012121E0174A1432914201D162
:100A800010211BE0144A2832914201D1891515E04A
:100A9000114A3C32914201D189140FE00E4A503282
:100AA000914202D14FF4803108E00B4A6432914206
:100AB00002D14FF4801101E04FF08071064A083AEC
:100AC0005160012180F82110002180F82010416B35
:100AD00001B18847204610BD0800024070B50446A9
:100AE00000F0FEF80546601C02D00448007804447B
:100AF00000F0F6F8401BA042FAD370BD640000205D
:100B00002DE9F84FDFF8B891002409F1040A0AF141
:100B1000040B23460F270BF1040EC9E00125A54065
:100B20002A40AA427DD1674ED1F804C0ACEB06083A
:100B3000B44532D014DCBCF1030F3AD009DCBCF16F
:100B4000000F2AD0BCF1010F1CD0BCF1020F31D133
:100B50001DE0BCF1110F17D0BCF1120F2AD119E022
:100B6000B8F5881F19D006DCB8F5803F15D0B8F568
:100B7000801F1FD111E0B8F5001F0ED0B8F5041F7B
:100B800018D10AE0CB6815E0CB681B1D12E0CB68DA
:100B900008330FE0CB680C330CE08B682BB1012BD2
:100BA0004FF0080303D0456104E0042302E005612F
:100BB00000E00023FF2A01D8064601E000F1040608
:100BC0004FEA840501D9A5F12005D6F8008007FA7F
:100BD00005FC28EA0C0803FA05F548EA0508C6F8FA
:100BE00000804D68ED0062D5374DAE6946F00106D4
:100BF000AE61AD6924F0030605F001050095334DA3
:100C000006EB050CDCF80850A607360F07FA06F8C5
:100C100025EA0805DFF8B880404503D14FF0000809
:100C200017E044E0DFF8AC80404502D14FF0010806
:100C30000FE0DFF8A480404502D14FF0020808E041
:100C4000DFF89880404502D14FF0030801E04FF0F3
:100C5000040808FA06F848EA0508CCF808804D6848
:100C6000D9F80060ED034D4601D5164300E09643E8
:100C70002E604D68DAF80060AD03554601D5164385
:100C800000E096432E604D68DBF80060ED025D46A3
:100C900001D5164300E096432E604D68DEF80060F3
:100CA000AD02754601D5164300E096432E60641CE4
:100CB0000D682A46E5407FF431AFBDE8F88F0000AB
:100CC000000401400000111000100240000001402B
:100CD00000080140000C01400010014000140140D8
:100CE00001488068704700006400002070B504006F
:100CF00025D094F83D00002520B984F83C502046CA
:100D000000F078FA242084F83D002068016821F082
:100D1000010101602068016841F400410160206820
:100D2000016821F40041016000F0E6FB4D4A616872
:100D3000914201D84C4900E04C49884201D201203F
:100D400070BD4B492368B0FBF1F15E6826F03F06A9
:100D50000E435E606368934206D94FF4967359431D
:100D60004FF47A73B1FBF3F12368491C1E6A26F035
:100D70003F06314319626168914210D84900401E14
:100D8000B0FBF1F2521CC2F30B02042A01D2042080
:100D900022E0B0FBF1F0401CC0F30B001CE0A268A5
:100DA000F2B301EBC10303EB0116431EB3FBF6F3F1
:100DB0005B1C43F480431B0549D092B301EBC10295
:100DC00002EB0111401EB0FBF1F0401CC0F30B0020
:100DD00040F4804040F400402168CA694CF6FF733B
:100DE0009A431043C861D4E90710014320680268A0
:100DF00022F0C00211430160D4E9030101432068DD
:100E0000826848F2FF339A4311438160D4E90501B7
:100E100008432168CA6822F0FF021043C86001E05D
:100E20000EE016E02068016841F0010101602564D0
:100E3000202084F83D00256384F83E50002070BDDA
:100E400001EB4106431EB3FBF6F35B1CB3E7012045
:100E5000C2E701EB4101401EB0FBF1F0401CC0F3C2
:100E60000B00B7E7A086010080841E0000093D004A
:100E700040420F002DE9FF4F83B00025DDE91079D6
:100E80009A4693460446DDF848800095FFF728FF10
:100E9000064694F83D0020287CD11923012285497B
:100EA0002046009601F0B4FB0028F5D194F83C00F0
:100EB00001286FD0012084F83C0020680168C90730
:100EC00003D1016841F0010101602068016821F44B
:100ED00000610160222084F83D00402084F83E003B
:100EE00025646762A4F82A90608D20857248E062CC
:100EF000CDE9008653465A462046049901F090FAFF
:100F000000287DD1208DDFF8B491202768B1012819
:100F100014D00228206801681ED041F4806101606D
:100F20002068416980690090B6E020684169816964
:100F30000091016841F400710160ADE02068016832
:100F400021F48061016072B6206841698169009175
:100F5000016841F400710AE041F40061016072B679
:100F60002068416981690091016821F48061016014
:100F700062B691E0032868D801280CD002284346C5
:100F80004FF000024946204600960FD001F040FB8A
:100F9000B0BB10E08BE032464146204601F0B7FB83
:100FA00070BB20680069616A08706CE001F030FB7A
:100FB00030BB72B634E02068016821F480610160C2
:100FC00072B620680069616A0870606A401C6062DD
:100FD000208D401E2085608D401E6085384846F279
:100FE000A8110068B0FBF1F0C0EBC00000EB80007E
:100FF0000090401E009008D020684069C04300E087
:1010000029E040070CD50098F3E744F8305F677398
:10101000A573206940F02000206162B625731AE0B4
:101020002068016841F40071016020680069616A0C
:101030000870606A401C6062218D491E2185618DA7
:10104000491E618562B621681BE032464146204652
:1010500001F05DFB18B1012007B0BDE8F08F2068FA
:101060000069616A0870606A401C6062218D491ED7
:101070002185618D491E618521684A69D2435207E5
:101080000AD409690170606A401C6062208D401EAC
:101090002085608D401E6085208D00287FF46AAF1A
:1010A00084F83D7084F83E5084F83C50D4E7022028
:1010B000D2E70000020010000000FFFF0400010062
:1010C000700000202DE9FF4F83B09A46DDE91197AB
:1010D00093460446DDF84080FFF702FE054694F88B
:1010E0003D0020287FD11923012240492046009548
:1010F00001F08EFA002876D194F83C00012872D0D5
:10110000012084F83C0020680168C90703D1016808
:1011100041F0010101602068016821F40061016073
:10112000212084F83D00402084F83E0000262664FB
:10113000C4F82480A4F82A90608D20852C48E062B1
:10114000CDE9007553465A462046049901F0E6F968
:1011500070B930E02A463946204601F00BFB58B101
:10116000206C042804D12068016841F400710160FA
:10117000012007B0BDE8F08F606A2168007808613F
:10118000606A401C6062218D491E89B22185628D92
:10119000521E628522685369DB435B070BD469B139
:1011A00000781061606A401C6062208D401E2085BE
:1011B000608D401E6085208D0028CBD12A4639469F
:1011C000204601F0FFF90028CAD154F83D0B016810
:1011D00041F400710160202004F81E09E67766776B
:1011E0000020C6E7FFE70220C3E70000020010006E
:1011F0000000FFFF30B585B0002100910191029100
:101200000391214D0368214C122103222048AB4257
:101210001DD1A36943F00803A361A369039203F0FE
:10122000080304931302CDE900316946FFF768FC17
:101230001848416841F0E06141F002014160E06915
:1012400040F40010E061E06900F4001019E0124D74
:10125000AB4217D1A36943F00803A361A3690392CA
:1012600003F0080304934FF44063CDE9003169466D
:10127000FFF746FCE06940F48000E061E06900F4BB
:101280008000049005B030BD0054004000100240C2
:10129000000C0140000001400058004002488168F5
:1012A000027811448160704764000020074810B53F
:1012B000016841F010010160032000F075F8002082
:1012C00000F006F800F024F8002010BD00200240D5
:1012D00070B50D4D04464FF47A712878B1FBF0F0EB
:1012E0000A490968B1FBF0F000F0ECFA48B9102C9B
:1012F00007D200222146501E00F036F800206C6014
:1013000070BD012070BD000064000020700000204E
:101310000C4808B5816941F001018161816901F0E2
:1013200001010091C16941F08051C161C06900F0C3
:10133000805000900448416821F0E06141F08061F4
:10134000416008BD0010024000000140002809DB98
:1013500000F01F02012191404009800000F1E020CF
:10136000C0F8001170470000F0B40E4B1B680C462B
:10137000C3F30223C3F10705042D00D90425191D69
:10138000072901D2002300E0DB1E012606FA05F141
:10139000491E214099409E40761E16403143F0BCC4
:1013A00001F040BE0CED00E0064900F007020868BD
:1013B0004FF6FF03184040EA0220034A104308603A
:1013C000704700000CED00E00000FA052DE9F04741
:1013D0000F46050061D0434E306800F00700B84268
:1013E00009D2306820F0070038433060306800F0E0
:1013F0000700B84251D128683B4C810712D54007FD
:1014000003D5606840F4E06060602878000703D589
:10141000606840F4605060606068A96820F0F00087
:10142000084360602878C00728D06868012810D079
:101430002168022810D0890700292EDA616821F07E
:10144000030101436160FFF74BFC804641F288399C
:101450000DE021688903EFE78901EDE7FFF740FC24
:10146000A0EB0801494502D90320BDE8F087606878
:10147000696800F00C00B0EB810FEFD1306800F02C
:101480000700B8420BD9306820F0070038433060BD
:10149000306800F00700B84201D00120E5E7287865
:1014A000400705D56068E96820F4E06008436060A3
:1014B0002878000706D56068296920F4605040EA62
:1014C000C100606000F038F86168084AC1F3031198
:1014D000515CC8400649086006480068FFF7F8FEFE
:1014E0000020C2E70020024000100240014F000827
:1014F0007000002068000020044805490068496821
:10150000044AC1F30221515CC840704770000020BA
:1015100000100240114F000804480549006849685E
:10152000044AC1F3C221515CC840704770000020DA
:1015300000100240114F000812A185B00FC98DE8BC
:101540000F0014A0144A006804905168134801F079
:101550000C03042B10D0082B0ED1C1F38343C90315
:101560001DF803000AD5516804AAC1F34041515C3B
:101570000A4A5043B0FBF1F005B0704708494843B0
:10158000FAE7000002030405060708090A0B0C0D20
:101590000E0F1010010200000010024000127A002D
:1015A00000093D002DE9F84F040070D02078C04DAF
:1015B000C00749D06868C0F38100012807D0686877
:1015C000C0F38100022809D16868C00306D52868E5
:1015D000800339D560680028E7D035E06068B0F551
:1015E000803F0BD010B1B0F5A02F11D0286820F4A7
:1015F00080302860286820F4802002E0286840F4C9
:1016000080302860606890B1FFF76AFB06460AE008
:10161000286840F480202860F0E700BFFFF760FBF7
:10162000801B642873D828688003F7D50CE0FFF787
:1016300057FB064605E000BFFFF752FB801B6428FE
:10164000F0D828688003F7D420789A4E80074FF0AE
:1016500001094FF0000839D5686810F00C0F07D069
:101660006868C0F38100022809D16868C00306D405
:101670002868800714D52069012808D110E0206966
:10168000B0B1C6F80090FFF72BFB074605E00AE172
:10169000FFF726FBC01B0228C4D828688007F7D5AF
:1016A0002868616920F0F80040EAC10028600DE078
:1016B000C6F80080FFF714FB074604E0FFF710FBB5
:1016C000C01B022823D828688007F7D42078000799
:1016D0002CD57948A169D9B1C0F80090FFF700FB7B
:1016E000074604E0FFF7FCFAC01B02280FD8686A1F
:1016F0008007F7D571484FF4FA510068B0FBF1F05C
:10170000009000BF0098411E0091FAD20EE080E0E8
:10171000C0F80080FFF7E4FA074604E0FFF7E0FABC
:10172000C01B022875D8686A8007F7D42078400764
:1017300060D5E8690027C00008D4E86940F080500F
:10174000E861E869012700F0805000905C4801687A
:10175000C90513D40168834641F480710160FFF725
:10176000BFFA824606E000BFFFF7BAFAA0EB0A0014
:1017700064284ED8DBF80000C005F5D5E0680128E4
:101780000AD008B1052813D0286A20F00100286289
:10179000286A20F0040002E0286A40F00100286274
:1017A000E06841F2883B98B1FFF79AFA82460BE075
:1017B000286A40F004002862EEE700BFFFF790FAC5
:1017C000A0EB0A0159455AD8286A8007F6D50CE0E3
:1017D000FFF786FA824605E0FFF782FAA0EB0A01DE
:1017E00059454CD8286A8007F6D41FB1E86920F023
:1017F0008050E861E06988B36968C1F3810102291A
:1018000044D00228C6F8608004D0FFF769FA044685
:1018100038E034E0FFF764FA074604E0FFF760FAC7
:10182000C01B02282BD828688001F7D4206AB0F5A5
:10183000803F05D16868A16820F4003008436860E3
:10184000D4E908010843696821F474110843686009
:10185000C6F86090FFF744FA044606E025E000BFB2
:10186000FFF73EFA001B022809D828688001F7D547
:101870001BE000BFFFF734FA001B022802D9032047
:10188000BDE8F88F28688001F4D40EE00128F7D075
:101890006868226A00F48031914204D1616A00F4E0
:1018A0007010884201D00120EAE70020E8E700003C
:1018B00000100240000042428004424270000020BA
:1018C0000070004010B5401EB0F1807F01D30120B0
:1018D00010BD4FF0E02460610F21601701F0A2FB02
:1018E0000020A06107202061002010BD70477047D4
:1018F00070B590F83C20012A26D0012480F83C40A5
:10190000022280F83D2003685A689D6822F0700624
:101910000A6832435A600D4B02689A4208D0B2F10D
:10192000804F05D00A4B9A4202D00A4B9A4204D10A
:10193000496825F080031943916080F83D400021FB
:1019400080F83C10084670BD022070BD002C01409C
:10195000000400400008004010B5040003D094F8D3
:101960003D0010B107E0012010BD002084F83C00CC
:10197000204600F01FF8022084F83D00211D206859
:1019800001F0F6F8012084F8460084F83E0084F85F
:101990003F0084F8400084F8410084F8420084F855
:1019A000430084F8440084F8450084F83D0000209A
:1019B00010BD000008B5114A01681148914211D1CB
:1019C000816941F4006181618069002200F4006056
:1019D000009011461920FFF7C7FCBDE80840192008
:1019E000FFF7B4BCB1F1804F07D1C16941F00101EB
:1019F000C161C06900F00100009008BD002C0140E9
:101A00000010024070B5044690F83C00012817D041
:101A1000012584F83C50022084F83D00206882684B
:101A200022F0770222F47F4282600868502830D08A
:101A30000DDC20284DD005DC98B310283BD148E0C0
:101A4000022070BD302844D0402834D139E06028CD
:101A500028D0702806D0B0F5805F2CD0B0F5005F9C
:101A600029D10AE0CB68D1E90121206801F0C3F84F
:101A70002068816841F0770109E0CB68D1E9012154
:101A8000206801F0B8F82068816841F480418160E5
:101A900011E0CA684968206801F062F950212068A5
:101AA00007E016E0CA684968206801F06AF9602119
:101AB000206801F0AAF884F83D50002084F83C002A
:101AC00070BDCA684968206801F04AF94021206861
:101AD000EFE7226801461046EBE7704770B5044611
:101AE000006801694FF00005C943890715D4C16832
:101AF000C943890711D4E91E0161012020772068BC
:101B000080698007204602D0FFF7E7FF04E000F07D
:101B1000E3F8204600F00FF9257720680169C943F2
:101B2000490717D4C168C943490713D46FF00401AA
:101B30000161022020772068806910F4407F2046F0
:101B400002D0FFF7CAFF04E000F0C6F8204600F01C
:101B5000F2F8257720680169C943090716D4C168DE
:101B6000C943090712D46FF00801016104202077EE
:101B70002068C0698007204602D0FFF7AEFF04E06E
:101B800000F0AAF8204600F0D6F825772068016911
:101B9000C943C90617D4C168C943C90613D46FF035
:101BA00010010161082020772068C06910F4407F8F
:101BB000204602D0FFF791FF04E000F08DF82046A8
:101BC00000F0B9F8257720680169C943C90708D131
:101BD000C168C943C90704D1891E0161204600F0CC
:101BE000F9F820680169C943090609D4C168C943E5
:101BF000090605D46FF0800101612046FFF776FEEB
:101C000020680169C943490609D4C168C943490626
:101C100005D46FF040010161204600F039FA2068D8
:101C20000169C94389060BD4C168C943890607D431
:101C30006FF0200101612046BDE87040FFF757BEFC
:101C400070BD000000B585B00021009101910291A6
:101C500003910068B0F1804F11D10A48816941F0C9
:101C6000040181618069694600F00400049003204A
:101C700000900220019003900348FEF741FF05B059
:101C800000BD0000001002400008014010B50446ED
:101C900090F83C0001280AD0012084F83C0042B1B1
:101CA000042A0AD0082A0CD00C2A11D10DE00220F7
:101CB00010BD206800F0B2FF0AE0206800F0D6FFF7
:101CC00006E0206800F0FEFF02E0206801F026F840
:101CD000002084F83C0010BD704710B5040003D00C
:101CE00094F83D0010B107E0012010BD002084F8F9
:101CF0003C00204600F01EF8022084F83D00211D23
:101D0000206800F035FF012084F8460084F83E008A
:101D100084F83F0084F8400084F8410084F84200D1
:101D200084F8430084F8440084F8450084F83D00BA
:101D3000002010BD7047704710B50446022249B11B
:101D400004290ED0082913D094F84100012816D098
:101D5000012010BD94F83E000128F9D184F83E20FE
:101D60000FE094F83F000128F2D184F83F2008E00A
:101D700094F840000128EBD184F8402001E084F879
:101D800041200122206800F029FF0F492068884285
:101D900003D1426C42F4004242642068884208D079
:101DA000B0F1804F05D00949884202D008498842E5
:101DB00004D1816801F00701062903D0016841F0D0
:101DC00001010160002010BD002C01400004004012
:101DD000000800402DE9F05F9F49006809688842CB
:101DE0007ED19E489E4B01460278D1E908019D4F65
:101DF0009D4C9E4EDFF878824FF0C045012A70D08E
:101E0000DFF858C2022A6BD10022E246FEF75BFBE4
:101E1000AB462A46B9463B46FEF7E3FA02F0ACFB76
:101E2000002225462346FEF7DCFA0022914BFEF7FE
:101E3000D5FA04460F46DAE908010022884BFEF77E
:101E400042FB5A464B46FEF7CCFA02F07FFF0022D7
:101E50002B46FEF7C6FA22463B46FEF734FB02F05D
:101E6000BBF900227E4BFEF72EFB0022824BFEF7D1
:101E7000B8FA0022814BFEF70DFAFEF7D3FB804C37
:101E80006083217F401A45B2A5772846FEF793FB71
:101E90008B460746B2463246C1464346FEF7A1FA94
:101EA00006468846606AFEF786FB32464346FEF7E2
:101EB000F1F9FEF7B7FB0646606294F91800281A9C
:101EC000FEF779FB52464B46FEF7FDFAFEF7AAFBFA
:101ED000A062FEF770FBD4E90423FEF782FA01E06A
:101EE00028E029E081468A463046FEF764FBD4E9C3
:101EF0000223FEF776FAD4E9002380460E463846E0
:101F00005946FEF76EFA42463346FEF7C3F94A4693
:101F10005346FEF7BFF906465A480F460088FEF7BB
:101F20005BFB32463B46FEF7B5F900BFFEF799FB77
:101F300020842576BDE8F09F00229946FEF7C3FA7B
:101F4000AB462A46BA463B46FEF74BFA02F014FB74
:101F500000222346FEF745FA0022464BFEF73EFAE2
:101F60000F463E4905460022D1E908014B46FEF7DF
:101F7000AAFA5A465346FEF734FA02F0E7FE002268
:101F80002346FEF72EFA2A463B46FEF79CFA02F05D
:101F900023F900224B46FEF796FA0022364BFEF755
:101FA00020FA0022354BFEF775F9FEF73BFB364C65
:101FB0006083217F401A45B2A5772846FEF7FBFAD9
:101FC0008B460746B2463246C1464346FEF709FAFB
:101FD00006468846606AFEF7EEFA32464346FEF74A
:101FE00059F9FEF71FFB0646606294F91800281A9B
:101FF000FEF7E1FA52464B46FEF765FAFEF712FB92
:10200000A062FEF7D8FAD4E90423FEF7EAF9814684
:102010008A463046FEF7CFFAD4E90223FEF7E1F90B
:10202000D4E900230646884638465946FEF7D9F9D2
:1020300032464346FEF72EF94A465346FEF72AF942
:10204000064612480F460088FEF7C6FA32463B465F
:10205000FEF7C1F96AE7000098010020380000206F
:1020600000806640FB210940000059407B14AE47C8
:10207000E17A943F00C05C4000409F4000407F40B8
:10208000C0000020620000209000002060000020BE
:102090007047704770B5026804461068D16853698C
:1020A00010F00F0F52D003F0010501F490762E438B
:1020B0005FD0C20705D0CA0503D5E26B42F001022A
:1020C000E263420705D5DA0703D0E26B42F0020271
:1020D000E263820705D5DA0703D0E26B42F004021F
:1020E000E263020707D501F020022A4303D0E26B26
:1020F00042F00802E263E26B002A33D0800604D586
:10210000880602D5204600F08FFE20684069E16B0A
:10211000C0F38010090700D428B3204600F076FEF3
:102120002068416949061AD5416921F040014161A1
:10213000606BA0B12D494163606BFEF783FC002802
:1021400010D0606B416BBDE870400847830610D526
:102150008B060ED52046BDE8704000F065BE2046D7
:10216000FFF797FF70BD2046FFF793FF0020E06365
:1021700070BD03062BD50B0629D594F8390021280C
:10218000F6D1A068B0F5805F01D12069B0B1206AB6
:10219000411C2162216800784860E08C401E0004E8
:1021A000000CE084E4D12068C16821F08001C160A6
:1021B0002068C16841F04001C16070BD206A00889C
:1021C000C0F308005060206A801C2062E5E74006EA
:1021D000F3D54806F1D5D168204621F04001D16001
:1021E000202184F8391000F002F970BDFD2D00089F
:1021F00070B5040004D094F83900002510B106E051
:10220000012070BD84F83850204600F023F82420C7
:1022100084F839002068C16821F40051C16020466B
:1022200000F048FE2068016921F4904101612068B6
:10223000416921F02A0141612068C16841F40051DF
:10224000C160E563202084F8390084F83A0000205A
:1022500070BD000030B585B0002400940194029454
:1022600003942F4D03682F4802210322AB4229D14A
:10227000836943F480438361836903F48043049357
:10228000836943F0080383618069274D00F00800EB
:1022900004904020CDE90001039269462846FEF7EC
:1022A0002FFC8020CDE90004694628460294FEF701
:1022B00027FC1E48416841F0E06141F004014160A3
:1022C00005B030BD1A4DAB42FAD1C36943F40033B7
:1022D000C361C36903F400330493836943F00403C7
:1022E00083618069134D00F0040004900420CDE95F
:1022F0000001039269462846FEF702FC0820CDE95A
:102300000004694628460294FEF7FAFB00221146B3
:102310002620FFF729F82620FFF718F8D0E700005D
:102320000038014000100240000C01400000014054
:102330000044004000080140704700002DE9F843C8
:10234000044690F839001F4616460D4620284CD109
:10235000C5B1BEB194F83800012846D0012084F8F8
:1023600038004FF00008C4F83C80212084F8390080
:10237000FEF7B6FCA6848146E684A068B0F5805FCF
:1023800003D004E00120BDE8F883206928B12E467F
:102390005FF0000584F838800EE00026FAE780211F
:1023A000204600F0E3FDA0B9AEB116F8010B21689C
:1023B0004860E08C401EE084E08C4B464FF0000209
:1023C00000970028EBD14FF04001204600F0CEFDF1
:1023D00030B10320D7E735F8020BC0F30800E6E779
:1023E000202084F839000020CDE70220CBE7704799
:1023F000FEE701684A69D24352050FD46FF4806248
:102400004A61002140F8301F202242738173026923
:1024100042F00402026101730120704700207047FE
:102420002DE9F84F0446006889460B9D01689846DF
:10243000174641F4806101602068016841F48071B1
:10244000016000954FF0011B0022594620460A9B6F
:1024500000F0DEF84FF4007A40B120680068C00553
:1024600001D5C4F840A00320BDE8F88F216809F029
:10247000FE0008612B46284920460A9A00F0FCF825
:10248000F0BB20684169806900902A4620460A997D
:1024900000F070F940B1206C04283AD1206801683E
:1024A00041F40071016034E0FEB2B8F1010F09D0CF
:1024B0002168380A08612A4620460A9900F05AF92C
:1024C0000028E8D1206806612A4620460A9900F0D3
:1024D00051F90028DFD12068016841F48071016062
:1024E00000950022594620460A9B00F091F80028EA
:1024F000B3D1216809F0FF0040F00100086100E05D
:1025000007E02B46044920460A9A00F0B5F8002857
:10251000AAD00120A8E70000020001002DE9F8433D
:10252000044600680D46DDE908970168984616469E
:1025300041F4807101604B4600224FF001112046AA
:10254000009700F065F848B120680068C00502D522
:102550004FF4007020640320BDE8F883216805F083
:10256000FE0008613B464A461549204600F084F8C3
:1025700088B920684169806900903A4649462046FA
:1025800000F0F8F848B1206C042804D120680168F4
:1025900041F4007101600120DEE7F5B2B8F1010FEE
:1025A00009D02168300A08613A464946204600F0C1
:1025B000E1F80028E7D1206805610020CCE70000A1
:1025C0000200010070B516460D4604460DE0204697
:1025D000FFF70FFF08B1012070BD681C05D0FEF7A2
:1025E0007FFB801BA84207D835B120684069C043F3
:1025F0004007ECD4002070BD002044F8300F2021AB
:102600006173A073216941F0200121612073E2E729
:102610002DE9F0471E4690460D460446C1F3074794
:10262000DDF8209008E0701C06D0FEF759FBA0EB07
:102630000900B0420FD876B12068012F18D0806908
:1026400025EA00000004000C14D000214145EAD026
:102650000020BDE8F087002044F8300F202161738E
:10266000A073216941F02001216120730120F0E76E
:102670004069E5E70121E9E72DE9F0479A469146EF
:102680000E46044600254FF02008C1F3074725E019
:1026900020684069C043400514D42068016841F4B3
:1026A0000071016021686FF480604861256384F8DF
:1026B0003D8084F83E50206C40F00400206484F893
:1026C0003C501FE0B9F1FF3F08D0FEF709FBA0EB3B
:1026D0000A0149450CD8B9F1000F09D02068012F33
:1026E00013D0806926EA00000004000C0BD0CFE76D
:1026F00044F8305F84F80D80A573206940F0200015
:10270000206125730120BDE8F0874069EAE72DE9E3
:10271000F041002590460E460446202717E0406908
:10272000C043C0060CD454F8301B6FF01000486151
:1027300044F810596777A577206A2062257717E05B
:10274000FEF7CEFAA0EB0800B04208D83EB12068F0
:102750004169C9434906E2D40020BDE8F08144F84C
:10276000305F6773A573206940F0200020612573F6
:102770000120F2E770B516460D4604460DE02046EE
:10278000FFF737FE08B1012070BD681C05D0FEF7C9
:10279000A7FA801BA84207D835B120684069C0431A
:1027A0000006ECD4002070BD002044F8300F20213A
:1027B0006173A073216941F0200121612073E2E778
:1027C0007CB514460D4606466B4606223B21682022
:1027D00000F04EF800280BD1BDF8001049BA318046
:1027E000BDF8021049BA2980BDF8041049BA218009
:1027F0007CBD7CB514460D4606466B460622432139
:10280000682000F035F800280BD1BDF8001049BA57
:102810003180BDF8021049BA2980BDF8041049BAC8
:1028200021807CBD08B56B4602224121682000F062
:102830001FF8BDF8000040BA00B2FDF7BCFE002250
:10284000074BFDF740FE074A074BFDF723FDFDF759
:1028500034FF0649FDF7E0FCFDF7CBFE00B208BDF2
:1028600000407540A4703D0AD74342400000C84272
:102870003EB54000CDE900320A464FF47A74014675
:10288000029401230248FEF7F5FA00203EBD000045
:10289000F00000203EB54000CDE900320A464FF47A
:1028A0007A740146029401230248FEF70BFC0020D3
:1028B0003EBD0000F0000020114808B5816941F0DC
:1028C00010018161816901F010010091816941F07D
:1028D00020018161816901F020010091816941F04D
:1028E00004018161816901F004010091816941F075
:1028F00008018161806900F00800009008BD0000B7
:10290000001002400D4810B50B4901600C494160B0
:1029100000214FF480428160C0E90312416181616E
:10292000C1610162FEF7E2F9002803D0BDE8104062
:10293000FEF787B810BD000000540040F0000020F2
:10294000A08601000D4810B50B4901600C4941609B
:1029500000214FF480428160C0E90312416181612E
:10296000C1610162FEF7C2F9002803D0BDE8104042
:10297000FEF767B810BD0000005800404401002079
:10298000A086010010B586B0002418480094019478
:102990000294039404941449059401604721C0E90A
:1029A000011444F61F61C0E903148021C0E9054108
:1029B000FEF7D2FF08B1FEF744F84FF480500090C4
:1029C00069460A48FFF71EF808B1FEF73AF8049482
:1029D00004A906480594FEF78BFF002801D0FEF7F6
:1029E00030F806B010BD0000002C01409801002016
:1029F00010B58EB000240794089409940A940B949F
:102A00001C2168460C94FDF7A4FB22484FF080413E
:102A100001604721C0E9011444F61F61C0E90314B5
:102A200080218161FEF798FF08B1FEF70AF84FF4A4
:102A30008050079007A91748FEF7E4FF08B1FEF79A
:102A400000F81448FFF749F908B1FDF7FAFF0B94B5
:102A50000BA910480C94FEF74BFF08B1FDF7F1FFEE
:102A6000009401940294002269460A480494FFF7F6
:102A70000DF908B1FDF7E5FF042269460548FFF7A7
:102A800005F908B1FDF7DDFF0248FFF7DBF80EB0EE
:102A900010BD0000E00100200C4810B50A4901609B
:102AA0004FF4E1314160002181600C22C160C0E936
:102AB00004128161C161FFF79BFB002803D0BDE8D0
:102AC0001040FDF7BEBF10BD0038014028020020B5
:102AD0000C4810B50A4901604FF4E1314160002112
:102AE00081600C22C160C0E904128161C161FFF7FD
:102AF0007FFB002803D0BDE81040FDF7A2BF10BD4A
:102B00000044004068020020FEE7704770477047AD
:102B1000FEF7C4BB30B58FB028216846FDF719FB1E
:102B200014210AA8FDF715FB01210804CDE90010C6
:102B30000024029402250491CDE907504FF4E010DF
:102B400009906846FEF72EFD0F20CDE90A056802C0
:102B5000CDE90C4002210AA80E94FEF737FC0FB015
:102B600030BD70470148FEF7B9BF00009801002052
:102B7000F0B50268164B174C174D4FF0804798423E
:102B800005D0B84203D0A04201D0A84203D122F020
:102B900070064A683243984205D0B84203D0A0423A
:102BA00001D0A84203D122F44074CA6822434C6980
:102BB00022F08002224302608A68C2620A6882624E
:102BC000984201D10969016301214161F0BD000012
:102BD000002C0140000400400008004010B501F046
:102BE0001F030121046A99408C430462016A9A40E0
:102BF0001143016210BD10B5846842EA032224F437
:102C00007F440A432243826010BD826822F0700232
:102C10000A4342F0070181607047000030B5026A44
:102C200022F001020262026A4368846924F073059B
:102C30000C682C4322F002058A682A430A4DA842F8
:102C40000BD122F00805CA6823F440732A434D696A
:102C500022F004021D438B692B4343608461496861
:102C60004163026230BD0000002C014030B5026AB1
:102C700022F010020262026A436884690D6824F43B
:102C8000E64444EA05248D6822F0200242EA051257
:102C90000B4DA8420ED1CD6822F0800242EA051207
:102CA0004D6923F4406343EA85038D6922F04002B5
:102CB00043EA85034360846149688163026230BDF1
:102CC000002C014030B5026A22F480720262036A6D
:102CD0004268C46923F4007324F073050C682C4324
:102CE0008D6843EA05230C4DA8420ED1CD6823F42C
:102CF000006343EA05234D6922F4405242EA05127B
:102D00008D6923F4806342EA05124260C461496818
:102D1000C163036230BD0000002C014030B5026A7F
:102D200022F480520262046A4268C3690D6823F487
:102D3000E64343EA05238D6824F4005444EA05344D
:102D4000064DA84204D14D6922F4804242EA851220
:102D50004260C36149680164046230BD002C0140D7
:102D600010B5036A046A24F001040462846924F043
:102D7000F00444EA021423F00A020A438461026266
:102D800010BD10B5036A23F0100303628369046A5F
:102D900023F4704343EA023224F0A00343EA011112
:102DA0008261016210BD000030B5022820D11148B7
:102DB000114D4FF4FA740368012907D0022917D185
:102DC00040F2DC5082420DD302460EE040F6C410C1
:102DD000824201D3024602E0A24200D822465A6350
:102DE0002A8004E0A24200D822469A636A8000202A
:102DF00030BD0000E00100206000002010B5406AF6
:102E00000021C185C184FFF744F910BD0168CA687B
:102E100022F49072CA6001684A6922F001024A6194
:102E2000202180F83A10704710B590F83A10222906
:102E300001D0022010BD82684FF480539A4201D124
:102E4000016921B1816A9A421BD04AB10AE0026845
:102E5000816A5268C2F308020A80816A891C08E00C
:102E6000026972B10268526802F07F020A70816AD8
:102E7000491C8162C18D491E0904090CC18503D01A
:102E800016E002685268F1E70168CA6822F0200281
:102E9000CA600168CA6822F48072CA6001684A691F
:102EA00022F001024A61202180F83A10FFF744FA2B
:102EB000002010BD70B5044600680169E26821F485
:102EC0004051114301612169A068084361690843C9
:102ED0002168CA6841F20C639A430243CA602068C1
:102EE0004169A26921F44071114341611E49206882
:102EF000884202D1FEF710FB01E0FEF7FDFA00EB7D
:102F0000C00101EB0012606864218000B2FBF0F3A5
:102F1000B3FBF1F36FF018067343B2FBF0F5B2FBAD
:102F2000F0F605EB8305322303EB0515B5FBF1F550
:102F3000B6FBF1F605F0F00505EB0615B2FBF0F671
:102F4000B2FBF0F0B0FBF1F06FF01802504306EB6B
:102F5000800003EB0010B0FBF1F0216800F00F00DF
:102F60002844886070BD0000003801402DE9F04120
:102F7000984617460E460446069D1DE0681C1BD069
:102F80002DB1FDF7ADFEA0EB0800A84214D92068D2
:102F9000C16821F4D071C1602068416921F001014C
:102FA0004161202084F8390084F83A00002084F838
:102FB00038000320BDE8F0812068006836EA000090
:102FC00004D00020B842D9D00020F3E70120F9E76F
:102FD0000148FFF75FB8000068020020FEE700002C
:102FE0000FB4024610B504A9034B039800F024FC6B
:102FF00010BC5DF814FB000059470008490050EA76
:10300000C12018BF04204A0D18BF40F0010040F253
:10301000FF72B2EB515F08BF40F00200012808BF09
:10302000052070470907090E002804DB00F1E020A5
:1030300080F80014704700F00F0000F1E02080F8E5
:10304000141D70472DE9F74F144694B00021C4E9D0
:1030500002111599079121F00045C9498D4206DCFE
:103060001599C4E9000117B00020BDE8F08FC549EB
:10307000DFF814A3A9423CDD0799C44E0029C44FD0
:10308000C44A1599534619DDFDF7A5F9554506D0F3
:10309000C14AC24BFDF79FF9C4E900010AE04FF0B5
:1030A000D352BE4BFDF797F932463B46FDF793F9F5
:1030B000C4E9000117B00120BDE8F08FFDF7EAF880
:1030C000554506D0B44AB54BFDF7E4F8C4E9000114
:1030D0000AE04FF0D352B14BFDF7DCF832463B46E5
:1030E000FDF7D8F8C4E9000117B04FF0FF30BDE894
:1030F000F08FAB49A942159978DB21F00041834656
:103100008846A84AA84BFDF76CF90022A74BFDF7AB
:10311000C1F8FDF787FA0990FDF74DFA06460F460C
:103120009C4A5346FDF75DF943465A46FDF756F96A
:1031300080468A46984A994B30463946FDF751F900
:103140002A0D01250B9242465346FDF747F9032D00
:10315000C4E9000139D00B98C1F30A51401A05EBBC
:1031600045111139814230DA9148C346784400EB69
:103170000510CDF80CA00C90D0E90023304639465C
:10318000FDF72FF902460B46049106905846039925
:10319000FDF721F980468A4602460B4658460399B8
:1031A000FDF719F9049B069AFDF715F983460C986B
:1031B00003913946D0E902233046FDF712F95A4609
:1031C000039BFDF708F96D1CBDE707980028A2BF17
:1031D000099817B0BDE8F08F616881F00041616027
:1031E000099817B04042BDE8F08FFFE78446159874
:1031F000C1F31301C0F30A50A0F2F5304FEA601892
:1032000000F01F06C6F120001390002006900790E2
:1032100041F4801E05206D4676B1664A08EB000138
:103220007A4452F8213002EB8101B3404A68139985
:1032300022FA01F1194305E05F4908EB00027944E5
:1032400051F82210A1FB0E27A1FB0C131A449A423D
:1032500034BF0123002303EB070A05EB8003D3E906
:1032600001B70F448F4234BF0121002193448B44A6
:1032700011B1934502D903E0934501D2012100E049
:103280000021C3E901B7514445F82010011EA0F107
:103290000100C1DC0298059F00F10050800F1290E0
:1032A0000298DDE903568000FDF785F9834628463C
:1032B0000D91FDF791F96FF01D02FDF716FBCDE9B9
:1032C0000E013046FDF788F96FF03D02FDF70DFB6A
:1032D00080468A463846FDF77FF96FF05D02FDF7BC
:1032E00004FB0746424653461191FCF7D3FFDDE944
:1032F0000E23FCF7CFFF5A460D9BFCF7CBFF0025B2
:103300000E465A4628460D9BFDF765F8DDE90E236B
:10331000FDF761F842465346FDF75DF83A46119BCA
:10332000FDF75CF8DFF898A0244A5346FDF759F8FA
:1033300007468846234A244B31462846FDF751F874
:103340003A464346FCF7A6FF074688464FF0A84298
:10335000534631462846FDF744F83A464346FCF7C3
:1033600099FF159A12F0004F04D0129A81F0004193
:1033700052421292C4E90001129817B0BDE8F08FD2
:10338000FB21E93F7CD90240FB21F93F7370032EFA
:103390008A19A33B000040543163621A61B4D03DE6
:1033A000FB21394183C8C96D305FE43F0000E03F35
:1033B000D01E00004C1E00002E1E0000182D44548C
:1033C000FB21F93D3326A611460B113C2DE9FF4D9B
:1033D00021F0004807460C46B8F1795F08DAFDF79E
:1033E00021F9002801BF0020324904B0BDE8F08D6A
:1033F0003A46234610461946FCF7F3FF05460246B7
:103400002D480E460B460621784400F05DF82A460A
:103410003346FCF7E6FFDDE9022382468B46384659
:103420002146FCF7DEFF04460F4652465B4628461F
:103430003146FCF7D6FF22463B46FCF7CCFF074659
:103440008A464FF0FF3228463146FDF74EFA1B4AB6
:1034500090450ADA3A465346FCF7BDFF04B0002215
:10346000BDE8F04D134BFCF7B9BF154A4245A8BF64
:10347000A8F500154FF00004B8BF124D22462B46A8
:10348000FCF7A9FF0646884622462B46002009493C
:10349000FCF7A1FF04460D463A46534630464146E6
:1034A000FCF799FF04B022462B46BDE8F04DFCF72F
:1034B00095BF00000000F03FFC1B00003333D33FFA
:1034C0000000E93F0000D23F2DE9F0414F1E00EB24
:1034D000C7010446D1E9000115461E4637F0060231
:1034E0000DD02A463346FCF77CFF7F1E04EBC70352
:1034F000D3E90023FCF7CEFE37F00602F1D1022F0C
:1035000025D0042F13D0062F18BFBDE8F0812A461E
:103510003346FCF766FFD4E90A23FCF7BBFE2A46D4
:103520003346FCF75EFFD4E90823FCF7B3FE2A46D6
:103530003346FCF756FFD4E90623FCF7ABFE2A46D8
:103540003346FCF74EFFD4E90423FCF7A3FE2A46DA
:103550003346FCF746FFD4E90223FCF79BFE2A46DC
:103560003346FCF73EFFD4E90023BDE8F041FCF709
:1035700091BE00002DE9FF4D054621F0004084B0CA
:103580000C46B0F1795F0BDA2846FFF737FD0428C7
:1035900008BF00F071F8284608B02146BDE8F08D5C
:1035A0002A460B461046FCF71CFF06460F462A46E5
:1035B0002346FCF716FF804626488A4632463B469D
:1035C00005217844FFF780FF83461098029160B38D
:1035D000214A224B40465146FCF703FFCDE900014A
:1035E0005A4640465146029BFCF7FBFE82468846FF
:1035F000DDE906014FF0FF32FDF777F95246434609
:10360000FCF7E9FE32463B46FCF7EBFEDDE906231C
:10361000FCF7E1FEDDE90023FCF7DDFE08B02A46F9
:103620002346BDE8F04DFCF7D9BE0B465A4630465E
:103630003946FCF7D6FE084A084BFCF72BFE4246FB
:103640005346FCF7CEFE08B02A462346BDE8F04DAF
:10365000FCF720BE421B0000495555555555C5BFC6
:103660000122FDF742B9FCF715BE002213461046B1
:103670001146FCF728BF0000024A00201107FDF7A1
:1036800034B9000001FDFFFF02E008C8121F08C1A5
:10369000002AFAD170477047002001E001C1121FD3
:1036A000002AFBD170470000014908607047000004
:1036B000780000202DE9FF5F82B00021DDE90430B1
:1036C000020DDDF840B0034318D044F61050A2F2CA
:1036D000FF3242431514119801281FD0A5EB0B00AF
:1036E000401C5FEA000A4FF000064E4FDFF83891A9
:1036F000B046504615D5CAF1000413E011980124D4
:103700004AA3012801D16FEA0B010298119AC0E97E
:103710000031C0E9024206B0BDE8F09FCBF10000E5
:10372000DFE704460021404A491842EB0450CDE946
:10373000001012E0E00707D032463B4640464946BB
:10374000FCF74FFE8046894632463B4610461946F6
:10375000FCF747FE06460F466410002CEAD1DDE96F
:103760000401DDE90023BAF1000F06DAFCF739FEA7
:1037700042464B46FCF735FE05E0FCF7A4FE424608
:103780004B46FCF7A0FE04460E460022284BFDF7F0
:10379000DBF803D84FF0FF30014607E00022254B4D
:1037A00020463146FCF776FDFDF7B6F8102409E017
:1037B000002C0ADB0A220023FCF7B1FF039B303206
:1037C0001A55641E50EA0102F2D1641C039AC4F136
:1037D00011031444119A012A03D0012208430DD188
:1037E0000AE0084304D000204FF0110B119072E75B
:1037F000A3EB0B056D1E0DE05B4504DD4FF00002F1
:1038000005F1010504E003DA4FF00002A5F101051E
:10381000002AECD002981199C0E90231C0E90045B4
:1038200079E70000000014400000F03F3000000085
:103830000000F0430000E03F2DE9FF4F95B09B46AC
:103840008946064600250FE2252877D10024274621
:10385000F84A0121059400E0044316F8013F203B9B
:1038600001FA03F01042F7D130782A2811D06FF016
:103870002F033078A0F13002092A16D8059A44F0B7
:10388000020402EB820203EB42021044761C059014
:10389000EFE759F8042B0592002A03DA504244F46A
:1038A0000054059044F00204761C30782E2816D17E
:1038B00016F8010F44F004042A280DD06FF02F02EF
:1038C0003078A0F13003092B09D807EB870302EB0E
:1038D0004303C718761CF3E759F8047B761C30784D
:1038E0006C280FD006DC4C2817D068280DD06A2829
:1038F00014D104E0742810D07A280FD10DE044F4DC
:1039000000140AE044F4801401E044F44014727896
:10391000824202D104F58014761C761C3078662829
:103920000BD013DC582877D009DC002875D0452847
:10393000F6D04628F4D047281AD19DE118E0632834
:1039400035D0642879D0652812D195E1702873D0DC
:1039500008DC6728F1D069286FD06E280DD06F2859
:1039600006D1B5E073282CD0752875D0782874D08E
:103970005A46179990476D1C75E1C4F3025002280E
:1039800009D003280DD0D9F8001004280DD00D60FF
:1039900009F1040967E1D9F80010EA17C1E90052FA
:1039A000F6E7D9F800100D80F2E70D70F0E719F88E
:1039B000041B8DF8001000208DF80100EA4601205C
:1039C00003E059F804AB4FF0FF3061074FF00001FE
:1039D00002D40DE008F101018846B9420FDA8045B2
:1039E000F8DB1AF808100029F4D108E008F1010109
:1039F00088468142FADB1AF808100029F6D10598AA
:103A00005B46A0EB080721463846179A00F094FA67
:103A1000284400EB080507E04DE029E10DE01AF825
:103A2000010B5A4617999047B8F10108F7D25B4647
:103A300021463846179A13E142E00A220092C4F365
:103A400002524FF0000A022A08D059F804CB032A88
:103A50004FEAEC710AD00DE029E02AE009F10701F4
:103A600021F00702F2E802C1914609E00FFA8CFC4E
:103A70004FEAEC71042A03D14FFA8CFC4FEAEC7147
:103A8000002907DA0A460021DCF1000C61EB020193
:103A90002D2202E0220504D52B228DF804200122DC
:103AA00003E0E20701D02022F7E7904659E00A211F
:103AB00002E010220DE010214FF0000A00910BE00F
:103AC00010224FF0000A44F004040827009203E09B
:103AD00008224FF0000A0092C4F30252022A05D0D5
:103AE00059F804CB0021032A08D009E009F10701A5
:103AF00021F00702F2E802C1914605E01FFA8CFCB2
:103B0000042A01D10CF0FF0C4FF00008220728D541
:103B1000702806D0009B83F0100353EA0A0305D0F7
:103B20000EE040228DF80420012208E05CEA010248
:103B300006D030228DF804208DF805000222904630
:103B4000009B83F0080353EA0A030AD15CEA0102EE
:103B500001D1620705D530228DF804204FF001080D
:103B60007F1E582804D034A003900EA802900DE0C8
:103B700036A0F9E753466046009AFCF7D0FD84462C
:103B80000398825C0298401E029002705CEA010079
:103B9000F0D1029806A9081A00F1200A600702D5A0
:103BA00024F4803400E00127574502DDA7EB0A002A
:103BB00000E0002000EB0A01009005984144401A03
:103BC0000590E00306D45B462146179A059800F05D
:103BD000B3F90544002706E001A85A46C05D1799CD
:103BE00090476D1C7F1C4745F6DBE0030CD55B4618
:103BF0002146179A059800F09FF9054404E030200B
:103C00005A46179990476D1C0099481E009000294C
:103C1000F5DC08E0029802995A460078491C0291A6
:103C2000179990476D1CBAF10001AAF1010AF1DC65
:103C300065E1000009280100303132333435363770
:103C400038396162636465660000000030313233E8
:103C50003435363738394142434445460000000088
:103C600000F058F90544761C307800287FF4ECAD5C
:103C700019B02846BDE8F08F620700D4062709F185
:103C8000070222F0070CFCE80223E14603F000489B
:103C90005FEA080C02D00FF2702C0DE05FEA045CC2
:103CA00002D50FF2682C07E05FEAC47C02D00FF265
:103CB000602C01E0AFF2700C4FF0FF3823F00043AE
:103CC000CDF850C065280CD006DC452809D0462820
:103CD0001DD047283DD13DE0662818D067287ED109
:103CE00038E00021112F01DB112000E0781CCDE924
:103CF000000106A90EA8FFF7DDFCDDE90F010E9A11
:103D000003910021009207F1010A04914DE04FF068
:103D100000400097CDE9011006A90EA8FFF7CAFCE4
:103D2000DDE90F0203920E9B11990022DDF80CA031
:103D30000093049211B9791C00EB010AB7EB0A0059
:103D400004D4C0F1FF3007F1010A0490AAEB070088
:103D5000019044E0012F00DA01270021112F01DD3D
:103D6000112000E03846CDE9000106A90EA8FFF7B2
:103D7000A1FCDDE90F010E9A03910021049100924C
:103D8000BA4621070CD40399514500DA8A46BAF1A4
:103D9000010F05DD009AAAF10101515C302908D01C
:103DA000B84202DA10F1040F06DA0121CDE9011060
:103DB00015E0AAF10101E9E7002805DC04990144B6
:103DC0000491AAEB000102E0411C514500DD8A4646
:103DD0000499401A401C01904FF0004002902007C7
:103DE00004D40198504501DBCDF8048000208DF803
:103DF0004F0002980DF14F07B0F1004F25D02B2056
:103E00000E9002984FF0020800280CDA404202900F
:103E10002D200E9007E00A210298FCF76AFC303151
:103E2000029007F8011DB8F10001A8F10108F2DCC9
:103E300002980028EFD1791E0E980870307800F0B3
:103E4000200040F0450007F8020D12A8C01B00F149
:103E500007081498007800B1012000EB0A010198CE
:103E600001EBE07105984144401A401E0590E003C3
:103E700006D45B462146179A059800F05DF8054484
:103E80001498007818B15A46179990476D1CE003B2
:103E900024D55B462146179A059800F04DF8054455
:103EA0001CE00498002807DBDDE90301884203DDFC
:103EB0000098405C179901E0179930205A469047C6
:103EC000049805F10105401C04900198401E0190E2
:103ED00004D12E205A46179990476D1CBAF1000163
:103EE000AAF1010ADDDC05E017F8010B5A46179923
:103EF00090476D1CB8F10001A8F10108F4DC5B46A5
:103F00002146179A0598ABE62D0000002B00000013
:103F1000200000002DE9F041044600251E4617460A
:103F2000880404D405E039462020B0476D1C641E87
:103F3000F9D52846BDE8F0812DE9F0410446002579
:103F40001E469046C80301D5302700E0202788048C
:103F500004D505E041463846B0476D1C641EF9D5CE
:103F60002846BDE8F08100002DE9F04D8D4F21F08D
:103F7000004A86B005460C46BA452ADBAAEB070084
:103F800028430AD08848824501DC1AD1CDB106B059
:103F90002846BDE8F04DFFF763BB844A844B2846B2
:103FA000FCF71FFA07460E46824A834B28462146F5
:103FB000FCF717FA06B03A463346BDE8F04DFCF779
:103FC00069B90120FFF770FB06B0BDE8F04DFFF7BF
:103FD0004CBB7A48824542DABAF1795F0BDA28465F
:103FE000FFF70CF8042808BFFFF746FB284606B089
:103FF0002146BDE8F08D2A460B461046FCF7F1F944
:10400000834602466E480E460B4606217844FFF76B
:104010005BFA5A463346FCF7E4F9804669488A461B
:104020005A46334604217844FFF74EFA5A4633463F
:10403000FCF7D7F900223B46FCF72CF902460B4669
:1040400040465146FCF73FFA2A462346FCF7C9F999
:1040500006B02A462346BDE8F04DFCF71BB92846BA
:1040600024F0004100223D463B46FCF7B7F94FF0F3
:10407000FF32FCF73AFC0646024653480F460B4611
:1040800006217844FFF720FA32463B46FCF7A9F9AF
:10409000CDE900014D4832463B4604217844FFF704
:1040A00013FA32463B46FCF79CF900222B46FCF7FC
:1040B000F1F8834602913046394600F097FE80467B
:1040C00043480D46504517DCDDE900015A46029B86
:1040D000FCF7F9F942462B46FCF783F942462B469A
:1040E000FCF7D8F80122FCF700FC304A304BFCF713
:1040F00072F9304A304B4CE04FF0000A52460B4602
:104100004046FCF7C7F8CDE9031052462B4610464F
:104110001946FCF766F932463B46FCF75FF9DDE9E4
:104120000332FCF7D0F906460F46DDE900015A4696
:10413000029BFCF7C8F983460091012230463946BC
:10414000FCF7D3FB194A1A4BFCF748F906460F4611
:10415000012240462946FCF7C8FB5A46009BFCF763
:1041600040F932463B46FCF736F906460F46012237
:1041700050462946FCF7B9FB0E4DDFF858802A4619
:104180004346FCF72BF932463B46FCF727F92A4613
:104190004346FCF723F9002CD8BF81F0004106B05C
:1041A000BDE8F08D0000F03F0000F07F075C1433A5
:1041B00026A6913C182D4454FB21F93F0000E03F16
:1041C000100F0000260F00009A0E0000B00E000035
:1041D0003333EF3FFB21E93F2DE9F84F04460D460D
:1041E00021F0004000917349814211DC72498842FC
:1041F00001DC06D12CB120462946BDE8F84FFFF777
:104200002FBA6E48002DCCBF6D496E49BDE8F88FBE
:104210006D49814211DD6D498142D8BF4FF0FF36B3
:104220006DDD20462946FEF7E9FE042808BFFFF7AA
:1042300023FA20462946BDE8F88F6549654F25F0E9
:104240000045814233DD6449814219DD0026324652
:104250004FF0804320462946FCF71CF880468A46EA
:10426000012220462946FCF740FB00223B46FCF792
:10427000B2F842465346FCF726F904460D463EE0A6
:1042800001260022BA463B4620462946FCF702F8A2
:1042900080460F460022534620462946FCF79BF8ED
:1042A00042463B46FCF70FF904460D4627E04B49D2
:1042B00081421BDDDFF828A102260022534620465A
:1042C0002946FCF78EF800223B46FBF7E3FF8046C9
:1042D0000F460022534620462946FCF77CF842460A
:1042E0003B46FCF7F0F804460D4608E0032622465C
:1042F0002B4600203B49FCF7E6F804460D462246D3
:104300002B4610461946FCF76CF88B46824602464F
:104310000B46FCF766F807460246334888460B46CC
:1043200006217844FFF7D0F852465B46FCF759F86F
:1043300082462E488B463A46434605217844FFF78D
:10434000C3F83A464346FCF74CF802460B46002EAB
:10435000504659460CDAFBF79DFF22462B46FCF7E8
:1043600040F801B022462B46BDE8F04FFCF736B8C6
:10437000FBF790FF22462B46FCF733F81C4A7A44A1
:1043800002EBC603D3E90023FCF725F822462B46AF
:10439000FCF721F8174A7A4402EBC603D3E900235D
:1043A000FCF71CF8009A002AB8BF81F00041BDE874
:1043B000F88F0000000010440000F07F182D4454D6
:1043C000FB21F93FFB21F9BF0000DC3F0000203E4C
:1043D0000000F33F0000F03F0000E63F0080034094
:1043E0000000F83F0000F0BFB20C0000700C0000AD
:1043F0000E0C0000D60B00002DE9F04D9446CCF1D8
:10440000000423F000464CEA0404524F46EAD474F8
:104410009A46884621F00042BC4206D8454240EA0E
:10442000050442EAD474BC4204D9BDE8F04D6246AA
:10443000FFF719B9AAF14055A5F17F6555EA0C04BB
:104440000BD0022404EAAA74434DDFF810E144EAD9
:10445000D87452EA000B04D00CE0BDE8F04DFFF731
:10446000BBBE002C14BF012CBDE8F08D022C30D057
:10447000032C32D056EA0C0B0AD0BE4220D1BA42ED
:1044800009D126F0804622F080423346114617E0DB
:1044900000291ADB25E0DFF8C8B0FB44002C04BF7C
:1044A000DBE90001BDE8F08D012C02BFDBE9000172
:1044B00081F00041BDE8F08D022C0AD0032C0CD015
:1044C000BA4212D1B8F1000F0BDA23482549BDE8F2
:1044D000F08D28462449BDE8F08D28467146BDE898
:1044E000F08D1D482149BDE8F08D921B12153C2A24
:1044F000C4BF19481D490EDCBAF1000FBEBF12F14E
:104500003C0F0020014606DB6246FBF7DCFF21F092
:104510000041FFF761FE002C08BFBDE8F08D012CC3
:1045200004BF81F00041BDE8F08D114A114B022C0F
:1045300007D0FBF750FF2A46BDE8F04D0A4BFBF7CA
:104540004ABFFBF748FF2A46BDE8F04D064BFBF794
:1045500045BF00000000F07F182D4454FB2109C026
:104560009A0B0000FB21F9BFFB210940FB21F93F19
:10457000075C143326A6A13C00B5244B21F0004271
:1045800087B09A42DCBF0022134629DD204B9A42B5
:1045900008D140B94FF00100FFF786F8FFF765F842
:1045A00007B000BD03DBFFF75BF807B000BD02AA50
:1045B000FEF748FD10F0030104BF0DF1080C9CE864
:1045C0000F000DD0012001290ED0022914D00DF1C9
:1045D000080C00909CE80F00FEF7CCFF07B000BD70
:1045E000FEF7F4FE07B000BD0DF1080C00909CE84A
:1045F0000F00FEF7BFFF05E00DF1080C9CE80F006F
:10460000FEF7E4FE07B081F0004100BDFB21E93F69
:104610000000F07F2DE9FF4F89B01746DDE9165203
:1046200000244C4E884681462C80A246B07B6946C9
:1046300000F094FA4FF0FF3B18B158460DB0BDE8BA
:10464000F08F708910F0140F3CD0009909BA21F056
:10465000FF039DF803100B433B6001991B1409BA3B
:1046600021F0FF029DF807105B430A437A6002992C
:104670009DF80B4009BA21F0FF012143B960039C6A
:10468000091424BA24F0FF0C9DF80F4012144CEAD0
:10469000040CC7F80CC04FEA2C47494302FB023216
:1046A00007FB071111441024A1F17061B1F1007FE3
:1046B00004D900F09BFAA5F800A0BEE7298841F4D0
:1046C000807129804206694611D50A19A41D1388F4
:1046D0005BBAA8F8003053885BBAA8F80230928819
:1046E00052BAA8F804202A8842F008022A8010F45E
:1046F000C07F11D00A19A41D13885BBAA9F8003035
:1047000053885BBAA9F80230928852BAA9F80420FB
:104710002A8842F070022A80800716D00C44E07884
:1047200000F0C00500F03F016078C00706D0C8085F
:1047300001F007013268491C02B190476078000718
:1047400003D5716809B1A80988470C9800F00EF9E3
:10475000002073E77C00002038B504468DF8000087
:104760000223012269460248FDF7E8FD204638BDD4
:104770006802002008B5FCF799FDFEF7CBF9FEF7BB
:104780009BF8FEF7BFF8FEF7DDF8FEF7FBF8FEF743
:104790002FF9FEF781F9FEF79BF900215648FDF746
:1047A000CBFA04215448FDF7C7FA40F2DC54224604
:1047B00001210220FEF7F8FA022122460846FEF700
:1047C000F3FA4E4C4FF0B7094D4B4EA252A15C4844
:1047D000CDF80090FEF704FC5AA15948FEF700FC02
:1047E000464A1832111F081F00F0EAF8C0B9FEF758
:1047F00019F8424AE081921D911E881EFDF7E0FFE4
:104800003E4A0C32911E881EFDF7F3FF04F11000A2
:1048100007C800F0ACF82069FBF73CFFC4E90801C9
:104820002078012863D00228CED1D4E908010022E3
:10483000464B05460E46FBF72DFD0022444BFBF789
:1048400042FE0022434BFBF7CCFD0022424BFBF71C
:1048500021FD0746884600223D4B28463146FBF79E
:1048600032FEDFF8F8B04FF0C04A52465B46FBF725
:10487000B8FDFFF781FE0022394BFBF7B2FD0022A5
:10488000384BFBF7ABFD05460E46D4E90801002284
:104890002F4BFBF718FE52465B46FBF7A2FD00F0DC
:1048A00055FA00222E4BFBF79CFD2A463346FBF7B8
:1048B0000AFEFFF791FC0022254BFBF704FE0022C5
:1048C000244BFBF78EFD0022234BFBF7E3FCFBF7A9
:1048D000A9FEFBF770FE3A464346FBF7DBFCFBF70D
:1048E000C0FE024602210220FEF75EFA6CE71E4877
:1048F0000121028CF7E70000E001002038000020D1
:10490000FC4E00082E2E2F436F72652F5372632FBB
:104910006D61696E2E6300005B094442475D284665
:10492000696C653A25732C2046756E633A257328A9
:10493000292C204C696E653A2564293A2000000034
:104940007400002077770D0A0D0A000000805640A1
:104950000080664000409F4000407F40FB210940AE
:104960000000594000C05C409000002070470FB527
:10497000030E8DF80030030C8DF80130030A8DF81A
:1049800002308DF80300080E8DF80400080C8DF835
:104990000500080A8DF80600100E8DF80800100CAE
:1049A0008DF80900100A8DF80A008DF807108DF8AF
:1049B0000B200C226946A22000F03EFA0FBD000039
:1049C0002DE9F74F8EB00CA902A8CDE900010BAB81
:1049D00003AA09A907A8FFF71DFE18B1012011B00D
:1049E000BDE8F08FBDF80800C0057DD50398FBF742
:1049F000D9FD6FF01D042146FBF740FC8246049868
:104A0000FBF7D0FD2146FBF739FC81460598FBF703
:104A1000C9FD2146FBF732FC80460698FBF7C2FD34
:104A20002146FBF72BFC054601215046FBF726FCEF
:104A300006464146FBF7F0FB04464FF0404148462E
:104A4000FBF7EAFB07462946FBF7E6FB2146FBF7A7
:104A50008BFBFBF71FFEFFF787FA4FF0663B5A46CA
:104A60003D4BFBF7BEFCFBF728FE0E9908600121C9
:104A70004046FBF703FC41460090FBF7CDFB0446A4
:104A800038464946FBF7C8FB2146FBF7BFFB4FF012
:104A90007E51FBF769FBFBF7FDFD07460C463046F0
:104AA0004946FBF7B9FB064629460098FBF7B4FBDD
:104AB0003146FBF759FBFBF7EDFD3A462346FFF77E
:104AC0009BFC5A46244BFBF78CFCFBF7F6FD0F9939
:104AD000086029460846FBF79FFB07464146084603
:104AE000FBF79AFB064600E034E049460846FBF730
:104AF00093FB044651460846FBF78EFB2146FBF725
:104B000033FB3146FBF782FB3946FBF77FFBFBF7B4
:104B1000C1FD06460C4629465046FBF77DFB05467F
:104B200041464846FBF778FB2946FBF71DFB012170
:104B3000FBF7A4FBFBF7AEFD32462346FFF75CFC18
:104B40005A46054BFBF74DFCFBF7B7FD1099086083
:104B5000002044E7022042E766A64C402DE9F843D6
:104B6000214C0646174694F8240089464FF0FF383A
:104B700090B3A07A80B320686B460222817A606885
:104B80000078FDF775FE38BBBDF8000045BAB542A8
:104B900002D2002038701FE060684188B5EB510FE9
:104BA00011D9216800786B46497C0122FDF760FE2F
:104BB00090B99DF80000C00605D500F017F86FF019
:104BC0000100BDE8F8832068F2B24B46C17A606804
:104BD0000078FDF74DFE08B14046F2E7B5FBF6F070
:104BE000401E38700020ECE700000020F8B5564C5D
:104BF0004FF0FF36A07A00287DD000258DF80050B8
:104C000020686B460122C17B60680078FDF742FE98
:104C1000002870D120686B460122417960680078D5
:104C2000FDF738FE002866D120686B460122017925
:104C300060680078FDF72EFE00285CD194F824000F
:104C4000E0B30C208DF8000020686B46012201794A
:104C500060680078FDF71EFE002872D13220FBF755
:104C60003DFFC0208DF80000A07AC00702D0E020F0
:104C70008DF8000020686B46012201796068007899
:104C8000FDF708FE00285CD1607C18B102208DF889
:104C9000000001E08DF8005020686B460122C17BC6
:104CA00060680078FDF7F6FD28BB8DF8005020689D
:104CB0006B4601224179606800783EE0FFE70420FE
:104CC0008DF8000020686B46012201796068007849
:104CD000FDF7E0FD78B9A07C90B9A07AC0070FD0AD
:104CE0005FF060008DF8000020686B4601220179BA
:104CF0006068007800E024E0FDF7CCFD08BB01E02F
:104D00004020EFE73220FBF7E9FE607C18B101207C
:104D10008DF8000001E08DF8005020686B460122FC
:104D2000C17B60680078FDF7B5FD50B92068064B7F
:104D300001224179606810330078FDF7ABFD00284F
:104D400000D03046F8BD00000000002000B5254B23
:104D500021F0004287B09A4203DC00221346009201
:104D60002BE0214B9A4208D140B94FF00100FEF7E9
:104D70009BFCFEF77AFC07B000BD03DBFEF770FC7E
:104D800007B000BD02AAFEF75DF910F003014FF075
:104D900001000DD0012914D002291AD00DF1080C00
:104DA0009CE80F00FEF712FB07B081F0004100BD48
:104DB0000DF1080C00909CE80F00FEF7DBFB07B03C
:104DC00000BD0DF1080C9CE80F00FEF7FFFA07B0DC
:104DD00000BD0DF1080C00909CE80F00FEF7CAFB27
:104DE000E2E70000FB21E93F0000F07F2DE9F04100
:104DF00006460F46FBF7D2FD041E0D4618BF0120E4
:104E0000284320F00040C0F17F6000F1E040C00F77
:104E10000ED0301C18BF0120384320F00040C0F1F4
:104E20007F6000F1E040C00F04BF0120FEF73CFCB2
:104E300020462946BDE8F08170B588B01C2A29D8E3
:104E40000DEB02040025E57088258DF800508DF8E3
:104E500001006B468DF80220002004E00D5C1E1856
:104E6000401CF570C0B29042F8D30020D11C05E080
:104E70001E5CE578401C3544E570C0B28842F7D32B
:104E80000024151D04E0185D00F006F8641CE4B26F
:104E9000AC42F8D308B070BD03490A685206FCD58D
:104EA0000149091D086070470038014075191A0C46
:104EB0006A231B1C1F207274433B4138393A6B6CC8
:104EC000376F06246D6E7000680000047600540190
:104ED000F7FD000183000000000800000001001839
:104EE00032000500000020410000D242295C0F3E44
:104EF0009A99993E3333733F295C0F3E6D61696E19
:104F00000000000000000000000102030406070882
:104F1000090000000001020304000000000000007E
:104F2000555555555555C53F7D6FEB0312D6D4BF2A
:104F30005544880E55C1C93F3B8F68B52882A4BF30
:104F400088B20175E0EF493F09F7FD0DE13D023FF1
:104F50004B2D8A1C273A03C0C88A599CE52A004079
:104F600059018D1B6C06E6BF82922EB1C5B8B33FC6
:104F70004FBB610567ACDD3F182D4454FB21E93F71
:104F80009BF681D20B73EF3F182D4454FB21F93F60
:104F9000E2652F227F2B7A3C075C143326A6813CE6
:104FA000BDCBF07A8807703C075C143326A6913C91
:104FB000C4EB98999999C9BF711623FEC671BCBFFD
:104FC0006D9A74AFF2B0B3BF9AFDDE522DDEADBF65
:104FD0002F6C6A2C44B4A2BF0D5555555555D53F7D
:104FE000FF8300922449C23F6E204CC5CD45B73F98
:104FF000513DD0A0660DB13FEB0D76244B7BA93F10
:1050000011DA22E33AAD903F4C5555555555A53F21
:105010007751C1166CC156BF9015CB19A001FA3E4D
:10502000AD529C804F7E92BEC4B1B4BD9EEE213E77
:10503000D43888BEE9FAA8BD0000000000000000D6
:1050400000004054FB21F93F3163621A61B4D03D46
:105050000000601A61B4D03D7370032E8A19A33B1F
:105060000000002E8A19A33BC14920259A837B3971
:1050700000000000000000006E83F9A22915444ED4
:10508000D15727FCC0DD34F5999562DB4190433C54
:10509000AB6351FE61C5BBDE3A6E24B7E0D24D4230
:1050A000EA2E49061C92D1091CEB1DFE3EA729B130
:1050B000F53582E88444BB2E26709CE9417E5FB4BE
:1050C00039D69139F43953838B5F849C3B28F9BDE1
:1050D000FF97F81F0F9805DE8B112FEF1F6D0A5AEF
:1050E000CF7E366DB709CB27663F464F2DEA5F9ED0
:1050F000C7BA27757BF1E5EBF739073DEA92528A8B
:10510000B15FFB6B085D8D1FA6F810111111813F77
:10511000D561C119A0012ABF7DFEB157E31DC73E6D
:10512000EB9C2B8AE6E55ABE7CD5CF5A3AD9E53DB1
:1051300050510008000000207C0000008836000864
:10514000CC5100087C0000202C0600009836000896
:10515000AC4E0008C84E000800000000000000002F
:10516000000000000000000000000000000000003F
:105170000000000000000000D44E00080100000004
:10518000010000000100000001000000000000001C
:10519000000000000000000000000000000000000F
:1051A00000000000000000000000000000000000FF
:1051B00000000000010000001000000000000000DE
:0C51C0000024F4000000000000000000CB
:04000005080000ED02
:00000001FF
