:020000040800F2
:100000003805002001010008BF1B0008691900081D
:10001000BD1B0008EB0600082120000800000000BE
:10002000000000000000000000000000C31B0008EA
:10003000ED06000800000000C11B0008C51B0008F9
:100040001B0100081B0100081B0100081B01000820
:100050001B0100081B0100081B0100081B01000810
:100060001B0100081B0100081B0100081B01000800
:100070001B0100081B0100081B0100081B010008F0
:100080001B0100081B0100081B0100081B010008E0
:100090001B0100081B0100081B0100081B010008D0
:1000A0001B0100081B0100081B0100081B010008C0
:1000B0001B0100081B010008000000001B010008D4
:1000C0001B01000800000000000000001B010008E8
:1000D00000000000152000081B01000800000000BF
:1000E000EF0600081B0100081B010008DFF80CD018
:1000F00000F0DAFA004800475522000838050020D1
:100100000648804706480047FEE7FEE7FEE7FEE7B1
:10011000FEE7FEE7FEE7FEE7FEE7FEE7171C000846
:10012000ED000008202A04DB203A21FA02F0002129
:10013000704721FA02F3D040C2F1200291400843F7
:1001400019467047D2B201E000F8012B491EFBD2DC
:1001500070470022F6E710B513460A4604461946D2
:10016000FFF7F0FF204610BDF0B480EA0102D40F83
:100170004200B2EB410F02D20246084611464A0045
:1001800042D0C30DDDB2C1F3C752AD1A202D35DA0E
:10019000C1F3160141F4000204B15242C5F1200638
:1001A00002FA06F12A411044B3EBD05F23D0C4B168
:1001B000012DA0EBC35009DCF0BC4FF0004202EA75
:1001C000C352DBB200F5000000F0E3B9400000F1DB
:1001D000807000EBC350A0F1807040EAD1704900FC
:1001E00009E0490841EAC071A0EBC35000F50000E6
:1001F000400800EBC350F0BC00F0C2B961420122DC
:1002000002EB4101001BF6E7F0BC704781F00041B2
:10021000AAE780F00040A7E780EA010210B502F0EB
:100220000043400022D04A001FD0010E01EB1261B2
:10023000C0F35600C2F3560240F4000042F400023C
:10024000A0FB022000047F39140400D0401C50EAB7
:10025000124001D44000491EC2B20C0604EBD0107B
:10026000401C4008802A02D003E0002010BD20F08E
:100270000100002900DA0020184310BD30B480EAE4
:10028000010202F0004530F0004221F0004013D09E
:1002900090B1C30DD40DC2F31601C0F31600E41AD9
:1002A00041F4000140F400027D34914201D3641C0A
:1002B00000E04900002C02DA30BC002070474FF407
:1002C00000000023914201D3891A034340084FEAFA
:1002D0004101F7D151B1914202D14FF0004105E007
:1002E00002D24FF0010101E06FF0010103EBC450B5
:1002F000284430BC00F044B92DE9FE4F81EA0304E4
:1003000004F0004421F0004100944FF0000B23F072
:10031000004350EA01045ED052EA03045BD0C3F309
:100320000A54C1F30A552C44A4F2F3340194A0FBFF
:100330000254C1F3130141F48011C3F3130343F4D6
:10034000801301FB024400FB034E840A970A44EA2F
:10035000815447EA8357A4FB076802958D0A05FB81
:1003600007854FEA932C04FB0C542705029D4FEAA6
:10037000065847EA1637B5EB08056EEB070C870EF3
:10038000920E47EA811742EA8312A7FB0201B6EBFD
:100390000B0164EB00042B0D43EA0C335E1844EBB5
:1003A0001C50DA465146E7FB0201C5F313044FEA3D
:1003B0000B3343EA14534FEA0432019C43EA060329
:1003C000A4F10C040294009CCDE900B400F01EF9E5
:1003D00003B0BDE8F08F00200146F9E72DE9F04DAC
:1003E00081EA030404F0004B21F0004514464FF06D
:1003F000000A23F0004150EA050220D054EA01022D
:100400001DD0C5F30A570246C5F31303C1F3130009
:10041000C1F30A5640F4801543F48013A7EB060895
:10042000101BD64608F2FD3873EB050002D308F125
:10043000010801E092185B41B8F1000F03DA0020D7
:100440000146BDE8F08D00204FF480110646844639
:100450000EE0171B73EB050705D3121B63EB0503B7
:1004600006434CEA010C49084FEA300092185B4100
:1004700050EA0107EDD152EA030012D082EA0400EB
:1004800083EA0501084305D0101BAB4106D20122C7
:10049000002306E000224FF0004302E06FF001026B
:1004A00053101AEB06004CEB085110EB0A0041EB1D
:1004B0000B01BDE8F04D00F09AB8C10F80EAE07082
:1004C0000844CA079623002100F063B80EB5C10F97
:1004D00080EAE0700844CA07002140F233438DE807
:1004E0000E000A460B4600F091F803B000BD20F064
:1004F0000040C10DC0F3160040F400007F2901DA6E
:1005000000207047962903DCC1F19601C84070476E
:1005100096398840704770B5C1F30A5201F0004522
:100520000024C1F3130140F2FF3341F480119A42D9
:1005300001DA002070BD40F233439A42A2F2334206
:1005400003DC5242FFF7EEFD00E090402C43F1D077
:10055000404270BD30B50B460146002020220124E8
:1005600009E021FA02F59D4205D303FA02F5491B81
:1005700004FA02F52844151EA2F10102F1DC30BD97
:100580000029A8BF7047401C490008BF20F00100A7
:10059000704710B4B0FA80FC00FA0CF050EA010485
:1005A00004BF10BC704749B1CCF1200421FA04F417
:1005B00011FA0CF118BF012121430843A3EB0C01F0
:1005C000CB1D4FEA00614FEA102042BF002010BC53
:1005D000704700EBC35010440029A4BF10BC704703
:1005E000401C490008BF20F0010010BC704710B546
:1005F000141E73F1000408DA401C41F10001921846
:100600005B411A4301D120F0010010BD2DE9F04DEE
:1006100092469B4611B1B1FA81F202E0B0FA80F243
:100620002032904600F052F804460F4640EA0A0095
:1006300041EA0B0153465A46084313D0114653EA88
:10064000010019D0C8F140025046FFF76BFD054686
:100650000E4650465946424600F038F8084305D049
:10066000012004E020463946BDE8F08D0020054316
:1006700046EAE0762C4337430A986305E40AA0EB88
:1006800008000022FD0A44EA47540A3002D500203F
:100690000146E9E7010510196941DDE9084500193E
:1006A0006941BDE8F04DA2E7064C074D06E0E06861
:1006B00040F0010394E8070098471034AC42F6D3A9
:1006C000FFF718FD0826000828260008202A04DB6A
:1006D000203A00FA02F1002070479140C2F1200355
:1006E00020FA03F3194390407047FEE770474FF438
:1006F000806000F075B8704710B590F821100024A4
:10070000022903D00421816301243DE001680A68C5
:1007100022F00E020A6001680A6822F001020A60F3
:100720001A4A0168914201D1012121E0174A14328D
:10073000914201D110211BE0144A2832914201D18B
:10074000891515E0114A3C32914201D189140FE01C
:100750000E4A5032914202D14FF4803108E00B4AE8
:100760006432914202D14FF4801101E04FF0807168
:10077000064A083A5160012180F82110002180F8D2
:100780002010416B01B18847204610BD080002408F
:1007900070B5044600F016F90546601C02D0044806
:1007A0000078044400F00EF9401BA042FAD370BD5B
:1007B0001000002070B54FF48064A0420AD10649B1
:1007C000064D4878401C48702146284600F0F4F851
:1007D0000028F9D070BD0000000000200008014092
:1007E000044910B50A68024202D00860FFF7E2FF30
:1007F00010BD0000140401402DE9F84FDFF89C9172
:10080000002409F1040A0AF1040B23460F270BF117
:10081000040EBBE00125A5402A40AA4276D1DFF8AC
:1008200080C14E68A6EB0C0866452BD00DDC032E6C
:1008300034D005DC36B3012E19D0022E2FD11BE0A7
:10084000112E16D0122E2AD119E0B8F5881F19D012
:1008500006DCB8F5803F15D0B8F5801F1FD111E038
:10086000B8F5001F0ED0B8F5041F18D10AE0CB6808
:1008700015E0CB681B1D12E0CB6808330FE0CB6896
:100880000C330CE08B682BB1012B4FF0080303D025
:10089000456104E0042302E0056100E00023FF2A33
:1008A00001D8064601E000F104064FEA840501D9AB
:1008B000A5F12005D6F8008007FA05FC28EA0C0807
:1008C00003FA05F548EA0508C6F800804D68ED0012
:1008D0005BD5344DAE6946F00106AE61AD6924F0DA
:1008E000030605F0010500952F4D06EB050CDCF81D
:1008F0000850A607360F07FA06F825EA0805DFF8BC
:10090000AC80404503D14FF0000810E03DE0DFF837
:10091000A080404502D14FF0010808E0DFF8948044
:10092000404502D14FF0020801E04FF0030808FAF9
:1009300006F848EA0508CCF808804D68D9F8006048
:10094000ED034D4601D5164300E096432E604D68F9
:10095000DAF80060AD03554601D5164300E0964332
:100960002E604D68DBF80060ED025D4601D5164350
:1009700000E096432E604D68DEF80060AD027546DB
:1009800001D5164300E096432E60641C0A6832FAD3
:1009900004F57FF43FAFBDE8F88F0000000401408C
:1009A000000011100010024000000140000801404A
:1009B000000C0140001001408068084000D0012078
:1009C0007047000001488068704700001000002058
:1009D000024881680278114481607047100000204D
:1009E000074810B5016841F010010160032000F0D4
:1009F00075F8002000F006F800F024F8002010BD83
:100A00000020024070B50D4D04464FF47A712878ED
:100A1000B1FBF0F00A490968B1FBF0F000F0ECFA24
:100A200048B9102C07D200222146501E00F036F89B
:100A300000206C6070BD012070BD0000100000201F
:100A40001C0000200C4808B5816941F0010181615A
:100A5000816901F001010091C16941F08051C161DA
:100A6000C06900F0805000900448416821F0E061C6
:100A700041F08061416008BD00100240000001406B
:100A8000002809DB00F01F0201219140400980008D
:100A900000F1E020C0F8001170470000F0B40E4BE8
:100AA0001B680C46C3F30223C3F10705042D00D9CC
:100AB0000425191D072901D2002300E0DB1E0126B1
:100AC00006FA05F1491E214099409E40761E1640C7
:100AD0003143F0BC01F0B4BA0CED00E0064900F07F
:100AE000070208684FF6FF03184040EA0220034A55
:100AF00010430860704700000CED00E00000FA05AC
:100B00002DE9F0470F46050061D0434E306800F0F4
:100B10000700B84209D2306820F00700384330603F
:100B2000306800F00700B84251D128683B4C81077B
:100B300012D5400703D5606840F4E0606060287813
:100B4000000703D5606840F4605060606068A96881
:100B500020F0F000084360602878C00728D068685B
:100B6000012810D02168022810D0890700292EDA28
:100B7000616821F0030101436160FFF723FF8046B4
:100B800041F288390DE021688903EFE78901EDE73B
:100B9000FFF718FFA0EB0801494502D90320BDE883
:100BA000F0876068696800F00C00B0EB810FEFD14E
:100BB000306800F00700B8420BD9306820F0070019
:100BC00038433060306800F00700B84201D001209F
:100BD000E5E72878400705D56068E96820F4E0601B
:100BE000084360602878000706D56068296920F40A
:100BF000605040EAC100606000F038F86168084A5F
:100C0000C1F30311515CC8400649086006480068FA
:100C1000FFF7F8FE0020C2E700200240001002406B
:100C2000F02500081C00002014000020044805499D
:100C300000684968044AC1F30221515CC84070470A
:100C40001C0000200010024000260008044805494E
:100C500000684968044AC1F3C221515CC84070472A
:100C60001C000020001002400026000812A185B0E0
:100C70000FC98DE80F0014A0144A00680490516851
:100C8000134801F00C03042B10D0082B0ED1C1F334
:100C90008343C9031DF803000AD5516804AAC1F3B0
:100CA0004041515C0A4A5043B0FBF1F005B0704737
:100CB00008494843FAE7000002030405060708094B
:100CC0000A0B0C0D0E0F1010010200000010024064
:100CD00000127A0000093D002DE9F84F040070D0A1
:100CE0002078C04DC00749D06868C0F38100012852
:100CF00007D06868C0F38100022809D16868C00382
:100D000006D52868800339D560680028E7D035E02B
:100D10006068B0F5803F0BD010B1B0F5A02F11D0B6
:100D2000286820F480302860286820F4802002E0C1
:100D3000286840F480302860606890B1FFF742FE78
:100D400006460AE0286840F480202860F0E700BFEB
:100D5000FFF738FE801B642873D828688003F7D516
:100D60000CE0FFF72FFE064605E000BFFFF72AFE66
:100D7000801B6428F0D828688003F7D420789A4E26
:100D800080074FF001094FF0000839D5686810F06E
:100D90000C0F07D06868C0F38100022809D1686889
:100DA000C00306D42868800714D52069012808D11B
:100DB00010E02069B0B1C6F80090FFF703FE0746C7
:100DC00005E00AE1FFF7FEFDC01B0228C4D8286831
:100DD0008007F7D52868616920F0F80040EAC10073
:100DE00028600DE0C6F80080FFF7ECFD074604E040
:100DF000FFF7E8FDC01B022823D828688007F7D436
:100E0000207800072CD57948A169D9B1C0F80090A5
:100E1000FFF7D8FD074604E0FFF7D4FDC01B02280A
:100E20000FD8686A8007F7D571484FF4FA51006807
:100E3000B0FBF1F0009000BF0098411E0091FAD283
:100E40000EE080E0C0F80080FFF7BCFD074604E03C
:100E5000FFF7B8FDC01B022875D8686A8007F7D471
:100E60002078400760D5E8690027C00008D4E86909
:100E700040F08050E861E869012700F08050009060
:100E80005C480168C90513D40168834641F4807148
:100E90000160FFF797FD824606E000BFFFF792FD75
:100EA000A0EB0A0064284ED8DBF80000C005F5D599
:100EB000E06801280AD008B1052813D0286A20F07C
:100EC00001002862286A20F0040002E0286A40F04D
:100ED00001002862E06841F2883B98B1FFF772FD9B
:100EE00082460BE0286A40F004002862EEE700BF6B
:100EF000FFF768FDA0EB0A0159455AD8286A800718
:100F0000F6D50CE0FFF75EFD824605E0FFF75AFDDF
:100F1000A0EB0A0159454CD8286A8007F6D41FB1C6
:100F2000E86920F08050E861E06988B36968C1F33E
:100F30008101022944D00228C6F8608004D0FFF75E
:100F400041FD044638E034E0FFF73CFD074604E08D
:100F5000FFF738FDC01B02282BD828688001F7D482
:100F6000206AB0F5803F05D16868A16820F40030A0
:100F700008436860D4E908010843696821F47411E2
:100F800008436860C6F86090FFF71CFD044606E061
:100F900025E000BFFFF716FD001B022809D82868CE
:100FA0008001F7D51BE000BFFFF70CFD001B0228F6
:100FB00002D90320BDE8F88F28688001F4D40EE040
:100FC0000128F7D06868226A00F48031914204D188
:100FD000616A00F47010884201D00120EAE7002025
:100FE000E8E7000000100240000042428004424254
:100FF0001C0000200070004010B5401EB0F1807F42
:1010000001D3012010BD4FF0E02460610F21601773
:1010100001F016F80020A06107202061002010BD1B
:1010200010B590F83C20012A22D0012280F83C2003
:10103000CA688C6822F4407222434C6822F48062B1
:1010400022430C6822F4006222430C6922F480528D
:1010500022434C6922F400522243C969002322F43E
:1010600080420A4301684A6480F83C30002010BD89
:10107000022010BD70B590F83C20012A23D0012435
:1010800080F83C40022280F83D2003685A689D6841
:1010900022F070060A6832435A600C4B02689A428A
:1010A00005D0B2F1804F02D0094B9A4204D1496871
:1010B00025F080031943916080F83D40002180F8BD
:1010C0003C10084670BD022070BD0000002C01409D
:1010D0000004004010B5040003D094F83D0010B1A6
:1010E00007E0012010BD002084F83C00204600F0FD
:1010F0001FF8022084F83D00211D206800F08CFDBF
:10110000012084F8460084F83E0084F83F0084F80B
:10111000400084F8410084F8420084F8430084F8D9
:10112000440084F8450084F83D00002010BD000014
:1011300008B50C4A01680C48914207D1816941F415
:1011400000618161806900F4006009E0B1F1804FC5
:1011500007D1C16941F00101C161C06900F001001E
:10116000009008BD002C01400010024090F83D1096
:10117000012901D001207047022180F83D1001684B
:10118000CA6842F00102CA6000680A49884205D074
:10119000B0F1804F02D00849884204D1816801F043
:1011A0000701062903D0016841F001010160002018
:1011B00070470000002C01400004004070B5044658
:1011C00090F83C00012817D0012584F83C500220FB
:1011D00084F83D002068826822F0770222F47F4282
:1011E00082600868502830D00DDC20284DD005DC06
:1011F00098B310283BD148E0022070BD302844D07D
:10120000402834D139E0602828D0702806D0B0F5C5
:10121000805F2CD0B0F5005F29D10AE0CB68D1E91E
:101220000121206800F033FD2068816841F07701DA
:1012300009E0CB68D1E90121206800F028FD206891
:10124000816841F48041816011E0CA684968206882
:1012500000F0D2FD5021206807E016E0CA68496816
:10126000206800F0DAFD6021206800F01AFD84F8A3
:101270003D50002084F83C0070BDCA684968206871
:1012800000F0BAFD40212068EFE7226801461046D1
:10129000EBE7000000B585B00021009101910291BB
:1012A000039100680B49884212D10B48816941F0D3
:1012B000040181618069694600F0040004904FF4E4
:1012C000407000900220019003900448FFF794FAC8
:1012D00005B000BD002C0140001002400008014094
:1012E00010B5044690F83C0001280AD0012084F88B
:1012F0003C0042B1042A0AD0082A0CD00C2A11D191
:101300000DE0022010BD206800F0D4FC0AE0206847
:1013100000F0F8FC06E0206800F020FD02E0206804
:1013200000F048FD002084F83C0010BD10B504001A
:1013300003D094F83D0010B107E0012010BD00205B
:1013400084F83C00204600F01EF8022084F83D009E
:10135000211D206800F060FC012084F8460084F81C
:101360003E0084F83F0084F8400084F8410084F88F
:10137000420084F8430084F8440084F8450084F86F
:101380003D00002010BD704770B5044690F83C0049
:101390000D4601280AD0012084F83C0042B1042AFD
:1013A00018D0082A2AD00C2A4DD139E0022070BD6D
:1013B000206800F07FFC2068816941F008018161AC
:1013C0002068816921F004018161206881692A69AE
:1013D000114311E0206800F095FC2068816941F418
:1013E000006181612068816921F4806181612068E8
:1013F00081692A6941EA0221816124E0206800F0C4
:10140000ADFC2068C16941F00801C1612068C16973
:1014100021F00401C1612068C1692A69114311E00A
:10142000206800F0C7FC2068C16941F40061C16117
:101430002068C16921F48061C1612068C1692A699D
:1014400041EA0221C161002084F83C0070BD10B562
:10145000040003D094F83D0010B107E0012010BD56
:10146000002084F83C00204600F01EF8022084F89A
:101470003D00211D206800F0CFFB012084F84600CC
:1014800084F83E0084F83F0084F8400084F841006E
:1014900084F8420084F8430084F8440084F845004E
:1014A00084F83D00002010BD7047000010B50446D0
:1014B000022249B104290ED0082913D094F8410022
:1014C000012816D0012010BD94F83E000128F9D162
:1014D00084F83E200FE094F83F000128F2D184F810
:1014E0003F2008E094F840000128EBD184F8402028
:1014F00001E084F841200122206800F0BBFB0E4986
:101500002068884203D1426C42F400424264206861
:10151000884205D0B0F1804F02D00849884204D1FA
:10152000816801F00701062903D0016841F001013B
:101530000160002010BD0000002C014000040040AC
:101540007047000070B5026804461068D16853699E
:1015500010F00F0F52D003F0010501F490762E43E6
:101560005FD0C20705D0CA0503D5E26B42F0010285
:10157000E263420705D5DA0703D0E26B42F00202CC
:10158000E263820705D5DA0703D0E26B42F004027A
:10159000E263020707D501F020022A4303D0E26B81
:1015A00042F00802E263E26B002A33D0800604D5E1
:1015B000880602D5204600F058FC20684069E16B9F
:1015C000C0F38010090700D428B3204600F03FFC88
:1015D0002068416949061AD5416921F040014161FD
:1015E000606BA0B12D494163606BFFF785F800285F
:1015F00010D0606B416BBDE870400847830610D582
:101600008B060ED52046BDE8704000F02EBC20466B
:10161000FFF796FF70BD2046FFF792FF0020E063C2
:1016200070BD03062BD50B0629D594F83900212867
:10163000F6D1A068B0F5805F01D12069B0B1206A11
:10164000411C2162216800784860E08C401E000443
:10165000000CE084E4D12068C16821F08001C16001
:101660002068C16841F04001C16070BD206A0088F7
:10167000C0F308005060206A801C2062E5E7400645
:10168000F3D54806F1D5D168204621F04001D1605C
:10169000202184F8391000F066F970BD3F1E000863
:1016A00070B5040004D094F83900002510B106E0AC
:1016B000012070BD84F83850204600F023F8242023
:1016C00084F839002068C16821F40051C1602046C7
:1016D00000F012FC2068016921F49041016120684A
:1016E000416921F02A0141612068C16841F400513B
:1016F000C160E563202084F8390084F83A000020B6
:1017000070BD000030B585B00024009401940294AF
:1017100003942F4D03682F4802210322AB4231D19D
:10172000836943F480438361836903F480430493B2
:10173000836943F0080383618069274D00F0080046
:1017400004904020CDE90001039269462846FFF746
:1017500053F88020CDE90004694628460294FFF73B
:101760004BF81E48416841F0E06141F004014160DE
:10177000002211462520FFF791F92520FFF780F977
:1017800005B030BD164DAB42FAD1C36943F4003306
:10179000C361C36903F400330493836943F0040312
:1017A000836180690F4D00F0040004900420CDE9AE
:1017B0000001039269462846FFF71EF80820CDE98C
:1017C0000004694628460294FFF716F8D8E700009F
:1017D0000038014000100240000C014000000140B0
:1017E000004400400008014090F83A30202B22D1FC
:1017F000F9B1F2B190F83830012B1CD081628285AA
:10180000C2850021C163222280F83A2080F8381076
:101810000168CA6842F48072CA6001684A6942F08D
:1018200001024A610068C16841F02001C1600020E6
:1018300070470120704702207047000030B40068F4
:10184000194988422ED11949002408468B78C0785E
:1018500001F1080233B1012B0AD0022B0DD0032B6A
:101860000FD010E0FF280ED101238B7010700BE019
:10187000FF2808D25070022001E090700320887089
:1018800002E0FE2807D08C700849012230BCC91C38
:101890000748FFF7A9BF8C70D070B2F8010040BABA
:1018A000C880F1E730BC70470038014000000020DC
:1018B000B40000202DE9F843044690F839001F4693
:1018C00016460D4620284CD1C5B1BEB194F838005B
:1018D000012846D0012084F838004FF00008C4F8F1
:1018E0003C80212084F83900FFF76CF8A6848146FB
:1018F000E684A068B0F5805F03D004E00120BDE875
:10190000F883206928B12E465FF0000584F83880FE
:101910000EE00026FAE78021204600F049FBA0B93E
:10192000AEB116F8010B21684860E08C401EE084DF
:10193000E08C4B464FF0000200970028EBD14FF0AF
:101940004001204600F034FB30B10320D7E735F8E2
:10195000020BC0F30800E6E7202084F839000020DD
:10196000CDE70220CBE77047FEE7000000B585B069
:10197000002003901648816941F02001816181694E
:1019800001F020010491816941F0040181618169C4
:1019900001F004010491816941F0080181618069CD
:1019A000694600F0080004904FF4806000900948F8
:1019B0000190012002900848FEF71EFF0022114608
:1019C0002820FFF76BF82820FFF75AF805B000BD74
:1019D00000100240000021100008014010B596B030
:1019E00000240F9410941194129413941C216846AF
:1019F0001494FEF7AEFB202107A8FEF7AAFB2D48A2
:101A00002B4901604721C0E9011444F61F61C0E978
:101A100003148021C0E90541FFF75CFB08B1FEF724
:101A20006AFE4FF480500F900FA92248FFF7C6FBC3
:101A300008B1FEF760FE1F48FFF709FD08B1FEF789
:101A40005AFE139413A91B481494FFF713FB08B113
:101A5000FEF751FE6020CDE9000402940394049443
:101A600005940022694613480694FFF78DFC08B1DF
:101A7000FEF741FE042269460E48FFF785FC08B1D7
:101A8000FEF739FE0794089409944FF400500A9425
:101A9000CDE90B4007A907480E94FFF7C1FA08B13A
:101AA000FEF729FE0348FFF7F5FB16B010BD000056
:101AB000002C01402400002010B58EB000240794B3
:101AC000089409940A940B941C2168460C94FEF720
:101AD00040FB1D484FF0804101604721C0E90114DF
:101AE00044F61F61C0E9031480218161FFF7F2FA17
:101AF00008B1FEF700FE4FF48050079007A9124886
:101B0000FFF75CFB08B1FEF7F6FD0F48FFF70EFC90
:101B100008B1FEF7F0FD0B940BA90B480C94FFF7EE
:101B2000A9FA08B1FEF7E7FD00940194029400229F
:101B3000694605480494FFF7D3FB002801D0FEF75F
:101B4000DAFD0EB010BD00006C0000200C4810B58E
:101B50000A4901604FF4E1314160002181600C22AB
:101B6000C160C0E904128161C161FFF799FD0028DD
:101B700003D0BDE81040FEF7BEBD10BD00380140E7
:101B8000B40000200C4810B50A4901604FF4E1315F
:101B90004160002181600C22C160C0E904128161B2
:101BA000C161FFF77DFD002803D0BDE81040FEF7BE
:101BB000A2BD10BD00440040F4000020FEE77047C5
:101BC00070477047FEF704BF30B58FB028216846D4
:101BD000FEF7BFFA14210AA8FEF7BBFA0121080498
:101BE000CDE900100024029402250491CDE90750AC
:101BF0004FF4E01009906846FFF76EF80F20CDE92A
:101C00000A056802CDE90C4002210AA80E94FEF7ED
:101C100077FF0FB030BD704770B50268134B144C9E
:101C20004FF08046984203D0B04201D0A04203D189
:101C300022F070054A682A43984203D0B04201D08E
:101C4000A04203D122F44074CA6822434C6922F0B6
:101C50008002224302608A68C2620A6882629842F5
:101C600001D1096901630121416170BD002C01406E
:101C70000004004010B501F01F030121046A9940DF
:101C80008C430462016A9A401143016210BD10B591
:101C9000846842EA032224F47F440A432243826098
:101CA00010BD826822F070020A4342F00701816091
:101CB0007047000030B5026A22F001020262026A37
:101CC0004368846924F073050C682C4322F00205F4
:101CD0008A682A430A4DA8420BD122F00805CA6837
:101CE00023F440732A434D6922F004021D438B699B
:101CF0002B434360846149684163026230BD000048
:101D0000002C014030B5026A22F010020262026A21
:101D1000436884690D6824F4E64444EA05248D6828
:101D200022F0200242EA05120B4DA8420ED1CD68E6
:101D300022F0800242EA05124D6923F4406343EA2F
:101D400085038D6922F0400243EA85034360846184
:101D500049688163026230BD002C014030B5026ADF
:101D600022F480720262036A4268C46923F4007339
:101D700024F073050C682C438D6843EA05230C4D51
:101D8000A8420ED1CD6823F4006343EA05234D69D0
:101D900022F4405242EA05128D6923F4806342EA3C
:101DA00005124260C4614968C163036230BD00002E
:101DB000002C014030B5026A22F480520262046AAB
:101DC0004268C3690D6823F4E64343EA05238D683E
:101DD00024F4005444EA0534064DA84204D14D6968
:101DE00022F4804242EA85124260C361496801647C
:101DF000046230BD002C014010B5036A046A24F06F
:101E000001040462846924F0F00444EA021423F01B
:101E10000A020A438461026210BD10B5036A23F00E
:101E2000100303628369046A23F4704343EA0232B5
:101E300024F0A00343EA01118261016210BD10B5D4
:101E4000406A0021C185C184FFF77AFB10BD01689B
:101E5000CA6822F49072CA6001684A6922F00102DD
:101E60004A61202180F83A10704710B590F83A1076
:101E7000222901D0022010BD82684FF480539A427B
:101E800001D1016921B1816A9A421BD04AB10AE0AD
:101E90000268816A5268C2F308020A80816A891C5A
:101EA00008E0026972B10268526802F07F020A70AB
:101EB000816A491C8162C18D491E0904090CC185D2
:101EC00003D016E002685268F1E70168CA6822F0A0
:101ED0002002CA600168CA6822F48072CA60016880
:101EE0004A6922F001024A61202180F83A10FFF786
:101EF000A5FC002010BD000070B504460068016913
:101F0000E26821F44051114301612169A06808434E
:101F1000616908432168CA6841F20C639A4302432D
:101F2000CA6020684169A26921F44071114341618E
:101F30001E492068884202D1FEF788FE01E0FEF7C4
:101F400075FE00EBC00101EB0012606864218000A7
:101F5000B2FBF0F3B3FBF1F36FF018067343B2FB7F
:101F6000F0F5B2FBF0F605EB8305322303EB051524
:101F7000B5FBF1F5B6FBF1F605F0F00505EB06153E
:101F8000B2FBF0F6B2FBF0F0B0FBF1F06FF018022C
:101F9000504306EB800003EB0010B0FBF1F021682A
:101FA00000F00F002844886070BD00000038014038
:101FB0002DE9F041984617460E460446069D1DE061
:101FC000681C1BD02DB1FEF7FDFCA0EB0800A84259
:101FD00014D92068C16821F4D071C16020684169BA
:101FE00021F001014161202084F8390084F83A0091
:101FF000002084F838000320BDE8F08120680068E4
:1020000036EA000004D00020B842D9D00020F3E71F
:102010000120F9E70148FFF795BA0000B40000205D
:10202000FEE700000FB4024610B504A9034B039865
:1020300000F026F810BC5DF814FB000039220008FF
:102040000907090E002804DB00F1E02080F80014E5
:10205000704700F00F0000F1E02080F8141D704779
:1020600002E008C8121F08C1002AFAD17047704761
:10207000002001E001C1121F002AFBD170470000BF
:102080002DE9FF4F8BB09A460F460546002606E025
:1020900025280BD052460D9990476D1C761C287848
:1020A0000028F5D10FB03046BDE8F08F0024A046DF
:1020B0000122604900E0044315F8013F203B02FA89
:1020C00003F00842F7D128782E2817D115F8010F10
:1020D00044F004042A280ED06FF02F022878A0F1D3
:1020E000300109290AD808EB880102EB410100EB15
:1020F00001086D1CF2E757F8048B6D1C28786928DD
:102100003ED006DC0028CDD063280BD0642804D153
:1021100036E0732810D075284BD052460D99904761
:10212000761C85E017F8040B8DF8000000208DF870
:102130000100E946012003E057F8049B4FF0FF300F
:1021400061074FF0000401D40AE0641C44450DDA35
:102150008442FADB19F804100029F6D106E0641C69
:102160008442FCDB19F804100029F8D1264404E06D
:1021700019F8010B52460D999047641EF8D257E0AA
:1021800001CF4FF00A0B002802DA40422D2102E075
:10219000210504D52B218DF82410012103E0E1074E
:1021A00005D02021F7E70DF1200908910CE000216E
:1021B000F9E701CF4FF00A0BF9E75946FEF7CAF9E4
:1021C00001F1300209F8012D0028F6D1ADEB09002C
:1021D00000F1200B600701D44FF00108D84502DD63
:1021E000A8EB0B0000E000208046002406E009A8D0
:1021F0005246005D0D999047641C761C08988442F5
:10220000F5DB04E0302052460D999047761CB8F17A
:102210000001A8F10108F5DC05E019F8010B5246B0
:102220000D999047761CBBF10001ABF1010BF4DC7A
:102230006D1C34E70928010038B504468DF800000C
:102240000223012269460248FFF734FB204638BDCD
:10225000B400002008B5FEF7C3FBFFF7B5FCFFF79D
:1022600085FBFFF7BBFBFFF727FCFFF76FFCFFF7D2
:1022700089FC5748FEF77AFF00215648FFF716F908
:1022800004215448FFF712F9012253495348FFF73C
:10229000ABFA504E40F2DC503168486331688863D5
:1022A0004FF47A70FEF774FA4B4CDFF834A1DFF884
:1022B00034B14D4F4FF03339E41E6078042801D11A
:1022C00000206070C0B2207001282ED00328F4D105
:1022D000A420454B0090083B44A249A15248FFF777
:1022E000A1FE52A15048FFF79DFEE588A5F2DC5003
:1022F000002805463DDAC5F100052846FEF7E6F858
:102300004A465346FEF76AF800225B46FEF766F837
:102310000022494BFDF7F0FFFEF7FDF8C0B2207137
:102320008046002D12DB284611E03168E0884863C2
:1023300098202D4B0090083B2CA231A13A48FFF782
:1023400071FE3EA13848FFF76DFEB6E76842FEF722
:10235000B4F8054657F828003B49FDF78FFF3B4985
:10236000FDF75AFF2946FDF7FFFE3949FDF751FFFA
:1023700028E0A2DD2846FEF7A9F84A465346FEF7B4
:102380002DF800225B46FEF729F800222A4BFDF7C4
:10239000B3FFFEF7C0F8C0B220718046684200D596
:1023A0004042FEF78AF8054657F828002649FDF70F
:1023B00065FF2649FDF730FF2946FDF7D5FE244984
:1023C000FDF7D2FEFEF793F83168486375E7000029
:1023D0006C0000202400002003000020B400002036
:1023E0003333D33F008066405C2400082E2E2F43F9
:1023F0006F72652F5372632F6D61696E2E630000DB
:102400005B094442475D2846696C653A25732C2078
:1024100046756E633A257328292C204C696E653AFF
:102420002564293A200000002000002068656C6CBB
:102430006F330D0A0000000000409F4068656C6C1F
:102440006F310D0A00000000DB0F49400000FA4424
:102450000080BB446D61696E000000000000000058
:10246000295C0F3D295C8F3DF4FDD43D04560E3EA2
:10247000C520303EAAF1523E6ABC743E83C08A3EFB
:10248000BE9F9A3EFA7EAA3E23DBB93E39B4C83ECF
:102490003D0AD73E2FDDE43E21B0F23EEE7CFF3E0A
:1024A000DD24063F31080C3F85EB113F508D173F6F
:1024B00091ED1C3F4A0C223F79E9263FA8C62B3FED
:1024C0004E62303F6ABC343FFED4383F91ED3C3F12
:1024D0009CC4403F1D5A443F9EEF473F96434B3FAD
:1024E00004564E3F7368513FE17A543FC74B573F04
:1024F00023DB593F7F6A5C3FDBF95E3FAE47613FBC
:102500008195633FCBA1653F14AE673F5EBA693FDB
:102510001F856B3FDF4F6D3FA01A6F3F60E5703F37
:10252000986E723FCFF7733F7D3F753FB4C8763FDB
:102530006210783F1058793F355E7A3FE3A57B3FC4
:1025400008AC7C3F2DB27D3F52B87E3F77BE7F3FC7
:102550008941803F9CC4803FE926813F3789813F84
:1025600085EB813FD34D823F5C8F823FAAF1823F52
:102570003333833F8195833F0AD7833F9318843F4A
:102580001D5A843FE17A843F6ABC843FF4FD843F56
:10259000B81E853F4260853F0681853FCBA1853FC0
:1025A0008FC2853F54E3853F1904863FDD24863F73
:1025B000A245863F6666863F2B87863F2B87863FF0
:1025C000F0A7863FF0A7863FB4C8863FB4C8863FD1
:1025D00079E9863F79E9863F79E9863F79E9863F5F
:1025E00079E9863F79E9863F79E9863F79E9863F4F
:1025F00000000000000000000102030406070809B3
:10260000000000000102030428260008000000204A
:1026100024000000602000084C2600082400002050
:102620001405000070200008010100000000DC0516
:102630000000000000000000010000001000000089
:0C264000000000000024F4000000000076
:04000005080000ED02
:00000001FF
