:020000040800F2
:10000000C00500209D0100089F1A00086318000821
:100010009D1A0008450700082D2000080000000078
:10002000000000000000000000000000FF1A0008AF
:100030004707000800000000FD1A0008271B000801
:10004000B7010008B7010008B7010008B7010008B0
:10005000B7010008B7010008B7010008B7010008A0
:10006000B7010008B7010008B7010008B701000890
:10007000B7010008B7010008B7010008B701000880
:10008000B7010008B7010008B7010008B701000870
:10009000B7010008B7010008B7010008B701000860
:1000A000B7010008CD1B0008B7010008B701000820
:1000B000B7010008B7010008B7010008B701000840
:1000C000B7010008B7010008B7010008B701000830
:1000D000B7010008B7010008B7010008B701000820
:1000E000B7010008B7010008B7010008B701000810
:1000F000B7010008B7010008B7010008B701000800
:10010000B7010008B7010008B7010008B7010008EF
:10011000B7010008B7010008B7010008B7010008DF
:10012000B7010008B7010008B7010008B7010008CF
:10013000B7010008B7010008B7010008B7010008BF
:10014000B7010008B7010008B7010008B7010008AF
:10015000B7010008B7010008B7010008B70100089F
:10016000B7010008B7010008B7010008B70100088F
:10017000B7010008B7010008B7010008000000003F
:10018000B7010008B7010008DFF80CD000F0C8FA8A
:10019000004800476D200008C00500200648804741
:1001A00006480047FEE7FEE7FEE7FEE7FEE7FEE75C
:1001B000FEE7FEE7FEE7FEE7B11B00088901000845
:1001C0002DE9F05F0546002092469B46884606468C
:1001D000814640241BE0284641464746224600F01F
:1001E0001FFA53465A46C01A914110D31146184679
:1001F000224600F006FA2D1A67EB01084F46224608
:100200000120002100F0FDF917EB00094E41201EEE
:10021000A4F10104DFDC484631462A464346BDE8E6
:10022000F09FD2B201E000F8012B491EFBD27047CB
:100230000022F6E710B513460A4604461946FFF7B2
:10024000F0FF204610BD2DE9FE4F804681EA0300F5
:10025000C00F0C46009021F0004123F00045B8EBA0
:100260000200A94105D24046214690461C460B4655
:10027000024623F00040104347D0270DC7F30A0081
:10028000C3F30A510290401A019040286BDAC3F37D
:10029000130040F4801B0098924620B10023D2EB5B
:1002A000030A63EB0B0B01985946C0F1400250461C
:1002B00000F0A7F906460D4650465946019A00F04F
:1002C000BFF910EB08006141002487EA115284EA6B
:1002D000E7731A4340D0009A62B3019A012A4FEAA9
:1002E000075215DC001B61EB02014FF0004202EAED
:1002F0000752CDE90042001C41F5801132462B46E1
:1003000000F0BFF903B0BDE8F08F40462146F9E7A1
:10031000001B61EB0201001C41F5801300185B41DA
:100320002018A2F5001747EB030140EAD570B61973
:100330006D4111E06D084FEA360645EAC0754FEA97
:100340000752001B61EB0201001C41F580114908B6
:100350004FEA30000019514132462B4603B0BDE848
:10036000F04F00F07FB90098012240000023D0EB4D
:10037000020263EBE073009821464FEAE074B8EBA9
:10038000000061EB0401E9E783F000435BE781F0E3
:10039000004158E72DE9FE4F81EA030404F00044D0
:1003A00021F0004100944FF0000B23F0004350EA8D
:1003B00001045ED052EA03045BD0C3F30A54C1F3D4
:1003C0000A552C44A4F2F3340194A0FB0254C1F367
:1003D000130141F48011C3F3130343F4801301FBB1
:1003E000024400FB034E840A970A44EA815447EA18
:1003F0008357A4FB076802958D0A05FB07854FEA22
:10040000932C04FB0C542705029D4FEA065847EA3B
:100410001637B5EB08056EEB070C870E920E47EA10
:10042000811742EA8312A7FB0201B6EB0B0164EBD2
:1004300000042B0D43EA0C335E1844EB1C50DA46E3
:100440005146E7FB0201C5F313044FEA0B3343EABD
:1004500014534FEA0432019C43EA0603A4F10C044E
:100460000294009CCDE900B400F00BF903B0BDE8A4
:10047000F08F00200146F9E72DE9F04D81EA0304F1
:1004800004F0004B21F0004514464FF0000A23F021
:10049000004150EA050220D054EA01021DD0C5F304
:1004A0000A570246C5F31303C1F31300C1F30A56FA
:1004B00040F4801543F48013A7EB0608101BD646C2
:1004C00008F2FD3873EB050002D308F1010801E0E2
:1004D00092185B41B8F1000F03DA00200146BDE835
:1004E000F08D00204FF48011064684460EE0171B65
:1004F00073EB050705D3121B63EB050306434CEAB8
:10050000010C49084FEA300092185B4150EA01079C
:10051000EDD152EA030012D082EA040083EA050119
:10052000084305D0101BAB4106D20122002306E090
:1005300000224FF0004302E06FF0010253101AEB6B
:1005400006004CEB085110EB0A0041EB0B01BDE833
:10055000F04D00F087B80EB5C10F80EAE070084496
:10056000CA07002140F233438DE80E000A460B46CD
:1005700000F087F803B000BD0EB540F233410291A0
:100580000021CDE900110A460B4600F07AF803B0CD
:1005900000BD70B5C1F30A5201F000450024C1F35B
:1005A000130140F2FF3341F480119A4201DA002036
:1005B00070BD40F233439A42A2F2334203DC52420E
:1005C00000F02EF800E090402C43F1D0404270BD86
:1005D000C1F30A5210B5C1F3130140F2FF3341F4E5
:1005E00080119A4201DA002010BD40F233439A4252
:1005F000A2F2334203DC524200F012F810BD9040E8
:1006000010BD202A04DB203A00FA02F100207047D6
:100610009140C2F1200320FA03F319439040704740
:10062000202A04DB203A21FA02F00021704721FA47
:1006300002F3D040C2F120029140084319467047AE
:10064000202A06DBCB17203A41FA02F043EAE07396
:1006500006E041FA02F3D040C2F120029140084383
:100660001946704710B5141E73F1000408DA401CD7
:1006700041F1000192185B411A4301D120F00100C1
:1006800010BD2DE9F04D92469B4611B1B1FA81F2B1
:1006900002E0B0FA80F220329046FFF7B2FF044643
:1006A0000F4640EA0A0041EA0B0153465A46084306
:1006B00013D0114653EA010019D0C8F14002504648
:1006C000FFF7AEFF05460E46504659464246FFF735
:1006D00098FF084305D0012004E020463946BDE8D4
:1006E000F08D0020054346EAE0762C4337430A9814
:1006F0006305E40AA0EB08000022FD0A44EA47541F
:100700000A3002D500200146E9E7010510196941C8
:10071000DDE9084500196941BDE8F04DA2E7000098
:10072000064C074D06E0E06840F0010394E807003E
:1007300098471034AC42F6D3FFF72AFD0C2100088D
:100740002C210008FEE770477047000070B5044692
:1007500000F0EAF80546601C02D004480078044422
:1007600000F0E2F8401BA042FAD370BD1000002058
:100770002DE9F84F00224FF0010803254FF00F0E2E
:100780000B6808FA02F42340A3426ED14E68012E92
:1007900005D0022E03D0112E01D0122E12D1866860
:1007A0004FEA420C05FA0CF7BE43CF6807FA0CF784
:1007B000374387604668A6430C79C4F3001494401D
:1007C00034434460C668570005FA07FC8C6826EA83
:1007D0000C06BC403443C4604C68022C01D0122C7F
:1007E00013D1D40800EB8404A346D4F82090540716
:1007F0004FEAD46A0EFA0AF629EA06090E6906FAE1
:100800000AF646EA0906CBF8206006680C7926EA63
:100810000C0604F00304BC40344304604C68E4005C
:1008200065D5364C266846F480462660246822F05A
:10083000030604F480440094314C3444A446D4F8B4
:1008400008489607370F0EFA07F6B4432D4EB0420C
:1008500001D1002624E02C4EB04201D101261FE038
:100860002A4EB04202D102261AE040E0284EB042A1
:1008700001D1032614E0274EB04201D104260FE037
:10088000254EB04201D105260AE0244EB04201D1E6
:10089000062605E0224EB04201D1072600E00826D8
:1008A000BE402643CCF808681E4E34684F689C430F
:1008B000FF0300D51C4334601A4C241D26684F6882
:1008C0009E43BF0300D51E432660164E083634688B
:1008D0004F689C43FF0200D51C433460114E0C3618
:1008E00034684F689C43BF0200D51C433460521CDF
:1008F000102AFFF445AFBDE8F88F000044380240ED
:1009000000300140000002400004024000080240A4
:10091000000C024000100240001402400018024087
:10092000001C0240003C0140014880687047000004
:1009300010000020024881680278114481607047ED
:10094000100000200B4810B5016841F400710160EF
:10095000016841F480610160016841F480710160C7
:10096000032000F071F8002000F006F800F024F8F1
:10097000002010BD003C024070B50D4D04464FF400
:100980007A712878B1FBF0F00A490968B1FBF0F000
:1009900000F006FB48B9102C07D200222146501E59
:1009A00000F032F800206C6070BD012070BD0000C6
:1009B000100000201C0000200B4882B0016841F4A8
:1009C00080410160006800F4804000900648001FEC
:1009D000016841F080510160006800F08050009093
:1009E000052002B000F030B844380240002809DB8E
:1009F00000F01F02012191404009800000F1E02039
:100A0000C0F8001170470000F0B40E4B1B680C4694
:100A1000C3F30223C3F10705042D00D90425191DD2
:100A2000072901D2002300E0DB1E012606FA05F1AA
:100A3000491E214099409E40761E16403143F0BC2D
:100A400001F0F5BA0CED00E0064900F00702086875
:100A50004FF6FF03184040EA0220034A10430860A3
:100A6000704700000CED00E00000FA052DE9F047AA
:100A70000E46050065D0DFF81481D8F80000F7B203
:100A800000F00F00B04207D288F80070D8F80000DC
:100A900000F00F00B04254D128683D4C810712D5B8
:100AA000400703D5206840F4E05020602878000714
:100AB00003D5206840F4604020602068A96820F0D9
:100AC000F000084320602878C0072DD030496868BE
:100AD0000839012812D0022813D0032811D0096840
:100AE000890700292DDA216821F0030101432160E3
:100AF000FFF71AFF814641F2883A0EE00968890340
:100B0000EFE709688901ECE7FFF70EFFA0EB0901A9
:100B1000514502D90320BDE8F0872068696800F0DC
:100B20000C00B0EB810FEFD1D8F80010404601F077
:100B30000F01B14207D90770006800F00F00B04202
:100B400001D00120E7E72878400705D52068E9684B
:100B500020F4E050084320602878000706D520687C
:100B6000296920F4604040EAC100206000F038F8B4
:100B70002168084AC1F30311515CC8400649086066
:100B800006480068FFF7F8FE0020C4E7003C02407A
:100B900008380240F42000081C0000201400002047
:100BA0000448054900680968044AC1F38221515C80
:100BB000C84070471C00002008380240042100088B
:100BC0000448054900680968044AC1F34231515C90
:100BD000C84070471C00002008380240042100086B
:100BE000154810B5006810F00C02144813D01449D1
:100BF000042A0FD0082A0ED10F4C241F2268236824
:100C000002F03F025B0207D52068C0F38810A0FB0A
:100C1000010106E0084610BD2168C1F38811A1FB5F
:100C200000010023FFF7CCFA2168C1F30141491C00
:100C30004900B0FBF1F010BD083802400024F40078
:100C400040787D012DE9F84F04006ED02078DFF860
:100C50003C93C007A9F104054AD009F104000168DA
:100C6000C1F38101012908D00068C0F38100022886
:100C70000AD1D9F80000400206D52868800337D58C
:100C800060680028E1D033E06068B0F5803F10D0A4
:100C9000B0F5A02F286810D020F480302860286894
:100CA00020F4802028606068A8B1FFF73DFE06466A
:100CB0000DE0286840F48030F4E740F4802028609C
:100CC000F7E700BFFFF730FE801B642873D8286861
:100CD0008003F7D50CE0FFF727FE064605E000BFCE
:100CE000FFF722FE801B6428F0D828688003F7D421
:100CF0002078DFF89C8280074FF0000A3ED5A34899
:100D0000001D016811F00C0F08D00068C0F38100CD
:100D100002280BD1D9F80000400207D428688007C8
:100D200016D5E068012800D112E02BE1E068B8B1E7
:100D30000120C8F80000FFF7F7FD064605E000BFF8
:100D4000FFF7F2FD801B0228C0D828688007F7D57E
:100D50002868216920F0F80040EAC10028600DE011
:100D6000C8F800A0FFF7E0FD064604E0FFF7DCFD51
:100D7000801B02281FD828688007F7D42078000736
:100D800022D5824E83486169703671B101210160BC
:100D9000FFF7CAFD074604E0FFF7C6FDC01B0228A7
:100DA00009D830688007F7D50EE0C0F800A0FFF73B
:100DB000BBFD074605E082E0FFF7B6FDC01B022839
:100DC0007DD830688007F7D42078400768D5DFF8F1
:100DD000BCB100270BF13C0BDBF80000C0000BD4CA
:100DE000DBF8001041F08051CBF80010DBF8000078
:100DF000012700F080500090674E3068C00510D485
:100E0000306840F480703060FFF78EFD009005E0A0
:100E1000FFF78AFD0099401A022850D83068C005B3
:100E2000F6D55A4EA0686C3601280FD005283068D8
:100E300010D020F001003060306820F004003060F5
:100E4000A068B8B1FFF770FD00900FE0306840F087
:100E50000100F4E740F004003060F7E7FFF764FDBD
:100E60000099411A41F28830814266D83068800783
:100E7000F4D50EE0FFF758FD009007E0FFF754FDB2
:100E80000099411A41F28830814256D83068800773
:100E9000F4D42FB1DBF8001021F08051CBF8001012
:100EA000A069C8B33949091D0968C1F38101022944
:100EB0004AD00228504607D0C8F8600000E03CE065
:100EC000FFF732FD04463BE04746C8F86000FFF7F5
:100ED0002BFD064605E000BFFFF726FD801B02281C
:100EE0002BD828688001F7D4D4E907010843A16A08
:100EF0002A4A490802EB0141626A41EA8211084329
:100F000094F82C1040EA0161C9F8001001203866FD
:100F1000FFF70AFD044606E036E000BFFFF704FDD8
:100F2000001B022809D828688001F7D52CE000BFF3
:100F3000FFF7FAFC001B022802D90320BDE8F88F56
:100F400028688001F4D41FE00128F7D0D9F8000008
:100F5000E26900F48001914214D1226A00F03F015D
:100F600091420FD147F6C071626A0140914209D1A6
:100F7000A26A00F44031914204D1E16A00F070604D
:100F8000884201D00120D9E70020D7E70438024089
:100F900000004742800E4742007000400000FFFF03
:100FA00010B5401EB0F1807F01D3012010BD4FF07D
:100FB000E02460610F21601701F039F80020A06182
:100FC00007202061002010BD7047704770B590F871
:100FD0003C20012A32D0012480F83C40022280F8D3
:100FE0003D2003685A689D6822F070060A68324303
:100FF0005A60134B02689A4214D0B2F1804F11D05C
:10100000104B9A420ED0104B9A420BD00F4B9A4283
:1010100008D00F4B9A4205D00E4B9A4202D00E4B8D
:101020009A4204D1496825F080031943916080F801
:101030003D40002180F83C10084670BD022070BD84
:10104000000001400004004000080040000C004087
:1010500000040140004001400018004010B50400A9
:1010600003D094F83D0010B107E0012010BD00202E
:1010700084F83C00204600F00DF8022084F83D0082
:10108000211D206800F0A8FD012084F83D0000200B
:1010900010BD000008B5184A01681848914211D1E6
:1010A000016841F0010101600068002200F00100C8
:1010B000009001211920FFF7A7FCBDE80840192086
:1010C000FFF794BC0E4A914209D10C48001F0168F9
:1010D00041F002010160006800F0020009E0094AE5
:1010E000914207D1016841F480310160006800F449
:1010F0008030009008BD00000000014044380240EC
:1011000000040040004001400168CA6842F001024A
:10111000CA600068816801F00701062903D00168F0
:1011200041F0010101600020704770B5044690F85D
:101130003C00012817D0012584F83C50022084F897
:101140003D002068826822F0770222F47F428260AC
:101150000868502830D00DDC20284DD005DC98B32D
:1011600010283BD148E0022070BD302844D04028F0
:1011700034D139E0602828D0702806D0B0F5805FDF
:101180002CD0B0F5005F29D10AE0CB68D1E901216C
:10119000206800F092FD2068816841F0770109E045
:1011A000CB68D1E90121206800F087FD20688168C3
:1011B00041F48041816011E0CA684968206800F00C
:1011C00051FE5021206807E016E0CA68496820688F
:1011D00000F059FE6021206800F079FD84F83D5050
:1011E000002084F83C0070BDCA684968206800F09F
:1011F00039FE40212068EFE7226801461046EBE700
:10120000704770B50446006801694FF00005C94396
:10121000890715D4C168C943890711D4E91E016142
:1012200001202077206880698007204602D0FFF7E0
:10123000E7FF04E000F0DAF8204600F05CF92577DB
:1012400020680169C943490717D4C168C9434907E0
:1012500013D46FF0040101610220207720688069B7
:1012600010F4407F204602D0FFF7CAFF04E000F0F0
:10127000BDF8204600F03FF9257720680169C94391
:10128000090716D4C168C943090712D46FF00801D1
:101290000161042020772068C0698007204602D0C1
:1012A000FFF7AEFF04E000F0A1F8204600F023F9BC
:1012B000257720680169C943C90617D4C168C943A5
:1012C000C90613D46FF0100101610820207720684F
:1012D000C06910F4407F204602D0FFF791FF04E080
:1012E00000F084F8204600F006F9257720680169AF
:1012F000C943C90708D1C168C943C90704D1891EB8
:101300000161204600F01AF920680169C943090605
:1013100009D4C168C943090605D46FF08001016191
:101320002046FFF751FE20680169C943490609D4E8
:10133000C168C943490605D46FF0400101612046E8
:1013400000F0E6F920680169C94389060BD4C16839
:10135000C943890607D46FF0200101612046BDE82A
:101360007040FFF732BE70BD10B586B00446142140
:101370006846FEF75DFF2368174C002117480222DC
:10138000A34210D1036843F001030360006800F03A
:101390000100059040200090CDE90121CDE9031224
:1013A00069460F4813E00F4CA34212D1036843F083
:1013B00010030360006800F01000059020200090EA
:1013C000CDE901210320CDE9031069460648FFF766
:1013D000CFF906B010BD00000004004030380240D4
:1013E000000002400040014000100240704770B50C
:1013F000044690F83C000D4601280DD0012684F8E3
:101400003C60022084F83D0042B1042A18D0082A2A
:101410002AD00C2A4DD139E0022070BD206800F09E
:101420005FFC2068816941F0080181612068816961
:1014300021F004018161206881692A69114311E06A
:10144000206800F07DFC2068816941F400618161C1
:101450002068816921F480618161206881692A693D
:1014600041EA0221816124E0206800F09FFC2068AD
:10147000C16941F00801C1612068C16921F004011E
:10148000C1612068C1692A69114311E0206800F038
:10149000C1FC2068C16941F40061C1612068C16973
:1014A00021F48061C1612068C1692A6941EA022191
:1014B000C16184F83D60002084F83C0070BD10B527
:1014C000040003D094F83D0010B107E0012010BDE6
:1014D000002084F83C00204600F00CF8022084F83C
:1014E0003D00211D206800F077FB012084F83D00BD
:1014F000002010BD7047704710B5044600680122F7
:1015000000F0CEFB0B492068884202D00A4988428D
:1015100003D1416C41F4004141642068816801F0CD
:101520000701062903D0016841F001010160002094
:1015300010BD000000000140000401402DE9F0470B
:101540006B492DED068B0068096888427ED1DFF873
:10155000A481694C98F803006083217F401A45B24A
:10156000A5772846FEF7F7FF894649EC100B06469B
:101570009FED628B51EC100B53EC182BFEF70AFF1A
:1015800041EC190B606AFEF7E6FF53EC192BFEF7EE
:101590005AFEFEF7FEFF0746606294F91800281A0B
:1015A000FEF7D9FF53EC182BFEF766FFFEF7F1FFAD
:1015B000A062FEF7D0FF94ED041B53EC112BFEF755
:1015C000E9FE41EC190B3846FEF7C5FF94ED021B0E
:1015D00053EC112BFEF7DEFE49EC106B94ED001B73
:1015E00041EC1A0B53EC112B51EC100BFEF7D2FE11
:1015F00053EC1A2BFEF727FE53EC192BFEF723FEB4
:1016000041EC190B3F480088FEF7B6FF53EC192B4D
:10161000FEF7BAFEFEF7DCFF208425763A4C98F8F8
:1016200004006083217F401A45B2A5772846FEF763
:1016300092FF884648EC100B064653EC182B51ECF1
:10164000100BFEF7A7FE41EC190B00E04BE0606ABF
:10165000FEF781FF53EC192BFEF7F5FDFEF799FF1E
:101660000746606294F91800281AFEF774FF53ECDD
:10167000182BFEF701FFFEF78CFFA062FEF76BFF51
:1016800094ED041B53EC112BFEF784FE41EC180B78
:101690003846FEF760FF94ED021B53EC112BFEF76A
:1016A00079FE48EC106B94ED001B41EC190B53ECE8
:1016B000112B51EC100BFEF76DFE53EC192BFEF7BE
:1016C000C2FD53EC182BFEF7BEFD41EC180B0F4882
:1016D0000088FEF751FF53EC182BFEF7B4FDFEF720
:1016E00077FF20842576BDEC068BBDE8F0870000EF
:1016F0002000002000000020600100207B14AE4785
:10170000E17A943F0C000020900100200E000020A0
:10171000704770B5040004D094F83900002510B16A
:1017200006E0012070BD84F83850204600F022F811
:10173000242084F839002068C16821F40051C16078
:10174000204600F0DFFB2068016921F4904101612F
:101750002068416921F02A0141612068C16841F493
:101760000051C160E563202084F8390084F83A0014
:10177000002070BDF0B587B0044614216846FEF71E
:1017800057FD1F4F236800221E4902240325072608
:101790001D48BB4213D11B4B14331F6847F0100781
:1017A0001F601B6803F0100305930B6843F00103EF
:1017B0000B60096801F001010591690215E0134F02
:1017C000BB421AD10F4B10331F6847F400371F601C
:1017D0001B6803F4003305930B6843F001030B60AF
:1017E000096801F0010105910C21CDE9001402AB5B
:1017F000694683E86400FEF7BBFF07B0F0BD000058
:101800000010014030380240000002400044004017
:1018100090F83A30202B22D1F9B1F2B190F838305B
:10182000012B1CD081628285C2850021C1632222E6
:1018300080F83A2080F838100168CA6842F4807253
:10184000CA6001684A6942F001024A610068C168E1
:1018500041F02001C1600020704701207047022044
:101860007047FEE70D4808B5016841F010010160BE
:10187000016801F010010091016841F080010160F0
:10188000016801F080010091016841F001010160EF
:10189000006800F00100009008BD000030380240F0
:1018A00010B586B000241848009401940294039463
:1018B0000494144905940160A721C0E9011444F679
:1018C0001F61C0E903148021C0E90541FFF7C6FB91
:1018D00008B1FEF739FF4FF48050009069460A487E
:1018E000FFF723FC08B1FEF72FFF049404A9064874
:1018F0000594FFF76BFB002801D0FEF725FF06B02B
:1019000010BD0000000001402000002010B58EB086
:1019100000240794089409940A940B941C216846A7
:101920000C94FEF785FC1F481D4901605321C0E956
:10193000011442F20F71C0E9031480218161FFF7A5
:101940008DFB08B1FEF700FF4FF48050079007A908
:101950001448FFF7EAFB08B1FEF7F6FE1148FFF75F
:10196000AEFD08B1FEF7F0FE0B940BA90D480C94E8
:10197000FFF72CFB08B1FEF7E7FE6020CDE900047D
:1019800002940022694607480494FFF730FD08B12D
:10199000FEF7DAFE0348FFF7E7FC0EB010BD0000CB
:1019A000000400406000002010B58CB000240794B3
:1019B000089409941C2168460A94FEF739FC1A48D9
:1019C00018490160A721C0E9011442F20F71C0E972
:1019D000031480218161FFF741FB08B1FEF7B4FEDB
:1019E0004FF48050079007A90F48FFF79EFB08B1FE
:1019F000FEF7AAFE0C48FFF762FD08B1FEF7A4FE51
:101A00006020CDE90004029400226946064804944F
:101A1000FFF7EDFC08B1FEF797FE0348FFF7A4FCC3
:101A20000CB010BD00400140A00000200C4810B5D3
:101A30000A4901604FF4E1314160002181600C22CC
:101A4000C160C0E904128161C161FFF762FE002834
:101A500003D0BDE81040FEF777BE10BD0010014076
:101A6000E00000200C4810B50A4901604FF4E13154
:101A70004160002181600C22C160C0E904128161D3
:101A8000C161FFF746FE002803D0BDE81040FEF715
:101A90005BBE10BD0044004020010020FEE77047FF
:101AA00011489FED0F0B9FED111B002180EC040BE3
:101AB0009F2280ED041B01764162828340F2DC525A
:101AC0000284303080ED000B9FED0A0B80ED020B9D
:101AD00080ED040B017641626021818302847047AE
:101AE000333333333333C33F60010020FCA9F1D2D9
:101AF0004D62503F0000000000000000704770473A
:101B000010B54FF42F7422460121032000F0CEF9C6
:101B100022460121092000F0C9F9BDE810404FF428
:101B20007A70FEF713BEFEF705BF000030B593B024
:101B300030216846FEF77CFB14210CA8FEF778FBE9
:101B400019480025016841F080510160006800F0EB
:101B5000805011901548016841F48041016000688F
:101B6000022400F480401190012003901020049082
:101B7000009406940820CDE90750A820CDE9090477
:101B800004200B906846FFF75DF80CA90F2081E850
:101B900031004FF4A0500F90E002109005210CA8E6
:101BA000FEF764FF13B030BD4038024000700040C3
:101BB0000548016841F47001016003494FF000607D
:101BC000803908607047000088ED00E00148FFF7A9
:101BD00018BB000020000020F0B50268254C264DFF
:101BE000264E274F274B4FF0804CA04209D060452E
:101BF00007D0A84205D0B04203D0B84201D09842E5
:101C000004D122F0700E4A6842EA0E02A0421BD0B4
:101C1000604519D0A84217D0B04215D0B84213D0B1
:101C2000984211D0184DA8420ED0184DA8420BD0A2
:101C3000174DA84208D0174DA84205D0164DA8420E
:101C400002D0164DA84203D122F44075CA682A4337
:101C50004D6922F080022A4302608A68C2620A68E3
:101C60008262A04201D0984201D109690163012139
:101C70004161F0BD00000140000400400008004048
:101C8000000C0040000401400040014000440140BD
:101C90000048014000180040001C004000200040A7
:101CA00010B501F01F030121046A99408C430462BE
:101CB000016A9A401143016210BD10B5846842EA7E
:101CC000032224F47F440A432243826010BD8268C9
:101CD00022F070020A4342F0070181607047000061
:101CE000F0B5026A22F001020262036A4268846966
:101CF000124E24F073050C682C4323F002058B6808
:101D00002B430D4DA84201D0B04205D123F0080766
:101D1000CB683B4323F00403A84201D0B04205D175
:101D20004D6922F4407215438A692A4342608461F6
:101D3000496841630362F0BD0000014000040140B6
:101D4000F0B5026A22F010020262026A43688469F6
:101D50000D6824F4E64444EA05248D6822F020024C
:101D600042EA05120F4D104EA84201D0B04206D1F2
:101D7000CF6822F0800242EA071222F04002A84215
:101D800001D0B04207D14D6923F4406343EA850393
:101D90008D6943EA85034360846149688163026217
:101DA000F0BD00000000014000040140F0B5026AEF
:101DB00022F480720262026A4368C46922F40072EB
:101DC00024F073050C68124E2C438D6842EA0522FC
:101DD0000E4DA84201D0B04206D1CF6822F4006275
:101DE00042EA072222F48062A84201D0B04207D121
:101DF0004D6923F4405343EA05138D6943EA051303
:101E00004360C4614968C1630262F0BD00000140E3
:101E10000004014030B5026A22F480520262046A72
:101E20004268C3690D6823F4E64343EA05238D68DD
:101E300024F4005444EA0534084DA84202D0084D69
:101E4000A84204D14D6922F4804242EA85124260E0
:101E5000C36149680164046230BD000000000140B4
:101E60000004014010B5036A046A24F0010404620E
:101E7000846924F0F00444EA021423F00A020A43BD
:101E80008461026210BD10B5036A23F0100303627F
:101E90008369046A23F4704343EA023224F0A00306
:101EA00043EA01118261016210BD000030B5134C9C
:101EB00040F6C4154FF4FA73032807D0092812D14D
:101EC000012910D1AA420FD32A4610E001290AD1D4
:101ED000AA4201D32A4602E09A4200D81A4608488C
:101EE00000684263228030BD9A4200D81A460448F6
:101EF000403000684263628030BD00000C0000206A
:101F0000600000202DE9F041044600680169E268A4
:101F100021F44051114301612169A068E26908433D
:101F20006169114308432168CA6849F20C639A4306
:101F30000243CA6020684169A26921F440711143DB
:101F40004161E069192764253226B0F5004F354A12
:101F5000354920684FF0000806D0884201D09042F1
:101F600036D1FEF72DFE35E0884201D0904202D1F5
:101F7000FEF726FE01E0FEF713FE61684A18A0FB9B
:101F8000070148EB0803FEF71BF90146B0FBF5F02B
:101F90000201B1FBF5F06FF01803584301EB80002C
:101FA00006EBC000B0FBF5F000F0F80002EB4002D9
:101FB000B1FBF5F0584301EB800006EBC000B0FB2D
:101FC000F5F000F00700216810448860BDE8F0815A
:101FD000FEF7E6FD61688B0F8A00A0FB0701FEF7A4
:101FE000EFF80146B0FBF5F06FF01802504301EB3B
:101FF000800006EB0010B0FBF5F000F0F002B1FB42
:10200000F5F002EB0012B1FBF5F06FF01803584346
:1020100001EB800006EB0010B0FBF5F000F00F00C4
:10202000D1E700000014014000100140FEE709075D
:10203000090E002804DB00F1E02080F8001470474E
:1020400000F00F0000F1E02080F8141D704702E05E
:1020500008C8121F08C1002AFAD170477047002033
:1020600001E001C1121F002AFBD17047FEF76AFC94
:10207000FFF75CFDFFF7F6FBFFF748FCFFF794FC6A
:10208000FFF7D4FCFFF7EEFCFFF70AFC1448FFF75C
:102090003BF800211348FFF72FFA00211248FFF701
:1020A0002BFA012211491248FFF7B2FBFFF7F8FCA7
:1020B000FFF726FDFFF7F4FC4FF47A7440F6241581
:1020C00040F2DC562046FEF741FB2A460121032060
:1020D000FFF7ECFE324601210920FFF7E7FEF1E7AA
:1020E0002000002060000020A0000020020000204E
:1020F000E0000020000000000000000001020304D6
:102100000607080900000000010203042C21000852
:1021100000000020200000004E2000084C21000894
:1021200020000020A00500005E2000080000000044
:10213000000000000000000000000000010000009E
:0C21400010000000000000000024F4006B
:040000050800018965
:00000001FF
